{
	"data": {
		"bytecode": {
			"linkReferences": {},
			"object": "6080604052600a5f55737a58c0be72be218b41c608b7fe7c5bb630736c7160015f6101000a81548173ffffffffffffffffffffffffffffffffffffffff021916908373ffffffffffffffffffffffffffffffffffffffff1602179055506040518060400160405280600481526020017f3078414100000000000000000000000000000000000000000000000000000000815250600290816100a0919061037a565b506040518060400160405280600560ff168152602001600660ff1681525060039060026100ce9291906100e0565b503480156100da575f80fd5b50610449565b8260028101928215610114579160200282015b82811115610113578251829060ff169055916020019190600101906100f3565b5b5090506101219190610125565b5090565b5b8082111561013c575f815f905550600101610126565b5090565b5f81519050919050565b7f4e487b71000000000000000000000000000000000000000000000000000000005f52604160045260245ffd5b7f4e487b71000000000000000000000000000000000000000000000000000000005f52602260045260245ffd5b5f60028204905060018216806101bb57607f821691505b6020821081036101ce576101cd610177565b5b50919050565b5f819050815f5260205f209050919050565b5f6020601f8301049050919050565b5f82821b905092915050565b5f600883026102307fffffffffffffffffffffffffffffffffffffffffffffffffffffffffffffffff826101f5565b61023a86836101f5565b95508019841693508086168417925050509392505050565b5f819050919050565b5f819050919050565b5f61027e61027961027484610252565b61025b565b610252565b9050919050565b5f819050919050565b61029783610264565b6102ab6102a382610285565b848454610201565b825550505050565b5f90565b6102bf6102b3565b6102ca81848461028e565b505050565b5b818110156102ed576102e25f826102b7565b6001810190506102d0565b5050565b601f82111561033257610303816101d4565b61030c846101e6565b8101602085101561031b578190505b61032f610327856101e6565b8301826102cf565b50505b505050565b5f82821c905092915050565b5f6103525f1984600802610337565b1980831691505092915050565b5f61036a8383610343565b9150826002028217905092915050565b61038382610140565b67ffffffffffffffff81111561039c5761039b61014a565b5b6103a682546101a4565b6103b18282856102f1565b5f60209050601f8311600181146103e2575f84156103d0578287015190505b6103da858261035f565b865550610441565b601f1984166103f0866101d4565b5f5b82811015610417578489015182556001820191506020850194506020810190506103f2565b868310156104345784890151610430601f891682610343565b8355505b6001600288020188555050505b505050505050565b6108ca806104565f395ff3fe608060405234801561000f575f80fd5b506004361061003f575f3560e01c80638e5d2e6a14610043578063b902856514610061578063f550c5811461007f575b5f80fd5b61004b6100af565b60405161005891906102e5565b60405180910390f35b610069610100565b60405161007691906102e5565b60405180910390f35b61009960048036038101906100949190610396565b610151565b6040516100a691906103e3565b60405180910390f35b60605f5460015f9054906101000a900473ffffffffffffffffffffffffffffffffffffffff16600260036040516020016100ec94939291906105f6565b604051602081830303815290604052905090565b60605f5460015f9054906101000a900473ffffffffffffffffffffffffffffffffffffffff166002600360405160200161013d94939291906107bc565b604051602081830303815290604052905090565b5f805f8473ffffffffffffffffffffffffffffffffffffffff168460405160240161017c91906103e3565b6040516020818303038152906040527f4018d9aa000000000000000000000000000000000000000000000000000000007bffffffffffffffffffffffffffffffffffffffffffffffffffffffff19166020820180517bffffffffffffffffffffffffffffffffffffffffffffffffffffffff8381831617835250505050604051610206919061083f565b5f604051808303815f865af19150503d805f811461023f576040519150601f19603f3d011682016040523d82523d5f602084013e610244565b606091505b509150915081610252575f80fd5b5f818060200190518101906102679190610869565b905080935050505092915050565b5f81519050919050565b5f82825260208201905092915050565b8281835e5f83830152505050565b5f601f19601f8301169050919050565b5f6102b782610275565b6102c1818561027f565b93506102d181856020860161028f565b6102da8161029d565b840191505092915050565b5f6020820190508181035f8301526102fd81846102ad565b905092915050565b5f80fd5b5f73ffffffffffffffffffffffffffffffffffffffff82169050919050565b5f61033282610309565b9050919050565b61034281610328565b811461034c575f80fd5b50565b5f8135905061035d81610339565b92915050565b5f819050919050565b61037581610363565b811461037f575f80fd5b50565b5f813590506103908161036c565b92915050565b5f80604083850312156103ac576103ab610305565b5b5f6103b98582860161034f565b92505060206103ca85828601610382565b9150509250929050565b6103dd81610363565b82525050565b5f6020820190506103f65f8301846103d4565b92915050565b61040581610328565b82525050565b7f4e487b71000000000000000000000000000000000000000000000000000000005f52602260045260245ffd5b5f600282049050600182168061044f57607f821691505b6020821081036104625761046161040b565b5b50919050565b5f82825260208201905092915050565b5f819050815f5260205f209050919050565b5f815461049681610438565b6104a08186610468565b9450600182165f81146104ba57600181146104d057610502565b60ff198316865281151560200286019350610502565b6104d985610478565b5f5b838110156104fa578154818901526001820191506020810190506104db565b808801955050505b50505092915050565b5f60029050919050565b5f81905092915050565b5f819050919050565b61053181610363565b82525050565b5f6105428383610528565b60208301905092915050565b5f815f1c9050919050565b5f819050919050565b5f61057461056f8361054e565b610559565b9050919050565b5f6105868254610562565b9050919050565b5f600182019050919050565b6105a28161050b565b6105ac8184610515565b92506105b78261051f565b805f5b838110156105ee576105cb8261057b565b6105d58782610537565b96506105e08361058d565b9250506001810190506105ba565b505050505050565b5f60a0820190506106095f8301876103d4565b61061660208301866103fc565b8181036040830152610628818561048a565b90506106376060830184610599565b95945050505050565b5f819050919050565b61065a61065582610363565b610640565b82525050565b5f8160601b9050919050565b5f61067682610660565b9050919050565b5f6106878261066c565b9050919050565b61069f61069a82610328565b61067d565b82525050565b5f81905092915050565b5f81546106bb81610438565b6106c581866106a5565b9450600182165f81146106df57600181146106f457610726565b60ff1983168652811515820286019350610726565b6106fd85610478565b5f5b8381101561071e578154818901526001820191506020810190506106ff565b838801955050505b50505092915050565b5f81905092915050565b61074281610363565b82525050565b5f6107538383610739565b60208301905092915050565b6107688161050b565b610772818461072f565b925061077d8261051f565b805f5b838110156107b4576107918261057b565b61079b8782610748565b96506107a68361058d565b925050600181019050610780565b505050505050565b5f6107c78287610649565b6020820191506107d7828661068e565b6014820191506107e782856106af565b91506107f3828461075f565b60408201915081905095945050505050565b5f81905092915050565b5f61081982610275565b6108238185610805565b935061083381856020860161028f565b80840191505092915050565b5f61084a828461080f565b915081905092915050565b5f815190506108638161036c565b92915050565b5f6020828403121561087e5761087d610305565b5b5f61088b84828501610855565b9150509291505056fea2646970667358221220ad7d3d1d7a5d67eee4822a2584f832d9250df59a3e828fd905ef5411542ec64164736f6c634300081a0033",
			"opcodes": "PUSH1 0x80 PUSH1 0x40 MSTORE PUSH1 0xA PUSH0 SSTORE PUSH20 0x7A58C0BE72BE218B41C608B7FE7C5BB630736C71 PUSH1 0x1 PUSH0 PUSH2 0x100 EXP DUP2 SLOAD DUP2 PUSH20 0xFFFFFFFFFFFFFFFFFFFFFFFFFFFFFFFFFFFFFFFF MUL NOT AND SWAP1 DUP4 PUSH20 0xFFFFFFFFFFFFFFFFFFFFFFFFFFFFFFFFFFFFFFFF AND MUL OR SWAP1 SSTORE POP PUSH1 0x40 MLOAD DUP1 PUSH1 0x40 ADD PUSH1 0x40 MSTORE DUP1 PUSH1 0x4 DUP2 MSTORE PUSH1 0x20 ADD PUSH32 0x3078414100000000000000000000000000000000000000000000000000000000 DUP2 MSTORE POP PUSH1 0x2 SWAP1 DUP2 PUSH2 0xA0 SWAP2 SWAP1 PUSH2 0x37A JUMP JUMPDEST POP PUSH1 0x40 MLOAD DUP1 PUSH1 0x40 ADD PUSH1 0x40 MSTORE DUP1 PUSH1 0x5 PUSH1 0xFF AND DUP2 MSTORE PUSH1 0x20 ADD PUSH1 0x6 PUSH1 0xFF AND DUP2 MSTORE POP PUSH1 0x3 SWAP1 PUSH1 0x2 PUSH2 0xCE SWAP3 SWAP2 SWAP1 PUSH2 0xE0 JUMP JUMPDEST POP CALLVALUE DUP1 ISZERO PUSH2 0xDA JUMPI PUSH0 DUP1 REVERT JUMPDEST POP PUSH2 0x449 JUMP JUMPDEST DUP3 PUSH1 0x2 DUP2 ADD SWAP3 DUP3 ISZERO PUSH2 0x114 JUMPI SWAP2 PUSH1 0x20 MUL DUP3 ADD JUMPDEST DUP3 DUP2 GT ISZERO PUSH2 0x113 JUMPI DUP3 MLOAD DUP3 SWAP1 PUSH1 0xFF AND SWAP1 SSTORE SWAP2 PUSH1 0x20 ADD SWAP2 SWAP1 PUSH1 0x1 ADD SWAP1 PUSH2 0xF3 JUMP JUMPDEST JUMPDEST POP SWAP1 POP PUSH2 0x121 SWAP2 SWAP1 PUSH2 0x125 JUMP JUMPDEST POP SWAP1 JUMP JUMPDEST JUMPDEST DUP1 DUP3 GT ISZERO PUSH2 0x13C JUMPI PUSH0 DUP2 PUSH0 SWAP1 SSTORE POP PUSH1 0x1 ADD PUSH2 0x126 JUMP JUMPDEST POP SWAP1 JUMP JUMPDEST PUSH0 DUP2 MLOAD SWAP1 POP SWAP2 SWAP1 POP JUMP JUMPDEST PUSH32 0x4E487B7100000000000000000000000000000000000000000000000000000000 PUSH0 MSTORE PUSH1 0x41 PUSH1 0x4 MSTORE PUSH1 0x24 PUSH0 REVERT JUMPDEST PUSH32 0x4E487B7100000000000000000000000000000000000000000000000000000000 PUSH0 MSTORE PUSH1 0x22 PUSH1 0x4 MSTORE PUSH1 0x24 PUSH0 REVERT JUMPDEST PUSH0 PUSH1 0x2 DUP3 DIV SWAP1 POP PUSH1 0x1 DUP3 AND DUP1 PUSH2 0x1BB JUMPI PUSH1 0x7F DUP3 AND SWAP2 POP JUMPDEST PUSH1 0x20 DUP3 LT DUP2 SUB PUSH2 0x1CE JUMPI PUSH2 0x1CD PUSH2 0x177 JUMP JUMPDEST JUMPDEST POP SWAP2 SWAP1 POP JUMP JUMPDEST PUSH0 DUP2 SWAP1 POP DUP2 PUSH0 MSTORE PUSH1 0x20 PUSH0 KECCAK256 SWAP1 POP SWAP2 SWAP1 POP JUMP JUMPDEST PUSH0 PUSH1 0x20 PUSH1 0x1F DUP4 ADD DIV SWAP1 POP SWAP2 SWAP1 POP JUMP JUMPDEST PUSH0 DUP3 DUP3 SHL SWAP1 POP SWAP3 SWAP2 POP POP JUMP JUMPDEST PUSH0 PUSH1 0x8 DUP4 MUL PUSH2 0x230 PUSH32 0xFFFFFFFFFFFFFFFFFFFFFFFFFFFFFFFFFFFFFFFFFFFFFFFFFFFFFFFFFFFFFFFF DUP3 PUSH2 0x1F5 JUMP JUMPDEST PUSH2 0x23A DUP7 DUP4 PUSH2 0x1F5 JUMP JUMPDEST SWAP6 POP DUP1 NOT DUP5 AND SWAP4 POP DUP1 DUP7 AND DUP5 OR SWAP3 POP POP POP SWAP4 SWAP3 POP POP POP JUMP JUMPDEST PUSH0 DUP2 SWAP1 POP SWAP2 SWAP1 POP JUMP JUMPDEST PUSH0 DUP2 SWAP1 POP SWAP2 SWAP1 POP JUMP JUMPDEST PUSH0 PUSH2 0x27E PUSH2 0x279 PUSH2 0x274 DUP5 PUSH2 0x252 JUMP JUMPDEST PUSH2 0x25B JUMP JUMPDEST PUSH2 0x252 JUMP JUMPDEST SWAP1 POP SWAP2 SWAP1 POP JUMP JUMPDEST PUSH0 DUP2 SWAP1 POP SWAP2 SWAP1 POP JUMP JUMPDEST PUSH2 0x297 DUP4 PUSH2 0x264 JUMP JUMPDEST PUSH2 0x2AB PUSH2 0x2A3 DUP3 PUSH2 0x285 JUMP JUMPDEST DUP5 DUP5 SLOAD PUSH2 0x201 JUMP JUMPDEST DUP3 SSTORE POP POP POP POP JUMP JUMPDEST PUSH0 SWAP1 JUMP JUMPDEST PUSH2 0x2BF PUSH2 0x2B3 JUMP JUMPDEST PUSH2 0x2CA DUP2 DUP5 DUP5 PUSH2 0x28E JUMP JUMPDEST POP POP POP JUMP JUMPDEST JUMPDEST DUP2 DUP2 LT ISZERO PUSH2 0x2ED JUMPI PUSH2 0x2E2 PUSH0 DUP3 PUSH2 0x2B7 JUMP JUMPDEST PUSH1 0x1 DUP2 ADD SWAP1 POP PUSH2 0x2D0 JUMP JUMPDEST POP POP JUMP JUMPDEST PUSH1 0x1F DUP3 GT ISZERO PUSH2 0x332 JUMPI PUSH2 0x303 DUP2 PUSH2 0x1D4 JUMP JUMPDEST PUSH2 0x30C DUP5 PUSH2 0x1E6 JUMP JUMPDEST DUP2 ADD PUSH1 0x20 DUP6 LT ISZERO PUSH2 0x31B JUMPI DUP2 SWAP1 POP JUMPDEST PUSH2 0x32F PUSH2 0x327 DUP6 PUSH2 0x1E6 JUMP JUMPDEST DUP4 ADD DUP3 PUSH2 0x2CF JUMP JUMPDEST POP POP JUMPDEST POP POP POP JUMP JUMPDEST PUSH0 DUP3 DUP3 SHR SWAP1 POP SWAP3 SWAP2 POP POP JUMP JUMPDEST PUSH0 PUSH2 0x352 PUSH0 NOT DUP5 PUSH1 0x8 MUL PUSH2 0x337 JUMP JUMPDEST NOT DUP1 DUP4 AND SWAP2 POP POP SWAP3 SWAP2 POP POP JUMP JUMPDEST PUSH0 PUSH2 0x36A DUP4 DUP4 PUSH2 0x343 JUMP JUMPDEST SWAP2 POP DUP3 PUSH1 0x2 MUL DUP3 OR SWAP1 POP SWAP3 SWAP2 POP POP JUMP JUMPDEST PUSH2 0x383 DUP3 PUSH2 0x140 JUMP JUMPDEST PUSH8 0xFFFFFFFFFFFFFFFF DUP2 GT ISZERO PUSH2 0x39C JUMPI PUSH2 0x39B PUSH2 0x14A JUMP JUMPDEST JUMPDEST PUSH2 0x3A6 DUP3 SLOAD PUSH2 0x1A4 JUMP JUMPDEST PUSH2 0x3B1 DUP3 DUP3 DUP6 PUSH2 0x2F1 JUMP JUMPDEST PUSH0 PUSH1 0x20 SWAP1 POP PUSH1 0x1F DUP4 GT PUSH1 0x1 DUP2 EQ PUSH2 0x3E2 JUMPI PUSH0 DUP5 ISZERO PUSH2 0x3D0 JUMPI DUP3 DUP8 ADD MLOAD SWAP1 POP JUMPDEST PUSH2 0x3DA DUP6 DUP3 PUSH2 0x35F JUMP JUMPDEST DUP7 SSTORE POP PUSH2 0x441 JUMP JUMPDEST PUSH1 0x1F NOT DUP5 AND PUSH2 0x3F0 DUP7 PUSH2 0x1D4 JUMP JUMPDEST PUSH0 JUMPDEST DUP3 DUP2 LT ISZERO PUSH2 0x417 JUMPI DUP5 DUP10 ADD MLOAD DUP3 SSTORE PUSH1 0x1 DUP3 ADD SWAP2 POP PUSH1 0x20 DUP6 ADD SWAP5 POP PUSH1 0x20 DUP2 ADD SWAP1 POP PUSH2 0x3F2 JUMP JUMPDEST DUP7 DUP4 LT ISZERO PUSH2 0x434 JUMPI DUP5 DUP10 ADD MLOAD PUSH2 0x430 PUSH1 0x1F DUP10 AND DUP3 PUSH2 0x343 JUMP JUMPDEST DUP4 SSTORE POP JUMPDEST PUSH1 0x1 PUSH1 0x2 DUP9 MUL ADD DUP9 SSTORE POP POP POP JUMPDEST POP POP POP POP POP POP JUMP JUMPDEST PUSH2 0x8CA DUP1 PUSH2 0x456 PUSH0 CODECOPY PUSH0 RETURN INVALID PUSH1 0x80 PUSH1 0x40 MSTORE CALLVALUE DUP1 ISZERO PUSH2 0xF JUMPI PUSH0 DUP1 REVERT JUMPDEST POP PUSH1 0x4 CALLDATASIZE LT PUSH2 0x3F JUMPI PUSH0 CALLDATALOAD PUSH1 0xE0 SHR DUP1 PUSH4 0x8E5D2E6A EQ PUSH2 0x43 JUMPI DUP1 PUSH4 0xB9028565 EQ PUSH2 0x61 JUMPI DUP1 PUSH4 0xF550C581 EQ PUSH2 0x7F JUMPI JUMPDEST PUSH0 DUP1 REVERT JUMPDEST PUSH2 0x4B PUSH2 0xAF JUMP JUMPDEST PUSH1 0x40 MLOAD PUSH2 0x58 SWAP2 SWAP1 PUSH2 0x2E5 JUMP JUMPDEST PUSH1 0x40 MLOAD DUP1 SWAP2 SUB SWAP1 RETURN JUMPDEST PUSH2 0x69 PUSH2 0x100 JUMP JUMPDEST PUSH1 0x40 MLOAD PUSH2 0x76 SWAP2 SWAP1 PUSH2 0x2E5 JUMP JUMPDEST PUSH1 0x40 MLOAD DUP1 SWAP2 SUB SWAP1 RETURN JUMPDEST PUSH2 0x99 PUSH1 0x4 DUP1 CALLDATASIZE SUB DUP2 ADD SWAP1 PUSH2 0x94 SWAP2 SWAP1 PUSH2 0x396 JUMP JUMPDEST PUSH2 0x151 JUMP JUMPDEST PUSH1 0x40 MLOAD PUSH2 0xA6 SWAP2 SWAP1 PUSH2 0x3E3 JUMP JUMPDEST PUSH1 0x40 MLOAD DUP1 SWAP2 SUB SWAP1 RETURN JUMPDEST PUSH1 0x60 PUSH0 SLOAD PUSH1 0x1 PUSH0 SWAP1 SLOAD SWAP1 PUSH2 0x100 EXP SWAP1 DIV PUSH20 0xFFFFFFFFFFFFFFFFFFFFFFFFFFFFFFFFFFFFFFFF AND PUSH1 0x2 PUSH1 0x3 PUSH1 0x40 MLOAD PUSH1 0x20 ADD PUSH2 0xEC SWAP5 SWAP4 SWAP3 SWAP2 SWAP1 PUSH2 0x5F6 JUMP JUMPDEST PUSH1 0x40 MLOAD PUSH1 0x20 DUP2 DUP4 SUB SUB DUP2 MSTORE SWAP1 PUSH1 0x40 MSTORE SWAP1 POP SWAP1 JUMP JUMPDEST PUSH1 0x60 PUSH0 SLOAD PUSH1 0x1 PUSH0 SWAP1 SLOAD SWAP1 PUSH2 0x100 EXP SWAP1 DIV PUSH20 0xFFFFFFFFFFFFFFFFFFFFFFFFFFFFFFFFFFFFFFFF AND PUSH1 0x2 PUSH1 0x3 PUSH1 0x40 MLOAD PUSH1 0x20 ADD PUSH2 0x13D SWAP5 SWAP4 SWAP3 SWAP2 SWAP1 PUSH2 0x7BC JUMP JUMPDEST PUSH1 0x40 MLOAD PUSH1 0x20 DUP2 DUP4 SUB SUB DUP2 MSTORE SWAP1 PUSH1 0x40 MSTORE SWAP1 POP SWAP1 JUMP JUMPDEST PUSH0 DUP1 PUSH0 DUP5 PUSH20 0xFFFFFFFFFFFFFFFFFFFFFFFFFFFFFFFFFFFFFFFF AND DUP5 PUSH1 0x40 MLOAD PUSH1 0x24 ADD PUSH2 0x17C SWAP2 SWAP1 PUSH2 0x3E3 JUMP JUMPDEST PUSH1 0x40 MLOAD PUSH1 0x20 DUP2 DUP4 SUB SUB DUP2 MSTORE SWAP1 PUSH1 0x40 MSTORE PUSH32 0x4018D9AA00000000000000000000000000000000000000000000000000000000 PUSH28 0xFFFFFFFFFFFFFFFFFFFFFFFFFFFFFFFFFFFFFFFFFFFFFFFFFFFFFFFF NOT AND PUSH1 0x20 DUP3 ADD DUP1 MLOAD PUSH28 0xFFFFFFFFFFFFFFFFFFFFFFFFFFFFFFFFFFFFFFFFFFFFFFFFFFFFFFFF DUP4 DUP2 DUP4 AND OR DUP4 MSTORE POP POP POP POP PUSH1 0x40 MLOAD PUSH2 0x206 SWAP2 SWAP1 PUSH2 0x83F JUMP JUMPDEST PUSH0 PUSH1 0x40 MLOAD DUP1 DUP4 SUB DUP2 PUSH0 DUP7 GAS CALL SWAP2 POP POP RETURNDATASIZE DUP1 PUSH0 DUP2 EQ PUSH2 0x23F JUMPI PUSH1 0x40 MLOAD SWAP2 POP PUSH1 0x1F NOT PUSH1 0x3F RETURNDATASIZE ADD AND DUP3 ADD PUSH1 0x40 MSTORE RETURNDATASIZE DUP3 MSTORE RETURNDATASIZE PUSH0 PUSH1 0x20 DUP5 ADD RETURNDATACOPY PUSH2 0x244 JUMP JUMPDEST PUSH1 0x60 SWAP2 POP JUMPDEST POP SWAP2 POP SWAP2 POP DUP2 PUSH2 0x252 JUMPI PUSH0 DUP1 REVERT JUMPDEST PUSH0 DUP2 DUP1 PUSH1 0x20 ADD SWAP1 MLOAD DUP2 ADD SWAP1 PUSH2 0x267 SWAP2 SWAP1 PUSH2 0x869 JUMP JUMPDEST SWAP1 POP DUP1 SWAP4 POP POP POP POP SWAP3 SWAP2 POP POP JUMP JUMPDEST PUSH0 DUP2 MLOAD SWAP1 POP SWAP2 SWAP1 POP JUMP JUMPDEST PUSH0 DUP3 DUP3 MSTORE PUSH1 0x20 DUP3 ADD SWAP1 POP SWAP3 SWAP2 POP POP JUMP JUMPDEST DUP3 DUP2 DUP4 MCOPY PUSH0 DUP4 DUP4 ADD MSTORE POP POP POP JUMP JUMPDEST PUSH0 PUSH1 0x1F NOT PUSH1 0x1F DUP4 ADD AND SWAP1 POP SWAP2 SWAP1 POP JUMP JUMPDEST PUSH0 PUSH2 0x2B7 DUP3 PUSH2 0x275 JUMP JUMPDEST PUSH2 0x2C1 DUP2 DUP6 PUSH2 0x27F JUMP JUMPDEST SWAP4 POP PUSH2 0x2D1 DUP2 DUP6 PUSH1 0x20 DUP7 ADD PUSH2 0x28F JUMP JUMPDEST PUSH2 0x2DA DUP2 PUSH2 0x29D JUMP JUMPDEST DUP5 ADD SWAP2 POP POP SWAP3 SWAP2 POP POP JUMP JUMPDEST PUSH0 PUSH1 0x20 DUP3 ADD SWAP1 POP DUP2 DUP2 SUB PUSH0 DUP4 ADD MSTORE PUSH2 0x2FD DUP2 DUP5 PUSH2 0x2AD JUMP JUMPDEST SWAP1 POP SWAP3 SWAP2 POP POP JUMP JUMPDEST PUSH0 DUP1 REVERT JUMPDEST PUSH0 PUSH20 0xFFFFFFFFFFFFFFFFFFFFFFFFFFFFFFFFFFFFFFFF DUP3 AND SWAP1 POP SWAP2 SWAP1 POP JUMP JUMPDEST PUSH0 PUSH2 0x332 DUP3 PUSH2 0x309 JUMP JUMPDEST SWAP1 POP SWAP2 SWAP1 POP JUMP JUMPDEST PUSH2 0x342 DUP2 PUSH2 0x328 JUMP JUMPDEST DUP2 EQ PUSH2 0x34C JUMPI PUSH0 DUP1 REVERT JUMPDEST POP JUMP JUMPDEST PUSH0 DUP2 CALLDATALOAD SWAP1 POP PUSH2 0x35D DUP2 PUSH2 0x339 JUMP JUMPDEST SWAP3 SWAP2 POP POP JUMP JUMPDEST PUSH0 DUP2 SWAP1 POP SWAP2 SWAP1 POP JUMP JUMPDEST PUSH2 0x375 DUP2 PUSH2 0x363 JUMP JUMPDEST DUP2 EQ PUSH2 0x37F JUMPI PUSH0 DUP1 REVERT JUMPDEST POP JUMP JUMPDEST PUSH0 DUP2 CALLDATALOAD SWAP1 POP PUSH2 0x390 DUP2 PUSH2 0x36C JUMP JUMPDEST SWAP3 SWAP2 POP POP JUMP JUMPDEST PUSH0 DUP1 PUSH1 0x40 DUP4 DUP6 SUB SLT ISZERO PUSH2 0x3AC JUMPI PUSH2 0x3AB PUSH2 0x305 JUMP JUMPDEST JUMPDEST PUSH0 PUSH2 0x3B9 DUP6 DUP3 DUP7 ADD PUSH2 0x34F JUMP JUMPDEST SWAP3 POP POP PUSH1 0x20 PUSH2 0x3CA DUP6 DUP3 DUP7 ADD PUSH2 0x382 JUMP JUMPDEST SWAP2 POP POP SWAP3 POP SWAP3 SWAP1 POP JUMP JUMPDEST PUSH2 0x3DD DUP2 PUSH2 0x363 JUMP JUMPDEST DUP3 MSTORE POP POP JUMP JUMPDEST PUSH0 PUSH1 0x20 DUP3 ADD SWAP1 POP PUSH2 0x3F6 PUSH0 DUP4 ADD DUP5 PUSH2 0x3D4 JUMP JUMPDEST SWAP3 SWAP2 POP POP JUMP JUMPDEST PUSH2 0x405 DUP2 PUSH2 0x328 JUMP JUMPDEST DUP3 MSTORE POP POP JUMP JUMPDEST PUSH32 0x4E487B7100000000000000000000000000000000000000000000000000000000 PUSH0 MSTORE PUSH1 0x22 PUSH1 0x4 MSTORE PUSH1 0x24 PUSH0 REVERT JUMPDEST PUSH0 PUSH1 0x2 DUP3 DIV SWAP1 POP PUSH1 0x1 DUP3 AND DUP1 PUSH2 0x44F JUMPI PUSH1 0x7F DUP3 AND SWAP2 POP JUMPDEST PUSH1 0x20 DUP3 LT DUP2 SUB PUSH2 0x462 JUMPI PUSH2 0x461 PUSH2 0x40B JUMP JUMPDEST JUMPDEST POP SWAP2 SWAP1 POP JUMP JUMPDEST PUSH0 DUP3 DUP3 MSTORE PUSH1 0x20 DUP3 ADD SWAP1 POP SWAP3 SWAP2 POP POP JUMP JUMPDEST PUSH0 DUP2 SWAP1 POP DUP2 PUSH0 MSTORE PUSH1 0x20 PUSH0 KECCAK256 SWAP1 POP SWAP2 SWAP1 POP JUMP JUMPDEST PUSH0 DUP2 SLOAD PUSH2 0x496 DUP2 PUSH2 0x438 JUMP JUMPDEST PUSH2 0x4A0 DUP2 DUP7 PUSH2 0x468 JUMP JUMPDEST SWAP5 POP PUSH1 0x1 DUP3 AND PUSH0 DUP2 EQ PUSH2 0x4BA JUMPI PUSH1 0x1 DUP2 EQ PUSH2 0x4D0 JUMPI PUSH2 0x502 JUMP JUMPDEST PUSH1 0xFF NOT DUP4 AND DUP7 MSTORE DUP2 ISZERO ISZERO PUSH1 0x20 MUL DUP7 ADD SWAP4 POP PUSH2 0x502 JUMP JUMPDEST PUSH2 0x4D9 DUP6 PUSH2 0x478 JUMP JUMPDEST PUSH0 JUMPDEST DUP4 DUP2 LT ISZERO PUSH2 0x4FA JUMPI DUP2 SLOAD DUP2 DUP10 ADD MSTORE PUSH1 0x1 DUP3 ADD SWAP2 POP PUSH1 0x20 DUP2 ADD SWAP1 POP PUSH2 0x4DB JUMP JUMPDEST DUP1 DUP9 ADD SWAP6 POP POP POP JUMPDEST POP POP POP SWAP3 SWAP2 POP POP JUMP JUMPDEST PUSH0 PUSH1 0x2 SWAP1 POP SWAP2 SWAP1 POP JUMP JUMPDEST PUSH0 DUP2 SWAP1 POP SWAP3 SWAP2 POP POP JUMP JUMPDEST PUSH0 DUP2 SWAP1 POP SWAP2 SWAP1 POP JUMP JUMPDEST PUSH2 0x531 DUP2 PUSH2 0x363 JUMP JUMPDEST DUP3 MSTORE POP POP JUMP JUMPDEST PUSH0 PUSH2 0x542 DUP4 DUP4 PUSH2 0x528 JUMP JUMPDEST PUSH1 0x20 DUP4 ADD SWAP1 POP SWAP3 SWAP2 POP POP JUMP JUMPDEST PUSH0 DUP2 PUSH0 SHR SWAP1 POP SWAP2 SWAP1 POP JUMP JUMPDEST PUSH0 DUP2 SWAP1 POP SWAP2 SWAP1 POP JUMP JUMPDEST PUSH0 PUSH2 0x574 PUSH2 0x56F DUP4 PUSH2 0x54E JUMP JUMPDEST PUSH2 0x559 JUMP JUMPDEST SWAP1 POP SWAP2 SWAP1 POP JUMP JUMPDEST PUSH0 PUSH2 0x586 DUP3 SLOAD PUSH2 0x562 JUMP JUMPDEST SWAP1 POP SWAP2 SWAP1 POP JUMP JUMPDEST PUSH0 PUSH1 0x1 DUP3 ADD SWAP1 POP SWAP2 SWAP1 POP JUMP JUMPDEST PUSH2 0x5A2 DUP2 PUSH2 0x50B JUMP JUMPDEST PUSH2 0x5AC DUP2 DUP5 PUSH2 0x515 JUMP JUMPDEST SWAP3 POP PUSH2 0x5B7 DUP3 PUSH2 0x51F JUMP JUMPDEST DUP1 PUSH0 JUMPDEST DUP4 DUP2 LT ISZERO PUSH2 0x5EE JUMPI PUSH2 0x5CB DUP3 PUSH2 0x57B JUMP JUMPDEST PUSH2 0x5D5 DUP8 DUP3 PUSH2 0x537 JUMP JUMPDEST SWAP7 POP PUSH2 0x5E0 DUP4 PUSH2 0x58D JUMP JUMPDEST SWAP3 POP POP PUSH1 0x1 DUP2 ADD SWAP1 POP PUSH2 0x5BA JUMP JUMPDEST POP POP POP POP POP POP JUMP JUMPDEST PUSH0 PUSH1 0xA0 DUP3 ADD SWAP1 POP PUSH2 0x609 PUSH0 DUP4 ADD DUP8 PUSH2 0x3D4 JUMP JUMPDEST PUSH2 0x616 PUSH1 0x20 DUP4 ADD DUP7 PUSH2 0x3FC JUMP JUMPDEST DUP2 DUP2 SUB PUSH1 0x40 DUP4 ADD MSTORE PUSH2 0x628 DUP2 DUP6 PUSH2 0x48A JUMP JUMPDEST SWAP1 POP PUSH2 0x637 PUSH1 0x60 DUP4 ADD DUP5 PUSH2 0x599 JUMP JUMPDEST SWAP6 SWAP5 POP POP POP POP POP JUMP JUMPDEST PUSH0 DUP2 SWAP1 POP SWAP2 SWAP1 POP JUMP JUMPDEST PUSH2 0x65A PUSH2 0x655 DUP3 PUSH2 0x363 JUMP JUMPDEST PUSH2 0x640 JUMP JUMPDEST DUP3 MSTORE POP POP JUMP JUMPDEST PUSH0 DUP2 PUSH1 0x60 SHL SWAP1 POP SWAP2 SWAP1 POP JUMP JUMPDEST PUSH0 PUSH2 0x676 DUP3 PUSH2 0x660 JUMP JUMPDEST SWAP1 POP SWAP2 SWAP1 POP JUMP JUMPDEST PUSH0 PUSH2 0x687 DUP3 PUSH2 0x66C JUMP JUMPDEST SWAP1 POP SWAP2 SWAP1 POP JUMP JUMPDEST PUSH2 0x69F PUSH2 0x69A DUP3 PUSH2 0x328 JUMP JUMPDEST PUSH2 0x67D JUMP JUMPDEST DUP3 MSTORE POP POP JUMP JUMPDEST PUSH0 DUP2 SWAP1 POP SWAP3 SWAP2 POP POP JUMP JUMPDEST PUSH0 DUP2 SLOAD PUSH2 0x6BB DUP2 PUSH2 0x438 JUMP JUMPDEST PUSH2 0x6C5 DUP2 DUP7 PUSH2 0x6A5 JUMP JUMPDEST SWAP5 POP PUSH1 0x1 DUP3 AND PUSH0 DUP2 EQ PUSH2 0x6DF JUMPI PUSH1 0x1 DUP2 EQ PUSH2 0x6F4 JUMPI PUSH2 0x726 JUMP JUMPDEST PUSH1 0xFF NOT DUP4 AND DUP7 MSTORE DUP2 ISZERO ISZERO DUP3 MUL DUP7 ADD SWAP4 POP PUSH2 0x726 JUMP JUMPDEST PUSH2 0x6FD DUP6 PUSH2 0x478 JUMP JUMPDEST PUSH0 JUMPDEST DUP4 DUP2 LT ISZERO PUSH2 0x71E JUMPI DUP2 SLOAD DUP2 DUP10 ADD MSTORE PUSH1 0x1 DUP3 ADD SWAP2 POP PUSH1 0x20 DUP2 ADD SWAP1 POP PUSH2 0x6FF JUMP JUMPDEST DUP4 DUP9 ADD SWAP6 POP POP POP JUMPDEST POP POP POP SWAP3 SWAP2 POP POP JUMP JUMPDEST PUSH0 DUP2 SWAP1 POP SWAP3 SWAP2 POP POP JUMP JUMPDEST PUSH2 0x742 DUP2 PUSH2 0x363 JUMP JUMPDEST DUP3 MSTORE POP POP JUMP JUMPDEST PUSH0 PUSH2 0x753 DUP4 DUP4 PUSH2 0x739 JUMP JUMPDEST PUSH1 0x20 DUP4 ADD SWAP1 POP SWAP3 SWAP2 POP POP JUMP JUMPDEST PUSH2 0x768 DUP2 PUSH2 0x50B JUMP JUMPDEST PUSH2 0x772 DUP2 DUP5 PUSH2 0x72F JUMP JUMPDEST SWAP3 POP PUSH2 0x77D DUP3 PUSH2 0x51F JUMP JUMPDEST DUP1 PUSH0 JUMPDEST DUP4 DUP2 LT ISZERO PUSH2 0x7B4 JUMPI PUSH2 0x791 DUP3 PUSH2 0x57B JUMP JUMPDEST PUSH2 0x79B DUP8 DUP3 PUSH2 0x748 JUMP JUMPDEST SWAP7 POP PUSH2 0x7A6 DUP4 PUSH2 0x58D JUMP JUMPDEST SWAP3 POP POP PUSH1 0x1 DUP2 ADD SWAP1 POP PUSH2 0x780 JUMP JUMPDEST POP POP POP POP POP POP JUMP JUMPDEST PUSH0 PUSH2 0x7C7 DUP3 DUP8 PUSH2 0x649 JUMP JUMPDEST PUSH1 0x20 DUP3 ADD SWAP2 POP PUSH2 0x7D7 DUP3 DUP7 PUSH2 0x68E JUMP JUMPDEST PUSH1 0x14 DUP3 ADD SWAP2 POP PUSH2 0x7E7 DUP3 DUP6 PUSH2 0x6AF JUMP JUMPDEST SWAP2 POP PUSH2 0x7F3 DUP3 DUP5 PUSH2 0x75F JUMP JUMPDEST PUSH1 0x40 DUP3 ADD SWAP2 POP DUP2 SWAP1 POP SWAP6 SWAP5 POP POP POP POP POP JUMP JUMPDEST PUSH0 DUP2 SWAP1 POP SWAP3 SWAP2 POP POP JUMP JUMPDEST PUSH0 PUSH2 0x819 DUP3 PUSH2 0x275 JUMP JUMPDEST PUSH2 0x823 DUP2 DUP6 PUSH2 0x805 JUMP JUMPDEST SWAP4 POP PUSH2 0x833 DUP2 DUP6 PUSH1 0x20 DUP7 ADD PUSH2 0x28F JUMP JUMPDEST DUP1 DUP5 ADD SWAP2 POP POP SWAP3 SWAP2 POP POP JUMP JUMPDEST PUSH0 PUSH2 0x84A DUP3 DUP5 PUSH2 0x80F JUMP JUMPDEST SWAP2 POP DUP2 SWAP1 POP SWAP3 SWAP2 POP POP JUMP JUMPDEST PUSH0 DUP2 MLOAD SWAP1 POP PUSH2 0x863 DUP2 PUSH2 0x36C JUMP JUMPDEST SWAP3 SWAP2 POP POP JUMP JUMPDEST PUSH0 PUSH1 0x20 DUP3 DUP5 SUB SLT ISZERO PUSH2 0x87E JUMPI PUSH2 0x87D PUSH2 0x305 JUMP JUMPDEST JUMPDEST PUSH0 PUSH2 0x88B DUP5 DUP3 DUP6 ADD PUSH2 0x855 JUMP JUMPDEST SWAP2 POP POP SWAP3 SWAP2 POP POP JUMP INVALID LOG2 PUSH5 0x6970667358 0x22 SLT KECCAK256 0xAD PUSH30 0x3D1D7A5D67EEE4822A2584F832D9250DF59A3E828FD905EF5411542EC641 PUSH5 0x736F6C6343 STOP ADDMOD BYTE STOP CALLER "
		},
		"gasEstimates": {
			"creation": {
				"codeDepositCost": "450000",
				"executionCost": "infinite",
				"totalCost": "infinite"
			},
			"external": {
				"encodeFunc()": "infinite",
				"encodePackedFunc()": "infinite",
				"encodeWithSignatureFunc(address,uint256)": "infinite"
			}
		},
		"methodIdentifiers": {
			"encodeFunc()": "8e5d2e6a",
			"encodePackedFunc()": "b9028565",
			"encodeWithSignatureFunc(address,uint256)": "f550c581"
		}
	},
	"abi": [
		{
			"inputs": [],
			"name": "encodeFunc",
			"outputs": [
				{
					"internalType": "bytes",
					"name": "",
					"type": "bytes"
				}
			],
			"stateMutability": "view",
			"type": "function"
		},
		{
			"inputs": [],
			"name": "encodePackedFunc",
			"outputs": [
				{
					"internalType": "bytes",
					"name": "",
					"type": "bytes"
				}
			],
			"stateMutability": "view",
			"type": "function"
		},
		{
			"inputs": [
				{
					"internalType": "address",
					"name": "_addr",
					"type": "address"
				},
				{
					"internalType": "uint256",
					"name": "_x",
					"type": "uint256"
				}
			],
			"name": "encodeWithSignatureFunc",
			"outputs": [
				{
					"internalType": "uint256",
					"name": "",
					"type": "uint256"
				}
			],
			"stateMutability": "nonpayable",
			"type": "function"
		}
	]
}