{
	"data": {
		"bytecode": {
			"linkReferences": {},
			"object": "6080604052607f5f806101000a81548160ff02191690835f0b60ff16021790555060f05f60016101000a81548160ff021916908360ff1602179055503480156045575f80fd5b50610125806100535f395ff3fe6080604052348015600e575f80fd5b50600436106026575f3560e01c80634f2be91f14602a575b5f80fd5b60306044565b604051603b9190607e565b60405180910390f35b5f8060f090505f600c90505f8183605a919060c2565b905080935050505090565b5f60ff82169050919050565b6078816065565b82525050565b5f602082019050608f5f8301846071565b92915050565b7f4e487b71000000000000000000000000000000000000000000000000000000005f52601160045260245ffd5b5f60ca826065565b915060d3836065565b9250828201905060ff81111560e95760e86095565b5b9291505056fea26469706673582212200745b4ce2295996a72730f2eaa168e19de212efa39a464ce33d8b1ae360884eb64736f6c634300081a0033",
			"opcodes": "PUSH1 0x80 PUSH1 0x40 MSTORE PUSH1 0x7F PUSH0 DUP1 PUSH2 0x100 EXP DUP2 SLOAD DUP2 PUSH1 0xFF MUL NOT AND SWAP1 DUP4 PUSH0 SIGNEXTEND PUSH1 0xFF AND MUL OR SWAP1 SSTORE POP PUSH1 0xF0 PUSH0 PUSH1 0x1 PUSH2 0x100 EXP DUP2 SLOAD DUP2 PUSH1 0xFF MUL NOT AND SWAP1 DUP4 PUSH1 0xFF AND MUL OR SWAP1 SSTORE POP CALLVALUE DUP1 ISZERO PUSH1 0x45 JUMPI PUSH0 DUP1 REVERT JUMPDEST POP PUSH2 0x125 DUP1 PUSH2 0x53 PUSH0 CODECOPY PUSH0 RETURN INVALID PUSH1 0x80 PUSH1 0x40 MSTORE CALLVALUE DUP1 ISZERO PUSH1 0xE JUMPI PUSH0 DUP1 REVERT JUMPDEST POP PUSH1 0x4 CALLDATASIZE LT PUSH1 0x26 JUMPI PUSH0 CALLDATALOAD PUSH1 0xE0 SHR DUP1 PUSH4 0x4F2BE91F EQ PUSH1 0x2A JUMPI JUMPDEST PUSH0 DUP1 REVERT JUMPDEST PUSH1 0x30 PUSH1 0x44 JUMP JUMPDEST PUSH1 0x40 MLOAD PUSH1 0x3B SWAP2 SWAP1 PUSH1 0x7E JUMP JUMPDEST PUSH1 0x40 MLOAD DUP1 SWAP2 SUB SWAP1 RETURN JUMPDEST PUSH0 DUP1 PUSH1 0xF0 SWAP1 POP PUSH0 PUSH1 0xC SWAP1 POP PUSH0 DUP2 DUP4 PUSH1 0x5A SWAP2 SWAP1 PUSH1 0xC2 JUMP JUMPDEST SWAP1 POP DUP1 SWAP4 POP POP POP POP SWAP1 JUMP JUMPDEST PUSH0 PUSH1 0xFF DUP3 AND SWAP1 POP SWAP2 SWAP1 POP JUMP JUMPDEST PUSH1 0x78 DUP2 PUSH1 0x65 JUMP JUMPDEST DUP3 MSTORE POP POP JUMP JUMPDEST PUSH0 PUSH1 0x20 DUP3 ADD SWAP1 POP PUSH1 0x8F PUSH0 DUP4 ADD DUP5 PUSH1 0x71 JUMP JUMPDEST SWAP3 SWAP2 POP POP JUMP JUMPDEST PUSH32 0x4E487B7100000000000000000000000000000000000000000000000000000000 PUSH0 MSTORE PUSH1 0x11 PUSH1 0x4 MSTORE PUSH1 0x24 PUSH0 REVERT JUMPDEST PUSH0 PUSH1 0xCA DUP3 PUSH1 0x65 JUMP JUMPDEST SWAP2 POP PUSH1 0xD3 DUP4 PUSH1 0x65 JUMP JUMPDEST SWAP3 POP DUP3 DUP3 ADD SWAP1 POP PUSH1 0xFF DUP2 GT ISZERO PUSH1 0xE9 JUMPI PUSH1 0xE8 PUSH1 0x95 JUMP JUMPDEST JUMPDEST SWAP3 SWAP2 POP POP JUMP INVALID LOG2 PUSH5 0x6970667358 0x22 SLT KECCAK256 SMOD GASLIMIT 0xB4 0xCE 0x22 SWAP6 SWAP10 PUSH11 0x72730F2EAA168E19DE212E STATICCALL CODECOPY LOG4 PUSH5 0xCE33D8B1AE CALLDATASIZE ADDMOD DUP5 0xEB PUSH5 0x736F6C6343 STOP ADDMOD BYTE STOP CALLER "
		},
		"gasEstimates": {
			"creation": {
				"codeDepositCost": "58600",
				"executionCost": "48698",
				"totalCost": "107298"
			},
			"external": {
				"add()": "infinite"
			}
		},
		"methodIdentifiers": {
			"add()": "4f2be91f"
		}
	},
	"abi": [
		{
			"inputs": [],
			"name": "add",
			"outputs": [
				{
					"internalType": "uint8",
					"name": "",
					"type": "uint8"
				}
			],
			"stateMutability": "pure",
			"type": "function"
		}
	]
}