{
	"contracts/mytest2/ERC770.sol": {
		"Merit": {
			"abi": [
				{
					"inputs": [
						{
							"internalType": "contract IERC777",
							"name": "token",
							"type": "address"
						}
					],
					"stateMutability": "nonpayable",
					"type": "constructor"
				},
				{
					"inputs": [
						{
							"internalType": "address",
							"name": "",
							"type": "address"
						}
					],
					"name": "givers",
					"outputs": [
						{
							"internalType": "uint256",
							"name": "",
							"type": "uint256"
						}
					],
					"stateMutability": "view",
					"type": "function"
				},
				{
					"inputs": [
						{
							"internalType": "address",
							"name": "operator",
							"type": "address"
						},
						{
							"internalType": "address",
							"name": "from",
							"type": "address"
						},
						{
							"internalType": "address",
							"name": "to",
							"type": "address"
						},
						{
							"internalType": "uint256",
							"name": "amount",
							"type": "uint256"
						},
						{
							"internalType": "bytes",
							"name": "userData",
							"type": "bytes"
						},
						{
							"internalType": "bytes",
							"name": "operatorData",
							"type": "bytes"
						}
					],
					"name": "tokensReceived",
					"outputs": [],
					"stateMutability": "nonpayable",
					"type": "function"
				},
				{
					"inputs": [],
					"name": "withdraw",
					"outputs": [],
					"stateMutability": "nonpayable",
					"type": "function"
				}
			],
			"devdoc": {
				"kind": "dev",
				"methods": {
					"tokensReceived(address,address,address,uint256,bytes,bytes)": {
						"details": "Called by an {IERC777} token contract whenever tokens are being moved or created into a registered account (`to`). The type of operation is conveyed by `from` being the zero address or not. This call occurs _after_ the token contract's state is updated, so {IERC777-balanceOf}, etc., can be used to query the post-operation state. This function may revert to prevent the operation from being executed."
					}
				},
				"version": 1
			},
			"evm": {
				"assembly": "    /* \"contracts/mytest2/ERC770.sol\":262:1331  contract Merit is IERC777Recipient {... */\n  mstore(0x40, 0x80)\n    /* \"contracts/mytest2/ERC770.sol\":631:837  constructor(IERC777 token) public {... */\n  callvalue\n  dup1\n  iszero\n  tag_1\n  jumpi\n  revert(0x00, 0x00)\ntag_1:\n  pop\n  mload(0x40)\n  sub(codesize, bytecodeSize)\n  dup1\n  bytecodeSize\n  dup4\n  codecopy\n  dup2\n  dup2\n  add\n  0x40\n  mstore\n  dup2\n  add\n  swap1\n  tag_2\n  swap2\n  swap1\n  tag_3\n  jump\t// in\ntag_2:\n    /* \"contracts/mytest2/ERC770.sol\":794:804  msg.sender */\n  caller\n    /* \"contracts/mytest2/ERC770.sol\":785:791  _owner */\n  0x01\n  0x00\n    /* \"contracts/mytest2/ERC770.sol\":785:804  _owner = msg.sender */\n  0x0100\n  exp\n  dup2\n  sload\n  dup2\n  0xffffffffffffffffffffffffffffffffffffffff\n  mul\n  not\n  and\n  swap1\n  dup4\n  0xffffffffffffffffffffffffffffffffffffffff\n  and\n  mul\n  or\n  swap1\n  sstore\n  pop\n    /* \"contracts/mytest2/ERC770.sol\":824:829  token */\n  dup1\n    /* \"contracts/mytest2/ERC770.sol\":815:821  _token */\n  0x02\n  0x00\n    /* \"contracts/mytest2/ERC770.sol\":815:829  _token = token */\n  0x0100\n  exp\n  dup2\n  sload\n  dup2\n  0xffffffffffffffffffffffffffffffffffffffff\n  mul\n  not\n  and\n  swap1\n  dup4\n  0xffffffffffffffffffffffffffffffffffffffff\n  and\n  mul\n  or\n  swap1\n  sstore\n  pop\n    /* \"contracts/mytest2/ERC770.sol\":631:837  constructor(IERC777 token) public {... */\n  pop\n    /* \"contracts/mytest2/ERC770.sol\":262:1331  contract Merit is IERC777Recipient {... */\n  jump(tag_6)\n    /* \"#utility.yul\":88:205   */\ntag_8:\n    /* \"#utility.yul\":197:198   */\n  0x00\n    /* \"#utility.yul\":194:195   */\n  0x00\n    /* \"#utility.yul\":187:199   */\n  revert\n    /* \"#utility.yul\":334:460   */\ntag_10:\n    /* \"#utility.yul\":371:378   */\n  0x00\n    /* \"#utility.yul\":411:453   */\n  0xffffffffffffffffffffffffffffffffffffffff\n    /* \"#utility.yul\":404:409   */\n  dup3\n    /* \"#utility.yul\":400:454   */\n  and\n    /* \"#utility.yul\":389:454   */\n  swap1\n  pop\n    /* \"#utility.yul\":334:460   */\n  swap2\n  swap1\n  pop\n  jump\t// out\n    /* \"#utility.yul\":466:562   */\ntag_11:\n    /* \"#utility.yul\":503:510   */\n  0x00\n    /* \"#utility.yul\":532:556   */\n  tag_21\n    /* \"#utility.yul\":550:555   */\n  dup3\n    /* \"#utility.yul\":532:556   */\n  tag_10\n  jump\t// in\ntag_21:\n    /* \"#utility.yul\":521:556   */\n  swap1\n  pop\n    /* \"#utility.yul\":466:562   */\n  swap2\n  swap1\n  pop\n  jump\t// out\n    /* \"#utility.yul\":568:679   */\ntag_12:\n    /* \"#utility.yul\":620:627   */\n  0x00\n    /* \"#utility.yul\":649:673   */\n  tag_23\n    /* \"#utility.yul\":667:672   */\n  dup3\n    /* \"#utility.yul\":649:673   */\n  tag_11\n  jump\t// in\ntag_23:\n    /* \"#utility.yul\":638:673   */\n  swap1\n  pop\n    /* \"#utility.yul\":568:679   */\n  swap2\n  swap1\n  pop\n  jump\t// out\n    /* \"#utility.yul\":685:837   */\ntag_13:\n    /* \"#utility.yul\":773:812   */\n  tag_25\n    /* \"#utility.yul\":806:811   */\n  dup2\n    /* \"#utility.yul\":773:812   */\n  tag_12\n  jump\t// in\ntag_25:\n    /* \"#utility.yul\":766:771   */\n  dup2\n    /* \"#utility.yul\":763:813   */\n  eq\n    /* \"#utility.yul\":753:831   */\n  tag_26\n  jumpi\n    /* \"#utility.yul\":827:828   */\n  0x00\n    /* \"#utility.yul\":824:825   */\n  0x00\n    /* \"#utility.yul\":817:829   */\n  revert\n    /* \"#utility.yul\":753:831   */\ntag_26:\n    /* \"#utility.yul\":685:837   */\n  pop\n  jump\t// out\n    /* \"#utility.yul\":843:1016   */\ntag_14:\n    /* \"#utility.yul\":915:920   */\n  0x00\n    /* \"#utility.yul\":946:952   */\n  dup2\n    /* \"#utility.yul\":940:953   */\n  mload\n    /* \"#utility.yul\":931:953   */\n  swap1\n  pop\n    /* \"#utility.yul\":962:1010   */\n  tag_28\n    /* \"#utility.yul\":1004:1009   */\n  dup2\n    /* \"#utility.yul\":962:1010   */\n  tag_13\n  jump\t// in\ntag_28:\n    /* \"#utility.yul\":843:1016   */\n  swap3\n  swap2\n  pop\n  pop\n  jump\t// out\n    /* \"#utility.yul\":1022:1403   */\ntag_3:\n    /* \"#utility.yul\":1107:1113   */\n  0x00\n    /* \"#utility.yul\":1156:1158   */\n  0x20\n    /* \"#utility.yul\":1144:1153   */\n  dup3\n    /* \"#utility.yul\":1135:1142   */\n  dup5\n    /* \"#utility.yul\":1131:1154   */\n  sub\n    /* \"#utility.yul\":1127:1159   */\n  slt\n    /* \"#utility.yul\":1124:1243   */\n  iszero\n  tag_30\n  jumpi\n    /* \"#utility.yul\":1162:1241   */\n  tag_31\n  tag_8\n  jump\t// in\ntag_31:\n    /* \"#utility.yul\":1124:1243   */\ntag_30:\n    /* \"#utility.yul\":1282:1283   */\n  0x00\n    /* \"#utility.yul\":1307:1386   */\n  tag_32\n    /* \"#utility.yul\":1378:1385   */\n  dup5\n    /* \"#utility.yul\":1369:1375   */\n  dup3\n    /* \"#utility.yul\":1358:1367   */\n  dup6\n    /* \"#utility.yul\":1354:1376   */\n  add\n    /* \"#utility.yul\":1307:1386   */\n  tag_14\n  jump\t// in\ntag_32:\n    /* \"#utility.yul\":1297:1386   */\n  swap2\n  pop\n    /* \"#utility.yul\":1253:1396   */\n  pop\n    /* \"#utility.yul\":1022:1403   */\n  swap3\n  swap2\n  pop\n  pop\n  jump\t// out\n    /* \"contracts/mytest2/ERC770.sol\":262:1331  contract Merit is IERC777Recipient {... */\ntag_6:\n  dataSize(sub_0)\n  dup1\n  dataOffset(sub_0)\n  0x00\n  codecopy\n  0x00\n  return\nstop\n\nsub_0: assembly {\n        /* \"contracts/mytest2/ERC770.sol\":262:1331  contract Merit is IERC777Recipient {... */\n      mstore(0x40, 0x80)\n      callvalue\n      dup1\n      iszero\n      tag_1\n      jumpi\n      revert(0x00, 0x00)\n    tag_1:\n      pop\n      jumpi(tag_2, lt(calldatasize, 0x04))\n      shr(0xe0, calldataload(0x00))\n      dup1\n      0x23de29\n      eq\n      tag_3\n      jumpi\n      dup1\n      0x3ccfd60b\n      eq\n      tag_4\n      jumpi\n      dup1\n      0xe89081f8\n      eq\n      tag_5\n      jumpi\n    tag_2:\n      revert(0x00, 0x00)\n        /* \"contracts/mytest2/ERC770.sol\":843:1089  function tokensReceived(... */\n    tag_3:\n      tag_6\n      0x04\n      dup1\n      calldatasize\n      sub\n      dup2\n      add\n      swap1\n      tag_7\n      swap2\n      swap1\n      tag_8\n      jump\t// in\n    tag_7:\n      tag_9\n      jump\t// in\n    tag_6:\n      stop\n        /* \"contracts/mytest2/ERC770.sol\":1134:1328  function withdraw() external {... */\n    tag_4:\n      tag_10\n      tag_11\n      jump\t// in\n    tag_10:\n      stop\n        /* \"contracts/mytest2/ERC770.sol\":304:342  mapping(address => uint) public givers */\n    tag_5:\n      tag_12\n      0x04\n      dup1\n      calldatasize\n      sub\n      dup2\n      add\n      swap1\n      tag_13\n      swap2\n      swap1\n      tag_14\n      jump\t// in\n    tag_13:\n      tag_15\n      jump\t// in\n    tag_12:\n      mload(0x40)\n      tag_16\n      swap2\n      swap1\n      tag_17\n      jump\t// in\n    tag_16:\n      mload(0x40)\n      dup1\n      swap2\n      sub\n      swap1\n      return\n        /* \"contracts/mytest2/ERC770.sol\":843:1089  function tokensReceived(... */\n    tag_9:\n        /* \"contracts/mytest2/ERC770.sol\":1075:1081  amount */\n      dup5\n        /* \"contracts/mytest2/ERC770.sol\":1059:1065  givers */\n      0x00\n        /* \"contracts/mytest2/ERC770.sol\":1059:1071  givers[from] */\n      0x00\n        /* \"contracts/mytest2/ERC770.sol\":1066:1070  from */\n      dup10\n        /* \"contracts/mytest2/ERC770.sol\":1059:1071  givers[from] */\n      0xffffffffffffffffffffffffffffffffffffffff\n      and\n      0xffffffffffffffffffffffffffffffffffffffff\n      and\n      dup2\n      mstore\n      0x20\n      add\n      swap1\n      dup2\n      mstore\n      0x20\n      add\n      0x00\n      keccak256\n      0x00\n        /* \"contracts/mytest2/ERC770.sol\":1059:1081  givers[from] += amount */\n      dup3\n      dup3\n      sload\n      tag_19\n      swap2\n      swap1\n      tag_20\n      jump\t// in\n    tag_19:\n      swap3\n      pop\n      pop\n      dup2\n      swap1\n      sstore\n      pop\n        /* \"contracts/mytest2/ERC770.sol\":843:1089  function tokensReceived(... */\n      pop\n      pop\n      pop\n      pop\n      pop\n      pop\n      pop\n      pop\n      jump\t// out\n        /* \"contracts/mytest2/ERC770.sol\":1134:1328  function withdraw() external {... */\n    tag_11:\n        /* \"contracts/mytest2/ERC770.sol\":1196:1202  _owner */\n      0x01\n      0x00\n      swap1\n      sload\n      swap1\n      0x0100\n      exp\n      swap1\n      div\n      0xffffffffffffffffffffffffffffffffffffffff\n      and\n        /* \"contracts/mytest2/ERC770.sol\":1182:1202  msg.sender == _owner */\n      0xffffffffffffffffffffffffffffffffffffffff\n      and\n        /* \"contracts/mytest2/ERC770.sol\":1182:1192  msg.sender */\n      caller\n        /* \"contracts/mytest2/ERC770.sol\":1182:1202  msg.sender == _owner */\n      0xffffffffffffffffffffffffffffffffffffffff\n      and\n      eq\n        /* \"contracts/mytest2/ERC770.sol\":1174:1220  require(msg.sender == _owner, \"no permission\") */\n      tag_22\n      jumpi\n      mload(0x40)\n      0x08c379a000000000000000000000000000000000000000000000000000000000\n      dup2\n      mstore\n      0x04\n      add\n      tag_23\n      swap1\n      tag_24\n      jump\t// in\n    tag_23:\n      mload(0x40)\n      dup1\n      swap2\n      sub\n      swap1\n      revert\n    tag_22:\n        /* \"contracts/mytest2/ERC770.sol\":1231:1243  uint balance */\n      0x00\n        /* \"contracts/mytest2/ERC770.sol\":1246:1252  _token */\n      0x02\n      0x00\n      swap1\n      sload\n      swap1\n      0x0100\n      exp\n      swap1\n      div\n      0xffffffffffffffffffffffffffffffffffffffff\n      and\n        /* \"contracts/mytest2/ERC770.sol\":1246:1262  _token.balanceOf */\n      0xffffffffffffffffffffffffffffffffffffffff\n      and\n      0x70a08231\n        /* \"contracts/mytest2/ERC770.sol\":1271:1275  this */\n      address\n        /* \"contracts/mytest2/ERC770.sol\":1246:1277  _token.balanceOf(address(this)) */\n      mload(0x40)\n      dup3\n      0xffffffff\n      and\n      0xe0\n      shl\n      dup2\n      mstore\n      0x04\n      add\n      tag_25\n      swap2\n      swap1\n      tag_26\n      jump\t// in\n    tag_25:\n      0x20\n      mload(0x40)\n      dup1\n      dup4\n      sub\n      dup2\n      dup7\n      gas\n      staticcall\n      iszero\n      dup1\n      iszero\n      tag_28\n      jumpi\n      returndatacopy(0x00, 0x00, returndatasize)\n      revert(0x00, returndatasize)\n    tag_28:\n      pop\n      pop\n      pop\n      pop\n      mload(0x40)\n      returndatasize\n      not(0x1f)\n      0x1f\n      dup3\n      add\n      and\n      dup3\n      add\n      dup1\n      0x40\n      mstore\n      pop\n      dup2\n      add\n      swap1\n      tag_29\n      swap2\n      swap1\n      tag_30\n      jump\t// in\n    tag_29:\n        /* \"contracts/mytest2/ERC770.sol\":1231:1277  uint balance = _token.balanceOf(address(this)) */\n      swap1\n      pop\n        /* \"contracts/mytest2/ERC770.sol\":1288:1294  _token */\n      0x02\n      0x00\n      swap1\n      sload\n      swap1\n      0x0100\n      exp\n      swap1\n      div\n      0xffffffffffffffffffffffffffffffffffffffff\n      and\n        /* \"contracts/mytest2/ERC770.sol\":1288:1299  _token.send */\n      0xffffffffffffffffffffffffffffffffffffffff\n      and\n      0x9bd9bbc6\n        /* \"contracts/mytest2/ERC770.sol\":1300:1306  _owner */\n      0x01\n      0x00\n      swap1\n      sload\n      swap1\n      0x0100\n      exp\n      swap1\n      div\n      0xffffffffffffffffffffffffffffffffffffffff\n      and\n        /* \"contracts/mytest2/ERC770.sol\":1308:1315  balance */\n      dup4\n        /* \"contracts/mytest2/ERC770.sol\":1288:1320  _token.send(_owner, balance, \"\") */\n      mload(0x40)\n      dup4\n      0xffffffff\n      and\n      0xe0\n      shl\n      dup2\n      mstore\n      0x04\n      add\n      tag_31\n      swap3\n      swap2\n      swap1\n      tag_32\n      jump\t// in\n    tag_31:\n      0x00\n      mload(0x40)\n      dup1\n      dup4\n      sub\n      dup2\n      0x00\n      dup8\n      dup1\n      extcodesize\n      iszero\n      dup1\n      iszero\n      tag_33\n      jumpi\n      revert(0x00, 0x00)\n    tag_33:\n      pop\n      gas\n      call\n      iszero\n      dup1\n      iszero\n      tag_35\n      jumpi\n      returndatacopy(0x00, 0x00, returndatasize)\n      revert(0x00, returndatasize)\n    tag_35:\n      pop\n      pop\n      pop\n      pop\n        /* \"contracts/mytest2/ERC770.sol\":1163:1328  {... */\n      pop\n        /* \"contracts/mytest2/ERC770.sol\":1134:1328  function withdraw() external {... */\n      jump\t// out\n        /* \"contracts/mytest2/ERC770.sol\":304:342  mapping(address => uint) public givers */\n    tag_15:\n      mstore(0x20, 0x00)\n      dup1\n      0x00\n      mstore\n      keccak256(0x00, 0x40)\n      0x00\n      swap2\n      pop\n      swap1\n      pop\n      sload\n      dup2\n      jump\t// out\n        /* \"#utility.yul\":88:205   */\n    tag_37:\n        /* \"#utility.yul\":197:198   */\n      0x00\n        /* \"#utility.yul\":194:195   */\n      0x00\n        /* \"#utility.yul\":187:199   */\n      revert\n        /* \"#utility.yul\":211:328   */\n    tag_38:\n        /* \"#utility.yul\":320:321   */\n      0x00\n        /* \"#utility.yul\":317:318   */\n      0x00\n        /* \"#utility.yul\":310:322   */\n      revert\n        /* \"#utility.yul\":334:460   */\n    tag_39:\n        /* \"#utility.yul\":371:378   */\n      0x00\n        /* \"#utility.yul\":411:453   */\n      0xffffffffffffffffffffffffffffffffffffffff\n        /* \"#utility.yul\":404:409   */\n      dup3\n        /* \"#utility.yul\":400:454   */\n      and\n        /* \"#utility.yul\":389:454   */\n      swap1\n      pop\n        /* \"#utility.yul\":334:460   */\n      swap2\n      swap1\n      pop\n      jump\t// out\n        /* \"#utility.yul\":466:562   */\n    tag_40:\n        /* \"#utility.yul\":503:510   */\n      0x00\n        /* \"#utility.yul\":532:556   */\n      tag_66\n        /* \"#utility.yul\":550:555   */\n      dup3\n        /* \"#utility.yul\":532:556   */\n      tag_39\n      jump\t// in\n    tag_66:\n        /* \"#utility.yul\":521:556   */\n      swap1\n      pop\n        /* \"#utility.yul\":466:562   */\n      swap2\n      swap1\n      pop\n      jump\t// out\n        /* \"#utility.yul\":568:690   */\n    tag_41:\n        /* \"#utility.yul\":641:665   */\n      tag_68\n        /* \"#utility.yul\":659:664   */\n      dup2\n        /* \"#utility.yul\":641:665   */\n      tag_40\n      jump\t// in\n    tag_68:\n        /* \"#utility.yul\":634:639   */\n      dup2\n        /* \"#utility.yul\":631:666   */\n      eq\n        /* \"#utility.yul\":621:684   */\n      tag_69\n      jumpi\n        /* \"#utility.yul\":680:681   */\n      0x00\n        /* \"#utility.yul\":677:678   */\n      0x00\n        /* \"#utility.yul\":670:682   */\n      revert\n        /* \"#utility.yul\":621:684   */\n    tag_69:\n        /* \"#utility.yul\":568:690   */\n      pop\n      jump\t// out\n        /* \"#utility.yul\":696:835   */\n    tag_42:\n        /* \"#utility.yul\":742:747   */\n      0x00\n        /* \"#utility.yul\":780:786   */\n      dup2\n        /* \"#utility.yul\":767:787   */\n      calldataload\n        /* \"#utility.yul\":758:787   */\n      swap1\n      pop\n        /* \"#utility.yul\":796:829   */\n      tag_71\n        /* \"#utility.yul\":823:828   */\n      dup2\n        /* \"#utility.yul\":796:829   */\n      tag_41\n      jump\t// in\n    tag_71:\n        /* \"#utility.yul\":696:835   */\n      swap3\n      swap2\n      pop\n      pop\n      jump\t// out\n        /* \"#utility.yul\":841:918   */\n    tag_43:\n        /* \"#utility.yul\":878:885   */\n      0x00\n        /* \"#utility.yul\":907:912   */\n      dup2\n        /* \"#utility.yul\":896:912   */\n      swap1\n      pop\n        /* \"#utility.yul\":841:918   */\n      swap2\n      swap1\n      pop\n      jump\t// out\n        /* \"#utility.yul\":924:1046   */\n    tag_44:\n        /* \"#utility.yul\":997:1021   */\n      tag_74\n        /* \"#utility.yul\":1015:1020   */\n      dup2\n        /* \"#utility.yul\":997:1021   */\n      tag_43\n      jump\t// in\n    tag_74:\n        /* \"#utility.yul\":990:995   */\n      dup2\n        /* \"#utility.yul\":987:1022   */\n      eq\n        /* \"#utility.yul\":977:1040   */\n      tag_75\n      jumpi\n        /* \"#utility.yul\":1036:1037   */\n      0x00\n        /* \"#utility.yul\":1033:1034   */\n      0x00\n        /* \"#utility.yul\":1026:1038   */\n      revert\n        /* \"#utility.yul\":977:1040   */\n    tag_75:\n        /* \"#utility.yul\":924:1046   */\n      pop\n      jump\t// out\n        /* \"#utility.yul\":1052:1191   */\n    tag_45:\n        /* \"#utility.yul\":1098:1103   */\n      0x00\n        /* \"#utility.yul\":1136:1142   */\n      dup2\n        /* \"#utility.yul\":1123:1143   */\n      calldataload\n        /* \"#utility.yul\":1114:1143   */\n      swap1\n      pop\n        /* \"#utility.yul\":1152:1185   */\n      tag_77\n        /* \"#utility.yul\":1179:1184   */\n      dup2\n        /* \"#utility.yul\":1152:1185   */\n      tag_44\n      jump\t// in\n    tag_77:\n        /* \"#utility.yul\":1052:1191   */\n      swap3\n      swap2\n      pop\n      pop\n      jump\t// out\n        /* \"#utility.yul\":1197:1314   */\n    tag_46:\n        /* \"#utility.yul\":1306:1307   */\n      0x00\n        /* \"#utility.yul\":1303:1304   */\n      0x00\n        /* \"#utility.yul\":1296:1308   */\n      revert\n        /* \"#utility.yul\":1320:1437   */\n    tag_47:\n        /* \"#utility.yul\":1429:1430   */\n      0x00\n        /* \"#utility.yul\":1426:1427   */\n      0x00\n        /* \"#utility.yul\":1419:1431   */\n      revert\n        /* \"#utility.yul\":1443:1560   */\n    tag_48:\n        /* \"#utility.yul\":1552:1553   */\n      0x00\n        /* \"#utility.yul\":1549:1550   */\n      0x00\n        /* \"#utility.yul\":1542:1554   */\n      revert\n        /* \"#utility.yul\":1579:2131   */\n    tag_49:\n        /* \"#utility.yul\":1636:1644   */\n      0x00\n        /* \"#utility.yul\":1646:1652   */\n      0x00\n        /* \"#utility.yul\":1696:1699   */\n      dup4\n        /* \"#utility.yul\":1689:1693   */\n      0x1f\n        /* \"#utility.yul\":1681:1687   */\n      dup5\n        /* \"#utility.yul\":1677:1694   */\n      add\n        /* \"#utility.yul\":1673:1700   */\n      slt\n        /* \"#utility.yul\":1663:1785   */\n      tag_82\n      jumpi\n        /* \"#utility.yul\":1704:1783   */\n      tag_83\n      tag_46\n      jump\t// in\n    tag_83:\n        /* \"#utility.yul\":1663:1785   */\n    tag_82:\n        /* \"#utility.yul\":1817:1823   */\n      dup3\n        /* \"#utility.yul\":1804:1824   */\n      calldataload\n        /* \"#utility.yul\":1794:1824   */\n      swap1\n      pop\n        /* \"#utility.yul\":1847:1865   */\n      0xffffffffffffffff\n        /* \"#utility.yul\":1839:1845   */\n      dup2\n        /* \"#utility.yul\":1836:1866   */\n      gt\n        /* \"#utility.yul\":1833:1950   */\n      iszero\n      tag_84\n      jumpi\n        /* \"#utility.yul\":1869:1948   */\n      tag_85\n      tag_47\n      jump\t// in\n    tag_85:\n        /* \"#utility.yul\":1833:1950   */\n    tag_84:\n        /* \"#utility.yul\":1983:1987   */\n      0x20\n        /* \"#utility.yul\":1975:1981   */\n      dup4\n        /* \"#utility.yul\":1971:1988   */\n      add\n        /* \"#utility.yul\":1959:1988   */\n      swap2\n      pop\n        /* \"#utility.yul\":2037:2040   */\n      dup4\n        /* \"#utility.yul\":2029:2033   */\n      0x01\n        /* \"#utility.yul\":2021:2027   */\n      dup3\n        /* \"#utility.yul\":2017:2034   */\n      mul\n        /* \"#utility.yul\":2007:2015   */\n      dup4\n        /* \"#utility.yul\":2003:2035   */\n      add\n        /* \"#utility.yul\":2000:2041   */\n      gt\n        /* \"#utility.yul\":1997:2125   */\n      iszero\n      tag_86\n      jumpi\n        /* \"#utility.yul\":2044:2123   */\n      tag_87\n      tag_48\n      jump\t// in\n    tag_87:\n        /* \"#utility.yul\":1997:2125   */\n    tag_86:\n        /* \"#utility.yul\":1579:2131   */\n      swap3\n      pop\n      swap3\n      swap1\n      pop\n      jump\t// out\n        /* \"#utility.yul\":2137:3590   */\n    tag_8:\n        /* \"#utility.yul\":2263:2269   */\n      0x00\n        /* \"#utility.yul\":2271:2277   */\n      0x00\n        /* \"#utility.yul\":2279:2285   */\n      0x00\n        /* \"#utility.yul\":2287:2293   */\n      0x00\n        /* \"#utility.yul\":2295:2301   */\n      0x00\n        /* \"#utility.yul\":2303:2309   */\n      0x00\n        /* \"#utility.yul\":2311:2317   */\n      0x00\n        /* \"#utility.yul\":2319:2325   */\n      0x00\n        /* \"#utility.yul\":2368:2371   */\n      0xc0\n        /* \"#utility.yul\":2356:2365   */\n      dup10\n        /* \"#utility.yul\":2347:2354   */\n      dup12\n        /* \"#utility.yul\":2343:2366   */\n      sub\n        /* \"#utility.yul\":2339:2372   */\n      slt\n        /* \"#utility.yul\":2336:2456   */\n      iszero\n      tag_89\n      jumpi\n        /* \"#utility.yul\":2375:2454   */\n      tag_90\n      tag_37\n      jump\t// in\n    tag_90:\n        /* \"#utility.yul\":2336:2456   */\n    tag_89:\n        /* \"#utility.yul\":2495:2496   */\n      0x00\n        /* \"#utility.yul\":2520:2573   */\n      tag_91\n        /* \"#utility.yul\":2565:2572   */\n      dup12\n        /* \"#utility.yul\":2556:2562   */\n      dup3\n        /* \"#utility.yul\":2545:2554   */\n      dup13\n        /* \"#utility.yul\":2541:2563   */\n      add\n        /* \"#utility.yul\":2520:2573   */\n      tag_42\n      jump\t// in\n    tag_91:\n        /* \"#utility.yul\":2510:2573   */\n      swap9\n      pop\n        /* \"#utility.yul\":2466:2583   */\n      pop\n        /* \"#utility.yul\":2622:2624   */\n      0x20\n        /* \"#utility.yul\":2648:2701   */\n      tag_92\n        /* \"#utility.yul\":2693:2700   */\n      dup12\n        /* \"#utility.yul\":2684:2690   */\n      dup3\n        /* \"#utility.yul\":2673:2682   */\n      dup13\n        /* \"#utility.yul\":2669:2691   */\n      add\n        /* \"#utility.yul\":2648:2701   */\n      tag_42\n      jump\t// in\n    tag_92:\n        /* \"#utility.yul\":2638:2701   */\n      swap8\n      pop\n        /* \"#utility.yul\":2593:2711   */\n      pop\n        /* \"#utility.yul\":2750:2752   */\n      0x40\n        /* \"#utility.yul\":2776:2829   */\n      tag_93\n        /* \"#utility.yul\":2821:2828   */\n      dup12\n        /* \"#utility.yul\":2812:2818   */\n      dup3\n        /* \"#utility.yul\":2801:2810   */\n      dup13\n        /* \"#utility.yul\":2797:2819   */\n      add\n        /* \"#utility.yul\":2776:2829   */\n      tag_42\n      jump\t// in\n    tag_93:\n        /* \"#utility.yul\":2766:2829   */\n      swap7\n      pop\n        /* \"#utility.yul\":2721:2839   */\n      pop\n        /* \"#utility.yul\":2878:2880   */\n      0x60\n        /* \"#utility.yul\":2904:2957   */\n      tag_94\n        /* \"#utility.yul\":2949:2956   */\n      dup12\n        /* \"#utility.yul\":2940:2946   */\n      dup3\n        /* \"#utility.yul\":2929:2938   */\n      dup13\n        /* \"#utility.yul\":2925:2947   */\n      add\n        /* \"#utility.yul\":2904:2957   */\n      tag_45\n      jump\t// in\n    tag_94:\n        /* \"#utility.yul\":2894:2957   */\n      swap6\n      pop\n        /* \"#utility.yul\":2849:2967   */\n      pop\n        /* \"#utility.yul\":3034:3037   */\n      0x80\n        /* \"#utility.yul\":3023:3032   */\n      dup10\n        /* \"#utility.yul\":3019:3038   */\n      add\n        /* \"#utility.yul\":3006:3039   */\n      calldataload\n        /* \"#utility.yul\":3066:3084   */\n      0xffffffffffffffff\n        /* \"#utility.yul\":3058:3064   */\n      dup2\n        /* \"#utility.yul\":3055:3085   */\n      gt\n        /* \"#utility.yul\":3052:3169   */\n      iszero\n      tag_95\n      jumpi\n        /* \"#utility.yul\":3088:3167   */\n      tag_96\n      tag_38\n      jump\t// in\n    tag_96:\n        /* \"#utility.yul\":3052:3169   */\n    tag_95:\n        /* \"#utility.yul\":3201:3265   */\n      tag_97\n        /* \"#utility.yul\":3257:3264   */\n      dup12\n        /* \"#utility.yul\":3248:3254   */\n      dup3\n        /* \"#utility.yul\":3237:3246   */\n      dup13\n        /* \"#utility.yul\":3233:3255   */\n      add\n        /* \"#utility.yul\":3201:3265   */\n      tag_49\n      jump\t// in\n    tag_97:\n        /* \"#utility.yul\":3183:3265   */\n      swap5\n      pop\n      swap5\n      pop\n        /* \"#utility.yul\":2977:3275   */\n      pop\n        /* \"#utility.yul\":3342:3345   */\n      0xa0\n        /* \"#utility.yul\":3331:3340   */\n      dup10\n        /* \"#utility.yul\":3327:3346   */\n      add\n        /* \"#utility.yul\":3314:3347   */\n      calldataload\n        /* \"#utility.yul\":3374:3392   */\n      0xffffffffffffffff\n        /* \"#utility.yul\":3366:3372   */\n      dup2\n        /* \"#utility.yul\":3363:3393   */\n      gt\n        /* \"#utility.yul\":3360:3477   */\n      iszero\n      tag_98\n      jumpi\n        /* \"#utility.yul\":3396:3475   */\n      tag_99\n      tag_38\n      jump\t// in\n    tag_99:\n        /* \"#utility.yul\":3360:3477   */\n    tag_98:\n        /* \"#utility.yul\":3509:3573   */\n      tag_100\n        /* \"#utility.yul\":3565:3572   */\n      dup12\n        /* \"#utility.yul\":3556:3562   */\n      dup3\n        /* \"#utility.yul\":3545:3554   */\n      dup13\n        /* \"#utility.yul\":3541:3563   */\n      add\n        /* \"#utility.yul\":3509:3573   */\n      tag_49\n      jump\t// in\n    tag_100:\n        /* \"#utility.yul\":3491:3573   */\n      swap3\n      pop\n      swap3\n      pop\n        /* \"#utility.yul\":3285:3583   */\n      pop\n        /* \"#utility.yul\":2137:3590   */\n      swap3\n      swap6\n      swap9\n      pop\n      swap3\n      swap6\n      swap9\n      swap1\n      swap4\n      swap7\n      pop\n      jump\t// out\n        /* \"#utility.yul\":3596:3925   */\n    tag_14:\n        /* \"#utility.yul\":3655:3661   */\n      0x00\n        /* \"#utility.yul\":3704:3706   */\n      0x20\n        /* \"#utility.yul\":3692:3701   */\n      dup3\n        /* \"#utility.yul\":3683:3690   */\n      dup5\n        /* \"#utility.yul\":3679:3702   */\n      sub\n        /* \"#utility.yul\":3675:3707   */\n      slt\n        /* \"#utility.yul\":3672:3791   */\n      iszero\n      tag_102\n      jumpi\n        /* \"#utility.yul\":3710:3789   */\n      tag_103\n      tag_37\n      jump\t// in\n    tag_103:\n        /* \"#utility.yul\":3672:3791   */\n    tag_102:\n        /* \"#utility.yul\":3830:3831   */\n      0x00\n        /* \"#utility.yul\":3855:3908   */\n      tag_104\n        /* \"#utility.yul\":3900:3907   */\n      dup5\n        /* \"#utility.yul\":3891:3897   */\n      dup3\n        /* \"#utility.yul\":3880:3889   */\n      dup6\n        /* \"#utility.yul\":3876:3898   */\n      add\n        /* \"#utility.yul\":3855:3908   */\n      tag_42\n      jump\t// in\n    tag_104:\n        /* \"#utility.yul\":3845:3908   */\n      swap2\n      pop\n        /* \"#utility.yul\":3801:3918   */\n      pop\n        /* \"#utility.yul\":3596:3925   */\n      swap3\n      swap2\n      pop\n      pop\n      jump\t// out\n        /* \"#utility.yul\":3931:4049   */\n    tag_50:\n        /* \"#utility.yul\":4018:4042   */\n      tag_106\n        /* \"#utility.yul\":4036:4041   */\n      dup2\n        /* \"#utility.yul\":4018:4042   */\n      tag_43\n      jump\t// in\n    tag_106:\n        /* \"#utility.yul\":4013:4016   */\n      dup3\n        /* \"#utility.yul\":4006:4043   */\n      mstore\n        /* \"#utility.yul\":3931:4049   */\n      pop\n      pop\n      jump\t// out\n        /* \"#utility.yul\":4055:4277   */\n    tag_17:\n        /* \"#utility.yul\":4148:4152   */\n      0x00\n        /* \"#utility.yul\":4186:4188   */\n      0x20\n        /* \"#utility.yul\":4175:4184   */\n      dup3\n        /* \"#utility.yul\":4171:4189   */\n      add\n        /* \"#utility.yul\":4163:4189   */\n      swap1\n      pop\n        /* \"#utility.yul\":4199:4270   */\n      tag_108\n        /* \"#utility.yul\":4267:4268   */\n      0x00\n        /* \"#utility.yul\":4256:4265   */\n      dup4\n        /* \"#utility.yul\":4252:4269   */\n      add\n        /* \"#utility.yul\":4243:4249   */\n      dup5\n        /* \"#utility.yul\":4199:4270   */\n      tag_50\n      jump\t// in\n    tag_108:\n        /* \"#utility.yul\":4055:4277   */\n      swap3\n      swap2\n      pop\n      pop\n      jump\t// out\n        /* \"#utility.yul\":4283:4463   */\n    tag_51:\n        /* \"#utility.yul\":4331:4408   */\n      0x4e487b7100000000000000000000000000000000000000000000000000000000\n        /* \"#utility.yul\":4328:4329   */\n      0x00\n        /* \"#utility.yul\":4321:4409   */\n      mstore\n        /* \"#utility.yul\":4428:4432   */\n      0x11\n        /* \"#utility.yul\":4425:4426   */\n      0x04\n        /* \"#utility.yul\":4418:4433   */\n      mstore\n        /* \"#utility.yul\":4452:4456   */\n      0x24\n        /* \"#utility.yul\":4449:4450   */\n      0x00\n        /* \"#utility.yul\":4442:4457   */\n      revert\n        /* \"#utility.yul\":4469:4660   */\n    tag_20:\n        /* \"#utility.yul\":4509:4512   */\n      0x00\n        /* \"#utility.yul\":4528:4548   */\n      tag_111\n        /* \"#utility.yul\":4546:4547   */\n      dup3\n        /* \"#utility.yul\":4528:4548   */\n      tag_43\n      jump\t// in\n    tag_111:\n        /* \"#utility.yul\":4523:4548   */\n      swap2\n      pop\n        /* \"#utility.yul\":4562:4582   */\n      tag_112\n        /* \"#utility.yul\":4580:4581   */\n      dup4\n        /* \"#utility.yul\":4562:4582   */\n      tag_43\n      jump\t// in\n    tag_112:\n        /* \"#utility.yul\":4557:4582   */\n      swap3\n      pop\n        /* \"#utility.yul\":4605:4606   */\n      dup3\n        /* \"#utility.yul\":4602:4603   */\n      dup3\n        /* \"#utility.yul\":4598:4607   */\n      add\n        /* \"#utility.yul\":4591:4607   */\n      swap1\n      pop\n        /* \"#utility.yul\":4626:4629   */\n      dup1\n        /* \"#utility.yul\":4623:4624   */\n      dup3\n        /* \"#utility.yul\":4620:4630   */\n      gt\n        /* \"#utility.yul\":4617:4653   */\n      iszero\n      tag_113\n      jumpi\n        /* \"#utility.yul\":4633:4651   */\n      tag_114\n      tag_51\n      jump\t// in\n    tag_114:\n        /* \"#utility.yul\":4617:4653   */\n    tag_113:\n        /* \"#utility.yul\":4469:4660   */\n      swap3\n      swap2\n      pop\n      pop\n      jump\t// out\n        /* \"#utility.yul\":4666:4835   */\n    tag_52:\n        /* \"#utility.yul\":4750:4761   */\n      0x00\n        /* \"#utility.yul\":4784:4790   */\n      dup3\n        /* \"#utility.yul\":4779:4782   */\n      dup3\n        /* \"#utility.yul\":4772:4791   */\n      mstore\n        /* \"#utility.yul\":4824:4828   */\n      0x20\n        /* \"#utility.yul\":4819:4822   */\n      dup3\n        /* \"#utility.yul\":4815:4829   */\n      add\n        /* \"#utility.yul\":4800:4829   */\n      swap1\n      pop\n        /* \"#utility.yul\":4666:4835   */\n      swap3\n      swap2\n      pop\n      pop\n      jump\t// out\n        /* \"#utility.yul\":4841:5004   */\n    tag_53:\n        /* \"#utility.yul\":4981:4996   */\n      0x6e6f207065726d697373696f6e00000000000000000000000000000000000000\n        /* \"#utility.yul\":4977:4978   */\n      0x00\n        /* \"#utility.yul\":4969:4975   */\n      dup3\n        /* \"#utility.yul\":4965:4979   */\n      add\n        /* \"#utility.yul\":4958:4997   */\n      mstore\n        /* \"#utility.yul\":4841:5004   */\n      pop\n      jump\t// out\n        /* \"#utility.yul\":5010:5376   */\n    tag_54:\n        /* \"#utility.yul\":5152:5155   */\n      0x00\n        /* \"#utility.yul\":5173:5240   */\n      tag_118\n        /* \"#utility.yul\":5237:5239   */\n      0x0d\n        /* \"#utility.yul\":5232:5235   */\n      dup4\n        /* \"#utility.yul\":5173:5240   */\n      tag_52\n      jump\t// in\n    tag_118:\n        /* \"#utility.yul\":5166:5240   */\n      swap2\n      pop\n        /* \"#utility.yul\":5249:5342   */\n      tag_119\n        /* \"#utility.yul\":5338:5341   */\n      dup3\n        /* \"#utility.yul\":5249:5342   */\n      tag_53\n      jump\t// in\n    tag_119:\n        /* \"#utility.yul\":5367:5369   */\n      0x20\n        /* \"#utility.yul\":5362:5365   */\n      dup3\n        /* \"#utility.yul\":5358:5370   */\n      add\n        /* \"#utility.yul\":5351:5370   */\n      swap1\n      pop\n        /* \"#utility.yul\":5010:5376   */\n      swap2\n      swap1\n      pop\n      jump\t// out\n        /* \"#utility.yul\":5382:5801   */\n    tag_24:\n        /* \"#utility.yul\":5548:5552   */\n      0x00\n        /* \"#utility.yul\":5586:5588   */\n      0x20\n        /* \"#utility.yul\":5575:5584   */\n      dup3\n        /* \"#utility.yul\":5571:5589   */\n      add\n        /* \"#utility.yul\":5563:5589   */\n      swap1\n      pop\n        /* \"#utility.yul\":5635:5644   */\n      dup2\n        /* \"#utility.yul\":5629:5633   */\n      dup2\n        /* \"#utility.yul\":5625:5645   */\n      sub\n        /* \"#utility.yul\":5621:5622   */\n      0x00\n        /* \"#utility.yul\":5610:5619   */\n      dup4\n        /* \"#utility.yul\":5606:5623   */\n      add\n        /* \"#utility.yul\":5599:5646   */\n      mstore\n        /* \"#utility.yul\":5663:5794   */\n      tag_121\n        /* \"#utility.yul\":5789:5793   */\n      dup2\n        /* \"#utility.yul\":5663:5794   */\n      tag_54\n      jump\t// in\n    tag_121:\n        /* \"#utility.yul\":5655:5794   */\n      swap1\n      pop\n        /* \"#utility.yul\":5382:5801   */\n      swap2\n      swap1\n      pop\n      jump\t// out\n        /* \"#utility.yul\":5807:5925   */\n    tag_55:\n        /* \"#utility.yul\":5894:5918   */\n      tag_123\n        /* \"#utility.yul\":5912:5917   */\n      dup2\n        /* \"#utility.yul\":5894:5918   */\n      tag_40\n      jump\t// in\n    tag_123:\n        /* \"#utility.yul\":5889:5892   */\n      dup3\n        /* \"#utility.yul\":5882:5919   */\n      mstore\n        /* \"#utility.yul\":5807:5925   */\n      pop\n      pop\n      jump\t// out\n        /* \"#utility.yul\":5931:6153   */\n    tag_26:\n        /* \"#utility.yul\":6024:6028   */\n      0x00\n        /* \"#utility.yul\":6062:6064   */\n      0x20\n        /* \"#utility.yul\":6051:6060   */\n      dup3\n        /* \"#utility.yul\":6047:6065   */\n      add\n        /* \"#utility.yul\":6039:6065   */\n      swap1\n      pop\n        /* \"#utility.yul\":6075:6146   */\n      tag_125\n        /* \"#utility.yul\":6143:6144   */\n      0x00\n        /* \"#utility.yul\":6132:6141   */\n      dup4\n        /* \"#utility.yul\":6128:6145   */\n      add\n        /* \"#utility.yul\":6119:6125   */\n      dup5\n        /* \"#utility.yul\":6075:6146   */\n      tag_55\n      jump\t// in\n    tag_125:\n        /* \"#utility.yul\":5931:6153   */\n      swap3\n      swap2\n      pop\n      pop\n      jump\t// out\n        /* \"#utility.yul\":6159:6302   */\n    tag_56:\n        /* \"#utility.yul\":6216:6221   */\n      0x00\n        /* \"#utility.yul\":6247:6253   */\n      dup2\n        /* \"#utility.yul\":6241:6254   */\n      mload\n        /* \"#utility.yul\":6232:6254   */\n      swap1\n      pop\n        /* \"#utility.yul\":6263:6296   */\n      tag_127\n        /* \"#utility.yul\":6290:6295   */\n      dup2\n        /* \"#utility.yul\":6263:6296   */\n      tag_44\n      jump\t// in\n    tag_127:\n        /* \"#utility.yul\":6159:6302   */\n      swap3\n      swap2\n      pop\n      pop\n      jump\t// out\n        /* \"#utility.yul\":6308:6659   */\n    tag_30:\n        /* \"#utility.yul\":6378:6384   */\n      0x00\n        /* \"#utility.yul\":6427:6429   */\n      0x20\n        /* \"#utility.yul\":6415:6424   */\n      dup3\n        /* \"#utility.yul\":6406:6413   */\n      dup5\n        /* \"#utility.yul\":6402:6425   */\n      sub\n        /* \"#utility.yul\":6398:6430   */\n      slt\n        /* \"#utility.yul\":6395:6514   */\n      iszero\n      tag_129\n      jumpi\n        /* \"#utility.yul\":6433:6512   */\n      tag_130\n      tag_37\n      jump\t// in\n    tag_130:\n        /* \"#utility.yul\":6395:6514   */\n    tag_129:\n        /* \"#utility.yul\":6553:6554   */\n      0x00\n        /* \"#utility.yul\":6578:6642   */\n      tag_131\n        /* \"#utility.yul\":6634:6641   */\n      dup5\n        /* \"#utility.yul\":6625:6631   */\n      dup3\n        /* \"#utility.yul\":6614:6623   */\n      dup6\n        /* \"#utility.yul\":6610:6632   */\n      add\n        /* \"#utility.yul\":6578:6642   */\n      tag_56\n      jump\t// in\n    tag_131:\n        /* \"#utility.yul\":6568:6642   */\n      swap2\n      pop\n        /* \"#utility.yul\":6524:6652   */\n      pop\n        /* \"#utility.yul\":6308:6659   */\n      swap3\n      swap2\n      pop\n      pop\n      jump\t// out\n        /* \"#utility.yul\":6665:6833   */\n    tag_57:\n        /* \"#utility.yul\":6748:6759   */\n      0x00\n        /* \"#utility.yul\":6782:6788   */\n      dup3\n        /* \"#utility.yul\":6777:6780   */\n      dup3\n        /* \"#utility.yul\":6770:6789   */\n      mstore\n        /* \"#utility.yul\":6822:6826   */\n      0x20\n        /* \"#utility.yul\":6817:6820   */\n      dup3\n        /* \"#utility.yul\":6813:6827   */\n      add\n        /* \"#utility.yul\":6798:6827   */\n      swap1\n      pop\n        /* \"#utility.yul\":6665:6833   */\n      swap3\n      swap2\n      pop\n      pop\n      jump\t// out\n        /* \"#utility.yul\":6839:6953   */\n    tag_58:\n      pop\n      jump\t// out\n        /* \"#utility.yul\":6959:7321   */\n    tag_59:\n        /* \"#utility.yul\":7100:7103   */\n      0x00\n        /* \"#utility.yul\":7121:7186   */\n      tag_135\n        /* \"#utility.yul\":7184:7185   */\n      0x00\n        /* \"#utility.yul\":7179:7182   */\n      dup4\n        /* \"#utility.yul\":7121:7186   */\n      tag_57\n      jump\t// in\n    tag_135:\n        /* \"#utility.yul\":7114:7186   */\n      swap2\n      pop\n        /* \"#utility.yul\":7195:7288   */\n      tag_136\n        /* \"#utility.yul\":7284:7287   */\n      dup3\n        /* \"#utility.yul\":7195:7288   */\n      tag_58\n      jump\t// in\n    tag_136:\n        /* \"#utility.yul\":7313:7314   */\n      0x00\n        /* \"#utility.yul\":7308:7311   */\n      dup3\n        /* \"#utility.yul\":7304:7315   */\n      add\n        /* \"#utility.yul\":7297:7315   */\n      swap1\n      pop\n        /* \"#utility.yul\":6959:7321   */\n      swap2\n      swap1\n      pop\n      jump\t// out\n        /* \"#utility.yul\":7327:7964   */\n    tag_32:\n        /* \"#utility.yul\":7548:7552   */\n      0x00\n        /* \"#utility.yul\":7586:7588   */\n      0x60\n        /* \"#utility.yul\":7575:7584   */\n      dup3\n        /* \"#utility.yul\":7571:7589   */\n      add\n        /* \"#utility.yul\":7563:7589   */\n      swap1\n      pop\n        /* \"#utility.yul\":7599:7670   */\n      tag_138\n        /* \"#utility.yul\":7667:7668   */\n      0x00\n        /* \"#utility.yul\":7656:7665   */\n      dup4\n        /* \"#utility.yul\":7652:7669   */\n      add\n        /* \"#utility.yul\":7643:7649   */\n      dup6\n        /* \"#utility.yul\":7599:7670   */\n      tag_55\n      jump\t// in\n    tag_138:\n        /* \"#utility.yul\":7680:7752   */\n      tag_139\n        /* \"#utility.yul\":7748:7750   */\n      0x20\n        /* \"#utility.yul\":7737:7746   */\n      dup4\n        /* \"#utility.yul\":7733:7751   */\n      add\n        /* \"#utility.yul\":7724:7730   */\n      dup5\n        /* \"#utility.yul\":7680:7752   */\n      tag_50\n      jump\t// in\n    tag_139:\n        /* \"#utility.yul\":7799:7808   */\n      dup2\n        /* \"#utility.yul\":7793:7797   */\n      dup2\n        /* \"#utility.yul\":7789:7809   */\n      sub\n        /* \"#utility.yul\":7784:7786   */\n      0x40\n        /* \"#utility.yul\":7773:7782   */\n      dup4\n        /* \"#utility.yul\":7769:7787   */\n      add\n        /* \"#utility.yul\":7762:7810   */\n      mstore\n        /* \"#utility.yul\":7827:7957   */\n      tag_140\n        /* \"#utility.yul\":7952:7956   */\n      dup2\n        /* \"#utility.yul\":7827:7957   */\n      tag_59\n      jump\t// in\n    tag_140:\n        /* \"#utility.yul\":7819:7957   */\n      swap1\n      pop\n        /* \"#utility.yul\":7327:7964   */\n      swap4\n      swap3\n      pop\n      pop\n      pop\n      jump\t// out\n\n    auxdata: 0xa26469706673582212201abea24ea563dca3adc204f6fa4fa4dcb4b1b359f6a387091a902246270d780b64736f6c634300081c0033\n}\n",
				"bytecode": {
					"linkReferences": {},
					"object": "608060405234801561000f575f5ffd5b5060405161083338038061083383398181016040528101906100319190610126565b3360015f6101000a81548173ffffffffffffffffffffffffffffffffffffffff021916908373ffffffffffffffffffffffffffffffffffffffff1602179055508060025f6101000a81548173ffffffffffffffffffffffffffffffffffffffff021916908373ffffffffffffffffffffffffffffffffffffffff16021790555050610151565b5f5ffd5b5f73ffffffffffffffffffffffffffffffffffffffff82169050919050565b5f6100e4826100bb565b9050919050565b5f6100f5826100da565b9050919050565b610105816100eb565b811461010f575f5ffd5b50565b5f81519050610120816100fc565b92915050565b5f6020828403121561013b5761013a6100b7565b5b5f61014884828501610112565b91505092915050565b6106d58061015e5f395ff3fe608060405234801561000f575f5ffd5b506004361061003e575f3560e01c806223de29146100425780633ccfd60b1461005e578063e89081f814610068575b5f5ffd5b61005c600480360381019061005791906103d6565b610098565b005b6100666100f4565b005b610082600480360381019061007d91906104a0565b6102cc565b60405161008f91906104da565b60405180910390f35b845f5f8973ffffffffffffffffffffffffffffffffffffffff1673ffffffffffffffffffffffffffffffffffffffff1681526020019081526020015f205f8282546100e39190610520565b925050819055505050505050505050565b60015f9054906101000a900473ffffffffffffffffffffffffffffffffffffffff1673ffffffffffffffffffffffffffffffffffffffff163373ffffffffffffffffffffffffffffffffffffffff1614610183576040517f08c379a000000000000000000000000000000000000000000000000000000000815260040161017a906105ad565b60405180910390fd5b5f60025f9054906101000a900473ffffffffffffffffffffffffffffffffffffffff1673ffffffffffffffffffffffffffffffffffffffff166370a08231306040518263ffffffff1660e01b81526004016101de91906105da565b602060405180830381865afa1580156101f9573d5f5f3e3d5ffd5b505050506040513d601f19601f8201168201806040525081019061021d9190610607565b905060025f9054906101000a900473ffffffffffffffffffffffffffffffffffffffff1673ffffffffffffffffffffffffffffffffffffffff16639bd9bbc660015f9054906101000a900473ffffffffffffffffffffffffffffffffffffffff16836040518363ffffffff1660e01b815260040161029c929190610665565b5f604051808303815f87803b1580156102b3575f5ffd5b505af11580156102c5573d5f5f3e3d5ffd5b5050505050565b5f602052805f5260405f205f915090505481565b5f5ffd5b5f5ffd5b5f73ffffffffffffffffffffffffffffffffffffffff82169050919050565b5f610311826102e8565b9050919050565b61032181610307565b811461032b575f5ffd5b50565b5f8135905061033c81610318565b92915050565b5f819050919050565b61035481610342565b811461035e575f5ffd5b50565b5f8135905061036f8161034b565b92915050565b5f5ffd5b5f5ffd5b5f5ffd5b5f5f83601f84011261039657610395610375565b5b8235905067ffffffffffffffff8111156103b3576103b2610379565b5b6020830191508360018202830111156103cf576103ce61037d565b5b9250929050565b5f5f5f5f5f5f5f5f60c0898b0312156103f2576103f16102e0565b5b5f6103ff8b828c0161032e565b98505060206104108b828c0161032e565b97505060406104218b828c0161032e565b96505060606104328b828c01610361565b955050608089013567ffffffffffffffff811115610453576104526102e4565b5b61045f8b828c01610381565b945094505060a089013567ffffffffffffffff811115610482576104816102e4565b5b61048e8b828c01610381565b92509250509295985092959890939650565b5f602082840312156104b5576104b46102e0565b5b5f6104c28482850161032e565b91505092915050565b6104d481610342565b82525050565b5f6020820190506104ed5f8301846104cb565b92915050565b7f4e487b71000000000000000000000000000000000000000000000000000000005f52601160045260245ffd5b5f61052a82610342565b915061053583610342565b925082820190508082111561054d5761054c6104f3565b5b92915050565b5f82825260208201905092915050565b7f6e6f207065726d697373696f6e000000000000000000000000000000000000005f82015250565b5f610597600d83610553565b91506105a282610563565b602082019050919050565b5f6020820190508181035f8301526105c48161058b565b9050919050565b6105d481610307565b82525050565b5f6020820190506105ed5f8301846105cb565b92915050565b5f815190506106018161034b565b92915050565b5f6020828403121561061c5761061b6102e0565b5b5f610629848285016105f3565b91505092915050565b5f82825260208201905092915050565b50565b5f6106505f83610632565b915061065b82610642565b5f82019050919050565b5f6060820190506106785f8301856105cb565b61068560208301846104cb565b818103604083015261069681610645565b9050939250505056fea26469706673582212201abea24ea563dca3adc204f6fa4fa4dcb4b1b359f6a387091a902246270d780b64736f6c634300081c0033",
					"opcodes": "PUSH1 0x80 PUSH1 0x40 MSTORE CALLVALUE DUP1 ISZERO PUSH2 0xF JUMPI PUSH0 PUSH0 REVERT JUMPDEST POP PUSH1 0x40 MLOAD PUSH2 0x833 CODESIZE SUB DUP1 PUSH2 0x833 DUP4 CODECOPY DUP2 DUP2 ADD PUSH1 0x40 MSTORE DUP2 ADD SWAP1 PUSH2 0x31 SWAP2 SWAP1 PUSH2 0x126 JUMP JUMPDEST CALLER PUSH1 0x1 PUSH0 PUSH2 0x100 EXP DUP2 SLOAD DUP2 PUSH20 0xFFFFFFFFFFFFFFFFFFFFFFFFFFFFFFFFFFFFFFFF MUL NOT AND SWAP1 DUP4 PUSH20 0xFFFFFFFFFFFFFFFFFFFFFFFFFFFFFFFFFFFFFFFF AND MUL OR SWAP1 SSTORE POP DUP1 PUSH1 0x2 PUSH0 PUSH2 0x100 EXP DUP2 SLOAD DUP2 PUSH20 0xFFFFFFFFFFFFFFFFFFFFFFFFFFFFFFFFFFFFFFFF MUL NOT AND SWAP1 DUP4 PUSH20 0xFFFFFFFFFFFFFFFFFFFFFFFFFFFFFFFFFFFFFFFF AND MUL OR SWAP1 SSTORE POP POP PUSH2 0x151 JUMP JUMPDEST PUSH0 PUSH0 REVERT JUMPDEST PUSH0 PUSH20 0xFFFFFFFFFFFFFFFFFFFFFFFFFFFFFFFFFFFFFFFF DUP3 AND SWAP1 POP SWAP2 SWAP1 POP JUMP JUMPDEST PUSH0 PUSH2 0xE4 DUP3 PUSH2 0xBB JUMP JUMPDEST SWAP1 POP SWAP2 SWAP1 POP JUMP JUMPDEST PUSH0 PUSH2 0xF5 DUP3 PUSH2 0xDA JUMP JUMPDEST SWAP1 POP SWAP2 SWAP1 POP JUMP JUMPDEST PUSH2 0x105 DUP2 PUSH2 0xEB JUMP JUMPDEST DUP2 EQ PUSH2 0x10F JUMPI PUSH0 PUSH0 REVERT JUMPDEST POP JUMP JUMPDEST PUSH0 DUP2 MLOAD SWAP1 POP PUSH2 0x120 DUP2 PUSH2 0xFC JUMP JUMPDEST SWAP3 SWAP2 POP POP JUMP JUMPDEST PUSH0 PUSH1 0x20 DUP3 DUP5 SUB SLT ISZERO PUSH2 0x13B JUMPI PUSH2 0x13A PUSH2 0xB7 JUMP JUMPDEST JUMPDEST PUSH0 PUSH2 0x148 DUP5 DUP3 DUP6 ADD PUSH2 0x112 JUMP JUMPDEST SWAP2 POP POP SWAP3 SWAP2 POP POP JUMP JUMPDEST PUSH2 0x6D5 DUP1 PUSH2 0x15E PUSH0 CODECOPY PUSH0 RETURN INVALID PUSH1 0x80 PUSH1 0x40 MSTORE CALLVALUE DUP1 ISZERO PUSH2 0xF JUMPI PUSH0 PUSH0 REVERT JUMPDEST POP PUSH1 0x4 CALLDATASIZE LT PUSH2 0x3E JUMPI PUSH0 CALLDATALOAD PUSH1 0xE0 SHR DUP1 PUSH3 0x23DE29 EQ PUSH2 0x42 JUMPI DUP1 PUSH4 0x3CCFD60B EQ PUSH2 0x5E JUMPI DUP1 PUSH4 0xE89081F8 EQ PUSH2 0x68 JUMPI JUMPDEST PUSH0 PUSH0 REVERT JUMPDEST PUSH2 0x5C PUSH1 0x4 DUP1 CALLDATASIZE SUB DUP2 ADD SWAP1 PUSH2 0x57 SWAP2 SWAP1 PUSH2 0x3D6 JUMP JUMPDEST PUSH2 0x98 JUMP JUMPDEST STOP JUMPDEST PUSH2 0x66 PUSH2 0xF4 JUMP JUMPDEST STOP JUMPDEST PUSH2 0x82 PUSH1 0x4 DUP1 CALLDATASIZE SUB DUP2 ADD SWAP1 PUSH2 0x7D SWAP2 SWAP1 PUSH2 0x4A0 JUMP JUMPDEST PUSH2 0x2CC JUMP JUMPDEST PUSH1 0x40 MLOAD PUSH2 0x8F SWAP2 SWAP1 PUSH2 0x4DA JUMP JUMPDEST PUSH1 0x40 MLOAD DUP1 SWAP2 SUB SWAP1 RETURN JUMPDEST DUP5 PUSH0 PUSH0 DUP10 PUSH20 0xFFFFFFFFFFFFFFFFFFFFFFFFFFFFFFFFFFFFFFFF AND PUSH20 0xFFFFFFFFFFFFFFFFFFFFFFFFFFFFFFFFFFFFFFFF AND DUP2 MSTORE PUSH1 0x20 ADD SWAP1 DUP2 MSTORE PUSH1 0x20 ADD PUSH0 KECCAK256 PUSH0 DUP3 DUP3 SLOAD PUSH2 0xE3 SWAP2 SWAP1 PUSH2 0x520 JUMP JUMPDEST SWAP3 POP POP DUP2 SWAP1 SSTORE POP POP POP POP POP POP POP POP POP JUMP JUMPDEST PUSH1 0x1 PUSH0 SWAP1 SLOAD SWAP1 PUSH2 0x100 EXP SWAP1 DIV PUSH20 0xFFFFFFFFFFFFFFFFFFFFFFFFFFFFFFFFFFFFFFFF AND PUSH20 0xFFFFFFFFFFFFFFFFFFFFFFFFFFFFFFFFFFFFFFFF AND CALLER PUSH20 0xFFFFFFFFFFFFFFFFFFFFFFFFFFFFFFFFFFFFFFFF AND EQ PUSH2 0x183 JUMPI PUSH1 0x40 MLOAD PUSH32 0x8C379A000000000000000000000000000000000000000000000000000000000 DUP2 MSTORE PUSH1 0x4 ADD PUSH2 0x17A SWAP1 PUSH2 0x5AD JUMP JUMPDEST PUSH1 0x40 MLOAD DUP1 SWAP2 SUB SWAP1 REVERT JUMPDEST PUSH0 PUSH1 0x2 PUSH0 SWAP1 SLOAD SWAP1 PUSH2 0x100 EXP SWAP1 DIV PUSH20 0xFFFFFFFFFFFFFFFFFFFFFFFFFFFFFFFFFFFFFFFF AND PUSH20 0xFFFFFFFFFFFFFFFFFFFFFFFFFFFFFFFFFFFFFFFF AND PUSH4 0x70A08231 ADDRESS PUSH1 0x40 MLOAD DUP3 PUSH4 0xFFFFFFFF AND PUSH1 0xE0 SHL DUP2 MSTORE PUSH1 0x4 ADD PUSH2 0x1DE SWAP2 SWAP1 PUSH2 0x5DA JUMP JUMPDEST PUSH1 0x20 PUSH1 0x40 MLOAD DUP1 DUP4 SUB DUP2 DUP7 GAS STATICCALL ISZERO DUP1 ISZERO PUSH2 0x1F9 JUMPI RETURNDATASIZE PUSH0 PUSH0 RETURNDATACOPY RETURNDATASIZE PUSH0 REVERT JUMPDEST POP POP POP POP PUSH1 0x40 MLOAD RETURNDATASIZE PUSH1 0x1F NOT PUSH1 0x1F DUP3 ADD AND DUP3 ADD DUP1 PUSH1 0x40 MSTORE POP DUP2 ADD SWAP1 PUSH2 0x21D SWAP2 SWAP1 PUSH2 0x607 JUMP JUMPDEST SWAP1 POP PUSH1 0x2 PUSH0 SWAP1 SLOAD SWAP1 PUSH2 0x100 EXP SWAP1 DIV PUSH20 0xFFFFFFFFFFFFFFFFFFFFFFFFFFFFFFFFFFFFFFFF AND PUSH20 0xFFFFFFFFFFFFFFFFFFFFFFFFFFFFFFFFFFFFFFFF AND PUSH4 0x9BD9BBC6 PUSH1 0x1 PUSH0 SWAP1 SLOAD SWAP1 PUSH2 0x100 EXP SWAP1 DIV PUSH20 0xFFFFFFFFFFFFFFFFFFFFFFFFFFFFFFFFFFFFFFFF AND DUP4 PUSH1 0x40 MLOAD DUP4 PUSH4 0xFFFFFFFF AND PUSH1 0xE0 SHL DUP2 MSTORE PUSH1 0x4 ADD PUSH2 0x29C SWAP3 SWAP2 SWAP1 PUSH2 0x665 JUMP JUMPDEST PUSH0 PUSH1 0x40 MLOAD DUP1 DUP4 SUB DUP2 PUSH0 DUP8 DUP1 EXTCODESIZE ISZERO DUP1 ISZERO PUSH2 0x2B3 JUMPI PUSH0 PUSH0 REVERT JUMPDEST POP GAS CALL ISZERO DUP1 ISZERO PUSH2 0x2C5 JUMPI RETURNDATASIZE PUSH0 PUSH0 RETURNDATACOPY RETURNDATASIZE PUSH0 REVERT JUMPDEST POP POP POP POP POP JUMP JUMPDEST PUSH0 PUSH1 0x20 MSTORE DUP1 PUSH0 MSTORE PUSH1 0x40 PUSH0 KECCAK256 PUSH0 SWAP2 POP SWAP1 POP SLOAD DUP2 JUMP JUMPDEST PUSH0 PUSH0 REVERT JUMPDEST PUSH0 PUSH0 REVERT JUMPDEST PUSH0 PUSH20 0xFFFFFFFFFFFFFFFFFFFFFFFFFFFFFFFFFFFFFFFF DUP3 AND SWAP1 POP SWAP2 SWAP1 POP JUMP JUMPDEST PUSH0 PUSH2 0x311 DUP3 PUSH2 0x2E8 JUMP JUMPDEST SWAP1 POP SWAP2 SWAP1 POP JUMP JUMPDEST PUSH2 0x321 DUP2 PUSH2 0x307 JUMP JUMPDEST DUP2 EQ PUSH2 0x32B JUMPI PUSH0 PUSH0 REVERT JUMPDEST POP JUMP JUMPDEST PUSH0 DUP2 CALLDATALOAD SWAP1 POP PUSH2 0x33C DUP2 PUSH2 0x318 JUMP JUMPDEST SWAP3 SWAP2 POP POP JUMP JUMPDEST PUSH0 DUP2 SWAP1 POP SWAP2 SWAP1 POP JUMP JUMPDEST PUSH2 0x354 DUP2 PUSH2 0x342 JUMP JUMPDEST DUP2 EQ PUSH2 0x35E JUMPI PUSH0 PUSH0 REVERT JUMPDEST POP JUMP JUMPDEST PUSH0 DUP2 CALLDATALOAD SWAP1 POP PUSH2 0x36F DUP2 PUSH2 0x34B JUMP JUMPDEST SWAP3 SWAP2 POP POP JUMP JUMPDEST PUSH0 PUSH0 REVERT JUMPDEST PUSH0 PUSH0 REVERT JUMPDEST PUSH0 PUSH0 REVERT JUMPDEST PUSH0 PUSH0 DUP4 PUSH1 0x1F DUP5 ADD SLT PUSH2 0x396 JUMPI PUSH2 0x395 PUSH2 0x375 JUMP JUMPDEST JUMPDEST DUP3 CALLDATALOAD SWAP1 POP PUSH8 0xFFFFFFFFFFFFFFFF DUP2 GT ISZERO PUSH2 0x3B3 JUMPI PUSH2 0x3B2 PUSH2 0x379 JUMP JUMPDEST JUMPDEST PUSH1 0x20 DUP4 ADD SWAP2 POP DUP4 PUSH1 0x1 DUP3 MUL DUP4 ADD GT ISZERO PUSH2 0x3CF JUMPI PUSH2 0x3CE PUSH2 0x37D JUMP JUMPDEST JUMPDEST SWAP3 POP SWAP3 SWAP1 POP JUMP JUMPDEST PUSH0 PUSH0 PUSH0 PUSH0 PUSH0 PUSH0 PUSH0 PUSH0 PUSH1 0xC0 DUP10 DUP12 SUB SLT ISZERO PUSH2 0x3F2 JUMPI PUSH2 0x3F1 PUSH2 0x2E0 JUMP JUMPDEST JUMPDEST PUSH0 PUSH2 0x3FF DUP12 DUP3 DUP13 ADD PUSH2 0x32E JUMP JUMPDEST SWAP9 POP POP PUSH1 0x20 PUSH2 0x410 DUP12 DUP3 DUP13 ADD PUSH2 0x32E JUMP JUMPDEST SWAP8 POP POP PUSH1 0x40 PUSH2 0x421 DUP12 DUP3 DUP13 ADD PUSH2 0x32E JUMP JUMPDEST SWAP7 POP POP PUSH1 0x60 PUSH2 0x432 DUP12 DUP3 DUP13 ADD PUSH2 0x361 JUMP JUMPDEST SWAP6 POP POP PUSH1 0x80 DUP10 ADD CALLDATALOAD PUSH8 0xFFFFFFFFFFFFFFFF DUP2 GT ISZERO PUSH2 0x453 JUMPI PUSH2 0x452 PUSH2 0x2E4 JUMP JUMPDEST JUMPDEST PUSH2 0x45F DUP12 DUP3 DUP13 ADD PUSH2 0x381 JUMP JUMPDEST SWAP5 POP SWAP5 POP POP PUSH1 0xA0 DUP10 ADD CALLDATALOAD PUSH8 0xFFFFFFFFFFFFFFFF DUP2 GT ISZERO PUSH2 0x482 JUMPI PUSH2 0x481 PUSH2 0x2E4 JUMP JUMPDEST JUMPDEST PUSH2 0x48E DUP12 DUP3 DUP13 ADD PUSH2 0x381 JUMP JUMPDEST SWAP3 POP SWAP3 POP POP SWAP3 SWAP6 SWAP9 POP SWAP3 SWAP6 SWAP9 SWAP1 SWAP4 SWAP7 POP JUMP JUMPDEST PUSH0 PUSH1 0x20 DUP3 DUP5 SUB SLT ISZERO PUSH2 0x4B5 JUMPI PUSH2 0x4B4 PUSH2 0x2E0 JUMP JUMPDEST JUMPDEST PUSH0 PUSH2 0x4C2 DUP5 DUP3 DUP6 ADD PUSH2 0x32E JUMP JUMPDEST SWAP2 POP POP SWAP3 SWAP2 POP POP JUMP JUMPDEST PUSH2 0x4D4 DUP2 PUSH2 0x342 JUMP JUMPDEST DUP3 MSTORE POP POP JUMP JUMPDEST PUSH0 PUSH1 0x20 DUP3 ADD SWAP1 POP PUSH2 0x4ED PUSH0 DUP4 ADD DUP5 PUSH2 0x4CB JUMP JUMPDEST SWAP3 SWAP2 POP POP JUMP JUMPDEST PUSH32 0x4E487B7100000000000000000000000000000000000000000000000000000000 PUSH0 MSTORE PUSH1 0x11 PUSH1 0x4 MSTORE PUSH1 0x24 PUSH0 REVERT JUMPDEST PUSH0 PUSH2 0x52A DUP3 PUSH2 0x342 JUMP JUMPDEST SWAP2 POP PUSH2 0x535 DUP4 PUSH2 0x342 JUMP JUMPDEST SWAP3 POP DUP3 DUP3 ADD SWAP1 POP DUP1 DUP3 GT ISZERO PUSH2 0x54D JUMPI PUSH2 0x54C PUSH2 0x4F3 JUMP JUMPDEST JUMPDEST SWAP3 SWAP2 POP POP JUMP JUMPDEST PUSH0 DUP3 DUP3 MSTORE PUSH1 0x20 DUP3 ADD SWAP1 POP SWAP3 SWAP2 POP POP JUMP JUMPDEST PUSH32 0x6E6F207065726D697373696F6E00000000000000000000000000000000000000 PUSH0 DUP3 ADD MSTORE POP JUMP JUMPDEST PUSH0 PUSH2 0x597 PUSH1 0xD DUP4 PUSH2 0x553 JUMP JUMPDEST SWAP2 POP PUSH2 0x5A2 DUP3 PUSH2 0x563 JUMP JUMPDEST PUSH1 0x20 DUP3 ADD SWAP1 POP SWAP2 SWAP1 POP JUMP JUMPDEST PUSH0 PUSH1 0x20 DUP3 ADD SWAP1 POP DUP2 DUP2 SUB PUSH0 DUP4 ADD MSTORE PUSH2 0x5C4 DUP2 PUSH2 0x58B JUMP JUMPDEST SWAP1 POP SWAP2 SWAP1 POP JUMP JUMPDEST PUSH2 0x5D4 DUP2 PUSH2 0x307 JUMP JUMPDEST DUP3 MSTORE POP POP JUMP JUMPDEST PUSH0 PUSH1 0x20 DUP3 ADD SWAP1 POP PUSH2 0x5ED PUSH0 DUP4 ADD DUP5 PUSH2 0x5CB JUMP JUMPDEST SWAP3 SWAP2 POP POP JUMP JUMPDEST PUSH0 DUP2 MLOAD SWAP1 POP PUSH2 0x601 DUP2 PUSH2 0x34B JUMP JUMPDEST SWAP3 SWAP2 POP POP JUMP JUMPDEST PUSH0 PUSH1 0x20 DUP3 DUP5 SUB SLT ISZERO PUSH2 0x61C JUMPI PUSH2 0x61B PUSH2 0x2E0 JUMP JUMPDEST JUMPDEST PUSH0 PUSH2 0x629 DUP5 DUP3 DUP6 ADD PUSH2 0x5F3 JUMP JUMPDEST SWAP2 POP POP SWAP3 SWAP2 POP POP JUMP JUMPDEST PUSH0 DUP3 DUP3 MSTORE PUSH1 0x20 DUP3 ADD SWAP1 POP SWAP3 SWAP2 POP POP JUMP JUMPDEST POP JUMP JUMPDEST PUSH0 PUSH2 0x650 PUSH0 DUP4 PUSH2 0x632 JUMP JUMPDEST SWAP2 POP PUSH2 0x65B DUP3 PUSH2 0x642 JUMP JUMPDEST PUSH0 DUP3 ADD SWAP1 POP SWAP2 SWAP1 POP JUMP JUMPDEST PUSH0 PUSH1 0x60 DUP3 ADD SWAP1 POP PUSH2 0x678 PUSH0 DUP4 ADD DUP6 PUSH2 0x5CB JUMP JUMPDEST PUSH2 0x685 PUSH1 0x20 DUP4 ADD DUP5 PUSH2 0x4CB JUMP JUMPDEST DUP2 DUP2 SUB PUSH1 0x40 DUP4 ADD MSTORE PUSH2 0x696 DUP2 PUSH2 0x645 JUMP JUMPDEST SWAP1 POP SWAP4 SWAP3 POP POP POP JUMP INVALID LOG2 PUSH5 0x6970667358 0x22 SLT KECCAK256 BYTE 0xBE LOG2 0x4E 0xA5 PUSH4 0xDCA3ADC2 DIV 0xF6 STATICCALL 0x4F LOG4 0xDC 0xB4 0xB1 0xB3 MSIZE 0xF6 LOG3 DUP8 MULMOD BYTE SWAP1 0x22 CHAINID 0x27 0xD PUSH25 0xB64736F6C634300081C003300000000000000000000000000 "
				},
				"gasEstimates": {
					"creation": {
						"codeDepositCost": "349800",
						"executionCost": "infinite",
						"totalCost": "infinite"
					},
					"external": {
						"givers(address)": "2823",
						"tokensReceived(address,address,address,uint256,bytes,bytes)": "infinite",
						"withdraw()": "infinite"
					}
				},
				"methodIdentifiers": {
					"givers(address)": "e89081f8",
					"tokensReceived(address,address,address,uint256,bytes,bytes)": "0023de29",
					"withdraw()": "3ccfd60b"
				}
			},
			"storageLayout": {
				"storage": [
					{
						"astId": 192,
						"contract": "contracts/mytest2/ERC770.sol:Merit",
						"label": "givers",
						"offset": 0,
						"slot": "0",
						"type": "t_mapping(t_address,t_uint256)"
					},
					{
						"astId": 194,
						"contract": "contracts/mytest2/ERC770.sol:Merit",
						"label": "_owner",
						"offset": 0,
						"slot": "1",
						"type": "t_address"
					},
					{
						"astId": 197,
						"contract": "contracts/mytest2/ERC770.sol:Merit",
						"label": "_token",
						"offset": 0,
						"slot": "2",
						"type": "t_contract(IERC777)162"
					}
				],
				"types": {
					"t_address": {
						"encoding": "inplace",
						"label": "address",
						"numberOfBytes": "20"
					},
					"t_contract(IERC777)162": {
						"encoding": "inplace",
						"label": "contract IERC777",
						"numberOfBytes": "20"
					},
					"t_mapping(t_address,t_uint256)": {
						"encoding": "mapping",
						"key": "t_address",
						"label": "mapping(address => uint256)",
						"numberOfBytes": "32",
						"value": "t_uint256"
					},
					"t_uint256": {
						"encoding": "inplace",
						"label": "uint256",
						"numberOfBytes": "32"
					}
				}
			},
			"userdoc": {
				"kind": "user",
				"methods": {},
				"version": 1
			}
		}
	}
}