{
	"contracts/mytest/funcFile.sol": {
		"FuncFile": {
			"abi": [
				{
					"inputs": [
						{
							"internalType": "uint256",
							"name": "x",
							"type": "uint256"
						}
					],
					"name": "double",
					"outputs": [
						{
							"internalType": "uint256",
							"name": "",
							"type": "uint256"
						}
					],
					"stateMutability": "pure",
					"type": "function"
				},
				{
					"inputs": [
						{
							"internalType": "bytes4",
							"name": "selector",
							"type": "bytes4"
						},
						{
							"internalType": "uint256",
							"name": "x",
							"type": "uint256"
						}
					],
					"name": "executeFunction",
					"outputs": [
						{
							"internalType": "uint256",
							"name": "z",
							"type": "uint256"
						}
					],
					"stateMutability": "nonpayable",
					"type": "function"
				},
				{
					"inputs": [
						{
							"internalType": "uint256",
							"name": "x",
							"type": "uint256"
						}
					],
					"name": "executeStoredFunction",
					"outputs": [
						{
							"internalType": "uint256",
							"name": "",
							"type": "uint256"
						}
					],
					"stateMutability": "nonpayable",
					"type": "function"
				},
				{
					"inputs": [],
					"name": "getSelectorDouble",
					"outputs": [
						{
							"internalType": "bytes4",
							"name": "",
							"type": "bytes4"
						}
					],
					"stateMutability": "pure",
					"type": "function"
				},
				{
					"inputs": [],
					"name": "getSelectorSquare",
					"outputs": [
						{
							"internalType": "bytes4",
							"name": "",
							"type": "bytes4"
						}
					],
					"stateMutability": "pure",
					"type": "function"
				},
				{
					"inputs": [
						{
							"internalType": "uint256",
							"name": "x",
							"type": "uint256"
						}
					],
					"name": "square",
					"outputs": [
						{
							"internalType": "uint256",
							"name": "",
							"type": "uint256"
						}
					],
					"stateMutability": "pure",
					"type": "function"
				},
				{
					"inputs": [
						{
							"internalType": "bytes4",
							"name": "selector",
							"type": "bytes4"
						}
					],
					"name": "storeSelector",
					"outputs": [],
					"stateMutability": "nonpayable",
					"type": "function"
				},
				{
					"inputs": [],
					"name": "storedSelector",
					"outputs": [
						{
							"internalType": "bytes4",
							"name": "",
							"type": "bytes4"
						}
					],
					"stateMutability": "view",
					"type": "function"
				}
			],
			"devdoc": {
				"kind": "dev",
				"methods": {},
				"version": 1
			},
			"evm": {
				"assembly": "    /* \"contracts/mytest/funcFile.sol\":60:1443  contract FuncFile {... */\n  mstore(0x40, 0x80)\n  callvalue\n  dup1\n  iszero\n  tag_1\n  jumpi\n  0x00\n  dup1\n  revert\ntag_1:\n  pop\n  dataSize(sub_0)\n  dup1\n  dataOffset(sub_0)\n  0x00\n  codecopy\n  0x00\n  return\nstop\n\nsub_0: assembly {\n        /* \"contracts/mytest/funcFile.sol\":60:1443  contract FuncFile {... */\n      mstore(0x40, 0x80)\n      callvalue\n      dup1\n      iszero\n      tag_1\n      jumpi\n      0x00\n      dup1\n      revert\n    tag_1:\n      pop\n      jumpi(tag_2, lt(calldatasize, 0x04))\n      shr(0xe0, calldataload(0x00))\n      dup1\n      0x7b292909\n      gt\n      tag_11\n      jumpi\n      dup1\n      0x7b292909\n      eq\n      tag_7\n      jumpi\n      dup1\n      0x8d10ff0c\n      eq\n      tag_8\n      jumpi\n      dup1\n      0xa25f4d31\n      eq\n      tag_9\n      jumpi\n      dup1\n      0xeee97206\n      eq\n      tag_10\n      jumpi\n      jump(tag_2)\n    tag_11:\n      dup1\n      0x027b68cb\n      eq\n      tag_3\n      jumpi\n      dup1\n      0x0670afef\n      eq\n      tag_4\n      jumpi\n      dup1\n      0x3b377b3c\n      eq\n      tag_5\n      jumpi\n      dup1\n      0x53308370\n      eq\n      tag_6\n      jumpi\n    tag_2:\n      0x00\n      dup1\n      revert\n        /* \"contracts/mytest/funcFile.sol\":302:407  function getSelectorSquare() external pure returns (bytes4){... */\n    tag_3:\n      tag_12\n      tag_13\n      jump\t// in\n    tag_12:\n      mload(0x40)\n      tag_14\n      swap2\n      swap1\n      tag_15\n      jump\t// in\n    tag_14:\n      mload(0x40)\n      dup1\n      swap2\n      sub\n      swap1\n      return\n        /* \"contracts/mytest/funcFile.sol\":415:520  function getSelectorDouble() external pure returns (bytes4){... */\n    tag_4:\n      tag_16\n      tag_17\n      jump\t// in\n    tag_16:\n      mload(0x40)\n      tag_18\n      swap2\n      swap1\n      tag_15\n      jump\t// in\n    tag_18:\n      mload(0x40)\n      dup1\n      swap2\n      sub\n      swap1\n      return\n        /* \"contracts/mytest/funcFile.sol\":87:115  bytes4 public storedSelector */\n    tag_5:\n      tag_19\n      tag_20\n      jump\t// in\n    tag_19:\n      mload(0x40)\n      tag_21\n      swap2\n      swap1\n      tag_15\n      jump\t// in\n    tag_21:\n      mload(0x40)\n      dup1\n      swap2\n      sub\n      swap1\n      return\n        /* \"contracts/mytest/funcFile.sol\":1074:1440  function executeStoredFunction(uint x) external returns (uint){... */\n    tag_6:\n      tag_22\n      0x04\n      dup1\n      calldatasize\n      sub\n      dup2\n      add\n      swap1\n      tag_23\n      swap2\n      swap1\n      tag_24\n      jump\t// in\n    tag_23:\n      tag_25\n      jump\t// in\n    tag_22:\n      mload(0x40)\n      tag_26\n      swap2\n      swap1\n      tag_27\n      jump\t// in\n    tag_26:\n      mload(0x40)\n      dup1\n      swap2\n      sub\n      swap1\n      return\n        /* \"contracts/mytest/funcFile.sol\":124:205  function square(uint x) public pure returns (uint){... */\n    tag_7:\n      tag_28\n      0x04\n      dup1\n      calldatasize\n      sub\n      dup2\n      add\n      swap1\n      tag_29\n      swap2\n      swap1\n      tag_24\n      jump\t// in\n    tag_29:\n      tag_30\n      jump\t// in\n    tag_28:\n      mload(0x40)\n      tag_31\n      swap2\n      swap1\n      tag_27\n      jump\t// in\n    tag_31:\n      mload(0x40)\n      dup1\n      swap2\n      sub\n      swap1\n      return\n        /* \"contracts/mytest/funcFile.sol\":975:1066  function storeSelector(bytes4 selector) public {... */\n    tag_8:\n      tag_32\n      0x04\n      dup1\n      calldatasize\n      sub\n      dup2\n      add\n      swap1\n      tag_33\n      swap2\n      swap1\n      tag_34\n      jump\t// in\n    tag_33:\n      tag_35\n      jump\t// in\n    tag_32:\n      stop\n        /* \"contracts/mytest/funcFile.sol\":528:791  function executeFunction(bytes4 selector, uint x) external returns (uint z){... */\n    tag_9:\n      tag_36\n      0x04\n      dup1\n      calldatasize\n      sub\n      dup2\n      add\n      swap1\n      tag_37\n      swap2\n      swap1\n      tag_38\n      jump\t// in\n    tag_37:\n      tag_39\n      jump\t// in\n    tag_36:\n      mload(0x40)\n      tag_40\n      swap2\n      swap1\n      tag_27\n      jump\t// in\n    tag_40:\n      mload(0x40)\n      dup1\n      swap2\n      sub\n      swap1\n      return\n        /* \"contracts/mytest/funcFile.sol\":213:294  function double(uint x) public pure returns (uint){... */\n    tag_10:\n      tag_41\n      0x04\n      dup1\n      calldatasize\n      sub\n      dup2\n      add\n      swap1\n      tag_42\n      swap2\n      swap1\n      tag_24\n      jump\t// in\n    tag_42:\n      tag_43\n      jump\t// in\n    tag_41:\n      mload(0x40)\n      tag_44\n      swap2\n      swap1\n      tag_27\n      jump\t// in\n    tag_44:\n      mload(0x40)\n      dup1\n      swap2\n      sub\n      swap1\n      return\n        /* \"contracts/mytest/funcFile.sol\":302:407  function getSelectorSquare() external pure returns (bytes4){... */\n    tag_13:\n        /* \"contracts/mytest/funcFile.sol\":354:360  bytes4 */\n      0x00\n        /* \"contracts/mytest/funcFile.sol\":379:399  this.square.selector */\n      shl(0xe0, 0x7b292909)\n        /* \"contracts/mytest/funcFile.sol\":372:399  return this.square.selector */\n      swap1\n      pop\n        /* \"contracts/mytest/funcFile.sol\":302:407  function getSelectorSquare() external pure returns (bytes4){... */\n      swap1\n      jump\t// out\n        /* \"contracts/mytest/funcFile.sol\":415:520  function getSelectorDouble() external pure returns (bytes4){... */\n    tag_17:\n        /* \"contracts/mytest/funcFile.sol\":467:473  bytes4 */\n      0x00\n        /* \"contracts/mytest/funcFile.sol\":492:512  this.double.selector */\n      shl(0xe0, 0xeee97206)\n        /* \"contracts/mytest/funcFile.sol\":485:512  return this.double.selector */\n      swap1\n      pop\n        /* \"contracts/mytest/funcFile.sol\":415:520  function getSelectorDouble() external pure returns (bytes4){... */\n      swap1\n      jump\t// out\n        /* \"contracts/mytest/funcFile.sol\":87:115  bytes4 public storedSelector */\n    tag_20:\n      0x00\n      dup1\n      sload\n      swap1\n      0x0100\n      exp\n      swap1\n      div\n      0xe0\n      shl\n      dup2\n      jump\t// out\n        /* \"contracts/mytest/funcFile.sol\":1074:1440  function executeStoredFunction(uint x) external returns (uint){... */\n    tag_25:\n        /* \"contracts/mytest/funcFile.sol\":1131:1135  uint */\n      0x00\n        /* \"contracts/mytest/funcFile.sol\":1220:1221  0 */\n      dup1\n        /* \"contracts/mytest/funcFile.sol\":1213:1222  bytes4(0) */\n      0xe0\n      shl\n        /* \"contracts/mytest/funcFile.sol\":1195:1222  storedSelector != bytes4(0) */\n      not(0xffffffffffffffffffffffffffffffffffffffffffffffffffffffff)\n      and\n        /* \"contracts/mytest/funcFile.sol\":1195:1209  storedSelector */\n      0x00\n      dup1\n      sload\n      swap1\n      0x0100\n      exp\n      swap1\n      div\n      0xe0\n      shl\n        /* \"contracts/mytest/funcFile.sol\":1195:1222  storedSelector != bytes4(0) */\n      not(0xffffffffffffffffffffffffffffffffffffffffffffffffffffffff)\n      and\n      sub\n        /* \"contracts/mytest/funcFile.sol\":1187:1243  require(storedSelector != bytes4(0), \"Selector not set\") */\n      tag_48\n      jumpi\n      mload(0x40)\n      0x08c379a000000000000000000000000000000000000000000000000000000000\n      dup2\n      mstore\n      0x04\n      add\n      tag_49\n      swap1\n      tag_50\n      jump\t// in\n    tag_49:\n      mload(0x40)\n      dup1\n      swap2\n      sub\n      swap1\n      revert\n    tag_48:\n        /* \"contracts/mytest/funcFile.sol\":1255:1267  bool success */\n      0x00\n        /* \"contracts/mytest/funcFile.sol\":1268:1285  bytes memory data */\n      dup1\n        /* \"contracts/mytest/funcFile.sol\":1297:1301  this */\n      address\n        /* \"contracts/mytest/funcFile.sol\":1289:1307  address(this).call */\n      0xffffffffffffffffffffffffffffffffffffffff\n      and\n        /* \"contracts/mytest/funcFile.sol\":1331:1345  storedSelector */\n      0x00\n      dup1\n      sload\n      swap1\n      0x0100\n      exp\n      swap1\n      div\n      0xe0\n      shl\n        /* \"contracts/mytest/funcFile.sol\":1347:1348  x */\n      dup6\n        /* \"contracts/mytest/funcFile.sol\":1308:1349  abi.encodeWithSelector(storedSelector, x) */\n      add(0x24, mload(0x40))\n      tag_51\n      swap2\n      swap1\n      tag_27\n      jump\t// in\n    tag_51:\n      mload(0x40)\n      0x20\n      dup2\n      dup4\n      sub\n      sub\n      dup2\n      mstore\n      swap1\n      0x40\n      mstore\n      swap1\n      not(0xffffffffffffffffffffffffffffffffffffffffffffffffffffffff)\n      and\n      0x20\n      dup3\n      add\n      dup1\n      mload\n      0xffffffffffffffffffffffffffffffffffffffffffffffffffffffff\n      dup4\n      dup2\n      dup4\n      and\n      or\n      dup4\n      mstore\n      pop\n      pop\n      pop\n      pop\n        /* \"contracts/mytest/funcFile.sol\":1289:1350  address(this).call(abi.encodeWithSelector(storedSelector, x)) */\n      mload(0x40)\n      tag_52\n      swap2\n      swap1\n      tag_53\n      jump\t// in\n    tag_52:\n      0x00\n      mload(0x40)\n      dup1\n      dup4\n      sub\n      dup2\n      0x00\n      dup7\n      gas\n      call\n      swap2\n      pop\n      pop\n      returndatasize\n      dup1\n      0x00\n      dup2\n      eq\n      tag_56\n      jumpi\n      mload(0x40)\n      swap2\n      pop\n      and(add(returndatasize, 0x3f), not(0x1f))\n      dup3\n      add\n      0x40\n      mstore\n      returndatasize\n      dup3\n      mstore\n      returndatasize\n      0x00\n      0x20\n      dup5\n      add\n      returndatacopy\n      jump(tag_55)\n    tag_56:\n      0x60\n      swap2\n      pop\n    tag_55:\n      pop\n        /* \"contracts/mytest/funcFile.sol\":1254:1350  (bool success,bytes memory data) = address(this).call(abi.encodeWithSelector(storedSelector, x)) */\n      swap2\n      pop\n      swap2\n      pop\n        /* \"contracts/mytest/funcFile.sol\":1369:1376  success */\n      dup2\n        /* \"contracts/mytest/funcFile.sol\":1361:1391  require(success,'Call failed') */\n      tag_57\n      jumpi\n      mload(0x40)\n      0x08c379a000000000000000000000000000000000000000000000000000000000\n      dup2\n      mstore\n      0x04\n      add\n      tag_58\n      swap1\n      tag_59\n      jump\t// in\n    tag_58:\n      mload(0x40)\n      dup1\n      swap2\n      sub\n      swap1\n      revert\n    tag_57:\n        /* \"contracts/mytest/funcFile.sol\":1420:1424  data */\n      dup1\n        /* \"contracts/mytest/funcFile.sol\":1409:1432  abi.decode(data,(uint)) */\n      dup1\n      0x20\n      add\n      swap1\n      mload\n      dup2\n      add\n      swap1\n      tag_60\n      swap2\n      swap1\n      tag_61\n      jump\t// in\n    tag_60:\n        /* \"contracts/mytest/funcFile.sol\":1402:1432  return abi.decode(data,(uint)) */\n      swap3\n      pop\n      pop\n      pop\n        /* \"contracts/mytest/funcFile.sol\":1074:1440  function executeStoredFunction(uint x) external returns (uint){... */\n      swap2\n      swap1\n      pop\n      jump\t// out\n        /* \"contracts/mytest/funcFile.sol\":124:205  function square(uint x) public pure returns (uint){... */\n    tag_30:\n        /* \"contracts/mytest/funcFile.sol\":169:173  uint */\n      0x00\n        /* \"contracts/mytest/funcFile.sol\":196:197  x */\n      dup2\n        /* \"contracts/mytest/funcFile.sol\":192:193  x */\n      dup3\n        /* \"contracts/mytest/funcFile.sol\":192:197  x * x */\n      tag_63\n      swap2\n      swap1\n      tag_64\n      jump\t// in\n    tag_63:\n        /* \"contracts/mytest/funcFile.sol\":185:197  return x * x */\n      swap1\n      pop\n        /* \"contracts/mytest/funcFile.sol\":124:205  function square(uint x) public pure returns (uint){... */\n      swap2\n      swap1\n      pop\n      jump\t// out\n        /* \"contracts/mytest/funcFile.sol\":975:1066  function storeSelector(bytes4 selector) public {... */\n    tag_35:\n        /* \"contracts/mytest/funcFile.sol\":1050:1058  selector */\n      dup1\n        /* \"contracts/mytest/funcFile.sol\":1033:1047  storedSelector */\n      0x00\n      dup1\n        /* \"contracts/mytest/funcFile.sol\":1033:1058  storedSelector = selector */\n      0x0100\n      exp\n      dup2\n      sload\n      dup2\n      0xffffffff\n      mul\n      not\n      and\n      swap1\n      dup4\n      0xe0\n      shr\n      mul\n      or\n      swap1\n      sstore\n      pop\n        /* \"contracts/mytest/funcFile.sol\":975:1066  function storeSelector(bytes4 selector) public {... */\n      pop\n      jump\t// out\n        /* \"contracts/mytest/funcFile.sol\":528:791  function executeFunction(bytes4 selector, uint x) external returns (uint z){... */\n    tag_39:\n        /* \"contracts/mytest/funcFile.sol\":596:602  uint z */\n      0x00\n        /* \"contracts/mytest/funcFile.sol\":615:627  bool success */\n      dup1\n        /* \"contracts/mytest/funcFile.sol\":628:645  bytes memory data */\n      0x00\n        /* \"contracts/mytest/funcFile.sol\":657:661  this */\n      address\n        /* \"contracts/mytest/funcFile.sol\":649:667  address(this).call */\n      0xffffffffffffffffffffffffffffffffffffffff\n      and\n        /* \"contracts/mytest/funcFile.sol\":691:699  selector */\n      dup6\n        /* \"contracts/mytest/funcFile.sol\":701:702  x */\n      dup6\n        /* \"contracts/mytest/funcFile.sol\":668:703  abi.encodeWithSelector(selector, x) */\n      add(0x24, mload(0x40))\n      tag_67\n      swap2\n      swap1\n      tag_27\n      jump\t// in\n    tag_67:\n      mload(0x40)\n      0x20\n      dup2\n      dup4\n      sub\n      sub\n      dup2\n      mstore\n      swap1\n      0x40\n      mstore\n      swap1\n      not(0xffffffffffffffffffffffffffffffffffffffffffffffffffffffff)\n      and\n      0x20\n      dup3\n      add\n      dup1\n      mload\n      0xffffffffffffffffffffffffffffffffffffffffffffffffffffffff\n      dup4\n      dup2\n      dup4\n      and\n      or\n      dup4\n      mstore\n      pop\n      pop\n      pop\n      pop\n        /* \"contracts/mytest/funcFile.sol\":649:704  address(this).call(abi.encodeWithSelector(selector, x)) */\n      mload(0x40)\n      tag_68\n      swap2\n      swap1\n      tag_53\n      jump\t// in\n    tag_68:\n      0x00\n      mload(0x40)\n      dup1\n      dup4\n      sub\n      dup2\n      0x00\n      dup7\n      gas\n      call\n      swap2\n      pop\n      pop\n      returndatasize\n      dup1\n      0x00\n      dup2\n      eq\n      tag_71\n      jumpi\n      mload(0x40)\n      swap2\n      pop\n      and(add(returndatasize, 0x3f), not(0x1f))\n      dup3\n      add\n      0x40\n      mstore\n      returndatasize\n      dup3\n      mstore\n      returndatasize\n      0x00\n      0x20\n      dup5\n      add\n      returndatacopy\n      jump(tag_70)\n    tag_71:\n      0x60\n      swap2\n      pop\n    tag_70:\n      pop\n        /* \"contracts/mytest/funcFile.sol\":614:704  (bool success,bytes memory data) = address(this).call(abi.encodeWithSelector(selector, x)) */\n      swap2\n      pop\n      swap2\n      pop\n        /* \"contracts/mytest/funcFile.sol\":723:730  success */\n      dup2\n        /* \"contracts/mytest/funcFile.sol\":715:745  require(success,'Call failed') */\n      tag_72\n      jumpi\n      mload(0x40)\n      0x08c379a000000000000000000000000000000000000000000000000000000000\n      dup2\n      mstore\n      0x04\n      add\n      tag_73\n      swap1\n      tag_59\n      jump\t// in\n    tag_73:\n      mload(0x40)\n      dup1\n      swap2\n      sub\n      swap1\n      revert\n    tag_72:\n        /* \"contracts/mytest/funcFile.sol\":771:775  data */\n      dup1\n        /* \"contracts/mytest/funcFile.sol\":760:783  abi.decode(data,(uint)) */\n      dup1\n      0x20\n      add\n      swap1\n      mload\n      dup2\n      add\n      swap1\n      tag_74\n      swap2\n      swap1\n      tag_61\n      jump\t// in\n    tag_74:\n        /* \"contracts/mytest/funcFile.sol\":756:783  z = abi.decode(data,(uint)) */\n      swap3\n      pop\n        /* \"contracts/mytest/funcFile.sol\":603:791  {... */\n      pop\n      pop\n        /* \"contracts/mytest/funcFile.sol\":528:791  function executeFunction(bytes4 selector, uint x) external returns (uint z){... */\n      swap3\n      swap2\n      pop\n      pop\n      jump\t// out\n        /* \"contracts/mytest/funcFile.sol\":213:294  function double(uint x) public pure returns (uint){... */\n    tag_43:\n        /* \"contracts/mytest/funcFile.sol\":258:262  uint */\n      0x00\n        /* \"contracts/mytest/funcFile.sol\":285:286  2 */\n      0x02\n        /* \"contracts/mytest/funcFile.sol\":281:282  x */\n      dup3\n        /* \"contracts/mytest/funcFile.sol\":281:286  x * 2 */\n      tag_76\n      swap2\n      swap1\n      tag_64\n      jump\t// in\n    tag_76:\n        /* \"contracts/mytest/funcFile.sol\":274:286  return x * 2 */\n      swap1\n      pop\n        /* \"contracts/mytest/funcFile.sol\":213:294  function double(uint x) public pure returns (uint){... */\n      swap2\n      swap1\n      pop\n      jump\t// out\n        /* \"#utility.yul\":7:156   */\n    tag_77:\n        /* \"#utility.yul\":43:50   */\n      0x00\n        /* \"#utility.yul\":83:149   */\n      0xffffffff00000000000000000000000000000000000000000000000000000000\n        /* \"#utility.yul\":76:81   */\n      dup3\n        /* \"#utility.yul\":72:150   */\n      and\n        /* \"#utility.yul\":61:150   */\n      swap1\n      pop\n        /* \"#utility.yul\":7:156   */\n      swap2\n      swap1\n      pop\n      jump\t// out\n        /* \"#utility.yul\":162:277   */\n    tag_78:\n        /* \"#utility.yul\":247:270   */\n      tag_102\n        /* \"#utility.yul\":264:269   */\n      dup2\n        /* \"#utility.yul\":247:270   */\n      tag_77\n      jump\t// in\n    tag_102:\n        /* \"#utility.yul\":242:245   */\n      dup3\n        /* \"#utility.yul\":235:271   */\n      mstore\n        /* \"#utility.yul\":162:277   */\n      pop\n      pop\n      jump\t// out\n        /* \"#utility.yul\":283:501   */\n    tag_15:\n        /* \"#utility.yul\":374:378   */\n      0x00\n        /* \"#utility.yul\":412:414   */\n      0x20\n        /* \"#utility.yul\":401:410   */\n      dup3\n        /* \"#utility.yul\":397:415   */\n      add\n        /* \"#utility.yul\":389:415   */\n      swap1\n      pop\n        /* \"#utility.yul\":425:494   */\n      tag_104\n        /* \"#utility.yul\":491:492   */\n      0x00\n        /* \"#utility.yul\":480:489   */\n      dup4\n        /* \"#utility.yul\":476:493   */\n      add\n        /* \"#utility.yul\":467:473   */\n      dup5\n        /* \"#utility.yul\":425:494   */\n      tag_78\n      jump\t// in\n    tag_104:\n        /* \"#utility.yul\":283:501   */\n      swap3\n      swap2\n      pop\n      pop\n      jump\t// out\n        /* \"#utility.yul\":588:705   */\n    tag_80:\n        /* \"#utility.yul\":697:698   */\n      0x00\n        /* \"#utility.yul\":694:695   */\n      dup1\n        /* \"#utility.yul\":687:699   */\n      revert\n        /* \"#utility.yul\":834:911   */\n    tag_82:\n        /* \"#utility.yul\":871:878   */\n      0x00\n        /* \"#utility.yul\":900:905   */\n      dup2\n        /* \"#utility.yul\":889:905   */\n      swap1\n      pop\n        /* \"#utility.yul\":834:911   */\n      swap2\n      swap1\n      pop\n      jump\t// out\n        /* \"#utility.yul\":917:1039   */\n    tag_83:\n        /* \"#utility.yul\":990:1014   */\n      tag_110\n        /* \"#utility.yul\":1008:1013   */\n      dup2\n        /* \"#utility.yul\":990:1014   */\n      tag_82\n      jump\t// in\n    tag_110:\n        /* \"#utility.yul\":983:988   */\n      dup2\n        /* \"#utility.yul\":980:1015   */\n      eq\n        /* \"#utility.yul\":970:1033   */\n      tag_111\n      jumpi\n        /* \"#utility.yul\":1029:1030   */\n      0x00\n        /* \"#utility.yul\":1026:1027   */\n      dup1\n        /* \"#utility.yul\":1019:1031   */\n      revert\n        /* \"#utility.yul\":970:1033   */\n    tag_111:\n        /* \"#utility.yul\":917:1039   */\n      pop\n      jump\t// out\n        /* \"#utility.yul\":1045:1184   */\n    tag_84:\n        /* \"#utility.yul\":1091:1096   */\n      0x00\n        /* \"#utility.yul\":1129:1135   */\n      dup2\n        /* \"#utility.yul\":1116:1136   */\n      calldataload\n        /* \"#utility.yul\":1107:1136   */\n      swap1\n      pop\n        /* \"#utility.yul\":1145:1178   */\n      tag_113\n        /* \"#utility.yul\":1172:1177   */\n      dup2\n        /* \"#utility.yul\":1145:1178   */\n      tag_83\n      jump\t// in\n    tag_113:\n        /* \"#utility.yul\":1045:1184   */\n      swap3\n      swap2\n      pop\n      pop\n      jump\t// out\n        /* \"#utility.yul\":1190:1519   */\n    tag_24:\n        /* \"#utility.yul\":1249:1255   */\n      0x00\n        /* \"#utility.yul\":1298:1300   */\n      0x20\n        /* \"#utility.yul\":1286:1295   */\n      dup3\n        /* \"#utility.yul\":1277:1284   */\n      dup5\n        /* \"#utility.yul\":1273:1296   */\n      sub\n        /* \"#utility.yul\":1269:1301   */\n      slt\n        /* \"#utility.yul\":1266:1385   */\n      iszero\n      tag_115\n      jumpi\n        /* \"#utility.yul\":1304:1383   */\n      tag_116\n      tag_80\n      jump\t// in\n    tag_116:\n        /* \"#utility.yul\":1266:1385   */\n    tag_115:\n        /* \"#utility.yul\":1424:1425   */\n      0x00\n        /* \"#utility.yul\":1449:1502   */\n      tag_117\n        /* \"#utility.yul\":1494:1501   */\n      dup5\n        /* \"#utility.yul\":1485:1491   */\n      dup3\n        /* \"#utility.yul\":1474:1483   */\n      dup6\n        /* \"#utility.yul\":1470:1492   */\n      add\n        /* \"#utility.yul\":1449:1502   */\n      tag_84\n      jump\t// in\n    tag_117:\n        /* \"#utility.yul\":1439:1502   */\n      swap2\n      pop\n        /* \"#utility.yul\":1395:1512   */\n      pop\n        /* \"#utility.yul\":1190:1519   */\n      swap3\n      swap2\n      pop\n      pop\n      jump\t// out\n        /* \"#utility.yul\":1525:1643   */\n    tag_85:\n        /* \"#utility.yul\":1612:1636   */\n      tag_119\n        /* \"#utility.yul\":1630:1635   */\n      dup2\n        /* \"#utility.yul\":1612:1636   */\n      tag_82\n      jump\t// in\n    tag_119:\n        /* \"#utility.yul\":1607:1610   */\n      dup3\n        /* \"#utility.yul\":1600:1637   */\n      mstore\n        /* \"#utility.yul\":1525:1643   */\n      pop\n      pop\n      jump\t// out\n        /* \"#utility.yul\":1649:1871   */\n    tag_27:\n        /* \"#utility.yul\":1742:1746   */\n      0x00\n        /* \"#utility.yul\":1780:1782   */\n      0x20\n        /* \"#utility.yul\":1769:1778   */\n      dup3\n        /* \"#utility.yul\":1765:1783   */\n      add\n        /* \"#utility.yul\":1757:1783   */\n      swap1\n      pop\n        /* \"#utility.yul\":1793:1864   */\n      tag_121\n        /* \"#utility.yul\":1861:1862   */\n      0x00\n        /* \"#utility.yul\":1850:1859   */\n      dup4\n        /* \"#utility.yul\":1846:1863   */\n      add\n        /* \"#utility.yul\":1837:1843   */\n      dup5\n        /* \"#utility.yul\":1793:1864   */\n      tag_85\n      jump\t// in\n    tag_121:\n        /* \"#utility.yul\":1649:1871   */\n      swap3\n      swap2\n      pop\n      pop\n      jump\t// out\n        /* \"#utility.yul\":1877:1997   */\n    tag_86:\n        /* \"#utility.yul\":1949:1972   */\n      tag_123\n        /* \"#utility.yul\":1966:1971   */\n      dup2\n        /* \"#utility.yul\":1949:1972   */\n      tag_77\n      jump\t// in\n    tag_123:\n        /* \"#utility.yul\":1942:1947   */\n      dup2\n        /* \"#utility.yul\":1939:1973   */\n      eq\n        /* \"#utility.yul\":1929:1991   */\n      tag_124\n      jumpi\n        /* \"#utility.yul\":1987:1988   */\n      0x00\n        /* \"#utility.yul\":1984:1985   */\n      dup1\n        /* \"#utility.yul\":1977:1989   */\n      revert\n        /* \"#utility.yul\":1929:1991   */\n    tag_124:\n        /* \"#utility.yul\":1877:1997   */\n      pop\n      jump\t// out\n        /* \"#utility.yul\":2003:2140   */\n    tag_87:\n        /* \"#utility.yul\":2048:2053   */\n      0x00\n        /* \"#utility.yul\":2086:2092   */\n      dup2\n        /* \"#utility.yul\":2073:2093   */\n      calldataload\n        /* \"#utility.yul\":2064:2093   */\n      swap1\n      pop\n        /* \"#utility.yul\":2102:2134   */\n      tag_126\n        /* \"#utility.yul\":2128:2133   */\n      dup2\n        /* \"#utility.yul\":2102:2134   */\n      tag_86\n      jump\t// in\n    tag_126:\n        /* \"#utility.yul\":2003:2140   */\n      swap3\n      swap2\n      pop\n      pop\n      jump\t// out\n        /* \"#utility.yul\":2146:2473   */\n    tag_34:\n        /* \"#utility.yul\":2204:2210   */\n      0x00\n        /* \"#utility.yul\":2253:2255   */\n      0x20\n        /* \"#utility.yul\":2241:2250   */\n      dup3\n        /* \"#utility.yul\":2232:2239   */\n      dup5\n        /* \"#utility.yul\":2228:2251   */\n      sub\n        /* \"#utility.yul\":2224:2256   */\n      slt\n        /* \"#utility.yul\":2221:2340   */\n      iszero\n      tag_128\n      jumpi\n        /* \"#utility.yul\":2259:2338   */\n      tag_129\n      tag_80\n      jump\t// in\n    tag_129:\n        /* \"#utility.yul\":2221:2340   */\n    tag_128:\n        /* \"#utility.yul\":2379:2380   */\n      0x00\n        /* \"#utility.yul\":2404:2456   */\n      tag_130\n        /* \"#utility.yul\":2448:2455   */\n      dup5\n        /* \"#utility.yul\":2439:2445   */\n      dup3\n        /* \"#utility.yul\":2428:2437   */\n      dup6\n        /* \"#utility.yul\":2424:2446   */\n      add\n        /* \"#utility.yul\":2404:2456   */\n      tag_87\n      jump\t// in\n    tag_130:\n        /* \"#utility.yul\":2394:2456   */\n      swap2\n      pop\n        /* \"#utility.yul\":2350:2466   */\n      pop\n        /* \"#utility.yul\":2146:2473   */\n      swap3\n      swap2\n      pop\n      pop\n      jump\t// out\n        /* \"#utility.yul\":2479:2951   */\n    tag_38:\n        /* \"#utility.yul\":2546:2552   */\n      0x00\n        /* \"#utility.yul\":2554:2560   */\n      dup1\n        /* \"#utility.yul\":2603:2605   */\n      0x40\n        /* \"#utility.yul\":2591:2600   */\n      dup4\n        /* \"#utility.yul\":2582:2589   */\n      dup6\n        /* \"#utility.yul\":2578:2601   */\n      sub\n        /* \"#utility.yul\":2574:2606   */\n      slt\n        /* \"#utility.yul\":2571:2690   */\n      iszero\n      tag_132\n      jumpi\n        /* \"#utility.yul\":2609:2688   */\n      tag_133\n      tag_80\n      jump\t// in\n    tag_133:\n        /* \"#utility.yul\":2571:2690   */\n    tag_132:\n        /* \"#utility.yul\":2729:2730   */\n      0x00\n        /* \"#utility.yul\":2754:2806   */\n      tag_134\n        /* \"#utility.yul\":2798:2805   */\n      dup6\n        /* \"#utility.yul\":2789:2795   */\n      dup3\n        /* \"#utility.yul\":2778:2787   */\n      dup7\n        /* \"#utility.yul\":2774:2796   */\n      add\n        /* \"#utility.yul\":2754:2806   */\n      tag_87\n      jump\t// in\n    tag_134:\n        /* \"#utility.yul\":2744:2806   */\n      swap3\n      pop\n        /* \"#utility.yul\":2700:2816   */\n      pop\n        /* \"#utility.yul\":2855:2857   */\n      0x20\n        /* \"#utility.yul\":2881:2934   */\n      tag_135\n        /* \"#utility.yul\":2926:2933   */\n      dup6\n        /* \"#utility.yul\":2917:2923   */\n      dup3\n        /* \"#utility.yul\":2906:2915   */\n      dup7\n        /* \"#utility.yul\":2902:2924   */\n      add\n        /* \"#utility.yul\":2881:2934   */\n      tag_84\n      jump\t// in\n    tag_135:\n        /* \"#utility.yul\":2871:2934   */\n      swap2\n      pop\n        /* \"#utility.yul\":2826:2944   */\n      pop\n        /* \"#utility.yul\":2479:2951   */\n      swap3\n      pop\n      swap3\n      swap1\n      pop\n      jump\t// out\n        /* \"#utility.yul\":2957:3126   */\n    tag_88:\n        /* \"#utility.yul\":3041:3052   */\n      0x00\n        /* \"#utility.yul\":3075:3081   */\n      dup3\n        /* \"#utility.yul\":3070:3073   */\n      dup3\n        /* \"#utility.yul\":3063:3082   */\n      mstore\n        /* \"#utility.yul\":3115:3119   */\n      0x20\n        /* \"#utility.yul\":3110:3113   */\n      dup3\n        /* \"#utility.yul\":3106:3120   */\n      add\n        /* \"#utility.yul\":3091:3120   */\n      swap1\n      pop\n        /* \"#utility.yul\":2957:3126   */\n      swap3\n      swap2\n      pop\n      pop\n      jump\t// out\n        /* \"#utility.yul\":3132:3298   */\n    tag_89:\n        /* \"#utility.yul\":3272:3290   */\n      0x53656c6563746f72206e6f742073657400000000000000000000000000000000\n        /* \"#utility.yul\":3268:3269   */\n      0x00\n        /* \"#utility.yul\":3260:3266   */\n      dup3\n        /* \"#utility.yul\":3256:3270   */\n      add\n        /* \"#utility.yul\":3249:3291   */\n      mstore\n        /* \"#utility.yul\":3132:3298   */\n      pop\n      jump\t// out\n        /* \"#utility.yul\":3304:3670   */\n    tag_90:\n        /* \"#utility.yul\":3446:3449   */\n      0x00\n        /* \"#utility.yul\":3467:3534   */\n      tag_139\n        /* \"#utility.yul\":3531:3533   */\n      0x10\n        /* \"#utility.yul\":3526:3529   */\n      dup4\n        /* \"#utility.yul\":3467:3534   */\n      tag_88\n      jump\t// in\n    tag_139:\n        /* \"#utility.yul\":3460:3534   */\n      swap2\n      pop\n        /* \"#utility.yul\":3543:3636   */\n      tag_140\n        /* \"#utility.yul\":3632:3635   */\n      dup3\n        /* \"#utility.yul\":3543:3636   */\n      tag_89\n      jump\t// in\n    tag_140:\n        /* \"#utility.yul\":3661:3663   */\n      0x20\n        /* \"#utility.yul\":3656:3659   */\n      dup3\n        /* \"#utility.yul\":3652:3664   */\n      add\n        /* \"#utility.yul\":3645:3664   */\n      swap1\n      pop\n        /* \"#utility.yul\":3304:3670   */\n      swap2\n      swap1\n      pop\n      jump\t// out\n        /* \"#utility.yul\":3676:4095   */\n    tag_50:\n        /* \"#utility.yul\":3842:3846   */\n      0x00\n        /* \"#utility.yul\":3880:3882   */\n      0x20\n        /* \"#utility.yul\":3869:3878   */\n      dup3\n        /* \"#utility.yul\":3865:3883   */\n      add\n        /* \"#utility.yul\":3857:3883   */\n      swap1\n      pop\n        /* \"#utility.yul\":3929:3938   */\n      dup2\n        /* \"#utility.yul\":3923:3927   */\n      dup2\n        /* \"#utility.yul\":3919:3939   */\n      sub\n        /* \"#utility.yul\":3915:3916   */\n      0x00\n        /* \"#utility.yul\":3904:3913   */\n      dup4\n        /* \"#utility.yul\":3900:3917   */\n      add\n        /* \"#utility.yul\":3893:3940   */\n      mstore\n        /* \"#utility.yul\":3957:4088   */\n      tag_142\n        /* \"#utility.yul\":4083:4087   */\n      dup2\n        /* \"#utility.yul\":3957:4088   */\n      tag_90\n      jump\t// in\n    tag_142:\n        /* \"#utility.yul\":3949:4088   */\n      swap1\n      pop\n        /* \"#utility.yul\":3676:4095   */\n      swap2\n      swap1\n      pop\n      jump\t// out\n        /* \"#utility.yul\":4101:4199   */\n    tag_91:\n        /* \"#utility.yul\":4152:4158   */\n      0x00\n        /* \"#utility.yul\":4186:4191   */\n      dup2\n        /* \"#utility.yul\":4180:4192   */\n      mload\n        /* \"#utility.yul\":4170:4192   */\n      swap1\n      pop\n        /* \"#utility.yul\":4101:4199   */\n      swap2\n      swap1\n      pop\n      jump\t// out\n        /* \"#utility.yul\":4205:4352   */\n    tag_92:\n        /* \"#utility.yul\":4306:4317   */\n      0x00\n        /* \"#utility.yul\":4343:4346   */\n      dup2\n        /* \"#utility.yul\":4328:4346   */\n      swap1\n      pop\n        /* \"#utility.yul\":4205:4352   */\n      swap3\n      swap2\n      pop\n      pop\n      jump\t// out\n        /* \"#utility.yul\":4358:4497   */\n    tag_93:\n        /* \"#utility.yul\":4447:4453   */\n      dup3\n        /* \"#utility.yul\":4442:4445   */\n      dup2\n        /* \"#utility.yul\":4437:4440   */\n      dup4\n        /* \"#utility.yul\":4431:4454   */\n      mcopy\n        /* \"#utility.yul\":4488:4489   */\n      0x00\n        /* \"#utility.yul\":4479:4485   */\n      dup4\n        /* \"#utility.yul\":4474:4477   */\n      dup4\n        /* \"#utility.yul\":4470:4486   */\n      add\n        /* \"#utility.yul\":4463:4490   */\n      mstore\n        /* \"#utility.yul\":4358:4497   */\n      pop\n      pop\n      pop\n      jump\t// out\n        /* \"#utility.yul\":4503:4889   */\n    tag_94:\n        /* \"#utility.yul\":4607:4610   */\n      0x00\n        /* \"#utility.yul\":4635:4673   */\n      tag_147\n        /* \"#utility.yul\":4667:4672   */\n      dup3\n        /* \"#utility.yul\":4635:4673   */\n      tag_91\n      jump\t// in\n    tag_147:\n        /* \"#utility.yul\":4689:4777   */\n      tag_148\n        /* \"#utility.yul\":4770:4776   */\n      dup2\n        /* \"#utility.yul\":4765:4768   */\n      dup6\n        /* \"#utility.yul\":4689:4777   */\n      tag_92\n      jump\t// in\n    tag_148:\n        /* \"#utility.yul\":4682:4777   */\n      swap4\n      pop\n        /* \"#utility.yul\":4786:4851   */\n      tag_149\n        /* \"#utility.yul\":4844:4850   */\n      dup2\n        /* \"#utility.yul\":4839:4842   */\n      dup6\n        /* \"#utility.yul\":4832:4836   */\n      0x20\n        /* \"#utility.yul\":4825:4830   */\n      dup7\n        /* \"#utility.yul\":4821:4837   */\n      add\n        /* \"#utility.yul\":4786:4851   */\n      tag_93\n      jump\t// in\n    tag_149:\n        /* \"#utility.yul\":4876:4882   */\n      dup1\n        /* \"#utility.yul\":4871:4874   */\n      dup5\n        /* \"#utility.yul\":4867:4883   */\n      add\n        /* \"#utility.yul\":4860:4883   */\n      swap2\n      pop\n        /* \"#utility.yul\":4611:4889   */\n      pop\n        /* \"#utility.yul\":4503:4889   */\n      swap3\n      swap2\n      pop\n      pop\n      jump\t// out\n        /* \"#utility.yul\":4895:5166   */\n    tag_53:\n        /* \"#utility.yul\":5025:5028   */\n      0x00\n        /* \"#utility.yul\":5047:5140   */\n      tag_151\n        /* \"#utility.yul\":5136:5139   */\n      dup3\n        /* \"#utility.yul\":5127:5133   */\n      dup5\n        /* \"#utility.yul\":5047:5140   */\n      tag_94\n      jump\t// in\n    tag_151:\n        /* \"#utility.yul\":5040:5140   */\n      swap2\n      pop\n        /* \"#utility.yul\":5157:5160   */\n      dup2\n        /* \"#utility.yul\":5150:5160   */\n      swap1\n      pop\n        /* \"#utility.yul\":4895:5166   */\n      swap3\n      swap2\n      pop\n      pop\n      jump\t// out\n        /* \"#utility.yul\":5172:5333   */\n    tag_95:\n        /* \"#utility.yul\":5312:5325   */\n      0x43616c6c206661696c6564000000000000000000000000000000000000000000\n        /* \"#utility.yul\":5308:5309   */\n      0x00\n        /* \"#utility.yul\":5300:5306   */\n      dup3\n        /* \"#utility.yul\":5296:5310   */\n      add\n        /* \"#utility.yul\":5289:5326   */\n      mstore\n        /* \"#utility.yul\":5172:5333   */\n      pop\n      jump\t// out\n        /* \"#utility.yul\":5339:5705   */\n    tag_96:\n        /* \"#utility.yul\":5481:5484   */\n      0x00\n        /* \"#utility.yul\":5502:5569   */\n      tag_154\n        /* \"#utility.yul\":5566:5568   */\n      0x0b\n        /* \"#utility.yul\":5561:5564   */\n      dup4\n        /* \"#utility.yul\":5502:5569   */\n      tag_88\n      jump\t// in\n    tag_154:\n        /* \"#utility.yul\":5495:5569   */\n      swap2\n      pop\n        /* \"#utility.yul\":5578:5671   */\n      tag_155\n        /* \"#utility.yul\":5667:5670   */\n      dup3\n        /* \"#utility.yul\":5578:5671   */\n      tag_95\n      jump\t// in\n    tag_155:\n        /* \"#utility.yul\":5696:5698   */\n      0x20\n        /* \"#utility.yul\":5691:5694   */\n      dup3\n        /* \"#utility.yul\":5687:5699   */\n      add\n        /* \"#utility.yul\":5680:5699   */\n      swap1\n      pop\n        /* \"#utility.yul\":5339:5705   */\n      swap2\n      swap1\n      pop\n      jump\t// out\n        /* \"#utility.yul\":5711:6130   */\n    tag_59:\n        /* \"#utility.yul\":5877:5881   */\n      0x00\n        /* \"#utility.yul\":5915:5917   */\n      0x20\n        /* \"#utility.yul\":5904:5913   */\n      dup3\n        /* \"#utility.yul\":5900:5918   */\n      add\n        /* \"#utility.yul\":5892:5918   */\n      swap1\n      pop\n        /* \"#utility.yul\":5964:5973   */\n      dup2\n        /* \"#utility.yul\":5958:5962   */\n      dup2\n        /* \"#utility.yul\":5954:5974   */\n      sub\n        /* \"#utility.yul\":5950:5951   */\n      0x00\n        /* \"#utility.yul\":5939:5948   */\n      dup4\n        /* \"#utility.yul\":5935:5952   */\n      add\n        /* \"#utility.yul\":5928:5975   */\n      mstore\n        /* \"#utility.yul\":5992:6123   */\n      tag_157\n        /* \"#utility.yul\":6118:6122   */\n      dup2\n        /* \"#utility.yul\":5992:6123   */\n      tag_96\n      jump\t// in\n    tag_157:\n        /* \"#utility.yul\":5984:6123   */\n      swap1\n      pop\n        /* \"#utility.yul\":5711:6130   */\n      swap2\n      swap1\n      pop\n      jump\t// out\n        /* \"#utility.yul\":6136:6279   */\n    tag_97:\n        /* \"#utility.yul\":6193:6198   */\n      0x00\n        /* \"#utility.yul\":6224:6230   */\n      dup2\n        /* \"#utility.yul\":6218:6231   */\n      mload\n        /* \"#utility.yul\":6209:6231   */\n      swap1\n      pop\n        /* \"#utility.yul\":6240:6273   */\n      tag_159\n        /* \"#utility.yul\":6267:6272   */\n      dup2\n        /* \"#utility.yul\":6240:6273   */\n      tag_83\n      jump\t// in\n    tag_159:\n        /* \"#utility.yul\":6136:6279   */\n      swap3\n      swap2\n      pop\n      pop\n      jump\t// out\n        /* \"#utility.yul\":6285:6636   */\n    tag_61:\n        /* \"#utility.yul\":6355:6361   */\n      0x00\n        /* \"#utility.yul\":6404:6406   */\n      0x20\n        /* \"#utility.yul\":6392:6401   */\n      dup3\n        /* \"#utility.yul\":6383:6390   */\n      dup5\n        /* \"#utility.yul\":6379:6402   */\n      sub\n        /* \"#utility.yul\":6375:6407   */\n      slt\n        /* \"#utility.yul\":6372:6491   */\n      iszero\n      tag_161\n      jumpi\n        /* \"#utility.yul\":6410:6489   */\n      tag_162\n      tag_80\n      jump\t// in\n    tag_162:\n        /* \"#utility.yul\":6372:6491   */\n    tag_161:\n        /* \"#utility.yul\":6530:6531   */\n      0x00\n        /* \"#utility.yul\":6555:6619   */\n      tag_163\n        /* \"#utility.yul\":6611:6618   */\n      dup5\n        /* \"#utility.yul\":6602:6608   */\n      dup3\n        /* \"#utility.yul\":6591:6600   */\n      dup6\n        /* \"#utility.yul\":6587:6609   */\n      add\n        /* \"#utility.yul\":6555:6619   */\n      tag_97\n      jump\t// in\n    tag_163:\n        /* \"#utility.yul\":6545:6619   */\n      swap2\n      pop\n        /* \"#utility.yul\":6501:6629   */\n      pop\n        /* \"#utility.yul\":6285:6636   */\n      swap3\n      swap2\n      pop\n      pop\n      jump\t// out\n        /* \"#utility.yul\":6642:6822   */\n    tag_98:\n        /* \"#utility.yul\":6690:6767   */\n      0x4e487b7100000000000000000000000000000000000000000000000000000000\n        /* \"#utility.yul\":6687:6688   */\n      0x00\n        /* \"#utility.yul\":6680:6768   */\n      mstore\n        /* \"#utility.yul\":6787:6791   */\n      0x11\n        /* \"#utility.yul\":6784:6785   */\n      0x04\n        /* \"#utility.yul\":6777:6792   */\n      mstore\n        /* \"#utility.yul\":6811:6815   */\n      0x24\n        /* \"#utility.yul\":6808:6809   */\n      0x00\n        /* \"#utility.yul\":6801:6816   */\n      revert\n        /* \"#utility.yul\":6828:7238   */\n    tag_64:\n        /* \"#utility.yul\":6868:6875   */\n      0x00\n        /* \"#utility.yul\":6891:6911   */\n      tag_166\n        /* \"#utility.yul\":6909:6910   */\n      dup3\n        /* \"#utility.yul\":6891:6911   */\n      tag_82\n      jump\t// in\n    tag_166:\n        /* \"#utility.yul\":6886:6911   */\n      swap2\n      pop\n        /* \"#utility.yul\":6925:6945   */\n      tag_167\n        /* \"#utility.yul\":6943:6944   */\n      dup4\n        /* \"#utility.yul\":6925:6945   */\n      tag_82\n      jump\t// in\n    tag_167:\n        /* \"#utility.yul\":6920:6945   */\n      swap3\n      pop\n        /* \"#utility.yul\":6980:6981   */\n      dup3\n        /* \"#utility.yul\":6977:6978   */\n      dup3\n        /* \"#utility.yul\":6973:6982   */\n      mul\n        /* \"#utility.yul\":7002:7032   */\n      tag_168\n        /* \"#utility.yul\":7020:7031   */\n      dup2\n        /* \"#utility.yul\":7002:7032   */\n      tag_82\n      jump\t// in\n    tag_168:\n        /* \"#utility.yul\":6991:7032   */\n      swap2\n      pop\n        /* \"#utility.yul\":7181:7182   */\n      dup3\n        /* \"#utility.yul\":7172:7179   */\n      dup3\n        /* \"#utility.yul\":7168:7183   */\n      div\n        /* \"#utility.yul\":7165:7166   */\n      dup5\n        /* \"#utility.yul\":7162:7184   */\n      eq\n        /* \"#utility.yul\":7142:7143   */\n      dup4\n        /* \"#utility.yul\":7135:7144   */\n      iszero\n        /* \"#utility.yul\":7115:7198   */\n      or\n        /* \"#utility.yul\":7092:7231   */\n      tag_169\n      jumpi\n        /* \"#utility.yul\":7211:7229   */\n      tag_170\n      tag_98\n      jump\t// in\n    tag_170:\n        /* \"#utility.yul\":7092:7231   */\n    tag_169:\n        /* \"#utility.yul\":6876:7238   */\n      pop\n        /* \"#utility.yul\":6828:7238   */\n      swap3\n      swap2\n      pop\n      pop\n      jump\t// out\n\n    auxdata: 0xa2646970667358221220896e8939db49e751d8fb737cce0b9bc25aba2de2e9a626bffc11b7d10f57bfb564736f6c634300081a0033\n}\n",
				"bytecode": {
					"linkReferences": {},
					"object": "6080604052348015600e575f80fd5b506108d78061001c5f395ff3fe608060405234801561000f575f80fd5b5060043610610086575f3560e01c80637b292909116100595780637b292909146101145780638d10ff0c14610144578063a25f4d3114610160578063eee972061461019057610086565b8063027b68cb1461008a5780630670afef146100a85780633b377b3c146100c657806353308370146100e4575b5f80fd5b6100926101c0565b60405161009f9190610576565b60405180910390f35b6100b06101ce565b6040516100bd9190610576565b60405180910390f35b6100ce6101dc565b6040516100db9190610576565b60405180910390f35b6100fe60048036038101906100f991906105c6565b6101ec565b60405161010b9190610600565b60405180910390f35b61012e600480360381019061012991906105c6565b6103bd565b60405161013b9190610600565b60405180910390f35b61015e60048036038101906101599190610643565b6103d1565b005b61017a6004803603810190610175919061066e565b6103f0565b6040516101879190610600565b60405180910390f35b6101aa60048036038101906101a591906105c6565b610527565b6040516101b79190610600565b60405180910390f35b5f637b29290960e01b905090565b5f63eee9720660e01b905090565b5f8054906101000a900460e01b81565b5f8060e01b7bffffffffffffffffffffffffffffffffffffffffffffffffffffffff19165f8054906101000a900460e01b7bffffffffffffffffffffffffffffffffffffffffffffffffffffffff19160361027c576040517f08c379a000000000000000000000000000000000000000000000000000000000815260040161027390610706565b60405180910390fd5b5f803073ffffffffffffffffffffffffffffffffffffffff165f8054906101000a900460e01b856040516024016102b39190610600565b604051602081830303815290604052907bffffffffffffffffffffffffffffffffffffffffffffffffffffffff19166020820180517bffffffffffffffffffffffffffffffffffffffffffffffffffffffff838183161783525050505060405161031d9190610776565b5f604051808303815f865af19150503d805f8114610356576040519150601f19603f3d011682016040523d82523d5f602084013e61035b565b606091505b5091509150816103a0576040517f08c379a0000000000000000000000000000000000000000000000000000000008152600401610397906107d6565b60405180910390fd5b808060200190518101906103b49190610808565b92505050919050565b5f81826103ca9190610860565b9050919050565b805f806101000a81548163ffffffff021916908360e01c021790555050565b5f805f3073ffffffffffffffffffffffffffffffffffffffff16858560405160240161041c9190610600565b604051602081830303815290604052907bffffffffffffffffffffffffffffffffffffffffffffffffffffffff19166020820180517bffffffffffffffffffffffffffffffffffffffffffffffffffffffff83818316178352505050506040516104869190610776565b5f604051808303815f865af19150503d805f81146104bf576040519150601f19603f3d011682016040523d82523d5f602084013e6104c4565b606091505b509150915081610509576040517f08c379a0000000000000000000000000000000000000000000000000000000008152600401610500906107d6565b60405180910390fd5b8080602001905181019061051d9190610808565b9250505092915050565b5f6002826105359190610860565b9050919050565b5f7fffffffff0000000000000000000000000000000000000000000000000000000082169050919050565b6105708161053c565b82525050565b5f6020820190506105895f830184610567565b92915050565b5f80fd5b5f819050919050565b6105a581610593565b81146105af575f80fd5b50565b5f813590506105c08161059c565b92915050565b5f602082840312156105db576105da61058f565b5b5f6105e8848285016105b2565b91505092915050565b6105fa81610593565b82525050565b5f6020820190506106135f8301846105f1565b92915050565b6106228161053c565b811461062c575f80fd5b50565b5f8135905061063d81610619565b92915050565b5f602082840312156106585761065761058f565b5b5f6106658482850161062f565b91505092915050565b5f80604083850312156106845761068361058f565b5b5f6106918582860161062f565b92505060206106a2858286016105b2565b9150509250929050565b5f82825260208201905092915050565b7f53656c6563746f72206e6f7420736574000000000000000000000000000000005f82015250565b5f6106f06010836106ac565b91506106fb826106bc565b602082019050919050565b5f6020820190508181035f83015261071d816106e4565b9050919050565b5f81519050919050565b5f81905092915050565b8281835e5f83830152505050565b5f61075082610724565b61075a818561072e565b935061076a818560208601610738565b80840191505092915050565b5f6107818284610746565b915081905092915050565b7f43616c6c206661696c65640000000000000000000000000000000000000000005f82015250565b5f6107c0600b836106ac565b91506107cb8261078c565b602082019050919050565b5f6020820190508181035f8301526107ed816107b4565b9050919050565b5f815190506108028161059c565b92915050565b5f6020828403121561081d5761081c61058f565b5b5f61082a848285016107f4565b91505092915050565b7f4e487b71000000000000000000000000000000000000000000000000000000005f52601160045260245ffd5b5f61086a82610593565b915061087583610593565b925082820261088381610593565b9150828204841483151761089a57610899610833565b5b509291505056fea2646970667358221220896e8939db49e751d8fb737cce0b9bc25aba2de2e9a626bffc11b7d10f57bfb564736f6c634300081a0033",
					"opcodes": "PUSH1 0x80 PUSH1 0x40 MSTORE CALLVALUE DUP1 ISZERO PUSH1 0xE JUMPI PUSH0 DUP1 REVERT JUMPDEST POP PUSH2 0x8D7 DUP1 PUSH2 0x1C PUSH0 CODECOPY PUSH0 RETURN INVALID PUSH1 0x80 PUSH1 0x40 MSTORE CALLVALUE DUP1 ISZERO PUSH2 0xF JUMPI PUSH0 DUP1 REVERT JUMPDEST POP PUSH1 0x4 CALLDATASIZE LT PUSH2 0x86 JUMPI PUSH0 CALLDATALOAD PUSH1 0xE0 SHR DUP1 PUSH4 0x7B292909 GT PUSH2 0x59 JUMPI DUP1 PUSH4 0x7B292909 EQ PUSH2 0x114 JUMPI DUP1 PUSH4 0x8D10FF0C EQ PUSH2 0x144 JUMPI DUP1 PUSH4 0xA25F4D31 EQ PUSH2 0x160 JUMPI DUP1 PUSH4 0xEEE97206 EQ PUSH2 0x190 JUMPI PUSH2 0x86 JUMP JUMPDEST DUP1 PUSH4 0x27B68CB EQ PUSH2 0x8A JUMPI DUP1 PUSH4 0x670AFEF EQ PUSH2 0xA8 JUMPI DUP1 PUSH4 0x3B377B3C EQ PUSH2 0xC6 JUMPI DUP1 PUSH4 0x53308370 EQ PUSH2 0xE4 JUMPI JUMPDEST PUSH0 DUP1 REVERT JUMPDEST PUSH2 0x92 PUSH2 0x1C0 JUMP JUMPDEST PUSH1 0x40 MLOAD PUSH2 0x9F SWAP2 SWAP1 PUSH2 0x576 JUMP JUMPDEST PUSH1 0x40 MLOAD DUP1 SWAP2 SUB SWAP1 RETURN JUMPDEST PUSH2 0xB0 PUSH2 0x1CE JUMP JUMPDEST PUSH1 0x40 MLOAD PUSH2 0xBD SWAP2 SWAP1 PUSH2 0x576 JUMP JUMPDEST PUSH1 0x40 MLOAD DUP1 SWAP2 SUB SWAP1 RETURN JUMPDEST PUSH2 0xCE PUSH2 0x1DC JUMP JUMPDEST PUSH1 0x40 MLOAD PUSH2 0xDB SWAP2 SWAP1 PUSH2 0x576 JUMP JUMPDEST PUSH1 0x40 MLOAD DUP1 SWAP2 SUB SWAP1 RETURN JUMPDEST PUSH2 0xFE PUSH1 0x4 DUP1 CALLDATASIZE SUB DUP2 ADD SWAP1 PUSH2 0xF9 SWAP2 SWAP1 PUSH2 0x5C6 JUMP JUMPDEST PUSH2 0x1EC JUMP JUMPDEST PUSH1 0x40 MLOAD PUSH2 0x10B SWAP2 SWAP1 PUSH2 0x600 JUMP JUMPDEST PUSH1 0x40 MLOAD DUP1 SWAP2 SUB SWAP1 RETURN JUMPDEST PUSH2 0x12E PUSH1 0x4 DUP1 CALLDATASIZE SUB DUP2 ADD SWAP1 PUSH2 0x129 SWAP2 SWAP1 PUSH2 0x5C6 JUMP JUMPDEST PUSH2 0x3BD JUMP JUMPDEST PUSH1 0x40 MLOAD PUSH2 0x13B SWAP2 SWAP1 PUSH2 0x600 JUMP JUMPDEST PUSH1 0x40 MLOAD DUP1 SWAP2 SUB SWAP1 RETURN JUMPDEST PUSH2 0x15E PUSH1 0x4 DUP1 CALLDATASIZE SUB DUP2 ADD SWAP1 PUSH2 0x159 SWAP2 SWAP1 PUSH2 0x643 JUMP JUMPDEST PUSH2 0x3D1 JUMP JUMPDEST STOP JUMPDEST PUSH2 0x17A PUSH1 0x4 DUP1 CALLDATASIZE SUB DUP2 ADD SWAP1 PUSH2 0x175 SWAP2 SWAP1 PUSH2 0x66E JUMP JUMPDEST PUSH2 0x3F0 JUMP JUMPDEST PUSH1 0x40 MLOAD PUSH2 0x187 SWAP2 SWAP1 PUSH2 0x600 JUMP JUMPDEST PUSH1 0x40 MLOAD DUP1 SWAP2 SUB SWAP1 RETURN JUMPDEST PUSH2 0x1AA PUSH1 0x4 DUP1 CALLDATASIZE SUB DUP2 ADD SWAP1 PUSH2 0x1A5 SWAP2 SWAP1 PUSH2 0x5C6 JUMP JUMPDEST PUSH2 0x527 JUMP JUMPDEST PUSH1 0x40 MLOAD PUSH2 0x1B7 SWAP2 SWAP1 PUSH2 0x600 JUMP JUMPDEST PUSH1 0x40 MLOAD DUP1 SWAP2 SUB SWAP1 RETURN JUMPDEST PUSH0 PUSH4 0x7B292909 PUSH1 0xE0 SHL SWAP1 POP SWAP1 JUMP JUMPDEST PUSH0 PUSH4 0xEEE97206 PUSH1 0xE0 SHL SWAP1 POP SWAP1 JUMP JUMPDEST PUSH0 DUP1 SLOAD SWAP1 PUSH2 0x100 EXP SWAP1 DIV PUSH1 0xE0 SHL DUP2 JUMP JUMPDEST PUSH0 DUP1 PUSH1 0xE0 SHL PUSH28 0xFFFFFFFFFFFFFFFFFFFFFFFFFFFFFFFFFFFFFFFFFFFFFFFFFFFFFFFF NOT AND PUSH0 DUP1 SLOAD SWAP1 PUSH2 0x100 EXP SWAP1 DIV PUSH1 0xE0 SHL PUSH28 0xFFFFFFFFFFFFFFFFFFFFFFFFFFFFFFFFFFFFFFFFFFFFFFFFFFFFFFFF NOT AND SUB PUSH2 0x27C JUMPI PUSH1 0x40 MLOAD PUSH32 0x8C379A000000000000000000000000000000000000000000000000000000000 DUP2 MSTORE PUSH1 0x4 ADD PUSH2 0x273 SWAP1 PUSH2 0x706 JUMP JUMPDEST PUSH1 0x40 MLOAD DUP1 SWAP2 SUB SWAP1 REVERT JUMPDEST PUSH0 DUP1 ADDRESS PUSH20 0xFFFFFFFFFFFFFFFFFFFFFFFFFFFFFFFFFFFFFFFF AND PUSH0 DUP1 SLOAD SWAP1 PUSH2 0x100 EXP SWAP1 DIV PUSH1 0xE0 SHL DUP6 PUSH1 0x40 MLOAD PUSH1 0x24 ADD PUSH2 0x2B3 SWAP2 SWAP1 PUSH2 0x600 JUMP JUMPDEST PUSH1 0x40 MLOAD PUSH1 0x20 DUP2 DUP4 SUB SUB DUP2 MSTORE SWAP1 PUSH1 0x40 MSTORE SWAP1 PUSH28 0xFFFFFFFFFFFFFFFFFFFFFFFFFFFFFFFFFFFFFFFFFFFFFFFFFFFFFFFF NOT AND PUSH1 0x20 DUP3 ADD DUP1 MLOAD PUSH28 0xFFFFFFFFFFFFFFFFFFFFFFFFFFFFFFFFFFFFFFFFFFFFFFFFFFFFFFFF DUP4 DUP2 DUP4 AND OR DUP4 MSTORE POP POP POP POP PUSH1 0x40 MLOAD PUSH2 0x31D SWAP2 SWAP1 PUSH2 0x776 JUMP JUMPDEST PUSH0 PUSH1 0x40 MLOAD DUP1 DUP4 SUB DUP2 PUSH0 DUP7 GAS CALL SWAP2 POP POP RETURNDATASIZE DUP1 PUSH0 DUP2 EQ PUSH2 0x356 JUMPI PUSH1 0x40 MLOAD SWAP2 POP PUSH1 0x1F NOT PUSH1 0x3F RETURNDATASIZE ADD AND DUP3 ADD PUSH1 0x40 MSTORE RETURNDATASIZE DUP3 MSTORE RETURNDATASIZE PUSH0 PUSH1 0x20 DUP5 ADD RETURNDATACOPY PUSH2 0x35B JUMP JUMPDEST PUSH1 0x60 SWAP2 POP JUMPDEST POP SWAP2 POP SWAP2 POP DUP2 PUSH2 0x3A0 JUMPI PUSH1 0x40 MLOAD PUSH32 0x8C379A000000000000000000000000000000000000000000000000000000000 DUP2 MSTORE PUSH1 0x4 ADD PUSH2 0x397 SWAP1 PUSH2 0x7D6 JUMP JUMPDEST PUSH1 0x40 MLOAD DUP1 SWAP2 SUB SWAP1 REVERT JUMPDEST DUP1 DUP1 PUSH1 0x20 ADD SWAP1 MLOAD DUP2 ADD SWAP1 PUSH2 0x3B4 SWAP2 SWAP1 PUSH2 0x808 JUMP JUMPDEST SWAP3 POP POP POP SWAP2 SWAP1 POP JUMP JUMPDEST PUSH0 DUP2 DUP3 PUSH2 0x3CA SWAP2 SWAP1 PUSH2 0x860 JUMP JUMPDEST SWAP1 POP SWAP2 SWAP1 POP JUMP JUMPDEST DUP1 PUSH0 DUP1 PUSH2 0x100 EXP DUP2 SLOAD DUP2 PUSH4 0xFFFFFFFF MUL NOT AND SWAP1 DUP4 PUSH1 0xE0 SHR MUL OR SWAP1 SSTORE POP POP JUMP JUMPDEST PUSH0 DUP1 PUSH0 ADDRESS PUSH20 0xFFFFFFFFFFFFFFFFFFFFFFFFFFFFFFFFFFFFFFFF AND DUP6 DUP6 PUSH1 0x40 MLOAD PUSH1 0x24 ADD PUSH2 0x41C SWAP2 SWAP1 PUSH2 0x600 JUMP JUMPDEST PUSH1 0x40 MLOAD PUSH1 0x20 DUP2 DUP4 SUB SUB DUP2 MSTORE SWAP1 PUSH1 0x40 MSTORE SWAP1 PUSH28 0xFFFFFFFFFFFFFFFFFFFFFFFFFFFFFFFFFFFFFFFFFFFFFFFFFFFFFFFF NOT AND PUSH1 0x20 DUP3 ADD DUP1 MLOAD PUSH28 0xFFFFFFFFFFFFFFFFFFFFFFFFFFFFFFFFFFFFFFFFFFFFFFFFFFFFFFFF DUP4 DUP2 DUP4 AND OR DUP4 MSTORE POP POP POP POP PUSH1 0x40 MLOAD PUSH2 0x486 SWAP2 SWAP1 PUSH2 0x776 JUMP JUMPDEST PUSH0 PUSH1 0x40 MLOAD DUP1 DUP4 SUB DUP2 PUSH0 DUP7 GAS CALL SWAP2 POP POP RETURNDATASIZE DUP1 PUSH0 DUP2 EQ PUSH2 0x4BF JUMPI PUSH1 0x40 MLOAD SWAP2 POP PUSH1 0x1F NOT PUSH1 0x3F RETURNDATASIZE ADD AND DUP3 ADD PUSH1 0x40 MSTORE RETURNDATASIZE DUP3 MSTORE RETURNDATASIZE PUSH0 PUSH1 0x20 DUP5 ADD RETURNDATACOPY PUSH2 0x4C4 JUMP JUMPDEST PUSH1 0x60 SWAP2 POP JUMPDEST POP SWAP2 POP SWAP2 POP DUP2 PUSH2 0x509 JUMPI PUSH1 0x40 MLOAD PUSH32 0x8C379A000000000000000000000000000000000000000000000000000000000 DUP2 MSTORE PUSH1 0x4 ADD PUSH2 0x500 SWAP1 PUSH2 0x7D6 JUMP JUMPDEST PUSH1 0x40 MLOAD DUP1 SWAP2 SUB SWAP1 REVERT JUMPDEST DUP1 DUP1 PUSH1 0x20 ADD SWAP1 MLOAD DUP2 ADD SWAP1 PUSH2 0x51D SWAP2 SWAP1 PUSH2 0x808 JUMP JUMPDEST SWAP3 POP POP POP SWAP3 SWAP2 POP POP JUMP JUMPDEST PUSH0 PUSH1 0x2 DUP3 PUSH2 0x535 SWAP2 SWAP1 PUSH2 0x860 JUMP JUMPDEST SWAP1 POP SWAP2 SWAP1 POP JUMP JUMPDEST PUSH0 PUSH32 0xFFFFFFFF00000000000000000000000000000000000000000000000000000000 DUP3 AND SWAP1 POP SWAP2 SWAP1 POP JUMP JUMPDEST PUSH2 0x570 DUP2 PUSH2 0x53C JUMP JUMPDEST DUP3 MSTORE POP POP JUMP JUMPDEST PUSH0 PUSH1 0x20 DUP3 ADD SWAP1 POP PUSH2 0x589 PUSH0 DUP4 ADD DUP5 PUSH2 0x567 JUMP JUMPDEST SWAP3 SWAP2 POP POP JUMP JUMPDEST PUSH0 DUP1 REVERT JUMPDEST PUSH0 DUP2 SWAP1 POP SWAP2 SWAP1 POP JUMP JUMPDEST PUSH2 0x5A5 DUP2 PUSH2 0x593 JUMP JUMPDEST DUP2 EQ PUSH2 0x5AF JUMPI PUSH0 DUP1 REVERT JUMPDEST POP JUMP JUMPDEST PUSH0 DUP2 CALLDATALOAD SWAP1 POP PUSH2 0x5C0 DUP2 PUSH2 0x59C JUMP JUMPDEST SWAP3 SWAP2 POP POP JUMP JUMPDEST PUSH0 PUSH1 0x20 DUP3 DUP5 SUB SLT ISZERO PUSH2 0x5DB JUMPI PUSH2 0x5DA PUSH2 0x58F JUMP JUMPDEST JUMPDEST PUSH0 PUSH2 0x5E8 DUP5 DUP3 DUP6 ADD PUSH2 0x5B2 JUMP JUMPDEST SWAP2 POP POP SWAP3 SWAP2 POP POP JUMP JUMPDEST PUSH2 0x5FA DUP2 PUSH2 0x593 JUMP JUMPDEST DUP3 MSTORE POP POP JUMP JUMPDEST PUSH0 PUSH1 0x20 DUP3 ADD SWAP1 POP PUSH2 0x613 PUSH0 DUP4 ADD DUP5 PUSH2 0x5F1 JUMP JUMPDEST SWAP3 SWAP2 POP POP JUMP JUMPDEST PUSH2 0x622 DUP2 PUSH2 0x53C JUMP JUMPDEST DUP2 EQ PUSH2 0x62C JUMPI PUSH0 DUP1 REVERT JUMPDEST POP JUMP JUMPDEST PUSH0 DUP2 CALLDATALOAD SWAP1 POP PUSH2 0x63D DUP2 PUSH2 0x619 JUMP JUMPDEST SWAP3 SWAP2 POP POP JUMP JUMPDEST PUSH0 PUSH1 0x20 DUP3 DUP5 SUB SLT ISZERO PUSH2 0x658 JUMPI PUSH2 0x657 PUSH2 0x58F JUMP JUMPDEST JUMPDEST PUSH0 PUSH2 0x665 DUP5 DUP3 DUP6 ADD PUSH2 0x62F JUMP JUMPDEST SWAP2 POP POP SWAP3 SWAP2 POP POP JUMP JUMPDEST PUSH0 DUP1 PUSH1 0x40 DUP4 DUP6 SUB SLT ISZERO PUSH2 0x684 JUMPI PUSH2 0x683 PUSH2 0x58F JUMP JUMPDEST JUMPDEST PUSH0 PUSH2 0x691 DUP6 DUP3 DUP7 ADD PUSH2 0x62F JUMP JUMPDEST SWAP3 POP POP PUSH1 0x20 PUSH2 0x6A2 DUP6 DUP3 DUP7 ADD PUSH2 0x5B2 JUMP JUMPDEST SWAP2 POP POP SWAP3 POP SWAP3 SWAP1 POP JUMP JUMPDEST PUSH0 DUP3 DUP3 MSTORE PUSH1 0x20 DUP3 ADD SWAP1 POP SWAP3 SWAP2 POP POP JUMP JUMPDEST PUSH32 0x53656C6563746F72206E6F742073657400000000000000000000000000000000 PUSH0 DUP3 ADD MSTORE POP JUMP JUMPDEST PUSH0 PUSH2 0x6F0 PUSH1 0x10 DUP4 PUSH2 0x6AC JUMP JUMPDEST SWAP2 POP PUSH2 0x6FB DUP3 PUSH2 0x6BC JUMP JUMPDEST PUSH1 0x20 DUP3 ADD SWAP1 POP SWAP2 SWAP1 POP JUMP JUMPDEST PUSH0 PUSH1 0x20 DUP3 ADD SWAP1 POP DUP2 DUP2 SUB PUSH0 DUP4 ADD MSTORE PUSH2 0x71D DUP2 PUSH2 0x6E4 JUMP JUMPDEST SWAP1 POP SWAP2 SWAP1 POP JUMP JUMPDEST PUSH0 DUP2 MLOAD SWAP1 POP SWAP2 SWAP1 POP JUMP JUMPDEST PUSH0 DUP2 SWAP1 POP SWAP3 SWAP2 POP POP JUMP JUMPDEST DUP3 DUP2 DUP4 MCOPY PUSH0 DUP4 DUP4 ADD MSTORE POP POP POP JUMP JUMPDEST PUSH0 PUSH2 0x750 DUP3 PUSH2 0x724 JUMP JUMPDEST PUSH2 0x75A DUP2 DUP6 PUSH2 0x72E JUMP JUMPDEST SWAP4 POP PUSH2 0x76A DUP2 DUP6 PUSH1 0x20 DUP7 ADD PUSH2 0x738 JUMP JUMPDEST DUP1 DUP5 ADD SWAP2 POP POP SWAP3 SWAP2 POP POP JUMP JUMPDEST PUSH0 PUSH2 0x781 DUP3 DUP5 PUSH2 0x746 JUMP JUMPDEST SWAP2 POP DUP2 SWAP1 POP SWAP3 SWAP2 POP POP JUMP JUMPDEST PUSH32 0x43616C6C206661696C6564000000000000000000000000000000000000000000 PUSH0 DUP3 ADD MSTORE POP JUMP JUMPDEST PUSH0 PUSH2 0x7C0 PUSH1 0xB DUP4 PUSH2 0x6AC JUMP JUMPDEST SWAP2 POP PUSH2 0x7CB DUP3 PUSH2 0x78C JUMP JUMPDEST PUSH1 0x20 DUP3 ADD SWAP1 POP SWAP2 SWAP1 POP JUMP JUMPDEST PUSH0 PUSH1 0x20 DUP3 ADD SWAP1 POP DUP2 DUP2 SUB PUSH0 DUP4 ADD MSTORE PUSH2 0x7ED DUP2 PUSH2 0x7B4 JUMP JUMPDEST SWAP1 POP SWAP2 SWAP1 POP JUMP JUMPDEST PUSH0 DUP2 MLOAD SWAP1 POP PUSH2 0x802 DUP2 PUSH2 0x59C JUMP JUMPDEST SWAP3 SWAP2 POP POP JUMP JUMPDEST PUSH0 PUSH1 0x20 DUP3 DUP5 SUB SLT ISZERO PUSH2 0x81D JUMPI PUSH2 0x81C PUSH2 0x58F JUMP JUMPDEST JUMPDEST PUSH0 PUSH2 0x82A DUP5 DUP3 DUP6 ADD PUSH2 0x7F4 JUMP JUMPDEST SWAP2 POP POP SWAP3 SWAP2 POP POP JUMP JUMPDEST PUSH32 0x4E487B7100000000000000000000000000000000000000000000000000000000 PUSH0 MSTORE PUSH1 0x11 PUSH1 0x4 MSTORE PUSH1 0x24 PUSH0 REVERT JUMPDEST PUSH0 PUSH2 0x86A DUP3 PUSH2 0x593 JUMP JUMPDEST SWAP2 POP PUSH2 0x875 DUP4 PUSH2 0x593 JUMP JUMPDEST SWAP3 POP DUP3 DUP3 MUL PUSH2 0x883 DUP2 PUSH2 0x593 JUMP JUMPDEST SWAP2 POP DUP3 DUP3 DIV DUP5 EQ DUP4 ISZERO OR PUSH2 0x89A JUMPI PUSH2 0x899 PUSH2 0x833 JUMP JUMPDEST JUMPDEST POP SWAP3 SWAP2 POP POP JUMP INVALID LOG2 PUSH5 0x6970667358 0x22 SLT KECCAK256 DUP10 PUSH15 0x8939DB49E751D8FB737CCE0B9BC25A 0xBA 0x2D 0xE2 0xE9 0xA6 0x26 0xBF 0xFC GT 0xB7 0xD1 0xF JUMPI 0xBF 0xB5 PUSH5 0x736F6C6343 STOP ADDMOD BYTE STOP CALLER "
				},
				"gasEstimates": {
					"creation": {
						"codeDepositCost": "452600",
						"executionCost": "484",
						"totalCost": "453084"
					},
					"external": {
						"double(uint256)": "infinite",
						"executeFunction(bytes4,uint256)": "infinite",
						"executeStoredFunction(uint256)": "infinite",
						"getSelectorDouble()": "367",
						"getSelectorSquare()": "345",
						"square(uint256)": "infinite",
						"storeSelector(bytes4)": "24695",
						"storedSelector()": "2508"
					}
				},
				"methodIdentifiers": {
					"double(uint256)": "eee97206",
					"executeFunction(bytes4,uint256)": "a25f4d31",
					"executeStoredFunction(uint256)": "53308370",
					"getSelectorDouble()": "0670afef",
					"getSelectorSquare()": "027b68cb",
					"square(uint256)": "7b292909",
					"storeSelector(bytes4)": "8d10ff0c",
					"storedSelector()": "3b377b3c"
				}
			},
			"storageLayout": {
				"storage": [
					{
						"astId": 3,
						"contract": "contracts/mytest/funcFile.sol:FuncFile",
						"label": "storedSelector",
						"offset": 0,
						"slot": "0",
						"type": "t_bytes4"
					}
				],
				"types": {
					"t_bytes4": {
						"encoding": "inplace",
						"label": "bytes4",
						"numberOfBytes": "4"
					}
				}
			},
			"userdoc": {
				"kind": "user",
				"methods": {},
				"version": 1
			}
		}
	}
}