{
	"contracts/mytest/sturctTest.sol": {
		"StructTest": {
			"abi": [
				{
					"inputs": [
						{
							"internalType": "string",
							"name": "pName",
							"type": "string"
						},
						{
							"internalType": "uint256",
							"name": "pPrice",
							"type": "uint256"
						},
						{
							"internalType": "uint256",
							"name": "pStock",
							"type": "uint256"
						}
					],
					"name": "addProduct",
					"outputs": [],
					"stateMutability": "nonpayable",
					"type": "function"
				},
				{
					"inputs": [
						{
							"internalType": "uint256",
							"name": "_id",
							"type": "uint256"
						}
					],
					"name": "getProduct",
					"outputs": [
						{
							"internalType": "string",
							"name": "",
							"type": "string"
						},
						{
							"internalType": "uint256",
							"name": "",
							"type": "uint256"
						},
						{
							"internalType": "uint256",
							"name": "",
							"type": "uint256"
						}
					],
					"stateMutability": "view",
					"type": "function"
				},
				{
					"inputs": [
						{
							"internalType": "uint256",
							"name": "",
							"type": "uint256"
						}
					],
					"name": "products",
					"outputs": [
						{
							"internalType": "uint256",
							"name": "id",
							"type": "uint256"
						},
						{
							"internalType": "string",
							"name": "name",
							"type": "string"
						},
						{
							"internalType": "uint256",
							"name": "price",
							"type": "uint256"
						},
						{
							"internalType": "uint256",
							"name": "stock",
							"type": "uint256"
						}
					],
					"stateMutability": "view",
					"type": "function"
				},
				{
					"inputs": [
						{
							"internalType": "uint256",
							"name": "pId",
							"type": "uint256"
						},
						{
							"internalType": "uint256",
							"name": "newStock",
							"type": "uint256"
						}
					],
					"name": "updateP",
					"outputs": [],
					"stateMutability": "nonpayable",
					"type": "function"
				}
			],
			"devdoc": {
				"kind": "dev",
				"methods": {},
				"version": 1
			},
			"evm": {
				"assembly": "    /* \"contracts/mytest/sturctTest.sol\":60:974  contract StructTest {... */\n  mstore(0x40, 0x80)\n  callvalue\n  dup1\n  iszero\n  tag_1\n  jumpi\n  0x00\n  dup1\n  revert\ntag_1:\n  pop\n  dataSize(sub_0)\n  dup1\n  dataOffset(sub_0)\n  0x00\n  codecopy\n  0x00\n  return\nstop\n\nsub_0: assembly {\n        /* \"contracts/mytest/sturctTest.sol\":60:974  contract StructTest {... */\n      mstore(0x40, 0x80)\n      callvalue\n      dup1\n      iszero\n      tag_1\n      jumpi\n      0x00\n      dup1\n      revert\n    tag_1:\n      pop\n      jumpi(tag_2, lt(calldatasize, 0x04))\n      shr(0xe0, calldataload(0x00))\n      dup1\n      0x125b0b34\n      eq\n      tag_3\n      jumpi\n      dup1\n      0x271bc5f9\n      eq\n      tag_4\n      jumpi\n      dup1\n      0x7acc0b20\n      eq\n      tag_5\n      jumpi\n      dup1\n      0xb9db15b4\n      eq\n      tag_6\n      jumpi\n    tag_2:\n      0x00\n      dup1\n      revert\n        /* \"contracts/mytest/sturctTest.sol\":466:618  function addProduct(string memory pName,uint pPrice,uint pStock) public {... */\n    tag_3:\n      tag_7\n      0x04\n      dup1\n      calldatasize\n      sub\n      dup2\n      add\n      swap1\n      tag_8\n      swap2\n      swap1\n      tag_9\n      jump\t// in\n    tag_8:\n      tag_10\n      jump\t// in\n    tag_7:\n      stop\n        /* \"contracts/mytest/sturctTest.sol\":647:777  function updateP(uint pId, uint newStock) public {... */\n    tag_4:\n      tag_11\n      0x04\n      dup1\n      calldatasize\n      sub\n      dup2\n      add\n      swap1\n      tag_12\n      swap2\n      swap1\n      tag_13\n      jump\t// in\n    tag_12:\n      tag_14\n      jump\t// in\n    tag_11:\n      stop\n        /* \"contracts/mytest/sturctTest.sol\":351:392  mapping (uint => Product) public products */\n    tag_5:\n      tag_15\n      0x04\n      dup1\n      calldatasize\n      sub\n      dup2\n      add\n      swap1\n      tag_16\n      swap2\n      swap1\n      tag_17\n      jump\t// in\n    tag_16:\n      tag_18\n      jump\t// in\n    tag_15:\n      mload(0x40)\n      tag_19\n      swap5\n      swap4\n      swap3\n      swap2\n      swap1\n      tag_20\n      jump\t// in\n    tag_19:\n      mload(0x40)\n      dup1\n      swap2\n      sub\n      swap1\n      return\n        /* \"contracts/mytest/sturctTest.sol\":800:969  function getProduct(uint _id) public view returns (string memory,uint,uint){... */\n    tag_6:\n      tag_21\n      0x04\n      dup1\n      calldatasize\n      sub\n      dup2\n      add\n      swap1\n      tag_22\n      swap2\n      swap1\n      tag_17\n      jump\t// in\n    tag_22:\n      tag_23\n      jump\t// in\n    tag_21:\n      mload(0x40)\n      tag_24\n      swap4\n      swap3\n      swap2\n      swap1\n      tag_25\n      jump\t// in\n    tag_24:\n      mload(0x40)\n      dup1\n      swap2\n      sub\n      swap1\n      return\n        /* \"contracts/mytest/sturctTest.sol\":466:618  function addProduct(string memory pName,uint pPrice,uint pStock) public {... */\n    tag_10:\n        /* \"contracts/mytest/sturctTest.sol\":549:551  id */\n      0x01\n      0x00\n        /* \"contracts/mytest/sturctTest.sol\":549:553  id++ */\n      dup2\n      sload\n      dup1\n      swap3\n      swap2\n      swap1\n      tag_27\n      swap1\n      tag_28\n      jump\t// in\n    tag_27:\n      swap2\n      swap1\n      pop\n      sstore\n      pop\n        /* \"contracts/mytest/sturctTest.sol\":579:610  Product(id,pName,pPrice,pStock) */\n      mload(0x40)\n      dup1\n      0x80\n      add\n      0x40\n      mstore\n      dup1\n        /* \"contracts/mytest/sturctTest.sol\":587:589  id */\n      sload(0x01)\n        /* \"contracts/mytest/sturctTest.sol\":579:610  Product(id,pName,pPrice,pStock) */\n      dup2\n      mstore\n      0x20\n      add\n        /* \"contracts/mytest/sturctTest.sol\":590:595  pName */\n      dup5\n        /* \"contracts/mytest/sturctTest.sol\":579:610  Product(id,pName,pPrice,pStock) */\n      dup2\n      mstore\n      0x20\n      add\n        /* \"contracts/mytest/sturctTest.sol\":596:602  pPrice */\n      dup4\n        /* \"contracts/mytest/sturctTest.sol\":579:610  Product(id,pName,pPrice,pStock) */\n      dup2\n      mstore\n      0x20\n      add\n        /* \"contracts/mytest/sturctTest.sol\":603:609  pStock */\n      dup3\n        /* \"contracts/mytest/sturctTest.sol\":579:610  Product(id,pName,pPrice,pStock) */\n      dup2\n      mstore\n      pop\n        /* \"contracts/mytest/sturctTest.sol\":564:572  products */\n      0x00\n        /* \"contracts/mytest/sturctTest.sol\":564:576  products[id] */\n      dup1\n        /* \"contracts/mytest/sturctTest.sol\":573:575  id */\n      sload(0x01)\n        /* \"contracts/mytest/sturctTest.sol\":564:576  products[id] */\n      dup2\n      mstore\n      0x20\n      add\n      swap1\n      dup2\n      mstore\n      0x20\n      add\n      0x00\n      keccak256\n        /* \"contracts/mytest/sturctTest.sol\":564:610  products[id] = Product(id,pName,pPrice,pStock) */\n      0x00\n      dup3\n      add\n      mload\n      dup2\n      0x00\n      add\n      sstore\n      0x20\n      dup3\n      add\n      mload\n      dup2\n      0x01\n      add\n      swap1\n      dup2\n      tag_29\n      swap2\n      swap1\n      tag_30\n      jump\t// in\n    tag_29:\n      pop\n      0x40\n      dup3\n      add\n      mload\n      dup2\n      0x02\n      add\n      sstore\n      0x60\n      dup3\n      add\n      mload\n      dup2\n      0x03\n      add\n      sstore\n      swap1\n      pop\n      pop\n        /* \"contracts/mytest/sturctTest.sol\":466:618  function addProduct(string memory pName,uint pPrice,uint pStock) public {... */\n      pop\n      pop\n      pop\n      jump\t// out\n        /* \"contracts/mytest/sturctTest.sol\":647:777  function updateP(uint pId, uint newStock) public {... */\n    tag_14:\n        /* \"contracts/mytest/sturctTest.sol\":707:724  Product storage p */\n      0x00\n        /* \"contracts/mytest/sturctTest.sol\":727:735  products */\n      dup1\n        /* \"contracts/mytest/sturctTest.sol\":727:740  products[pId] */\n      0x00\n        /* \"contracts/mytest/sturctTest.sol\":736:739  pId */\n      dup5\n        /* \"contracts/mytest/sturctTest.sol\":727:740  products[pId] */\n      dup2\n      mstore\n      0x20\n      add\n      swap1\n      dup2\n      mstore\n      0x20\n      add\n      0x00\n      keccak256\n        /* \"contracts/mytest/sturctTest.sol\":707:740  Product storage p = products[pId] */\n      swap1\n      pop\n        /* \"contracts/mytest/sturctTest.sol\":761:769  newStock */\n      dup2\n        /* \"contracts/mytest/sturctTest.sol\":751:752  p */\n      dup2\n        /* \"contracts/mytest/sturctTest.sol\":751:758  p.stock */\n      0x03\n      add\n        /* \"contracts/mytest/sturctTest.sol\":751:769  p.stock = newStock */\n      dup2\n      swap1\n      sstore\n      pop\n        /* \"contracts/mytest/sturctTest.sol\":696:777  {... */\n      pop\n        /* \"contracts/mytest/sturctTest.sol\":647:777  function updateP(uint pId, uint newStock) public {... */\n      pop\n      pop\n      jump\t// out\n        /* \"contracts/mytest/sturctTest.sol\":351:392  mapping (uint => Product) public products */\n    tag_18:\n      mstore(0x20, 0x00)\n      dup1\n      0x00\n      mstore\n      keccak256(0x00, 0x40)\n      0x00\n      swap2\n      pop\n      swap1\n      pop\n      dup1\n      0x00\n      add\n      sload\n      swap1\n      dup1\n      0x01\n      add\n      dup1\n      sload\n      tag_32\n      swap1\n      tag_33\n      jump\t// in\n    tag_32:\n      dup1\n      0x1f\n      add\n      0x20\n      dup1\n      swap2\n      div\n      mul\n      0x20\n      add\n      mload(0x40)\n      swap1\n      dup2\n      add\n      0x40\n      mstore\n      dup1\n      swap3\n      swap2\n      swap1\n      dup2\n      dup2\n      mstore\n      0x20\n      add\n      dup3\n      dup1\n      sload\n      tag_34\n      swap1\n      tag_33\n      jump\t// in\n    tag_34:\n      dup1\n      iszero\n      tag_35\n      jumpi\n      dup1\n      0x1f\n      lt\n      tag_36\n      jumpi\n      0x0100\n      dup1\n      dup4\n      sload\n      div\n      mul\n      dup4\n      mstore\n      swap2\n      0x20\n      add\n      swap2\n      jump(tag_35)\n    tag_36:\n      dup3\n      add\n      swap2\n      swap1\n      0x00\n      mstore\n      keccak256(0x00, 0x20)\n      swap1\n    tag_37:\n      dup2\n      sload\n      dup2\n      mstore\n      swap1\n      0x01\n      add\n      swap1\n      0x20\n      add\n      dup1\n      dup4\n      gt\n      tag_37\n      jumpi\n      dup3\n      swap1\n      sub\n      0x1f\n      and\n      dup3\n      add\n      swap2\n    tag_35:\n      pop\n      pop\n      pop\n      pop\n      pop\n      swap1\n      dup1\n      0x02\n      add\n      sload\n      swap1\n      dup1\n      0x03\n      add\n      sload\n      swap1\n      pop\n      dup5\n      jump\t// out\n        /* \"contracts/mytest/sturctTest.sol\":800:969  function getProduct(uint _id) public view returns (string memory,uint,uint){... */\n    tag_23:\n        /* \"contracts/mytest/sturctTest.sol\":851:864  string memory */\n      0x60\n        /* \"contracts/mytest/sturctTest.sol\":865:869  uint */\n      0x00\n        /* \"contracts/mytest/sturctTest.sol\":870:874  uint */\n      dup1\n        /* \"contracts/mytest/sturctTest.sol\":886:903  Product storage p */\n      0x00\n        /* \"contracts/mytest/sturctTest.sol\":906:914  products */\n      dup1\n        /* \"contracts/mytest/sturctTest.sol\":906:919  products[_id] */\n      0x00\n        /* \"contracts/mytest/sturctTest.sol\":915:918  _id */\n      dup7\n        /* \"contracts/mytest/sturctTest.sol\":906:919  products[_id] */\n      dup2\n      mstore\n      0x20\n      add\n      swap1\n      dup2\n      mstore\n      0x20\n      add\n      0x00\n      keccak256\n        /* \"contracts/mytest/sturctTest.sol\":886:919  Product storage p = products[_id] */\n      swap1\n      pop\n        /* \"contracts/mytest/sturctTest.sol\":938:939  p */\n      dup1\n        /* \"contracts/mytest/sturctTest.sol\":938:944  p.name */\n      0x01\n      add\n        /* \"contracts/mytest/sturctTest.sol\":945:946  p */\n      dup2\n        /* \"contracts/mytest/sturctTest.sol\":945:952  p.price */\n      0x02\n      add\n      sload\n        /* \"contracts/mytest/sturctTest.sol\":953:954  p */\n      dup3\n        /* \"contracts/mytest/sturctTest.sol\":953:960  p.stock */\n      0x03\n      add\n      sload\n        /* \"contracts/mytest/sturctTest.sol\":930:961  return (p.name,p.price,p.stock) */\n      dup3\n      dup1\n      sload\n      tag_39\n      swap1\n      tag_33\n      jump\t// in\n    tag_39:\n      dup1\n      0x1f\n      add\n      0x20\n      dup1\n      swap2\n      div\n      mul\n      0x20\n      add\n      mload(0x40)\n      swap1\n      dup2\n      add\n      0x40\n      mstore\n      dup1\n      swap3\n      swap2\n      swap1\n      dup2\n      dup2\n      mstore\n      0x20\n      add\n      dup3\n      dup1\n      sload\n      tag_40\n      swap1\n      tag_33\n      jump\t// in\n    tag_40:\n      dup1\n      iszero\n      tag_41\n      jumpi\n      dup1\n      0x1f\n      lt\n      tag_42\n      jumpi\n      0x0100\n      dup1\n      dup4\n      sload\n      div\n      mul\n      dup4\n      mstore\n      swap2\n      0x20\n      add\n      swap2\n      jump(tag_41)\n    tag_42:\n      dup3\n      add\n      swap2\n      swap1\n      0x00\n      mstore\n      keccak256(0x00, 0x20)\n      swap1\n    tag_43:\n      dup2\n      sload\n      dup2\n      mstore\n      swap1\n      0x01\n      add\n      swap1\n      0x20\n      add\n      dup1\n      dup4\n      gt\n      tag_43\n      jumpi\n      dup3\n      swap1\n      sub\n      0x1f\n      and\n      dup3\n      add\n      swap2\n    tag_41:\n      pop\n      pop\n      pop\n      pop\n      pop\n      swap3\n      pop\n      swap4\n      pop\n      swap4\n      pop\n      swap4\n      pop\n      pop\n        /* \"contracts/mytest/sturctTest.sol\":800:969  function getProduct(uint _id) public view returns (string memory,uint,uint){... */\n      swap2\n      swap4\n      swap1\n      swap3\n      pop\n      jump\t// out\n        /* \"#utility.yul\":7:82   */\n    tag_44:\n        /* \"#utility.yul\":40:46   */\n      0x00\n        /* \"#utility.yul\":73:75   */\n      0x40\n        /* \"#utility.yul\":67:76   */\n      mload\n        /* \"#utility.yul\":57:76   */\n      swap1\n      pop\n        /* \"#utility.yul\":7:82   */\n      swap1\n      jump\t// out\n        /* \"#utility.yul\":88:205   */\n    tag_45:\n        /* \"#utility.yul\":197:198   */\n      0x00\n        /* \"#utility.yul\":194:195   */\n      dup1\n        /* \"#utility.yul\":187:199   */\n      revert\n        /* \"#utility.yul\":211:328   */\n    tag_46:\n        /* \"#utility.yul\":320:321   */\n      0x00\n        /* \"#utility.yul\":317:318   */\n      dup1\n        /* \"#utility.yul\":310:322   */\n      revert\n        /* \"#utility.yul\":334:451   */\n    tag_47:\n        /* \"#utility.yul\":443:444   */\n      0x00\n        /* \"#utility.yul\":440:441   */\n      dup1\n        /* \"#utility.yul\":433:445   */\n      revert\n        /* \"#utility.yul\":457:574   */\n    tag_48:\n        /* \"#utility.yul\":566:567   */\n      0x00\n        /* \"#utility.yul\":563:564   */\n      dup1\n        /* \"#utility.yul\":556:568   */\n      revert\n        /* \"#utility.yul\":580:682   */\n    tag_49:\n        /* \"#utility.yul\":621:627   */\n      0x00\n        /* \"#utility.yul\":672:674   */\n      0x1f\n        /* \"#utility.yul\":668:675   */\n      not\n        /* \"#utility.yul\":663:665   */\n      0x1f\n        /* \"#utility.yul\":656:661   */\n      dup4\n        /* \"#utility.yul\":652:666   */\n      add\n        /* \"#utility.yul\":648:676   */\n      and\n        /* \"#utility.yul\":638:676   */\n      swap1\n      pop\n        /* \"#utility.yul\":580:682   */\n      swap2\n      swap1\n      pop\n      jump\t// out\n        /* \"#utility.yul\":688:868   */\n    tag_50:\n        /* \"#utility.yul\":736:813   */\n      0x4e487b7100000000000000000000000000000000000000000000000000000000\n        /* \"#utility.yul\":733:734   */\n      0x00\n        /* \"#utility.yul\":726:814   */\n      mstore\n        /* \"#utility.yul\":833:837   */\n      0x41\n        /* \"#utility.yul\":830:831   */\n      0x04\n        /* \"#utility.yul\":823:838   */\n      mstore\n        /* \"#utility.yul\":857:861   */\n      0x24\n        /* \"#utility.yul\":854:855   */\n      0x00\n        /* \"#utility.yul\":847:862   */\n      revert\n        /* \"#utility.yul\":874:1155   */\n    tag_51:\n        /* \"#utility.yul\":957:984   */\n      tag_91\n        /* \"#utility.yul\":979:983   */\n      dup3\n        /* \"#utility.yul\":957:984   */\n      tag_49\n      jump\t// in\n    tag_91:\n        /* \"#utility.yul\":949:955   */\n      dup2\n        /* \"#utility.yul\":945:985   */\n      add\n        /* \"#utility.yul\":1087:1093   */\n      dup2\n        /* \"#utility.yul\":1075:1085   */\n      dup2\n        /* \"#utility.yul\":1072:1094   */\n      lt\n        /* \"#utility.yul\":1051:1069   */\n      0xffffffffffffffff\n        /* \"#utility.yul\":1039:1049   */\n      dup3\n        /* \"#utility.yul\":1036:1070   */\n      gt\n        /* \"#utility.yul\":1033:1095   */\n      or\n        /* \"#utility.yul\":1030:1118   */\n      iszero\n      tag_92\n      jumpi\n        /* \"#utility.yul\":1098:1116   */\n      tag_93\n      tag_50\n      jump\t// in\n    tag_93:\n        /* \"#utility.yul\":1030:1118   */\n    tag_92:\n        /* \"#utility.yul\":1138:1148   */\n      dup1\n        /* \"#utility.yul\":1134:1136   */\n      0x40\n        /* \"#utility.yul\":1127:1149   */\n      mstore\n        /* \"#utility.yul\":917:1155   */\n      pop\n        /* \"#utility.yul\":874:1155   */\n      pop\n      pop\n      jump\t// out\n        /* \"#utility.yul\":1161:1290   */\n    tag_52:\n        /* \"#utility.yul\":1195:1201   */\n      0x00\n        /* \"#utility.yul\":1222:1242   */\n      tag_95\n      tag_44\n      jump\t// in\n    tag_95:\n        /* \"#utility.yul\":1212:1242   */\n      swap1\n      pop\n        /* \"#utility.yul\":1251:1284   */\n      tag_96\n        /* \"#utility.yul\":1279:1283   */\n      dup3\n        /* \"#utility.yul\":1271:1277   */\n      dup3\n        /* \"#utility.yul\":1251:1284   */\n      tag_51\n      jump\t// in\n    tag_96:\n        /* \"#utility.yul\":1161:1290   */\n      swap2\n      swap1\n      pop\n      jump\t// out\n        /* \"#utility.yul\":1296:1604   */\n    tag_53:\n        /* \"#utility.yul\":1358:1362   */\n      0x00\n        /* \"#utility.yul\":1448:1466   */\n      0xffffffffffffffff\n        /* \"#utility.yul\":1440:1446   */\n      dup3\n        /* \"#utility.yul\":1437:1467   */\n      gt\n        /* \"#utility.yul\":1434:1490   */\n      iszero\n      tag_98\n      jumpi\n        /* \"#utility.yul\":1470:1488   */\n      tag_99\n      tag_50\n      jump\t// in\n    tag_99:\n        /* \"#utility.yul\":1434:1490   */\n    tag_98:\n        /* \"#utility.yul\":1508:1537   */\n      tag_100\n        /* \"#utility.yul\":1530:1536   */\n      dup3\n        /* \"#utility.yul\":1508:1537   */\n      tag_49\n      jump\t// in\n    tag_100:\n        /* \"#utility.yul\":1500:1537   */\n      swap1\n      pop\n        /* \"#utility.yul\":1592:1596   */\n      0x20\n        /* \"#utility.yul\":1586:1590   */\n      dup2\n        /* \"#utility.yul\":1582:1597   */\n      add\n        /* \"#utility.yul\":1574:1597   */\n      swap1\n      pop\n        /* \"#utility.yul\":1296:1604   */\n      swap2\n      swap1\n      pop\n      jump\t// out\n        /* \"#utility.yul\":1610:1758   */\n    tag_54:\n        /* \"#utility.yul\":1708:1714   */\n      dup3\n        /* \"#utility.yul\":1703:1706   */\n      dup2\n        /* \"#utility.yul\":1698:1701   */\n      dup4\n        /* \"#utility.yul\":1685:1715   */\n      calldatacopy\n        /* \"#utility.yul\":1749:1750   */\n      0x00\n        /* \"#utility.yul\":1740:1746   */\n      dup4\n        /* \"#utility.yul\":1735:1738   */\n      dup4\n        /* \"#utility.yul\":1731:1747   */\n      add\n        /* \"#utility.yul\":1724:1751   */\n      mstore\n        /* \"#utility.yul\":1610:1758   */\n      pop\n      pop\n      pop\n      jump\t// out\n        /* \"#utility.yul\":1764:2189   */\n    tag_55:\n        /* \"#utility.yul\":1842:1847   */\n      0x00\n        /* \"#utility.yul\":1867:1933   */\n      tag_103\n        /* \"#utility.yul\":1883:1932   */\n      tag_104\n        /* \"#utility.yul\":1925:1931   */\n      dup5\n        /* \"#utility.yul\":1883:1932   */\n      tag_53\n      jump\t// in\n    tag_104:\n        /* \"#utility.yul\":1867:1933   */\n      tag_52\n      jump\t// in\n    tag_103:\n        /* \"#utility.yul\":1858:1933   */\n      swap1\n      pop\n        /* \"#utility.yul\":1956:1962   */\n      dup3\n        /* \"#utility.yul\":1949:1954   */\n      dup2\n        /* \"#utility.yul\":1942:1963   */\n      mstore\n        /* \"#utility.yul\":1994:1998   */\n      0x20\n        /* \"#utility.yul\":1987:1992   */\n      dup2\n        /* \"#utility.yul\":1983:1999   */\n      add\n        /* \"#utility.yul\":2032:2035   */\n      dup5\n        /* \"#utility.yul\":2023:2029   */\n      dup5\n        /* \"#utility.yul\":2018:2021   */\n      dup5\n        /* \"#utility.yul\":2014:2030   */\n      add\n        /* \"#utility.yul\":2011:2036   */\n      gt\n        /* \"#utility.yul\":2008:2120   */\n      iszero\n      tag_105\n      jumpi\n        /* \"#utility.yul\":2039:2118   */\n      tag_106\n      tag_48\n      jump\t// in\n    tag_106:\n        /* \"#utility.yul\":2008:2120   */\n    tag_105:\n        /* \"#utility.yul\":2129:2183   */\n      tag_107\n        /* \"#utility.yul\":2176:2182   */\n      dup5\n        /* \"#utility.yul\":2171:2174   */\n      dup3\n        /* \"#utility.yul\":2166:2169   */\n      dup6\n        /* \"#utility.yul\":2129:2183   */\n      tag_54\n      jump\t// in\n    tag_107:\n        /* \"#utility.yul\":1848:2189   */\n      pop\n        /* \"#utility.yul\":1764:2189   */\n      swap4\n      swap3\n      pop\n      pop\n      pop\n      jump\t// out\n        /* \"#utility.yul\":2209:2549   */\n    tag_56:\n        /* \"#utility.yul\":2265:2270   */\n      0x00\n        /* \"#utility.yul\":2314:2317   */\n      dup3\n        /* \"#utility.yul\":2307:2311   */\n      0x1f\n        /* \"#utility.yul\":2299:2305   */\n      dup4\n        /* \"#utility.yul\":2295:2312   */\n      add\n        /* \"#utility.yul\":2291:2318   */\n      slt\n        /* \"#utility.yul\":2281:2403   */\n      tag_109\n      jumpi\n        /* \"#utility.yul\":2322:2401   */\n      tag_110\n      tag_47\n      jump\t// in\n    tag_110:\n        /* \"#utility.yul\":2281:2403   */\n    tag_109:\n        /* \"#utility.yul\":2439:2445   */\n      dup2\n        /* \"#utility.yul\":2426:2446   */\n      calldataload\n        /* \"#utility.yul\":2464:2543   */\n      tag_111\n        /* \"#utility.yul\":2539:2542   */\n      dup5\n        /* \"#utility.yul\":2531:2537   */\n      dup3\n        /* \"#utility.yul\":2524:2528   */\n      0x20\n        /* \"#utility.yul\":2516:2522   */\n      dup7\n        /* \"#utility.yul\":2512:2529   */\n      add\n        /* \"#utility.yul\":2464:2543   */\n      tag_55\n      jump\t// in\n    tag_111:\n        /* \"#utility.yul\":2455:2543   */\n      swap2\n      pop\n        /* \"#utility.yul\":2271:2549   */\n      pop\n        /* \"#utility.yul\":2209:2549   */\n      swap3\n      swap2\n      pop\n      pop\n      jump\t// out\n        /* \"#utility.yul\":2555:2632   */\n    tag_57:\n        /* \"#utility.yul\":2592:2599   */\n      0x00\n        /* \"#utility.yul\":2621:2626   */\n      dup2\n        /* \"#utility.yul\":2610:2626   */\n      swap1\n      pop\n        /* \"#utility.yul\":2555:2632   */\n      swap2\n      swap1\n      pop\n      jump\t// out\n        /* \"#utility.yul\":2638:2760   */\n    tag_58:\n        /* \"#utility.yul\":2711:2735   */\n      tag_114\n        /* \"#utility.yul\":2729:2734   */\n      dup2\n        /* \"#utility.yul\":2711:2735   */\n      tag_57\n      jump\t// in\n    tag_114:\n        /* \"#utility.yul\":2704:2709   */\n      dup2\n        /* \"#utility.yul\":2701:2736   */\n      eq\n        /* \"#utility.yul\":2691:2754   */\n      tag_115\n      jumpi\n        /* \"#utility.yul\":2750:2751   */\n      0x00\n        /* \"#utility.yul\":2747:2748   */\n      dup1\n        /* \"#utility.yul\":2740:2752   */\n      revert\n        /* \"#utility.yul\":2691:2754   */\n    tag_115:\n        /* \"#utility.yul\":2638:2760   */\n      pop\n      jump\t// out\n        /* \"#utility.yul\":2766:2905   */\n    tag_59:\n        /* \"#utility.yul\":2812:2817   */\n      0x00\n        /* \"#utility.yul\":2850:2856   */\n      dup2\n        /* \"#utility.yul\":2837:2857   */\n      calldataload\n        /* \"#utility.yul\":2828:2857   */\n      swap1\n      pop\n        /* \"#utility.yul\":2866:2899   */\n      tag_117\n        /* \"#utility.yul\":2893:2898   */\n      dup2\n        /* \"#utility.yul\":2866:2899   */\n      tag_58\n      jump\t// in\n    tag_117:\n        /* \"#utility.yul\":2766:2905   */\n      swap3\n      swap2\n      pop\n      pop\n      jump\t// out\n        /* \"#utility.yul\":2911:3710   */\n    tag_9:\n        /* \"#utility.yul\":2998:3004   */\n      0x00\n        /* \"#utility.yul\":3006:3012   */\n      dup1\n        /* \"#utility.yul\":3014:3020   */\n      0x00\n        /* \"#utility.yul\":3063:3065   */\n      0x60\n        /* \"#utility.yul\":3051:3060   */\n      dup5\n        /* \"#utility.yul\":3042:3049   */\n      dup7\n        /* \"#utility.yul\":3038:3061   */\n      sub\n        /* \"#utility.yul\":3034:3066   */\n      slt\n        /* \"#utility.yul\":3031:3150   */\n      iszero\n      tag_119\n      jumpi\n        /* \"#utility.yul\":3069:3148   */\n      tag_120\n      tag_45\n      jump\t// in\n    tag_120:\n        /* \"#utility.yul\":3031:3150   */\n    tag_119:\n        /* \"#utility.yul\":3217:3218   */\n      0x00\n        /* \"#utility.yul\":3206:3215   */\n      dup5\n        /* \"#utility.yul\":3202:3219   */\n      add\n        /* \"#utility.yul\":3189:3220   */\n      calldataload\n        /* \"#utility.yul\":3247:3265   */\n      0xffffffffffffffff\n        /* \"#utility.yul\":3239:3245   */\n      dup2\n        /* \"#utility.yul\":3236:3266   */\n      gt\n        /* \"#utility.yul\":3233:3350   */\n      iszero\n      tag_121\n      jumpi\n        /* \"#utility.yul\":3269:3348   */\n      tag_122\n      tag_46\n      jump\t// in\n    tag_122:\n        /* \"#utility.yul\":3233:3350   */\n    tag_121:\n        /* \"#utility.yul\":3374:3437   */\n      tag_123\n        /* \"#utility.yul\":3429:3436   */\n      dup7\n        /* \"#utility.yul\":3420:3426   */\n      dup3\n        /* \"#utility.yul\":3409:3418   */\n      dup8\n        /* \"#utility.yul\":3405:3427   */\n      add\n        /* \"#utility.yul\":3374:3437   */\n      tag_56\n      jump\t// in\n    tag_123:\n        /* \"#utility.yul\":3364:3437   */\n      swap4\n      pop\n        /* \"#utility.yul\":3160:3447   */\n      pop\n        /* \"#utility.yul\":3486:3488   */\n      0x20\n        /* \"#utility.yul\":3512:3565   */\n      tag_124\n        /* \"#utility.yul\":3557:3564   */\n      dup7\n        /* \"#utility.yul\":3548:3554   */\n      dup3\n        /* \"#utility.yul\":3537:3546   */\n      dup8\n        /* \"#utility.yul\":3533:3555   */\n      add\n        /* \"#utility.yul\":3512:3565   */\n      tag_59\n      jump\t// in\n    tag_124:\n        /* \"#utility.yul\":3502:3565   */\n      swap3\n      pop\n        /* \"#utility.yul\":3457:3575   */\n      pop\n        /* \"#utility.yul\":3614:3616   */\n      0x40\n        /* \"#utility.yul\":3640:3693   */\n      tag_125\n        /* \"#utility.yul\":3685:3692   */\n      dup7\n        /* \"#utility.yul\":3676:3682   */\n      dup3\n        /* \"#utility.yul\":3665:3674   */\n      dup8\n        /* \"#utility.yul\":3661:3683   */\n      add\n        /* \"#utility.yul\":3640:3693   */\n      tag_59\n      jump\t// in\n    tag_125:\n        /* \"#utility.yul\":3630:3693   */\n      swap2\n      pop\n        /* \"#utility.yul\":3585:3703   */\n      pop\n        /* \"#utility.yul\":2911:3710   */\n      swap3\n      pop\n      swap3\n      pop\n      swap3\n      jump\t// out\n        /* \"#utility.yul\":3716:4190   */\n    tag_13:\n        /* \"#utility.yul\":3784:3790   */\n      0x00\n        /* \"#utility.yul\":3792:3798   */\n      dup1\n        /* \"#utility.yul\":3841:3843   */\n      0x40\n        /* \"#utility.yul\":3829:3838   */\n      dup4\n        /* \"#utility.yul\":3820:3827   */\n      dup6\n        /* \"#utility.yul\":3816:3839   */\n      sub\n        /* \"#utility.yul\":3812:3844   */\n      slt\n        /* \"#utility.yul\":3809:3928   */\n      iszero\n      tag_127\n      jumpi\n        /* \"#utility.yul\":3847:3926   */\n      tag_128\n      tag_45\n      jump\t// in\n    tag_128:\n        /* \"#utility.yul\":3809:3928   */\n    tag_127:\n        /* \"#utility.yul\":3967:3968   */\n      0x00\n        /* \"#utility.yul\":3992:4045   */\n      tag_129\n        /* \"#utility.yul\":4037:4044   */\n      dup6\n        /* \"#utility.yul\":4028:4034   */\n      dup3\n        /* \"#utility.yul\":4017:4026   */\n      dup7\n        /* \"#utility.yul\":4013:4035   */\n      add\n        /* \"#utility.yul\":3992:4045   */\n      tag_59\n      jump\t// in\n    tag_129:\n        /* \"#utility.yul\":3982:4045   */\n      swap3\n      pop\n        /* \"#utility.yul\":3938:4055   */\n      pop\n        /* \"#utility.yul\":4094:4096   */\n      0x20\n        /* \"#utility.yul\":4120:4173   */\n      tag_130\n        /* \"#utility.yul\":4165:4172   */\n      dup6\n        /* \"#utility.yul\":4156:4162   */\n      dup3\n        /* \"#utility.yul\":4145:4154   */\n      dup7\n        /* \"#utility.yul\":4141:4163   */\n      add\n        /* \"#utility.yul\":4120:4173   */\n      tag_59\n      jump\t// in\n    tag_130:\n        /* \"#utility.yul\":4110:4173   */\n      swap2\n      pop\n        /* \"#utility.yul\":4065:4183   */\n      pop\n        /* \"#utility.yul\":3716:4190   */\n      swap3\n      pop\n      swap3\n      swap1\n      pop\n      jump\t// out\n        /* \"#utility.yul\":4196:4525   */\n    tag_17:\n        /* \"#utility.yul\":4255:4261   */\n      0x00\n        /* \"#utility.yul\":4304:4306   */\n      0x20\n        /* \"#utility.yul\":4292:4301   */\n      dup3\n        /* \"#utility.yul\":4283:4290   */\n      dup5\n        /* \"#utility.yul\":4279:4302   */\n      sub\n        /* \"#utility.yul\":4275:4307   */\n      slt\n        /* \"#utility.yul\":4272:4391   */\n      iszero\n      tag_132\n      jumpi\n        /* \"#utility.yul\":4310:4389   */\n      tag_133\n      tag_45\n      jump\t// in\n    tag_133:\n        /* \"#utility.yul\":4272:4391   */\n    tag_132:\n        /* \"#utility.yul\":4430:4431   */\n      0x00\n        /* \"#utility.yul\":4455:4508   */\n      tag_134\n        /* \"#utility.yul\":4500:4507   */\n      dup5\n        /* \"#utility.yul\":4491:4497   */\n      dup3\n        /* \"#utility.yul\":4480:4489   */\n      dup6\n        /* \"#utility.yul\":4476:4498   */\n      add\n        /* \"#utility.yul\":4455:4508   */\n      tag_59\n      jump\t// in\n    tag_134:\n        /* \"#utility.yul\":4445:4508   */\n      swap2\n      pop\n        /* \"#utility.yul\":4401:4518   */\n      pop\n        /* \"#utility.yul\":4196:4525   */\n      swap3\n      swap2\n      pop\n      pop\n      jump\t// out\n        /* \"#utility.yul\":4531:4649   */\n    tag_60:\n        /* \"#utility.yul\":4618:4642   */\n      tag_136\n        /* \"#utility.yul\":4636:4641   */\n      dup2\n        /* \"#utility.yul\":4618:4642   */\n      tag_57\n      jump\t// in\n    tag_136:\n        /* \"#utility.yul\":4613:4616   */\n      dup3\n        /* \"#utility.yul\":4606:4643   */\n      mstore\n        /* \"#utility.yul\":4531:4649   */\n      pop\n      pop\n      jump\t// out\n        /* \"#utility.yul\":4655:4754   */\n    tag_61:\n        /* \"#utility.yul\":4707:4713   */\n      0x00\n        /* \"#utility.yul\":4741:4746   */\n      dup2\n        /* \"#utility.yul\":4735:4747   */\n      mload\n        /* \"#utility.yul\":4725:4747   */\n      swap1\n      pop\n        /* \"#utility.yul\":4655:4754   */\n      swap2\n      swap1\n      pop\n      jump\t// out\n        /* \"#utility.yul\":4760:4929   */\n    tag_62:\n        /* \"#utility.yul\":4844:4855   */\n      0x00\n        /* \"#utility.yul\":4878:4884   */\n      dup3\n        /* \"#utility.yul\":4873:4876   */\n      dup3\n        /* \"#utility.yul\":4866:4885   */\n      mstore\n        /* \"#utility.yul\":4918:4922   */\n      0x20\n        /* \"#utility.yul\":4913:4916   */\n      dup3\n        /* \"#utility.yul\":4909:4923   */\n      add\n        /* \"#utility.yul\":4894:4923   */\n      swap1\n      pop\n        /* \"#utility.yul\":4760:4929   */\n      swap3\n      swap2\n      pop\n      pop\n      jump\t// out\n        /* \"#utility.yul\":4935:5074   */\n    tag_63:\n        /* \"#utility.yul\":5024:5030   */\n      dup3\n        /* \"#utility.yul\":5019:5022   */\n      dup2\n        /* \"#utility.yul\":5014:5017   */\n      dup4\n        /* \"#utility.yul\":5008:5031   */\n      mcopy\n        /* \"#utility.yul\":5065:5066   */\n      0x00\n        /* \"#utility.yul\":5056:5062   */\n      dup4\n        /* \"#utility.yul\":5051:5054   */\n      dup4\n        /* \"#utility.yul\":5047:5063   */\n      add\n        /* \"#utility.yul\":5040:5067   */\n      mstore\n        /* \"#utility.yul\":4935:5074   */\n      pop\n      pop\n      pop\n      jump\t// out\n        /* \"#utility.yul\":5080:5457   */\n    tag_64:\n        /* \"#utility.yul\":5168:5171   */\n      0x00\n        /* \"#utility.yul\":5196:5235   */\n      tag_141\n        /* \"#utility.yul\":5229:5234   */\n      dup3\n        /* \"#utility.yul\":5196:5235   */\n      tag_61\n      jump\t// in\n    tag_141:\n        /* \"#utility.yul\":5251:5322   */\n      tag_142\n        /* \"#utility.yul\":5315:5321   */\n      dup2\n        /* \"#utility.yul\":5310:5313   */\n      dup6\n        /* \"#utility.yul\":5251:5322   */\n      tag_62\n      jump\t// in\n    tag_142:\n        /* \"#utility.yul\":5244:5322   */\n      swap4\n      pop\n        /* \"#utility.yul\":5331:5396   */\n      tag_143\n        /* \"#utility.yul\":5389:5395   */\n      dup2\n        /* \"#utility.yul\":5384:5387   */\n      dup6\n        /* \"#utility.yul\":5377:5381   */\n      0x20\n        /* \"#utility.yul\":5370:5375   */\n      dup7\n        /* \"#utility.yul\":5366:5382   */\n      add\n        /* \"#utility.yul\":5331:5396   */\n      tag_63\n      jump\t// in\n    tag_143:\n        /* \"#utility.yul\":5421:5450   */\n      tag_144\n        /* \"#utility.yul\":5443:5449   */\n      dup2\n        /* \"#utility.yul\":5421:5450   */\n      tag_49\n      jump\t// in\n    tag_144:\n        /* \"#utility.yul\":5416:5419   */\n      dup5\n        /* \"#utility.yul\":5412:5451   */\n      add\n        /* \"#utility.yul\":5405:5451   */\n      swap2\n      pop\n        /* \"#utility.yul\":5172:5457   */\n      pop\n        /* \"#utility.yul\":5080:5457   */\n      swap3\n      swap2\n      pop\n      pop\n      jump\t// out\n        /* \"#utility.yul\":5463:6107   */\n    tag_20:\n        /* \"#utility.yul\":5660:5664   */\n      0x00\n        /* \"#utility.yul\":5698:5701   */\n      0x80\n        /* \"#utility.yul\":5687:5696   */\n      dup3\n        /* \"#utility.yul\":5683:5702   */\n      add\n        /* \"#utility.yul\":5675:5702   */\n      swap1\n      pop\n        /* \"#utility.yul\":5712:5783   */\n      tag_146\n        /* \"#utility.yul\":5780:5781   */\n      0x00\n        /* \"#utility.yul\":5769:5778   */\n      dup4\n        /* \"#utility.yul\":5765:5782   */\n      add\n        /* \"#utility.yul\":5756:5762   */\n      dup8\n        /* \"#utility.yul\":5712:5783   */\n      tag_60\n      jump\t// in\n    tag_146:\n        /* \"#utility.yul\":5830:5839   */\n      dup2\n        /* \"#utility.yul\":5824:5828   */\n      dup2\n        /* \"#utility.yul\":5820:5840   */\n      sub\n        /* \"#utility.yul\":5815:5817   */\n      0x20\n        /* \"#utility.yul\":5804:5813   */\n      dup4\n        /* \"#utility.yul\":5800:5818   */\n      add\n        /* \"#utility.yul\":5793:5841   */\n      mstore\n        /* \"#utility.yul\":5858:5936   */\n      tag_147\n        /* \"#utility.yul\":5931:5935   */\n      dup2\n        /* \"#utility.yul\":5922:5928   */\n      dup7\n        /* \"#utility.yul\":5858:5936   */\n      tag_64\n      jump\t// in\n    tag_147:\n        /* \"#utility.yul\":5850:5936   */\n      swap1\n      pop\n        /* \"#utility.yul\":5946:6018   */\n      tag_148\n        /* \"#utility.yul\":6014:6016   */\n      0x40\n        /* \"#utility.yul\":6003:6012   */\n      dup4\n        /* \"#utility.yul\":5999:6017   */\n      add\n        /* \"#utility.yul\":5990:5996   */\n      dup6\n        /* \"#utility.yul\":5946:6018   */\n      tag_60\n      jump\t// in\n    tag_148:\n        /* \"#utility.yul\":6028:6100   */\n      tag_149\n        /* \"#utility.yul\":6096:6098   */\n      0x60\n        /* \"#utility.yul\":6085:6094   */\n      dup4\n        /* \"#utility.yul\":6081:6099   */\n      add\n        /* \"#utility.yul\":6072:6078   */\n      dup5\n        /* \"#utility.yul\":6028:6100   */\n      tag_60\n      jump\t// in\n    tag_149:\n        /* \"#utility.yul\":5463:6107   */\n      swap6\n      swap5\n      pop\n      pop\n      pop\n      pop\n      pop\n      jump\t// out\n        /* \"#utility.yul\":6113:6646   */\n    tag_25:\n        /* \"#utility.yul\":6282:6286   */\n      0x00\n        /* \"#utility.yul\":6320:6322   */\n      0x60\n        /* \"#utility.yul\":6309:6318   */\n      dup3\n        /* \"#utility.yul\":6305:6323   */\n      add\n        /* \"#utility.yul\":6297:6323   */\n      swap1\n      pop\n        /* \"#utility.yul\":6369:6378   */\n      dup2\n        /* \"#utility.yul\":6363:6367   */\n      dup2\n        /* \"#utility.yul\":6359:6379   */\n      sub\n        /* \"#utility.yul\":6355:6356   */\n      0x00\n        /* \"#utility.yul\":6344:6353   */\n      dup4\n        /* \"#utility.yul\":6340:6357   */\n      add\n        /* \"#utility.yul\":6333:6380   */\n      mstore\n        /* \"#utility.yul\":6397:6475   */\n      tag_151\n        /* \"#utility.yul\":6470:6474   */\n      dup2\n        /* \"#utility.yul\":6461:6467   */\n      dup7\n        /* \"#utility.yul\":6397:6475   */\n      tag_64\n      jump\t// in\n    tag_151:\n        /* \"#utility.yul\":6389:6475   */\n      swap1\n      pop\n        /* \"#utility.yul\":6485:6557   */\n      tag_152\n        /* \"#utility.yul\":6553:6555   */\n      0x20\n        /* \"#utility.yul\":6542:6551   */\n      dup4\n        /* \"#utility.yul\":6538:6556   */\n      add\n        /* \"#utility.yul\":6529:6535   */\n      dup6\n        /* \"#utility.yul\":6485:6557   */\n      tag_60\n      jump\t// in\n    tag_152:\n        /* \"#utility.yul\":6567:6639   */\n      tag_153\n        /* \"#utility.yul\":6635:6637   */\n      0x40\n        /* \"#utility.yul\":6624:6633   */\n      dup4\n        /* \"#utility.yul\":6620:6638   */\n      add\n        /* \"#utility.yul\":6611:6617   */\n      dup5\n        /* \"#utility.yul\":6567:6639   */\n      tag_60\n      jump\t// in\n    tag_153:\n        /* \"#utility.yul\":6113:6646   */\n      swap5\n      swap4\n      pop\n      pop\n      pop\n      pop\n      jump\t// out\n        /* \"#utility.yul\":6652:6832   */\n    tag_65:\n        /* \"#utility.yul\":6700:6777   */\n      0x4e487b7100000000000000000000000000000000000000000000000000000000\n        /* \"#utility.yul\":6697:6698   */\n      0x00\n        /* \"#utility.yul\":6690:6778   */\n      mstore\n        /* \"#utility.yul\":6797:6801   */\n      0x11\n        /* \"#utility.yul\":6794:6795   */\n      0x04\n        /* \"#utility.yul\":6787:6802   */\n      mstore\n        /* \"#utility.yul\":6821:6825   */\n      0x24\n        /* \"#utility.yul\":6818:6819   */\n      0x00\n        /* \"#utility.yul\":6811:6826   */\n      revert\n        /* \"#utility.yul\":6838:7071   */\n    tag_28:\n        /* \"#utility.yul\":6877:6880   */\n      0x00\n        /* \"#utility.yul\":6900:6924   */\n      tag_156\n        /* \"#utility.yul\":6918:6923   */\n      dup3\n        /* \"#utility.yul\":6900:6924   */\n      tag_57\n      jump\t// in\n    tag_156:\n        /* \"#utility.yul\":6891:6924   */\n      swap2\n      pop\n        /* \"#utility.yul\":6946:7012   */\n      0xffffffffffffffffffffffffffffffffffffffffffffffffffffffffffffffff\n        /* \"#utility.yul\":6939:6944   */\n      dup3\n        /* \"#utility.yul\":6936:7013   */\n      sub\n        /* \"#utility.yul\":6933:7036   */\n      tag_157\n      jumpi\n        /* \"#utility.yul\":7016:7034   */\n      tag_158\n      tag_65\n      jump\t// in\n    tag_158:\n        /* \"#utility.yul\":6933:7036   */\n    tag_157:\n        /* \"#utility.yul\":7063:7064   */\n      0x01\n        /* \"#utility.yul\":7056:7061   */\n      dup3\n        /* \"#utility.yul\":7052:7065   */\n      add\n        /* \"#utility.yul\":7045:7065   */\n      swap1\n      pop\n        /* \"#utility.yul\":6838:7071   */\n      swap2\n      swap1\n      pop\n      jump\t// out\n        /* \"#utility.yul\":7077:7257   */\n    tag_66:\n        /* \"#utility.yul\":7125:7202   */\n      0x4e487b7100000000000000000000000000000000000000000000000000000000\n        /* \"#utility.yul\":7122:7123   */\n      0x00\n        /* \"#utility.yul\":7115:7203   */\n      mstore\n        /* \"#utility.yul\":7222:7226   */\n      0x22\n        /* \"#utility.yul\":7219:7220   */\n      0x04\n        /* \"#utility.yul\":7212:7227   */\n      mstore\n        /* \"#utility.yul\":7246:7250   */\n      0x24\n        /* \"#utility.yul\":7243:7244   */\n      0x00\n        /* \"#utility.yul\":7236:7251   */\n      revert\n        /* \"#utility.yul\":7263:7583   */\n    tag_33:\n        /* \"#utility.yul\":7307:7313   */\n      0x00\n        /* \"#utility.yul\":7344:7345   */\n      0x02\n        /* \"#utility.yul\":7338:7342   */\n      dup3\n        /* \"#utility.yul\":7334:7346   */\n      div\n        /* \"#utility.yul\":7324:7346   */\n      swap1\n      pop\n        /* \"#utility.yul\":7391:7392   */\n      0x01\n        /* \"#utility.yul\":7385:7389   */\n      dup3\n        /* \"#utility.yul\":7381:7393   */\n      and\n        /* \"#utility.yul\":7412:7430   */\n      dup1\n        /* \"#utility.yul\":7402:7483   */\n      tag_161\n      jumpi\n        /* \"#utility.yul\":7468:7472   */\n      0x7f\n        /* \"#utility.yul\":7460:7466   */\n      dup3\n        /* \"#utility.yul\":7456:7473   */\n      and\n        /* \"#utility.yul\":7446:7473   */\n      swap2\n      pop\n        /* \"#utility.yul\":7402:7483   */\n    tag_161:\n        /* \"#utility.yul\":7530:7532   */\n      0x20\n        /* \"#utility.yul\":7522:7528   */\n      dup3\n        /* \"#utility.yul\":7519:7533   */\n      lt\n        /* \"#utility.yul\":7499:7517   */\n      dup2\n        /* \"#utility.yul\":7496:7534   */\n      sub\n        /* \"#utility.yul\":7493:7577   */\n      tag_162\n      jumpi\n        /* \"#utility.yul\":7549:7567   */\n      tag_163\n      tag_66\n      jump\t// in\n    tag_163:\n        /* \"#utility.yul\":7493:7577   */\n    tag_162:\n        /* \"#utility.yul\":7314:7583   */\n      pop\n        /* \"#utility.yul\":7263:7583   */\n      swap2\n      swap1\n      pop\n      jump\t// out\n        /* \"#utility.yul\":7589:7730   */\n    tag_67:\n        /* \"#utility.yul\":7638:7642   */\n      0x00\n        /* \"#utility.yul\":7661:7664   */\n      dup2\n        /* \"#utility.yul\":7653:7664   */\n      swap1\n      pop\n        /* \"#utility.yul\":7684:7687   */\n      dup2\n        /* \"#utility.yul\":7681:7682   */\n      0x00\n        /* \"#utility.yul\":7674:7688   */\n      mstore\n        /* \"#utility.yul\":7718:7722   */\n      0x20\n        /* \"#utility.yul\":7715:7716   */\n      0x00\n        /* \"#utility.yul\":7705:7723   */\n      keccak256\n        /* \"#utility.yul\":7697:7723   */\n      swap1\n      pop\n        /* \"#utility.yul\":7589:7730   */\n      swap2\n      swap1\n      pop\n      jump\t// out\n        /* \"#utility.yul\":7736:7829   */\n    tag_68:\n        /* \"#utility.yul\":7773:7779   */\n      0x00\n        /* \"#utility.yul\":7820:7822   */\n      0x20\n        /* \"#utility.yul\":7815:7817   */\n      0x1f\n        /* \"#utility.yul\":7808:7813   */\n      dup4\n        /* \"#utility.yul\":7804:7818   */\n      add\n        /* \"#utility.yul\":7800:7823   */\n      div\n        /* \"#utility.yul\":7790:7823   */\n      swap1\n      pop\n        /* \"#utility.yul\":7736:7829   */\n      swap2\n      swap1\n      pop\n      jump\t// out\n        /* \"#utility.yul\":7835:7942   */\n    tag_69:\n        /* \"#utility.yul\":7879:7887   */\n      0x00\n        /* \"#utility.yul\":7929:7934   */\n      dup3\n        /* \"#utility.yul\":7923:7927   */\n      dup3\n        /* \"#utility.yul\":7919:7935   */\n      shl\n        /* \"#utility.yul\":7898:7935   */\n      swap1\n      pop\n        /* \"#utility.yul\":7835:7942   */\n      swap3\n      swap2\n      pop\n      pop\n      jump\t// out\n        /* \"#utility.yul\":7948:8341   */\n    tag_70:\n        /* \"#utility.yul\":8017:8023   */\n      0x00\n        /* \"#utility.yul\":8067:8068   */\n      0x08\n        /* \"#utility.yul\":8055:8065   */\n      dup4\n        /* \"#utility.yul\":8051:8069   */\n      mul\n        /* \"#utility.yul\":8090:8187   */\n      tag_168\n        /* \"#utility.yul\":8120:8186   */\n      0xffffffffffffffffffffffffffffffffffffffffffffffffffffffffffffffff\n        /* \"#utility.yul\":8109:8118   */\n      dup3\n        /* \"#utility.yul\":8090:8187   */\n      tag_69\n      jump\t// in\n    tag_168:\n        /* \"#utility.yul\":8208:8247   */\n      tag_169\n        /* \"#utility.yul\":8238:8246   */\n      dup7\n        /* \"#utility.yul\":8227:8236   */\n      dup4\n        /* \"#utility.yul\":8208:8247   */\n      tag_69\n      jump\t// in\n    tag_169:\n        /* \"#utility.yul\":8196:8247   */\n      swap6\n      pop\n        /* \"#utility.yul\":8280:8284   */\n      dup1\n        /* \"#utility.yul\":8276:8285   */\n      not\n        /* \"#utility.yul\":8269:8274   */\n      dup5\n        /* \"#utility.yul\":8265:8286   */\n      and\n        /* \"#utility.yul\":8256:8286   */\n      swap4\n      pop\n        /* \"#utility.yul\":8329:8333   */\n      dup1\n        /* \"#utility.yul\":8319:8327   */\n      dup7\n        /* \"#utility.yul\":8315:8334   */\n      and\n        /* \"#utility.yul\":8308:8313   */\n      dup5\n        /* \"#utility.yul\":8305:8335   */\n      or\n        /* \"#utility.yul\":8295:8335   */\n      swap3\n      pop\n        /* \"#utility.yul\":8024:8341   */\n      pop\n      pop\n        /* \"#utility.yul\":7948:8341   */\n      swap4\n      swap3\n      pop\n      pop\n      pop\n      jump\t// out\n        /* \"#utility.yul\":8347:8407   */\n    tag_71:\n        /* \"#utility.yul\":8375:8378   */\n      0x00\n        /* \"#utility.yul\":8396:8401   */\n      dup2\n        /* \"#utility.yul\":8389:8401   */\n      swap1\n      pop\n        /* \"#utility.yul\":8347:8407   */\n      swap2\n      swap1\n      pop\n      jump\t// out\n        /* \"#utility.yul\":8413:8555   */\n    tag_72:\n        /* \"#utility.yul\":8463:8472   */\n      0x00\n        /* \"#utility.yul\":8496:8549   */\n      tag_172\n        /* \"#utility.yul\":8514:8548   */\n      tag_173\n        /* \"#utility.yul\":8523:8547   */\n      tag_174\n        /* \"#utility.yul\":8541:8546   */\n      dup5\n        /* \"#utility.yul\":8523:8547   */\n      tag_57\n      jump\t// in\n    tag_174:\n        /* \"#utility.yul\":8514:8548   */\n      tag_71\n      jump\t// in\n    tag_173:\n        /* \"#utility.yul\":8496:8549   */\n      tag_57\n      jump\t// in\n    tag_172:\n        /* \"#utility.yul\":8483:8549   */\n      swap1\n      pop\n        /* \"#utility.yul\":8413:8555   */\n      swap2\n      swap1\n      pop\n      jump\t// out\n        /* \"#utility.yul\":8561:8636   */\n    tag_73:\n        /* \"#utility.yul\":8604:8607   */\n      0x00\n        /* \"#utility.yul\":8625:8630   */\n      dup2\n        /* \"#utility.yul\":8618:8630   */\n      swap1\n      pop\n        /* \"#utility.yul\":8561:8636   */\n      swap2\n      swap1\n      pop\n      jump\t// out\n        /* \"#utility.yul\":8642:8911   */\n    tag_74:\n        /* \"#utility.yul\":8752:8791   */\n      tag_177\n        /* \"#utility.yul\":8783:8790   */\n      dup4\n        /* \"#utility.yul\":8752:8791   */\n      tag_72\n      jump\t// in\n    tag_177:\n        /* \"#utility.yul\":8813:8904   */\n      tag_178\n        /* \"#utility.yul\":8862:8903   */\n      tag_179\n        /* \"#utility.yul\":8886:8902   */\n      dup3\n        /* \"#utility.yul\":8862:8903   */\n      tag_73\n      jump\t// in\n    tag_179:\n        /* \"#utility.yul\":8854:8860   */\n      dup5\n        /* \"#utility.yul\":8847:8851   */\n      dup5\n        /* \"#utility.yul\":8841:8852   */\n      sload\n        /* \"#utility.yul\":8813:8904   */\n      tag_70\n      jump\t// in\n    tag_178:\n        /* \"#utility.yul\":8807:8811   */\n      dup3\n        /* \"#utility.yul\":8800:8905   */\n      sstore\n        /* \"#utility.yul\":8718:8911   */\n      pop\n        /* \"#utility.yul\":8642:8911   */\n      pop\n      pop\n      pop\n      jump\t// out\n        /* \"#utility.yul\":8917:8990   */\n    tag_75:\n        /* \"#utility.yul\":8962:8965   */\n      0x00\n        /* \"#utility.yul\":8917:8990   */\n      swap1\n      jump\t// out\n        /* \"#utility.yul\":8996:9185   */\n    tag_76:\n        /* \"#utility.yul\":9073:9105   */\n      tag_182\n      tag_75\n      jump\t// in\n    tag_182:\n        /* \"#utility.yul\":9114:9179   */\n      tag_183\n        /* \"#utility.yul\":9172:9178   */\n      dup2\n        /* \"#utility.yul\":9164:9170   */\n      dup5\n        /* \"#utility.yul\":9158:9162   */\n      dup5\n        /* \"#utility.yul\":9114:9179   */\n      tag_74\n      jump\t// in\n    tag_183:\n        /* \"#utility.yul\":9049:9185   */\n      pop\n        /* \"#utility.yul\":8996:9185   */\n      pop\n      pop\n      jump\t// out\n        /* \"#utility.yul\":9191:9377   */\n    tag_77:\n        /* \"#utility.yul\":9251:9371   */\n    tag_185:\n        /* \"#utility.yul\":9268:9271   */\n      dup2\n        /* \"#utility.yul\":9261:9266   */\n      dup2\n        /* \"#utility.yul\":9258:9272   */\n      lt\n        /* \"#utility.yul\":9251:9371   */\n      iszero\n      tag_187\n      jumpi\n        /* \"#utility.yul\":9322:9361   */\n      tag_188\n        /* \"#utility.yul\":9359:9360   */\n      0x00\n        /* \"#utility.yul\":9352:9357   */\n      dup3\n        /* \"#utility.yul\":9322:9361   */\n      tag_76\n      jump\t// in\n    tag_188:\n        /* \"#utility.yul\":9295:9296   */\n      0x01\n        /* \"#utility.yul\":9288:9293   */\n      dup2\n        /* \"#utility.yul\":9284:9297   */\n      add\n        /* \"#utility.yul\":9275:9297   */\n      swap1\n      pop\n        /* \"#utility.yul\":9251:9371   */\n      jump(tag_185)\n    tag_187:\n        /* \"#utility.yul\":9191:9377   */\n      pop\n      pop\n      jump\t// out\n        /* \"#utility.yul\":9383:9926   */\n    tag_78:\n        /* \"#utility.yul\":9484:9486   */\n      0x1f\n        /* \"#utility.yul\":9479:9482   */\n      dup3\n        /* \"#utility.yul\":9476:9487   */\n      gt\n        /* \"#utility.yul\":9473:9919   */\n      iszero\n      tag_190\n      jumpi\n        /* \"#utility.yul\":9518:9556   */\n      tag_191\n        /* \"#utility.yul\":9550:9555   */\n      dup2\n        /* \"#utility.yul\":9518:9556   */\n      tag_67\n      jump\t// in\n    tag_191:\n        /* \"#utility.yul\":9602:9631   */\n      tag_192\n        /* \"#utility.yul\":9620:9630   */\n      dup5\n        /* \"#utility.yul\":9602:9631   */\n      tag_68\n      jump\t// in\n    tag_192:\n        /* \"#utility.yul\":9592:9600   */\n      dup2\n        /* \"#utility.yul\":9588:9632   */\n      add\n        /* \"#utility.yul\":9785:9787   */\n      0x20\n        /* \"#utility.yul\":9773:9783   */\n      dup6\n        /* \"#utility.yul\":9770:9788   */\n      lt\n        /* \"#utility.yul\":9767:9816   */\n      iszero\n      tag_193\n      jumpi\n        /* \"#utility.yul\":9806:9814   */\n      dup2\n        /* \"#utility.yul\":9791:9814   */\n      swap1\n      pop\n        /* \"#utility.yul\":9767:9816   */\n    tag_193:\n        /* \"#utility.yul\":9829:9909   */\n      tag_194\n        /* \"#utility.yul\":9885:9907   */\n      tag_195\n        /* \"#utility.yul\":9903:9906   */\n      dup6\n        /* \"#utility.yul\":9885:9907   */\n      tag_68\n      jump\t// in\n    tag_195:\n        /* \"#utility.yul\":9875:9883   */\n      dup4\n        /* \"#utility.yul\":9871:9908   */\n      add\n        /* \"#utility.yul\":9858:9869   */\n      dup3\n        /* \"#utility.yul\":9829:9909   */\n      tag_77\n      jump\t// in\n    tag_194:\n        /* \"#utility.yul\":9488:9919   */\n      pop\n      pop\n        /* \"#utility.yul\":9473:9919   */\n    tag_190:\n        /* \"#utility.yul\":9383:9926   */\n      pop\n      pop\n      pop\n      jump\t// out\n        /* \"#utility.yul\":9932:10049   */\n    tag_79:\n        /* \"#utility.yul\":9986:9994   */\n      0x00\n        /* \"#utility.yul\":10036:10041   */\n      dup3\n        /* \"#utility.yul\":10030:10034   */\n      dup3\n        /* \"#utility.yul\":10026:10042   */\n      shr\n        /* \"#utility.yul\":10005:10042   */\n      swap1\n      pop\n        /* \"#utility.yul\":9932:10049   */\n      swap3\n      swap2\n      pop\n      pop\n      jump\t// out\n        /* \"#utility.yul\":10055:10224   */\n    tag_80:\n        /* \"#utility.yul\":10099:10105   */\n      0x00\n        /* \"#utility.yul\":10132:10183   */\n      tag_198\n        /* \"#utility.yul\":10180:10181   */\n      0x00\n        /* \"#utility.yul\":10176:10182   */\n      not\n        /* \"#utility.yul\":10168:10173   */\n      dup5\n        /* \"#utility.yul\":10165:10166   */\n      0x08\n        /* \"#utility.yul\":10161:10174   */\n      mul\n        /* \"#utility.yul\":10132:10183   */\n      tag_79\n      jump\t// in\n    tag_198:\n        /* \"#utility.yul\":10128:10184   */\n      not\n        /* \"#utility.yul\":10213:10217   */\n      dup1\n        /* \"#utility.yul\":10207:10211   */\n      dup4\n        /* \"#utility.yul\":10203:10218   */\n      and\n        /* \"#utility.yul\":10193:10218   */\n      swap2\n      pop\n        /* \"#utility.yul\":10106:10224   */\n      pop\n        /* \"#utility.yul\":10055:10224   */\n      swap3\n      swap2\n      pop\n      pop\n      jump\t// out\n        /* \"#utility.yul\":10229:10524   */\n    tag_81:\n        /* \"#utility.yul\":10305:10309   */\n      0x00\n        /* \"#utility.yul\":10451:10480   */\n      tag_200\n        /* \"#utility.yul\":10476:10479   */\n      dup4\n        /* \"#utility.yul\":10470:10474   */\n      dup4\n        /* \"#utility.yul\":10451:10480   */\n      tag_80\n      jump\t// in\n    tag_200:\n        /* \"#utility.yul\":10443:10480   */\n      swap2\n      pop\n        /* \"#utility.yul\":10513:10516   */\n      dup3\n        /* \"#utility.yul\":10510:10511   */\n      0x02\n        /* \"#utility.yul\":10506:10517   */\n      mul\n        /* \"#utility.yul\":10500:10504   */\n      dup3\n        /* \"#utility.yul\":10497:10518   */\n      or\n        /* \"#utility.yul\":10489:10518   */\n      swap1\n      pop\n        /* \"#utility.yul\":10229:10524   */\n      swap3\n      swap2\n      pop\n      pop\n      jump\t// out\n        /* \"#utility.yul\":10529:11924   */\n    tag_30:\n        /* \"#utility.yul\":10646:10683   */\n      tag_202\n        /* \"#utility.yul\":10679:10682   */\n      dup3\n        /* \"#utility.yul\":10646:10683   */\n      tag_61\n      jump\t// in\n    tag_202:\n        /* \"#utility.yul\":10748:10766   */\n      0xffffffffffffffff\n        /* \"#utility.yul\":10740:10746   */\n      dup2\n        /* \"#utility.yul\":10737:10767   */\n      gt\n        /* \"#utility.yul\":10734:10790   */\n      iszero\n      tag_203\n      jumpi\n        /* \"#utility.yul\":10770:10788   */\n      tag_204\n      tag_50\n      jump\t// in\n    tag_204:\n        /* \"#utility.yul\":10734:10790   */\n    tag_203:\n        /* \"#utility.yul\":10814:10852   */\n      tag_205\n        /* \"#utility.yul\":10846:10850   */\n      dup3\n        /* \"#utility.yul\":10840:10851   */\n      sload\n        /* \"#utility.yul\":10814:10852   */\n      tag_33\n      jump\t// in\n    tag_205:\n        /* \"#utility.yul\":10899:10966   */\n      tag_206\n        /* \"#utility.yul\":10959:10965   */\n      dup3\n        /* \"#utility.yul\":10951:10957   */\n      dup3\n        /* \"#utility.yul\":10945:10949   */\n      dup6\n        /* \"#utility.yul\":10899:10966   */\n      tag_78\n      jump\t// in\n    tag_206:\n        /* \"#utility.yul\":10993:10994   */\n      0x00\n        /* \"#utility.yul\":11017:11021   */\n      0x20\n        /* \"#utility.yul\":11004:11021   */\n      swap1\n      pop\n        /* \"#utility.yul\":11049:11051   */\n      0x1f\n        /* \"#utility.yul\":11041:11047   */\n      dup4\n        /* \"#utility.yul\":11038:11052   */\n      gt\n        /* \"#utility.yul\":11066:11067   */\n      0x01\n        /* \"#utility.yul\":11061:11679   */\n      dup2\n      eq\n      tag_208\n      jumpi\n        /* \"#utility.yul\":11723:11724   */\n      0x00\n        /* \"#utility.yul\":11740:11746   */\n      dup5\n        /* \"#utility.yul\":11737:11814   */\n      iszero\n      tag_209\n      jumpi\n        /* \"#utility.yul\":11789:11798   */\n      dup3\n        /* \"#utility.yul\":11784:11787   */\n      dup8\n        /* \"#utility.yul\":11780:11799   */\n      add\n        /* \"#utility.yul\":11774:11800   */\n      mload\n        /* \"#utility.yul\":11765:11800   */\n      swap1\n      pop\n        /* \"#utility.yul\":11737:11814   */\n    tag_209:\n        /* \"#utility.yul\":11840:11907   */\n      tag_210\n        /* \"#utility.yul\":11900:11906   */\n      dup6\n        /* \"#utility.yul\":11893:11898   */\n      dup3\n        /* \"#utility.yul\":11840:11907   */\n      tag_81\n      jump\t// in\n    tag_210:\n        /* \"#utility.yul\":11834:11838   */\n      dup7\n        /* \"#utility.yul\":11827:11908   */\n      sstore\n        /* \"#utility.yul\":11696:11918   */\n      pop\n        /* \"#utility.yul\":11031:11918   */\n      jump(tag_207)\n        /* \"#utility.yul\":11061:11679   */\n    tag_208:\n        /* \"#utility.yul\":11113:11117   */\n      0x1f\n        /* \"#utility.yul\":11109:11118   */\n      not\n        /* \"#utility.yul\":11101:11107   */\n      dup5\n        /* \"#utility.yul\":11097:11119   */\n      and\n        /* \"#utility.yul\":11147:11184   */\n      tag_211\n        /* \"#utility.yul\":11179:11183   */\n      dup7\n        /* \"#utility.yul\":11147:11184   */\n      tag_67\n      jump\t// in\n    tag_211:\n        /* \"#utility.yul\":11206:11207   */\n      0x00\n        /* \"#utility.yul\":11220:11428   */\n    tag_212:\n        /* \"#utility.yul\":11234:11241   */\n      dup3\n        /* \"#utility.yul\":11231:11232   */\n      dup2\n        /* \"#utility.yul\":11228:11242   */\n      lt\n        /* \"#utility.yul\":11220:11428   */\n      iszero\n      tag_214\n      jumpi\n        /* \"#utility.yul\":11313:11322   */\n      dup5\n        /* \"#utility.yul\":11308:11311   */\n      dup10\n        /* \"#utility.yul\":11304:11323   */\n      add\n        /* \"#utility.yul\":11298:11324   */\n      mload\n        /* \"#utility.yul\":11290:11296   */\n      dup3\n        /* \"#utility.yul\":11283:11325   */\n      sstore\n        /* \"#utility.yul\":11364:11365   */\n      0x01\n        /* \"#utility.yul\":11356:11362   */\n      dup3\n        /* \"#utility.yul\":11352:11366   */\n      add\n        /* \"#utility.yul\":11342:11366   */\n      swap2\n      pop\n        /* \"#utility.yul\":11411:11413   */\n      0x20\n        /* \"#utility.yul\":11400:11409   */\n      dup6\n        /* \"#utility.yul\":11396:11414   */\n      add\n        /* \"#utility.yul\":11383:11414   */\n      swap5\n      pop\n        /* \"#utility.yul\":11257:11261   */\n      0x20\n        /* \"#utility.yul\":11254:11255   */\n      dup2\n        /* \"#utility.yul\":11250:11262   */\n      add\n        /* \"#utility.yul\":11245:11262   */\n      swap1\n      pop\n        /* \"#utility.yul\":11220:11428   */\n      jump(tag_212)\n    tag_214:\n        /* \"#utility.yul\":11456:11462   */\n      dup7\n        /* \"#utility.yul\":11447:11454   */\n      dup4\n        /* \"#utility.yul\":11444:11463   */\n      lt\n        /* \"#utility.yul\":11441:11620   */\n      iszero\n      tag_215\n      jumpi\n        /* \"#utility.yul\":11514:11523   */\n      dup5\n        /* \"#utility.yul\":11509:11512   */\n      dup10\n        /* \"#utility.yul\":11505:11524   */\n      add\n        /* \"#utility.yul\":11499:11525   */\n      mload\n        /* \"#utility.yul\":11557:11605   */\n      tag_216\n        /* \"#utility.yul\":11599:11603   */\n      0x1f\n        /* \"#utility.yul\":11591:11597   */\n      dup10\n        /* \"#utility.yul\":11587:11604   */\n      and\n        /* \"#utility.yul\":11576:11585   */\n      dup3\n        /* \"#utility.yul\":11557:11605   */\n      tag_80\n      jump\t// in\n    tag_216:\n        /* \"#utility.yul\":11549:11555   */\n      dup4\n        /* \"#utility.yul\":11542:11606   */\n      sstore\n        /* \"#utility.yul\":11464:11620   */\n      pop\n        /* \"#utility.yul\":11441:11620   */\n    tag_215:\n        /* \"#utility.yul\":11666:11667   */\n      0x01\n        /* \"#utility.yul\":11662:11663   */\n      0x02\n        /* \"#utility.yul\":11654:11660   */\n      dup9\n        /* \"#utility.yul\":11650:11664   */\n      mul\n        /* \"#utility.yul\":11646:11668   */\n      add\n        /* \"#utility.yul\":11640:11644   */\n      dup9\n        /* \"#utility.yul\":11633:11669   */\n      sstore\n        /* \"#utility.yul\":11068:11679   */\n      pop\n      pop\n      pop\n        /* \"#utility.yul\":11031:11918   */\n    tag_207:\n      pop\n        /* \"#utility.yul\":10621:11924   */\n      pop\n      pop\n      pop\n        /* \"#utility.yul\":10529:11924   */\n      pop\n      pop\n      jump\t// out\n\n    auxdata: 0xa2646970667358221220797b04aa700299b07b56c695ffd5e823e8f6424b41adb02f4a8e4c337b6daeba64736f6c634300081a0033\n}\n",
				"bytecode": {
					"linkReferences": {},
					"object": "6080604052348015600e575f80fd5b506109bd8061001c5f395ff3fe608060405234801561000f575f80fd5b506004361061004a575f3560e01c8063125b0b341461004e578063271bc5f91461006a5780637acc0b2014610086578063b9db15b4146100b9575b5f80fd5b61006860048036038101906100639190610480565b6100eb565b005b610084600480360381019061007f91906104ec565b610171565b005b6100a0600480360381019061009b919061052a565b610192565b6040516100b094939291906105c4565b60405180910390f35b6100d360048036038101906100ce919061052a565b610243565b6040516100e29392919061060e565b60405180910390f35b60015f8154809291906100fd90610677565b919050555060405180608001604052806001548152602001848152602001838152602001828152505f8060015481526020019081526020015f205f820151815f0155602082015181600101908161015491906108b8565b506040820151816002015560608201518160030155905050505050565b5f805f8481526020019081526020015f209050818160030181905550505050565b5f602052805f5260405f205f91509050805f0154908060010180546101b6906106eb565b80601f01602080910402602001604051908101604052809291908181526020018280546101e2906106eb565b801561022d5780601f106102045761010080835404028352916020019161022d565b820191905f5260205f20905b81548152906001019060200180831161021057829003601f168201915b5050505050908060020154908060030154905084565b60605f805f805f8681526020019081526020015f2090508060010181600201548260030154828054610274906106eb565b80601f01602080910402602001604051908101604052809291908181526020018280546102a0906106eb565b80156102eb5780601f106102c2576101008083540402835291602001916102eb565b820191905f5260205f20905b8154815290600101906020018083116102ce57829003601f168201915b50505050509250935093509350509193909250565b5f604051905090565b5f80fd5b5f80fd5b5f80fd5b5f80fd5b5f601f19601f8301169050919050565b7f4e487b71000000000000000000000000000000000000000000000000000000005f52604160045260245ffd5b61035f82610319565b810181811067ffffffffffffffff8211171561037e5761037d610329565b5b80604052505050565b5f610390610300565b905061039c8282610356565b919050565b5f67ffffffffffffffff8211156103bb576103ba610329565b5b6103c482610319565b9050602081019050919050565b828183375f83830152505050565b5f6103f16103ec846103a1565b610387565b90508281526020810184848401111561040d5761040c610315565b5b6104188482856103d1565b509392505050565b5f82601f83011261043457610433610311565b5b81356104448482602086016103df565b91505092915050565b5f819050919050565b61045f8161044d565b8114610469575f80fd5b50565b5f8135905061047a81610456565b92915050565b5f805f6060848603121561049757610496610309565b5b5f84013567ffffffffffffffff8111156104b4576104b361030d565b5b6104c086828701610420565b93505060206104d18682870161046c565b92505060406104e28682870161046c565b9150509250925092565b5f806040838503121561050257610501610309565b5b5f61050f8582860161046c565b92505060206105208582860161046c565b9150509250929050565b5f6020828403121561053f5761053e610309565b5b5f61054c8482850161046c565b91505092915050565b61055e8161044d565b82525050565b5f81519050919050565b5f82825260208201905092915050565b8281835e5f83830152505050565b5f61059682610564565b6105a0818561056e565b93506105b081856020860161057e565b6105b981610319565b840191505092915050565b5f6080820190506105d75f830187610555565b81810360208301526105e9818661058c565b90506105f86040830185610555565b6106056060830184610555565b95945050505050565b5f6060820190508181035f830152610626818661058c565b90506106356020830185610555565b6106426040830184610555565b949350505050565b7f4e487b71000000000000000000000000000000000000000000000000000000005f52601160045260245ffd5b5f6106818261044d565b91507fffffffffffffffffffffffffffffffffffffffffffffffffffffffffffffffff82036106b3576106b261064a565b5b600182019050919050565b7f4e487b71000000000000000000000000000000000000000000000000000000005f52602260045260245ffd5b5f600282049050600182168061070257607f821691505b602082108103610715576107146106be565b5b50919050565b5f819050815f5260205f209050919050565b5f6020601f8301049050919050565b5f82821b905092915050565b5f600883026107777fffffffffffffffffffffffffffffffffffffffffffffffffffffffffffffffff8261073c565b610781868361073c565b95508019841693508086168417925050509392505050565b5f819050919050565b5f6107bc6107b76107b28461044d565b610799565b61044d565b9050919050565b5f819050919050565b6107d5836107a2565b6107e96107e1826107c3565b848454610748565b825550505050565b5f90565b6107fd6107f1565b6108088184846107cc565b505050565b5b8181101561082b576108205f826107f5565b60018101905061080e565b5050565b601f821115610870576108418161071b565b61084a8461072d565b81016020851015610859578190505b61086d6108658561072d565b83018261080d565b50505b505050565b5f82821c905092915050565b5f6108905f1984600802610875565b1980831691505092915050565b5f6108a88383610881565b9150826002028217905092915050565b6108c182610564565b67ffffffffffffffff8111156108da576108d9610329565b5b6108e482546106eb565b6108ef82828561082f565b5f60209050601f831160018114610920575f841561090e578287015190505b610918858261089d565b86555061097f565b601f19841661092e8661071b565b5f5b8281101561095557848901518255600182019150602085019450602081019050610930565b86831015610972578489015161096e601f891682610881565b8355505b6001600288020188555050505b50505050505056fea2646970667358221220797b04aa700299b07b56c695ffd5e823e8f6424b41adb02f4a8e4c337b6daeba64736f6c634300081a0033",
					"opcodes": "PUSH1 0x80 PUSH1 0x40 MSTORE CALLVALUE DUP1 ISZERO PUSH1 0xE JUMPI PUSH0 DUP1 REVERT JUMPDEST POP PUSH2 0x9BD DUP1 PUSH2 0x1C PUSH0 CODECOPY PUSH0 RETURN INVALID PUSH1 0x80 PUSH1 0x40 MSTORE CALLVALUE DUP1 ISZERO PUSH2 0xF JUMPI PUSH0 DUP1 REVERT JUMPDEST POP PUSH1 0x4 CALLDATASIZE LT PUSH2 0x4A JUMPI PUSH0 CALLDATALOAD PUSH1 0xE0 SHR DUP1 PUSH4 0x125B0B34 EQ PUSH2 0x4E JUMPI DUP1 PUSH4 0x271BC5F9 EQ PUSH2 0x6A JUMPI DUP1 PUSH4 0x7ACC0B20 EQ PUSH2 0x86 JUMPI DUP1 PUSH4 0xB9DB15B4 EQ PUSH2 0xB9 JUMPI JUMPDEST PUSH0 DUP1 REVERT JUMPDEST PUSH2 0x68 PUSH1 0x4 DUP1 CALLDATASIZE SUB DUP2 ADD SWAP1 PUSH2 0x63 SWAP2 SWAP1 PUSH2 0x480 JUMP JUMPDEST PUSH2 0xEB JUMP JUMPDEST STOP JUMPDEST PUSH2 0x84 PUSH1 0x4 DUP1 CALLDATASIZE SUB DUP2 ADD SWAP1 PUSH2 0x7F SWAP2 SWAP1 PUSH2 0x4EC JUMP JUMPDEST PUSH2 0x171 JUMP JUMPDEST STOP JUMPDEST PUSH2 0xA0 PUSH1 0x4 DUP1 CALLDATASIZE SUB DUP2 ADD SWAP1 PUSH2 0x9B SWAP2 SWAP1 PUSH2 0x52A JUMP JUMPDEST PUSH2 0x192 JUMP JUMPDEST PUSH1 0x40 MLOAD PUSH2 0xB0 SWAP5 SWAP4 SWAP3 SWAP2 SWAP1 PUSH2 0x5C4 JUMP JUMPDEST PUSH1 0x40 MLOAD DUP1 SWAP2 SUB SWAP1 RETURN JUMPDEST PUSH2 0xD3 PUSH1 0x4 DUP1 CALLDATASIZE SUB DUP2 ADD SWAP1 PUSH2 0xCE SWAP2 SWAP1 PUSH2 0x52A JUMP JUMPDEST PUSH2 0x243 JUMP JUMPDEST PUSH1 0x40 MLOAD PUSH2 0xE2 SWAP4 SWAP3 SWAP2 SWAP1 PUSH2 0x60E JUMP JUMPDEST PUSH1 0x40 MLOAD DUP1 SWAP2 SUB SWAP1 RETURN JUMPDEST PUSH1 0x1 PUSH0 DUP2 SLOAD DUP1 SWAP3 SWAP2 SWAP1 PUSH2 0xFD SWAP1 PUSH2 0x677 JUMP JUMPDEST SWAP2 SWAP1 POP SSTORE POP PUSH1 0x40 MLOAD DUP1 PUSH1 0x80 ADD PUSH1 0x40 MSTORE DUP1 PUSH1 0x1 SLOAD DUP2 MSTORE PUSH1 0x20 ADD DUP5 DUP2 MSTORE PUSH1 0x20 ADD DUP4 DUP2 MSTORE PUSH1 0x20 ADD DUP3 DUP2 MSTORE POP PUSH0 DUP1 PUSH1 0x1 SLOAD DUP2 MSTORE PUSH1 0x20 ADD SWAP1 DUP2 MSTORE PUSH1 0x20 ADD PUSH0 KECCAK256 PUSH0 DUP3 ADD MLOAD DUP2 PUSH0 ADD SSTORE PUSH1 0x20 DUP3 ADD MLOAD DUP2 PUSH1 0x1 ADD SWAP1 DUP2 PUSH2 0x154 SWAP2 SWAP1 PUSH2 0x8B8 JUMP JUMPDEST POP PUSH1 0x40 DUP3 ADD MLOAD DUP2 PUSH1 0x2 ADD SSTORE PUSH1 0x60 DUP3 ADD MLOAD DUP2 PUSH1 0x3 ADD SSTORE SWAP1 POP POP POP POP POP JUMP JUMPDEST PUSH0 DUP1 PUSH0 DUP5 DUP2 MSTORE PUSH1 0x20 ADD SWAP1 DUP2 MSTORE PUSH1 0x20 ADD PUSH0 KECCAK256 SWAP1 POP DUP2 DUP2 PUSH1 0x3 ADD DUP2 SWAP1 SSTORE POP POP POP POP JUMP JUMPDEST PUSH0 PUSH1 0x20 MSTORE DUP1 PUSH0 MSTORE PUSH1 0x40 PUSH0 KECCAK256 PUSH0 SWAP2 POP SWAP1 POP DUP1 PUSH0 ADD SLOAD SWAP1 DUP1 PUSH1 0x1 ADD DUP1 SLOAD PUSH2 0x1B6 SWAP1 PUSH2 0x6EB JUMP JUMPDEST DUP1 PUSH1 0x1F ADD PUSH1 0x20 DUP1 SWAP2 DIV MUL PUSH1 0x20 ADD PUSH1 0x40 MLOAD SWAP1 DUP2 ADD PUSH1 0x40 MSTORE DUP1 SWAP3 SWAP2 SWAP1 DUP2 DUP2 MSTORE PUSH1 0x20 ADD DUP3 DUP1 SLOAD PUSH2 0x1E2 SWAP1 PUSH2 0x6EB JUMP JUMPDEST DUP1 ISZERO PUSH2 0x22D JUMPI DUP1 PUSH1 0x1F LT PUSH2 0x204 JUMPI PUSH2 0x100 DUP1 DUP4 SLOAD DIV MUL DUP4 MSTORE SWAP2 PUSH1 0x20 ADD SWAP2 PUSH2 0x22D JUMP JUMPDEST DUP3 ADD SWAP2 SWAP1 PUSH0 MSTORE PUSH1 0x20 PUSH0 KECCAK256 SWAP1 JUMPDEST DUP2 SLOAD DUP2 MSTORE SWAP1 PUSH1 0x1 ADD SWAP1 PUSH1 0x20 ADD DUP1 DUP4 GT PUSH2 0x210 JUMPI DUP3 SWAP1 SUB PUSH1 0x1F AND DUP3 ADD SWAP2 JUMPDEST POP POP POP POP POP SWAP1 DUP1 PUSH1 0x2 ADD SLOAD SWAP1 DUP1 PUSH1 0x3 ADD SLOAD SWAP1 POP DUP5 JUMP JUMPDEST PUSH1 0x60 PUSH0 DUP1 PUSH0 DUP1 PUSH0 DUP7 DUP2 MSTORE PUSH1 0x20 ADD SWAP1 DUP2 MSTORE PUSH1 0x20 ADD PUSH0 KECCAK256 SWAP1 POP DUP1 PUSH1 0x1 ADD DUP2 PUSH1 0x2 ADD SLOAD DUP3 PUSH1 0x3 ADD SLOAD DUP3 DUP1 SLOAD PUSH2 0x274 SWAP1 PUSH2 0x6EB JUMP JUMPDEST DUP1 PUSH1 0x1F ADD PUSH1 0x20 DUP1 SWAP2 DIV MUL PUSH1 0x20 ADD PUSH1 0x40 MLOAD SWAP1 DUP2 ADD PUSH1 0x40 MSTORE DUP1 SWAP3 SWAP2 SWAP1 DUP2 DUP2 MSTORE PUSH1 0x20 ADD DUP3 DUP1 SLOAD PUSH2 0x2A0 SWAP1 PUSH2 0x6EB JUMP JUMPDEST DUP1 ISZERO PUSH2 0x2EB JUMPI DUP1 PUSH1 0x1F LT PUSH2 0x2C2 JUMPI PUSH2 0x100 DUP1 DUP4 SLOAD DIV MUL DUP4 MSTORE SWAP2 PUSH1 0x20 ADD SWAP2 PUSH2 0x2EB JUMP JUMPDEST DUP3 ADD SWAP2 SWAP1 PUSH0 MSTORE PUSH1 0x20 PUSH0 KECCAK256 SWAP1 JUMPDEST DUP2 SLOAD DUP2 MSTORE SWAP1 PUSH1 0x1 ADD SWAP1 PUSH1 0x20 ADD DUP1 DUP4 GT PUSH2 0x2CE JUMPI DUP3 SWAP1 SUB PUSH1 0x1F AND DUP3 ADD SWAP2 JUMPDEST POP POP POP POP POP SWAP3 POP SWAP4 POP SWAP4 POP SWAP4 POP POP SWAP2 SWAP4 SWAP1 SWAP3 POP JUMP JUMPDEST PUSH0 PUSH1 0x40 MLOAD SWAP1 POP SWAP1 JUMP JUMPDEST PUSH0 DUP1 REVERT JUMPDEST PUSH0 DUP1 REVERT JUMPDEST PUSH0 DUP1 REVERT JUMPDEST PUSH0 DUP1 REVERT JUMPDEST PUSH0 PUSH1 0x1F NOT PUSH1 0x1F DUP4 ADD AND SWAP1 POP SWAP2 SWAP1 POP JUMP JUMPDEST PUSH32 0x4E487B7100000000000000000000000000000000000000000000000000000000 PUSH0 MSTORE PUSH1 0x41 PUSH1 0x4 MSTORE PUSH1 0x24 PUSH0 REVERT JUMPDEST PUSH2 0x35F DUP3 PUSH2 0x319 JUMP JUMPDEST DUP2 ADD DUP2 DUP2 LT PUSH8 0xFFFFFFFFFFFFFFFF DUP3 GT OR ISZERO PUSH2 0x37E JUMPI PUSH2 0x37D PUSH2 0x329 JUMP JUMPDEST JUMPDEST DUP1 PUSH1 0x40 MSTORE POP POP POP JUMP JUMPDEST PUSH0 PUSH2 0x390 PUSH2 0x300 JUMP JUMPDEST SWAP1 POP PUSH2 0x39C DUP3 DUP3 PUSH2 0x356 JUMP JUMPDEST SWAP2 SWAP1 POP JUMP JUMPDEST PUSH0 PUSH8 0xFFFFFFFFFFFFFFFF DUP3 GT ISZERO PUSH2 0x3BB JUMPI PUSH2 0x3BA PUSH2 0x329 JUMP JUMPDEST JUMPDEST PUSH2 0x3C4 DUP3 PUSH2 0x319 JUMP JUMPDEST SWAP1 POP PUSH1 0x20 DUP2 ADD SWAP1 POP SWAP2 SWAP1 POP JUMP JUMPDEST DUP3 DUP2 DUP4 CALLDATACOPY PUSH0 DUP4 DUP4 ADD MSTORE POP POP POP JUMP JUMPDEST PUSH0 PUSH2 0x3F1 PUSH2 0x3EC DUP5 PUSH2 0x3A1 JUMP JUMPDEST PUSH2 0x387 JUMP JUMPDEST SWAP1 POP DUP3 DUP2 MSTORE PUSH1 0x20 DUP2 ADD DUP5 DUP5 DUP5 ADD GT ISZERO PUSH2 0x40D JUMPI PUSH2 0x40C PUSH2 0x315 JUMP JUMPDEST JUMPDEST PUSH2 0x418 DUP5 DUP3 DUP6 PUSH2 0x3D1 JUMP JUMPDEST POP SWAP4 SWAP3 POP POP POP JUMP JUMPDEST PUSH0 DUP3 PUSH1 0x1F DUP4 ADD SLT PUSH2 0x434 JUMPI PUSH2 0x433 PUSH2 0x311 JUMP JUMPDEST JUMPDEST DUP2 CALLDATALOAD PUSH2 0x444 DUP5 DUP3 PUSH1 0x20 DUP7 ADD PUSH2 0x3DF JUMP JUMPDEST SWAP2 POP POP SWAP3 SWAP2 POP POP JUMP JUMPDEST PUSH0 DUP2 SWAP1 POP SWAP2 SWAP1 POP JUMP JUMPDEST PUSH2 0x45F DUP2 PUSH2 0x44D JUMP JUMPDEST DUP2 EQ PUSH2 0x469 JUMPI PUSH0 DUP1 REVERT JUMPDEST POP JUMP JUMPDEST PUSH0 DUP2 CALLDATALOAD SWAP1 POP PUSH2 0x47A DUP2 PUSH2 0x456 JUMP JUMPDEST SWAP3 SWAP2 POP POP JUMP JUMPDEST PUSH0 DUP1 PUSH0 PUSH1 0x60 DUP5 DUP7 SUB SLT ISZERO PUSH2 0x497 JUMPI PUSH2 0x496 PUSH2 0x309 JUMP JUMPDEST JUMPDEST PUSH0 DUP5 ADD CALLDATALOAD PUSH8 0xFFFFFFFFFFFFFFFF DUP2 GT ISZERO PUSH2 0x4B4 JUMPI PUSH2 0x4B3 PUSH2 0x30D JUMP JUMPDEST JUMPDEST PUSH2 0x4C0 DUP7 DUP3 DUP8 ADD PUSH2 0x420 JUMP JUMPDEST SWAP4 POP POP PUSH1 0x20 PUSH2 0x4D1 DUP7 DUP3 DUP8 ADD PUSH2 0x46C JUMP JUMPDEST SWAP3 POP POP PUSH1 0x40 PUSH2 0x4E2 DUP7 DUP3 DUP8 ADD PUSH2 0x46C JUMP JUMPDEST SWAP2 POP POP SWAP3 POP SWAP3 POP SWAP3 JUMP JUMPDEST PUSH0 DUP1 PUSH1 0x40 DUP4 DUP6 SUB SLT ISZERO PUSH2 0x502 JUMPI PUSH2 0x501 PUSH2 0x309 JUMP JUMPDEST JUMPDEST PUSH0 PUSH2 0x50F DUP6 DUP3 DUP7 ADD PUSH2 0x46C JUMP JUMPDEST SWAP3 POP POP PUSH1 0x20 PUSH2 0x520 DUP6 DUP3 DUP7 ADD PUSH2 0x46C JUMP JUMPDEST SWAP2 POP POP SWAP3 POP SWAP3 SWAP1 POP JUMP JUMPDEST PUSH0 PUSH1 0x20 DUP3 DUP5 SUB SLT ISZERO PUSH2 0x53F JUMPI PUSH2 0x53E PUSH2 0x309 JUMP JUMPDEST JUMPDEST PUSH0 PUSH2 0x54C DUP5 DUP3 DUP6 ADD PUSH2 0x46C JUMP JUMPDEST SWAP2 POP POP SWAP3 SWAP2 POP POP JUMP JUMPDEST PUSH2 0x55E DUP2 PUSH2 0x44D JUMP JUMPDEST DUP3 MSTORE POP POP JUMP JUMPDEST PUSH0 DUP2 MLOAD SWAP1 POP SWAP2 SWAP1 POP JUMP JUMPDEST PUSH0 DUP3 DUP3 MSTORE PUSH1 0x20 DUP3 ADD SWAP1 POP SWAP3 SWAP2 POP POP JUMP JUMPDEST DUP3 DUP2 DUP4 MCOPY PUSH0 DUP4 DUP4 ADD MSTORE POP POP POP JUMP JUMPDEST PUSH0 PUSH2 0x596 DUP3 PUSH2 0x564 JUMP JUMPDEST PUSH2 0x5A0 DUP2 DUP6 PUSH2 0x56E JUMP JUMPDEST SWAP4 POP PUSH2 0x5B0 DUP2 DUP6 PUSH1 0x20 DUP7 ADD PUSH2 0x57E JUMP JUMPDEST PUSH2 0x5B9 DUP2 PUSH2 0x319 JUMP JUMPDEST DUP5 ADD SWAP2 POP POP SWAP3 SWAP2 POP POP JUMP JUMPDEST PUSH0 PUSH1 0x80 DUP3 ADD SWAP1 POP PUSH2 0x5D7 PUSH0 DUP4 ADD DUP8 PUSH2 0x555 JUMP JUMPDEST DUP2 DUP2 SUB PUSH1 0x20 DUP4 ADD MSTORE PUSH2 0x5E9 DUP2 DUP7 PUSH2 0x58C JUMP JUMPDEST SWAP1 POP PUSH2 0x5F8 PUSH1 0x40 DUP4 ADD DUP6 PUSH2 0x555 JUMP JUMPDEST PUSH2 0x605 PUSH1 0x60 DUP4 ADD DUP5 PUSH2 0x555 JUMP JUMPDEST SWAP6 SWAP5 POP POP POP POP POP JUMP JUMPDEST PUSH0 PUSH1 0x60 DUP3 ADD SWAP1 POP DUP2 DUP2 SUB PUSH0 DUP4 ADD MSTORE PUSH2 0x626 DUP2 DUP7 PUSH2 0x58C JUMP JUMPDEST SWAP1 POP PUSH2 0x635 PUSH1 0x20 DUP4 ADD DUP6 PUSH2 0x555 JUMP JUMPDEST PUSH2 0x642 PUSH1 0x40 DUP4 ADD DUP5 PUSH2 0x555 JUMP JUMPDEST SWAP5 SWAP4 POP POP POP POP JUMP JUMPDEST PUSH32 0x4E487B7100000000000000000000000000000000000000000000000000000000 PUSH0 MSTORE PUSH1 0x11 PUSH1 0x4 MSTORE PUSH1 0x24 PUSH0 REVERT JUMPDEST PUSH0 PUSH2 0x681 DUP3 PUSH2 0x44D JUMP JUMPDEST SWAP2 POP PUSH32 0xFFFFFFFFFFFFFFFFFFFFFFFFFFFFFFFFFFFFFFFFFFFFFFFFFFFFFFFFFFFFFFFF DUP3 SUB PUSH2 0x6B3 JUMPI PUSH2 0x6B2 PUSH2 0x64A JUMP JUMPDEST JUMPDEST PUSH1 0x1 DUP3 ADD SWAP1 POP SWAP2 SWAP1 POP JUMP JUMPDEST PUSH32 0x4E487B7100000000000000000000000000000000000000000000000000000000 PUSH0 MSTORE PUSH1 0x22 PUSH1 0x4 MSTORE PUSH1 0x24 PUSH0 REVERT JUMPDEST PUSH0 PUSH1 0x2 DUP3 DIV SWAP1 POP PUSH1 0x1 DUP3 AND DUP1 PUSH2 0x702 JUMPI PUSH1 0x7F DUP3 AND SWAP2 POP JUMPDEST PUSH1 0x20 DUP3 LT DUP2 SUB PUSH2 0x715 JUMPI PUSH2 0x714 PUSH2 0x6BE JUMP JUMPDEST JUMPDEST POP SWAP2 SWAP1 POP JUMP JUMPDEST PUSH0 DUP2 SWAP1 POP DUP2 PUSH0 MSTORE PUSH1 0x20 PUSH0 KECCAK256 SWAP1 POP SWAP2 SWAP1 POP JUMP JUMPDEST PUSH0 PUSH1 0x20 PUSH1 0x1F DUP4 ADD DIV SWAP1 POP SWAP2 SWAP1 POP JUMP JUMPDEST PUSH0 DUP3 DUP3 SHL SWAP1 POP SWAP3 SWAP2 POP POP JUMP JUMPDEST PUSH0 PUSH1 0x8 DUP4 MUL PUSH2 0x777 PUSH32 0xFFFFFFFFFFFFFFFFFFFFFFFFFFFFFFFFFFFFFFFFFFFFFFFFFFFFFFFFFFFFFFFF DUP3 PUSH2 0x73C JUMP JUMPDEST PUSH2 0x781 DUP7 DUP4 PUSH2 0x73C JUMP JUMPDEST SWAP6 POP DUP1 NOT DUP5 AND SWAP4 POP DUP1 DUP7 AND DUP5 OR SWAP3 POP POP POP SWAP4 SWAP3 POP POP POP JUMP JUMPDEST PUSH0 DUP2 SWAP1 POP SWAP2 SWAP1 POP JUMP JUMPDEST PUSH0 PUSH2 0x7BC PUSH2 0x7B7 PUSH2 0x7B2 DUP5 PUSH2 0x44D JUMP JUMPDEST PUSH2 0x799 JUMP JUMPDEST PUSH2 0x44D JUMP JUMPDEST SWAP1 POP SWAP2 SWAP1 POP JUMP JUMPDEST PUSH0 DUP2 SWAP1 POP SWAP2 SWAP1 POP JUMP JUMPDEST PUSH2 0x7D5 DUP4 PUSH2 0x7A2 JUMP JUMPDEST PUSH2 0x7E9 PUSH2 0x7E1 DUP3 PUSH2 0x7C3 JUMP JUMPDEST DUP5 DUP5 SLOAD PUSH2 0x748 JUMP JUMPDEST DUP3 SSTORE POP POP POP POP JUMP JUMPDEST PUSH0 SWAP1 JUMP JUMPDEST PUSH2 0x7FD PUSH2 0x7F1 JUMP JUMPDEST PUSH2 0x808 DUP2 DUP5 DUP5 PUSH2 0x7CC JUMP JUMPDEST POP POP POP JUMP JUMPDEST JUMPDEST DUP2 DUP2 LT ISZERO PUSH2 0x82B JUMPI PUSH2 0x820 PUSH0 DUP3 PUSH2 0x7F5 JUMP JUMPDEST PUSH1 0x1 DUP2 ADD SWAP1 POP PUSH2 0x80E JUMP JUMPDEST POP POP JUMP JUMPDEST PUSH1 0x1F DUP3 GT ISZERO PUSH2 0x870 JUMPI PUSH2 0x841 DUP2 PUSH2 0x71B JUMP JUMPDEST PUSH2 0x84A DUP5 PUSH2 0x72D JUMP JUMPDEST DUP2 ADD PUSH1 0x20 DUP6 LT ISZERO PUSH2 0x859 JUMPI DUP2 SWAP1 POP JUMPDEST PUSH2 0x86D PUSH2 0x865 DUP6 PUSH2 0x72D JUMP JUMPDEST DUP4 ADD DUP3 PUSH2 0x80D JUMP JUMPDEST POP POP JUMPDEST POP POP POP JUMP JUMPDEST PUSH0 DUP3 DUP3 SHR SWAP1 POP SWAP3 SWAP2 POP POP JUMP JUMPDEST PUSH0 PUSH2 0x890 PUSH0 NOT DUP5 PUSH1 0x8 MUL PUSH2 0x875 JUMP JUMPDEST NOT DUP1 DUP4 AND SWAP2 POP POP SWAP3 SWAP2 POP POP JUMP JUMPDEST PUSH0 PUSH2 0x8A8 DUP4 DUP4 PUSH2 0x881 JUMP JUMPDEST SWAP2 POP DUP3 PUSH1 0x2 MUL DUP3 OR SWAP1 POP SWAP3 SWAP2 POP POP JUMP JUMPDEST PUSH2 0x8C1 DUP3 PUSH2 0x564 JUMP JUMPDEST PUSH8 0xFFFFFFFFFFFFFFFF DUP2 GT ISZERO PUSH2 0x8DA JUMPI PUSH2 0x8D9 PUSH2 0x329 JUMP JUMPDEST JUMPDEST PUSH2 0x8E4 DUP3 SLOAD PUSH2 0x6EB JUMP JUMPDEST PUSH2 0x8EF DUP3 DUP3 DUP6 PUSH2 0x82F JUMP JUMPDEST PUSH0 PUSH1 0x20 SWAP1 POP PUSH1 0x1F DUP4 GT PUSH1 0x1 DUP2 EQ PUSH2 0x920 JUMPI PUSH0 DUP5 ISZERO PUSH2 0x90E JUMPI DUP3 DUP8 ADD MLOAD SWAP1 POP JUMPDEST PUSH2 0x918 DUP6 DUP3 PUSH2 0x89D JUMP JUMPDEST DUP7 SSTORE POP PUSH2 0x97F JUMP JUMPDEST PUSH1 0x1F NOT DUP5 AND PUSH2 0x92E DUP7 PUSH2 0x71B JUMP JUMPDEST PUSH0 JUMPDEST DUP3 DUP2 LT ISZERO PUSH2 0x955 JUMPI DUP5 DUP10 ADD MLOAD DUP3 SSTORE PUSH1 0x1 DUP3 ADD SWAP2 POP PUSH1 0x20 DUP6 ADD SWAP5 POP PUSH1 0x20 DUP2 ADD SWAP1 POP PUSH2 0x930 JUMP JUMPDEST DUP7 DUP4 LT ISZERO PUSH2 0x972 JUMPI DUP5 DUP10 ADD MLOAD PUSH2 0x96E PUSH1 0x1F DUP10 AND DUP3 PUSH2 0x881 JUMP JUMPDEST DUP4 SSTORE POP JUMPDEST PUSH1 0x1 PUSH1 0x2 DUP9 MUL ADD DUP9 SSTORE POP POP POP JUMPDEST POP POP POP POP POP POP JUMP INVALID LOG2 PUSH5 0x6970667358 0x22 SLT KECCAK256 PUSH26 0x7B04AA700299B07B56C695FFD5E823E8F6424B41ADB02F4A8E4C CALLER PUSH28 0x6DAEBA64736F6C634300081A00330000000000000000000000000000 "
				},
				"gasEstimates": {
					"creation": {
						"codeDepositCost": "498600",
						"executionCost": "528",
						"totalCost": "499128"
					},
					"external": {
						"addProduct(string,uint256,uint256)": "infinite",
						"getProduct(uint256)": "infinite",
						"products(uint256)": "infinite",
						"updateP(uint256,uint256)": "infinite"
					}
				},
				"methodIdentifiers": {
					"addProduct(string,uint256,uint256)": "125b0b34",
					"getProduct(uint256)": "b9db15b4",
					"products(uint256)": "7acc0b20",
					"updateP(uint256,uint256)": "271bc5f9"
				}
			},
			"storageLayout": {
				"storage": [
					{
						"astId": 15,
						"contract": "contracts/mytest/sturctTest.sol:StructTest",
						"label": "products",
						"offset": 0,
						"slot": "0",
						"type": "t_mapping(t_uint256,t_struct(Product)10_storage)"
					},
					{
						"astId": 17,
						"contract": "contracts/mytest/sturctTest.sol:StructTest",
						"label": "id",
						"offset": 0,
						"slot": "1",
						"type": "t_uint256"
					}
				],
				"types": {
					"t_mapping(t_uint256,t_struct(Product)10_storage)": {
						"encoding": "mapping",
						"key": "t_uint256",
						"label": "mapping(uint256 => struct StructTest.Product)",
						"numberOfBytes": "32",
						"value": "t_struct(Product)10_storage"
					},
					"t_string_storage": {
						"encoding": "bytes",
						"label": "string",
						"numberOfBytes": "32"
					},
					"t_struct(Product)10_storage": {
						"encoding": "inplace",
						"label": "struct StructTest.Product",
						"members": [
							{
								"astId": 3,
								"contract": "contracts/mytest/sturctTest.sol:StructTest",
								"label": "id",
								"offset": 0,
								"slot": "0",
								"type": "t_uint256"
							},
							{
								"astId": 5,
								"contract": "contracts/mytest/sturctTest.sol:StructTest",
								"label": "name",
								"offset": 0,
								"slot": "1",
								"type": "t_string_storage"
							},
							{
								"astId": 7,
								"contract": "contracts/mytest/sturctTest.sol:StructTest",
								"label": "price",
								"offset": 0,
								"slot": "2",
								"type": "t_uint256"
							},
							{
								"astId": 9,
								"contract": "contracts/mytest/sturctTest.sol:StructTest",
								"label": "stock",
								"offset": 0,
								"slot": "3",
								"type": "t_uint256"
							}
						],
						"numberOfBytes": "128"
					},
					"t_uint256": {
						"encoding": "inplace",
						"label": "uint256",
						"numberOfBytes": "32"
					}
				}
			},
			"userdoc": {
				"kind": "user",
				"methods": {},
				"version": 1
			}
		}
	}
}