{
	"contracts/mytest/trycatch.sol": {
		"OnlyEven": {
			"abi": [
				{
					"inputs": [
						{
							"internalType": "uint256",
							"name": "a",
							"type": "uint256"
						}
					],
					"stateMutability": "nonpayable",
					"type": "constructor"
				},
				{
					"inputs": [
						{
							"internalType": "string",
							"name": "reason",
							"type": "string"
						}
					],
					"name": "ErrorError",
					"type": "error"
				},
				{
					"inputs": [
						{
							"internalType": "uint256",
							"name": "b",
							"type": "uint256"
						}
					],
					"name": "onlyEven",
					"outputs": [
						{
							"internalType": "bool",
							"name": "success",
							"type": "bool"
						}
					],
					"stateMutability": "pure",
					"type": "function"
				}
			],
			"devdoc": {
				"kind": "dev",
				"methods": {},
				"version": 1
			},
			"evm": {
				"assembly": "    /* \"contracts/mytest/trycatch.sol\":100:555  contract OnlyEven{... */\n  mstore(0x40, 0x80)\n    /* \"contracts/mytest/trycatch.sol\":124:220  constructor(uint a){... */\n  callvalue\n  dup1\n  iszero\n  tag_1\n  jumpi\n  0x00\n  dup1\n  revert\ntag_1:\n  pop\n  mload(0x40)\n  sub(codesize, bytecodeSize)\n  dup1\n  bytecodeSize\n  dup4\n  codecopy\n  dup2\n  dup2\n  add\n  0x40\n  mstore\n  dup2\n  add\n  swap1\n  tag_2\n  swap2\n  swap1\n  tag_3\n  jump\t// in\ntag_2:\n    /* \"contracts/mytest/trycatch.sol\":167:168  0 */\n  0x00\n    /* \"contracts/mytest/trycatch.sol\":162:163  a */\n  dup2\n    /* \"contracts/mytest/trycatch.sol\":162:168  a != 0 */\n  sub\n    /* \"contracts/mytest/trycatch.sol\":154:187  require(a != 0, \"invalid number\") */\n  tag_6\n  jumpi\n  mload(0x40)\n  0x08c379a000000000000000000000000000000000000000000000000000000000\n  dup2\n  mstore\n  0x04\n  add\n  tag_7\n  swap1\n  tag_8\n  jump\t// in\ntag_7:\n  mload(0x40)\n  dup1\n  swap2\n  sub\n  swap1\n  revert\ntag_6:\n    /* \"contracts/mytest/trycatch.sol\":210:211  1 */\n  0x01\n    /* \"contracts/mytest/trycatch.sol\":205:206  a */\n  dup2\n    /* \"contracts/mytest/trycatch.sol\":205:211  a != 1 */\n  sub\n    /* \"contracts/mytest/trycatch.sol\":198:212  assert(a != 1) */\n  tag_9\n  jumpi\n  tag_10\n  tag_11\n  jump\t// in\ntag_10:\ntag_9:\n    /* \"contracts/mytest/trycatch.sol\":124:220  constructor(uint a){... */\n  pop\n    /* \"contracts/mytest/trycatch.sol\":100:555  contract OnlyEven{... */\n  jump(tag_12)\n    /* \"#utility.yul\":88:205   */\ntag_14:\n    /* \"#utility.yul\":197:198   */\n  0x00\n    /* \"#utility.yul\":194:195   */\n  dup1\n    /* \"#utility.yul\":187:199   */\n  revert\n    /* \"#utility.yul\":334:411   */\ntag_16:\n    /* \"#utility.yul\":371:378   */\n  0x00\n    /* \"#utility.yul\":400:405   */\n  dup2\n    /* \"#utility.yul\":389:405   */\n  swap1\n  pop\n    /* \"#utility.yul\":334:411   */\n  swap2\n  swap1\n  pop\n  jump\t// out\n    /* \"#utility.yul\":417:539   */\ntag_17:\n    /* \"#utility.yul\":490:514   */\n  tag_28\n    /* \"#utility.yul\":508:513   */\n  dup2\n    /* \"#utility.yul\":490:514   */\n  tag_16\n  jump\t// in\ntag_28:\n    /* \"#utility.yul\":483:488   */\n  dup2\n    /* \"#utility.yul\":480:515   */\n  eq\n    /* \"#utility.yul\":470:533   */\n  tag_29\n  jumpi\n    /* \"#utility.yul\":529:530   */\n  0x00\n    /* \"#utility.yul\":526:527   */\n  dup1\n    /* \"#utility.yul\":519:531   */\n  revert\n    /* \"#utility.yul\":470:533   */\ntag_29:\n    /* \"#utility.yul\":417:539   */\n  pop\n  jump\t// out\n    /* \"#utility.yul\":545:688   */\ntag_18:\n    /* \"#utility.yul\":602:607   */\n  0x00\n    /* \"#utility.yul\":633:639   */\n  dup2\n    /* \"#utility.yul\":627:640   */\n  mload\n    /* \"#utility.yul\":618:640   */\n  swap1\n  pop\n    /* \"#utility.yul\":649:682   */\n  tag_31\n    /* \"#utility.yul\":676:681   */\n  dup2\n    /* \"#utility.yul\":649:682   */\n  tag_17\n  jump\t// in\ntag_31:\n    /* \"#utility.yul\":545:688   */\n  swap3\n  swap2\n  pop\n  pop\n  jump\t// out\n    /* \"#utility.yul\":694:1045   */\ntag_3:\n    /* \"#utility.yul\":764:770   */\n  0x00\n    /* \"#utility.yul\":813:815   */\n  0x20\n    /* \"#utility.yul\":801:810   */\n  dup3\n    /* \"#utility.yul\":792:799   */\n  dup5\n    /* \"#utility.yul\":788:811   */\n  sub\n    /* \"#utility.yul\":784:816   */\n  slt\n    /* \"#utility.yul\":781:900   */\n  iszero\n  tag_33\n  jumpi\n    /* \"#utility.yul\":819:898   */\n  tag_34\n  tag_14\n  jump\t// in\ntag_34:\n    /* \"#utility.yul\":781:900   */\ntag_33:\n    /* \"#utility.yul\":939:940   */\n  0x00\n    /* \"#utility.yul\":964:1028   */\n  tag_35\n    /* \"#utility.yul\":1020:1027   */\n  dup5\n    /* \"#utility.yul\":1011:1017   */\n  dup3\n    /* \"#utility.yul\":1000:1009   */\n  dup6\n    /* \"#utility.yul\":996:1018   */\n  add\n    /* \"#utility.yul\":964:1028   */\n  tag_18\n  jump\t// in\ntag_35:\n    /* \"#utility.yul\":954:1028   */\n  swap2\n  pop\n    /* \"#utility.yul\":910:1038   */\n  pop\n    /* \"#utility.yul\":694:1045   */\n  swap3\n  swap2\n  pop\n  pop\n  jump\t// out\n    /* \"#utility.yul\":1051:1220   */\ntag_19:\n    /* \"#utility.yul\":1135:1146   */\n  0x00\n    /* \"#utility.yul\":1169:1175   */\n  dup3\n    /* \"#utility.yul\":1164:1167   */\n  dup3\n    /* \"#utility.yul\":1157:1176   */\n  mstore\n    /* \"#utility.yul\":1209:1213   */\n  0x20\n    /* \"#utility.yul\":1204:1207   */\n  dup3\n    /* \"#utility.yul\":1200:1214   */\n  add\n    /* \"#utility.yul\":1185:1214   */\n  swap1\n  pop\n    /* \"#utility.yul\":1051:1220   */\n  swap3\n  swap2\n  pop\n  pop\n  jump\t// out\n    /* \"#utility.yul\":1226:1390   */\ntag_20:\n    /* \"#utility.yul\":1366:1382   */\n  0x696e76616c6964206e756d626572000000000000000000000000000000000000\n    /* \"#utility.yul\":1362:1363   */\n  0x00\n    /* \"#utility.yul\":1354:1360   */\n  dup3\n    /* \"#utility.yul\":1350:1364   */\n  add\n    /* \"#utility.yul\":1343:1383   */\n  mstore\n    /* \"#utility.yul\":1226:1390   */\n  pop\n  jump\t// out\n    /* \"#utility.yul\":1396:1762   */\ntag_21:\n    /* \"#utility.yul\":1538:1541   */\n  0x00\n    /* \"#utility.yul\":1559:1626   */\n  tag_39\n    /* \"#utility.yul\":1623:1625   */\n  0x0e\n    /* \"#utility.yul\":1618:1621   */\n  dup4\n    /* \"#utility.yul\":1559:1626   */\n  tag_19\n  jump\t// in\ntag_39:\n    /* \"#utility.yul\":1552:1626   */\n  swap2\n  pop\n    /* \"#utility.yul\":1635:1728   */\n  tag_40\n    /* \"#utility.yul\":1724:1727   */\n  dup3\n    /* \"#utility.yul\":1635:1728   */\n  tag_20\n  jump\t// in\ntag_40:\n    /* \"#utility.yul\":1753:1755   */\n  0x20\n    /* \"#utility.yul\":1748:1751   */\n  dup3\n    /* \"#utility.yul\":1744:1756   */\n  add\n    /* \"#utility.yul\":1737:1756   */\n  swap1\n  pop\n    /* \"#utility.yul\":1396:1762   */\n  swap2\n  swap1\n  pop\n  jump\t// out\n    /* \"#utility.yul\":1768:2187   */\ntag_8:\n    /* \"#utility.yul\":1934:1938   */\n  0x00\n    /* \"#utility.yul\":1972:1974   */\n  0x20\n    /* \"#utility.yul\":1961:1970   */\n  dup3\n    /* \"#utility.yul\":1957:1975   */\n  add\n    /* \"#utility.yul\":1949:1975   */\n  swap1\n  pop\n    /* \"#utility.yul\":2021:2030   */\n  dup2\n    /* \"#utility.yul\":2015:2019   */\n  dup2\n    /* \"#utility.yul\":2011:2031   */\n  sub\n    /* \"#utility.yul\":2007:2008   */\n  0x00\n    /* \"#utility.yul\":1996:2005   */\n  dup4\n    /* \"#utility.yul\":1992:2009   */\n  add\n    /* \"#utility.yul\":1985:2032   */\n  mstore\n    /* \"#utility.yul\":2049:2180   */\n  tag_42\n    /* \"#utility.yul\":2175:2179   */\n  dup2\n    /* \"#utility.yul\":2049:2180   */\n  tag_21\n  jump\t// in\ntag_42:\n    /* \"#utility.yul\":2041:2180   */\n  swap1\n  pop\n    /* \"#utility.yul\":1768:2187   */\n  swap2\n  swap1\n  pop\n  jump\t// out\n    /* \"#utility.yul\":2193:2373   */\ntag_11:\n    /* \"#utility.yul\":2241:2318   */\n  0x4e487b7100000000000000000000000000000000000000000000000000000000\n    /* \"#utility.yul\":2238:2239   */\n  0x00\n    /* \"#utility.yul\":2231:2319   */\n  mstore\n    /* \"#utility.yul\":2338:2342   */\n  0x01\n    /* \"#utility.yul\":2335:2336   */\n  0x04\n    /* \"#utility.yul\":2328:2343   */\n  mstore\n    /* \"#utility.yul\":2362:2366   */\n  0x24\n    /* \"#utility.yul\":2359:2360   */\n  0x00\n    /* \"#utility.yul\":2352:2367   */\n  revert\n    /* \"contracts/mytest/trycatch.sol\":100:555  contract OnlyEven{... */\ntag_12:\n  dataSize(sub_0)\n  dup1\n  dataOffset(sub_0)\n  0x00\n  codecopy\n  0x00\n  return\nstop\n\nsub_0: assembly {\n        /* \"contracts/mytest/trycatch.sol\":100:555  contract OnlyEven{... */\n      mstore(0x40, 0x80)\n      callvalue\n      dup1\n      iszero\n      tag_1\n      jumpi\n      0x00\n      dup1\n      revert\n    tag_1:\n      pop\n      jumpi(tag_2, lt(calldatasize, 0x04))\n      shr(0xe0, calldataload(0x00))\n      dup1\n      0xce0b4213\n      eq\n      tag_3\n      jumpi\n    tag_2:\n      0x00\n      dup1\n      revert\n        /* \"contracts/mytest/trycatch.sol\":228:552  function onlyEven(uint256 b) external pure returns(bool success){... */\n    tag_3:\n      tag_4\n      0x04\n      dup1\n      calldatasize\n      sub\n      dup2\n      add\n      swap1\n      tag_5\n      swap2\n      swap1\n      tag_6\n      jump\t// in\n    tag_5:\n      tag_7\n      jump\t// in\n    tag_4:\n      mload(0x40)\n      tag_8\n      swap2\n      swap1\n      tag_9\n      jump\t// in\n    tag_8:\n      mload(0x40)\n      dup1\n      swap2\n      sub\n      swap1\n      return\n    tag_7:\n        /* \"contracts/mytest/trycatch.sol\":279:291  bool success */\n      0x00\n        /* \"contracts/mytest/trycatch.sol\":350:351  2 */\n      0x02\n        /* \"contracts/mytest/trycatch.sol\":345:346  b */\n      dup3\n        /* \"contracts/mytest/trycatch.sol\":345:351  b != 2 */\n      sub\n        /* \"contracts/mytest/trycatch.sol\":337:370  require(b != 2, \"Ups! Reverting\") */\n      tag_11\n      jumpi\n      mload(0x40)\n      0x08c379a000000000000000000000000000000000000000000000000000000000\n      dup2\n      mstore\n      0x04\n      add\n      tag_12\n      swap1\n      tag_13\n      jump\t// in\n    tag_12:\n      mload(0x40)\n      dup1\n      swap2\n      sub\n      swap1\n      revert\n    tag_11:\n        /* \"contracts/mytest/trycatch.sol\":393:394  3 */\n      0x03\n        /* \"contracts/mytest/trycatch.sol\":388:389  b */\n      dup3\n        /* \"contracts/mytest/trycatch.sol\":388:394  b != 3 */\n      sub\n        /* \"contracts/mytest/trycatch.sol\":381:395  assert(b != 3) */\n      tag_14\n      jumpi\n      tag_15\n      tag_16\n      jump\t// in\n    tag_15:\n    tag_14:\n        /* \"contracts/mytest/trycatch.sol\":414:415  4 */\n      0x04\n        /* \"contracts/mytest/trycatch.sol\":409:410  b */\n      dup3\n        /* \"contracts/mytest/trycatch.sol\":409:415  b == 4 */\n      sub\n        /* \"contracts/mytest/trycatch.sol\":406:451  if(b == 4)... */\n      tag_17\n      jumpi\n        /* \"contracts/mytest/trycatch.sol\":430:451  revert(\"not equal 4\") */\n      mload(0x40)\n      0x08c379a000000000000000000000000000000000000000000000000000000000\n      dup2\n      mstore\n      0x04\n      add\n      tag_18\n      swap1\n      tag_19\n      jump\t// in\n    tag_18:\n      mload(0x40)\n      dup1\n      swap2\n      sub\n      swap1\n      revert\n        /* \"contracts/mytest/trycatch.sol\":406:451  if(b == 4)... */\n    tag_17:\n        /* \"contracts/mytest/trycatch.sol\":470:471  5 */\n      0x05\n        /* \"contracts/mytest/trycatch.sol\":465:466  b */\n      dup3\n        /* \"contracts/mytest/trycatch.sol\":465:471  b == 5 */\n      sub\n        /* \"contracts/mytest/trycatch.sol\":462:519  if(b == 5 )... */\n      tag_20\n      jumpi\n        /* \"contracts/mytest/trycatch.sol\":494:519  ErrorError(\"not equal 5\") */\n      mload(0x40)\n      0x581dfc1f00000000000000000000000000000000000000000000000000000000\n      dup2\n      mstore\n      0x04\n      add\n      tag_21\n      swap1\n      tag_22\n      jump\t// in\n    tag_21:\n      mload(0x40)\n      dup1\n      swap2\n      sub\n      swap1\n      revert\n        /* \"contracts/mytest/trycatch.sol\":462:519  if(b == 5 )... */\n    tag_20:\n        /* \"contracts/mytest/trycatch.sol\":540:544  true */\n      0x01\n        /* \"contracts/mytest/trycatch.sol\":530:544  success = true */\n      swap1\n      pop\n        /* \"contracts/mytest/trycatch.sol\":228:552  function onlyEven(uint256 b) external pure returns(bool success){... */\n      swap2\n      swap1\n      pop\n      jump\t// out\n        /* \"#utility.yul\":88:205   */\n    tag_24:\n        /* \"#utility.yul\":197:198   */\n      0x00\n        /* \"#utility.yul\":194:195   */\n      dup1\n        /* \"#utility.yul\":187:199   */\n      revert\n        /* \"#utility.yul\":334:411   */\n    tag_26:\n        /* \"#utility.yul\":371:378   */\n      0x00\n        /* \"#utility.yul\":400:405   */\n      dup2\n        /* \"#utility.yul\":389:405   */\n      swap1\n      pop\n        /* \"#utility.yul\":334:411   */\n      swap2\n      swap1\n      pop\n      jump\t// out\n        /* \"#utility.yul\":417:539   */\n    tag_27:\n        /* \"#utility.yul\":490:514   */\n      tag_44\n        /* \"#utility.yul\":508:513   */\n      dup2\n        /* \"#utility.yul\":490:514   */\n      tag_26\n      jump\t// in\n    tag_44:\n        /* \"#utility.yul\":483:488   */\n      dup2\n        /* \"#utility.yul\":480:515   */\n      eq\n        /* \"#utility.yul\":470:533   */\n      tag_45\n      jumpi\n        /* \"#utility.yul\":529:530   */\n      0x00\n        /* \"#utility.yul\":526:527   */\n      dup1\n        /* \"#utility.yul\":519:531   */\n      revert\n        /* \"#utility.yul\":470:533   */\n    tag_45:\n        /* \"#utility.yul\":417:539   */\n      pop\n      jump\t// out\n        /* \"#utility.yul\":545:684   */\n    tag_28:\n        /* \"#utility.yul\":591:596   */\n      0x00\n        /* \"#utility.yul\":629:635   */\n      dup2\n        /* \"#utility.yul\":616:636   */\n      calldataload\n        /* \"#utility.yul\":607:636   */\n      swap1\n      pop\n        /* \"#utility.yul\":645:678   */\n      tag_47\n        /* \"#utility.yul\":672:677   */\n      dup2\n        /* \"#utility.yul\":645:678   */\n      tag_27\n      jump\t// in\n    tag_47:\n        /* \"#utility.yul\":545:684   */\n      swap3\n      swap2\n      pop\n      pop\n      jump\t// out\n        /* \"#utility.yul\":690:1019   */\n    tag_6:\n        /* \"#utility.yul\":749:755   */\n      0x00\n        /* \"#utility.yul\":798:800   */\n      0x20\n        /* \"#utility.yul\":786:795   */\n      dup3\n        /* \"#utility.yul\":777:784   */\n      dup5\n        /* \"#utility.yul\":773:796   */\n      sub\n        /* \"#utility.yul\":769:801   */\n      slt\n        /* \"#utility.yul\":766:885   */\n      iszero\n      tag_49\n      jumpi\n        /* \"#utility.yul\":804:883   */\n      tag_50\n      tag_24\n      jump\t// in\n    tag_50:\n        /* \"#utility.yul\":766:885   */\n    tag_49:\n        /* \"#utility.yul\":924:925   */\n      0x00\n        /* \"#utility.yul\":949:1002   */\n      tag_51\n        /* \"#utility.yul\":994:1001   */\n      dup5\n        /* \"#utility.yul\":985:991   */\n      dup3\n        /* \"#utility.yul\":974:983   */\n      dup6\n        /* \"#utility.yul\":970:992   */\n      add\n        /* \"#utility.yul\":949:1002   */\n      tag_28\n      jump\t// in\n    tag_51:\n        /* \"#utility.yul\":939:1002   */\n      swap2\n      pop\n        /* \"#utility.yul\":895:1012   */\n      pop\n        /* \"#utility.yul\":690:1019   */\n      swap3\n      swap2\n      pop\n      pop\n      jump\t// out\n        /* \"#utility.yul\":1025:1115   */\n    tag_29:\n        /* \"#utility.yul\":1059:1066   */\n      0x00\n        /* \"#utility.yul\":1102:1107   */\n      dup2\n        /* \"#utility.yul\":1095:1108   */\n      iszero\n        /* \"#utility.yul\":1088:1109   */\n      iszero\n        /* \"#utility.yul\":1077:1109   */\n      swap1\n      pop\n        /* \"#utility.yul\":1025:1115   */\n      swap2\n      swap1\n      pop\n      jump\t// out\n        /* \"#utility.yul\":1121:1230   */\n    tag_30:\n        /* \"#utility.yul\":1202:1223   */\n      tag_54\n        /* \"#utility.yul\":1217:1222   */\n      dup2\n        /* \"#utility.yul\":1202:1223   */\n      tag_29\n      jump\t// in\n    tag_54:\n        /* \"#utility.yul\":1197:1200   */\n      dup3\n        /* \"#utility.yul\":1190:1224   */\n      mstore\n        /* \"#utility.yul\":1121:1230   */\n      pop\n      pop\n      jump\t// out\n        /* \"#utility.yul\":1236:1446   */\n    tag_9:\n        /* \"#utility.yul\":1323:1327   */\n      0x00\n        /* \"#utility.yul\":1361:1363   */\n      0x20\n        /* \"#utility.yul\":1350:1359   */\n      dup3\n        /* \"#utility.yul\":1346:1364   */\n      add\n        /* \"#utility.yul\":1338:1364   */\n      swap1\n      pop\n        /* \"#utility.yul\":1374:1439   */\n      tag_56\n        /* \"#utility.yul\":1436:1437   */\n      0x00\n        /* \"#utility.yul\":1425:1434   */\n      dup4\n        /* \"#utility.yul\":1421:1438   */\n      add\n        /* \"#utility.yul\":1412:1418   */\n      dup5\n        /* \"#utility.yul\":1374:1439   */\n      tag_30\n      jump\t// in\n    tag_56:\n        /* \"#utility.yul\":1236:1446   */\n      swap3\n      swap2\n      pop\n      pop\n      jump\t// out\n        /* \"#utility.yul\":1452:1621   */\n    tag_31:\n        /* \"#utility.yul\":1536:1547   */\n      0x00\n        /* \"#utility.yul\":1570:1576   */\n      dup3\n        /* \"#utility.yul\":1565:1568   */\n      dup3\n        /* \"#utility.yul\":1558:1577   */\n      mstore\n        /* \"#utility.yul\":1610:1614   */\n      0x20\n        /* \"#utility.yul\":1605:1608   */\n      dup3\n        /* \"#utility.yul\":1601:1615   */\n      add\n        /* \"#utility.yul\":1586:1615   */\n      swap1\n      pop\n        /* \"#utility.yul\":1452:1621   */\n      swap3\n      swap2\n      pop\n      pop\n      jump\t// out\n        /* \"#utility.yul\":1627:1791   */\n    tag_32:\n        /* \"#utility.yul\":1767:1783   */\n      0x5570732120526576657274696e67000000000000000000000000000000000000\n        /* \"#utility.yul\":1763:1764   */\n      0x00\n        /* \"#utility.yul\":1755:1761   */\n      dup3\n        /* \"#utility.yul\":1751:1765   */\n      add\n        /* \"#utility.yul\":1744:1784   */\n      mstore\n        /* \"#utility.yul\":1627:1791   */\n      pop\n      jump\t// out\n        /* \"#utility.yul\":1797:2163   */\n    tag_33:\n        /* \"#utility.yul\":1939:1942   */\n      0x00\n        /* \"#utility.yul\":1960:2027   */\n      tag_60\n        /* \"#utility.yul\":2024:2026   */\n      0x0e\n        /* \"#utility.yul\":2019:2022   */\n      dup4\n        /* \"#utility.yul\":1960:2027   */\n      tag_31\n      jump\t// in\n    tag_60:\n        /* \"#utility.yul\":1953:2027   */\n      swap2\n      pop\n        /* \"#utility.yul\":2036:2129   */\n      tag_61\n        /* \"#utility.yul\":2125:2128   */\n      dup3\n        /* \"#utility.yul\":2036:2129   */\n      tag_32\n      jump\t// in\n    tag_61:\n        /* \"#utility.yul\":2154:2156   */\n      0x20\n        /* \"#utility.yul\":2149:2152   */\n      dup3\n        /* \"#utility.yul\":2145:2157   */\n      add\n        /* \"#utility.yul\":2138:2157   */\n      swap1\n      pop\n        /* \"#utility.yul\":1797:2163   */\n      swap2\n      swap1\n      pop\n      jump\t// out\n        /* \"#utility.yul\":2169:2588   */\n    tag_13:\n        /* \"#utility.yul\":2335:2339   */\n      0x00\n        /* \"#utility.yul\":2373:2375   */\n      0x20\n        /* \"#utility.yul\":2362:2371   */\n      dup3\n        /* \"#utility.yul\":2358:2376   */\n      add\n        /* \"#utility.yul\":2350:2376   */\n      swap1\n      pop\n        /* \"#utility.yul\":2422:2431   */\n      dup2\n        /* \"#utility.yul\":2416:2420   */\n      dup2\n        /* \"#utility.yul\":2412:2432   */\n      sub\n        /* \"#utility.yul\":2408:2409   */\n      0x00\n        /* \"#utility.yul\":2397:2406   */\n      dup4\n        /* \"#utility.yul\":2393:2410   */\n      add\n        /* \"#utility.yul\":2386:2433   */\n      mstore\n        /* \"#utility.yul\":2450:2581   */\n      tag_63\n        /* \"#utility.yul\":2576:2580   */\n      dup2\n        /* \"#utility.yul\":2450:2581   */\n      tag_33\n      jump\t// in\n    tag_63:\n        /* \"#utility.yul\":2442:2581   */\n      swap1\n      pop\n        /* \"#utility.yul\":2169:2588   */\n      swap2\n      swap1\n      pop\n      jump\t// out\n        /* \"#utility.yul\":2594:2774   */\n    tag_16:\n        /* \"#utility.yul\":2642:2719   */\n      0x4e487b7100000000000000000000000000000000000000000000000000000000\n        /* \"#utility.yul\":2639:2640   */\n      0x00\n        /* \"#utility.yul\":2632:2720   */\n      mstore\n        /* \"#utility.yul\":2739:2743   */\n      0x01\n        /* \"#utility.yul\":2736:2737   */\n      0x04\n        /* \"#utility.yul\":2729:2744   */\n      mstore\n        /* \"#utility.yul\":2763:2767   */\n      0x24\n        /* \"#utility.yul\":2760:2761   */\n      0x00\n        /* \"#utility.yul\":2753:2768   */\n      revert\n        /* \"#utility.yul\":2780:2941   */\n    tag_34:\n        /* \"#utility.yul\":2920:2933   */\n      0x6e6f7420657175616c2034000000000000000000000000000000000000000000\n        /* \"#utility.yul\":2916:2917   */\n      0x00\n        /* \"#utility.yul\":2908:2914   */\n      dup3\n        /* \"#utility.yul\":2904:2918   */\n      add\n        /* \"#utility.yul\":2897:2934   */\n      mstore\n        /* \"#utility.yul\":2780:2941   */\n      pop\n      jump\t// out\n        /* \"#utility.yul\":2947:3313   */\n    tag_35:\n        /* \"#utility.yul\":3089:3092   */\n      0x00\n        /* \"#utility.yul\":3110:3177   */\n      tag_67\n        /* \"#utility.yul\":3174:3176   */\n      0x0b\n        /* \"#utility.yul\":3169:3172   */\n      dup4\n        /* \"#utility.yul\":3110:3177   */\n      tag_31\n      jump\t// in\n    tag_67:\n        /* \"#utility.yul\":3103:3177   */\n      swap2\n      pop\n        /* \"#utility.yul\":3186:3279   */\n      tag_68\n        /* \"#utility.yul\":3275:3278   */\n      dup3\n        /* \"#utility.yul\":3186:3279   */\n      tag_34\n      jump\t// in\n    tag_68:\n        /* \"#utility.yul\":3304:3306   */\n      0x20\n        /* \"#utility.yul\":3299:3302   */\n      dup3\n        /* \"#utility.yul\":3295:3307   */\n      add\n        /* \"#utility.yul\":3288:3307   */\n      swap1\n      pop\n        /* \"#utility.yul\":2947:3313   */\n      swap2\n      swap1\n      pop\n      jump\t// out\n        /* \"#utility.yul\":3319:3738   */\n    tag_19:\n        /* \"#utility.yul\":3485:3489   */\n      0x00\n        /* \"#utility.yul\":3523:3525   */\n      0x20\n        /* \"#utility.yul\":3512:3521   */\n      dup3\n        /* \"#utility.yul\":3508:3526   */\n      add\n        /* \"#utility.yul\":3500:3526   */\n      swap1\n      pop\n        /* \"#utility.yul\":3572:3581   */\n      dup2\n        /* \"#utility.yul\":3566:3570   */\n      dup2\n        /* \"#utility.yul\":3562:3582   */\n      sub\n        /* \"#utility.yul\":3558:3559   */\n      0x00\n        /* \"#utility.yul\":3547:3556   */\n      dup4\n        /* \"#utility.yul\":3543:3560   */\n      add\n        /* \"#utility.yul\":3536:3583   */\n      mstore\n        /* \"#utility.yul\":3600:3731   */\n      tag_70\n        /* \"#utility.yul\":3726:3730   */\n      dup2\n        /* \"#utility.yul\":3600:3731   */\n      tag_35\n      jump\t// in\n    tag_70:\n        /* \"#utility.yul\":3592:3731   */\n      swap1\n      pop\n        /* \"#utility.yul\":3319:3738   */\n      swap2\n      swap1\n      pop\n      jump\t// out\n        /* \"#utility.yul\":3744:3905   */\n    tag_36:\n        /* \"#utility.yul\":3884:3897   */\n      0x6e6f7420657175616c2035000000000000000000000000000000000000000000\n        /* \"#utility.yul\":3880:3881   */\n      0x00\n        /* \"#utility.yul\":3872:3878   */\n      dup3\n        /* \"#utility.yul\":3868:3882   */\n      add\n        /* \"#utility.yul\":3861:3898   */\n      mstore\n        /* \"#utility.yul\":3744:3905   */\n      pop\n      jump\t// out\n        /* \"#utility.yul\":3911:4277   */\n    tag_37:\n        /* \"#utility.yul\":4053:4056   */\n      0x00\n        /* \"#utility.yul\":4074:4141   */\n      tag_73\n        /* \"#utility.yul\":4138:4140   */\n      0x0b\n        /* \"#utility.yul\":4133:4136   */\n      dup4\n        /* \"#utility.yul\":4074:4141   */\n      tag_31\n      jump\t// in\n    tag_73:\n        /* \"#utility.yul\":4067:4141   */\n      swap2\n      pop\n        /* \"#utility.yul\":4150:4243   */\n      tag_74\n        /* \"#utility.yul\":4239:4242   */\n      dup3\n        /* \"#utility.yul\":4150:4243   */\n      tag_36\n      jump\t// in\n    tag_74:\n        /* \"#utility.yul\":4268:4270   */\n      0x20\n        /* \"#utility.yul\":4263:4266   */\n      dup3\n        /* \"#utility.yul\":4259:4271   */\n      add\n        /* \"#utility.yul\":4252:4271   */\n      swap1\n      pop\n        /* \"#utility.yul\":3911:4277   */\n      swap2\n      swap1\n      pop\n      jump\t// out\n        /* \"#utility.yul\":4283:4702   */\n    tag_22:\n        /* \"#utility.yul\":4449:4453   */\n      0x00\n        /* \"#utility.yul\":4487:4489   */\n      0x20\n        /* \"#utility.yul\":4476:4485   */\n      dup3\n        /* \"#utility.yul\":4472:4490   */\n      add\n        /* \"#utility.yul\":4464:4490   */\n      swap1\n      pop\n        /* \"#utility.yul\":4536:4545   */\n      dup2\n        /* \"#utility.yul\":4530:4534   */\n      dup2\n        /* \"#utility.yul\":4526:4546   */\n      sub\n        /* \"#utility.yul\":4522:4523   */\n      0x00\n        /* \"#utility.yul\":4511:4520   */\n      dup4\n        /* \"#utility.yul\":4507:4524   */\n      add\n        /* \"#utility.yul\":4500:4547   */\n      mstore\n        /* \"#utility.yul\":4564:4695   */\n      tag_76\n        /* \"#utility.yul\":4690:4694   */\n      dup2\n        /* \"#utility.yul\":4564:4695   */\n      tag_37\n      jump\t// in\n    tag_76:\n        /* \"#utility.yul\":4556:4695   */\n      swap1\n      pop\n        /* \"#utility.yul\":4283:4702   */\n      swap2\n      swap1\n      pop\n      jump\t// out\n\n    auxdata: 0xa2646970667358221220b8474927696f26e4ea0ce3a7a772c4447c45441e708bad47272488b4241e912564736f6c634300081a0033\n}\n",
				"bytecode": {
					"linkReferences": {},
					"object": "608060405234801561000f575f80fd5b5060405161051f38038061051f833981810160405281019061003191906100c1565b5f8103610073576040517f08c379a000000000000000000000000000000000000000000000000000000000815260040161006a90610146565b60405180910390fd5b6001810361008457610083610164565b5b50610191565b5f80fd5b5f819050919050565b6100a08161008e565b81146100aa575f80fd5b50565b5f815190506100bb81610097565b92915050565b5f602082840312156100d6576100d561008a565b5b5f6100e3848285016100ad565b91505092915050565b5f82825260208201905092915050565b7f696e76616c6964206e756d6265720000000000000000000000000000000000005f82015250565b5f610130600e836100ec565b915061013b826100fc565b602082019050919050565b5f6020820190508181035f83015261015d81610124565b9050919050565b7f4e487b71000000000000000000000000000000000000000000000000000000005f52600160045260245ffd5b6103818061019e5f395ff3fe608060405234801561000f575f80fd5b5060043610610029575f3560e01c8063ce0b42131461002d575b5f80fd5b61004760048036038101906100429190610178565b61005d565b60405161005491906101bd565b60405180910390f35b5f600282036100a1576040517f08c379a000000000000000000000000000000000000000000000000000000000815260040161009890610230565b60405180910390fd5b600382036100b2576100b161024e565b5b600482036100f5576040517f08c379a00000000000000000000000000000000000000000000000000000000081526004016100ec906102c5565b60405180910390fd5b60058203610138576040517f581dfc1f00000000000000000000000000000000000000000000000000000000815260040161012f9061032d565b60405180910390fd5b60019050919050565b5f80fd5b5f819050919050565b61015781610145565b8114610161575f80fd5b50565b5f813590506101728161014e565b92915050565b5f6020828403121561018d5761018c610141565b5b5f61019a84828501610164565b91505092915050565b5f8115159050919050565b6101b7816101a3565b82525050565b5f6020820190506101d05f8301846101ae565b92915050565b5f82825260208201905092915050565b7f5570732120526576657274696e670000000000000000000000000000000000005f82015250565b5f61021a600e836101d6565b9150610225826101e6565b602082019050919050565b5f6020820190508181035f8301526102478161020e565b9050919050565b7f4e487b71000000000000000000000000000000000000000000000000000000005f52600160045260245ffd5b7f6e6f7420657175616c20340000000000000000000000000000000000000000005f82015250565b5f6102af600b836101d6565b91506102ba8261027b565b602082019050919050565b5f6020820190508181035f8301526102dc816102a3565b9050919050565b7f6e6f7420657175616c20350000000000000000000000000000000000000000005f82015250565b5f610317600b836101d6565b9150610322826102e3565b602082019050919050565b5f6020820190508181035f8301526103448161030b565b905091905056fea2646970667358221220b8474927696f26e4ea0ce3a7a772c4447c45441e708bad47272488b4241e912564736f6c634300081a0033",
					"opcodes": "PUSH1 0x80 PUSH1 0x40 MSTORE CALLVALUE DUP1 ISZERO PUSH2 0xF JUMPI PUSH0 DUP1 REVERT JUMPDEST POP PUSH1 0x40 MLOAD PUSH2 0x51F CODESIZE SUB DUP1 PUSH2 0x51F DUP4 CODECOPY DUP2 DUP2 ADD PUSH1 0x40 MSTORE DUP2 ADD SWAP1 PUSH2 0x31 SWAP2 SWAP1 PUSH2 0xC1 JUMP JUMPDEST PUSH0 DUP2 SUB PUSH2 0x73 JUMPI PUSH1 0x40 MLOAD PUSH32 0x8C379A000000000000000000000000000000000000000000000000000000000 DUP2 MSTORE PUSH1 0x4 ADD PUSH2 0x6A SWAP1 PUSH2 0x146 JUMP JUMPDEST PUSH1 0x40 MLOAD DUP1 SWAP2 SUB SWAP1 REVERT JUMPDEST PUSH1 0x1 DUP2 SUB PUSH2 0x84 JUMPI PUSH2 0x83 PUSH2 0x164 JUMP JUMPDEST JUMPDEST POP PUSH2 0x191 JUMP JUMPDEST PUSH0 DUP1 REVERT JUMPDEST PUSH0 DUP2 SWAP1 POP SWAP2 SWAP1 POP JUMP JUMPDEST PUSH2 0xA0 DUP2 PUSH2 0x8E JUMP JUMPDEST DUP2 EQ PUSH2 0xAA JUMPI PUSH0 DUP1 REVERT JUMPDEST POP JUMP JUMPDEST PUSH0 DUP2 MLOAD SWAP1 POP PUSH2 0xBB DUP2 PUSH2 0x97 JUMP JUMPDEST SWAP3 SWAP2 POP POP JUMP JUMPDEST PUSH0 PUSH1 0x20 DUP3 DUP5 SUB SLT ISZERO PUSH2 0xD6 JUMPI PUSH2 0xD5 PUSH2 0x8A JUMP JUMPDEST JUMPDEST PUSH0 PUSH2 0xE3 DUP5 DUP3 DUP6 ADD PUSH2 0xAD JUMP JUMPDEST SWAP2 POP POP SWAP3 SWAP2 POP POP JUMP JUMPDEST PUSH0 DUP3 DUP3 MSTORE PUSH1 0x20 DUP3 ADD SWAP1 POP SWAP3 SWAP2 POP POP JUMP JUMPDEST PUSH32 0x696E76616C6964206E756D626572000000000000000000000000000000000000 PUSH0 DUP3 ADD MSTORE POP JUMP JUMPDEST PUSH0 PUSH2 0x130 PUSH1 0xE DUP4 PUSH2 0xEC JUMP JUMPDEST SWAP2 POP PUSH2 0x13B DUP3 PUSH2 0xFC JUMP JUMPDEST PUSH1 0x20 DUP3 ADD SWAP1 POP SWAP2 SWAP1 POP JUMP JUMPDEST PUSH0 PUSH1 0x20 DUP3 ADD SWAP1 POP DUP2 DUP2 SUB PUSH0 DUP4 ADD MSTORE PUSH2 0x15D DUP2 PUSH2 0x124 JUMP JUMPDEST SWAP1 POP SWAP2 SWAP1 POP JUMP JUMPDEST PUSH32 0x4E487B7100000000000000000000000000000000000000000000000000000000 PUSH0 MSTORE PUSH1 0x1 PUSH1 0x4 MSTORE PUSH1 0x24 PUSH0 REVERT JUMPDEST PUSH2 0x381 DUP1 PUSH2 0x19E PUSH0 CODECOPY PUSH0 RETURN INVALID PUSH1 0x80 PUSH1 0x40 MSTORE CALLVALUE DUP1 ISZERO PUSH2 0xF JUMPI PUSH0 DUP1 REVERT JUMPDEST POP PUSH1 0x4 CALLDATASIZE LT PUSH2 0x29 JUMPI PUSH0 CALLDATALOAD PUSH1 0xE0 SHR DUP1 PUSH4 0xCE0B4213 EQ PUSH2 0x2D JUMPI JUMPDEST PUSH0 DUP1 REVERT JUMPDEST PUSH2 0x47 PUSH1 0x4 DUP1 CALLDATASIZE SUB DUP2 ADD SWAP1 PUSH2 0x42 SWAP2 SWAP1 PUSH2 0x178 JUMP JUMPDEST PUSH2 0x5D JUMP JUMPDEST PUSH1 0x40 MLOAD PUSH2 0x54 SWAP2 SWAP1 PUSH2 0x1BD JUMP JUMPDEST PUSH1 0x40 MLOAD DUP1 SWAP2 SUB SWAP1 RETURN JUMPDEST PUSH0 PUSH1 0x2 DUP3 SUB PUSH2 0xA1 JUMPI PUSH1 0x40 MLOAD PUSH32 0x8C379A000000000000000000000000000000000000000000000000000000000 DUP2 MSTORE PUSH1 0x4 ADD PUSH2 0x98 SWAP1 PUSH2 0x230 JUMP JUMPDEST PUSH1 0x40 MLOAD DUP1 SWAP2 SUB SWAP1 REVERT JUMPDEST PUSH1 0x3 DUP3 SUB PUSH2 0xB2 JUMPI PUSH2 0xB1 PUSH2 0x24E JUMP JUMPDEST JUMPDEST PUSH1 0x4 DUP3 SUB PUSH2 0xF5 JUMPI PUSH1 0x40 MLOAD PUSH32 0x8C379A000000000000000000000000000000000000000000000000000000000 DUP2 MSTORE PUSH1 0x4 ADD PUSH2 0xEC SWAP1 PUSH2 0x2C5 JUMP JUMPDEST PUSH1 0x40 MLOAD DUP1 SWAP2 SUB SWAP1 REVERT JUMPDEST PUSH1 0x5 DUP3 SUB PUSH2 0x138 JUMPI PUSH1 0x40 MLOAD PUSH32 0x581DFC1F00000000000000000000000000000000000000000000000000000000 DUP2 MSTORE PUSH1 0x4 ADD PUSH2 0x12F SWAP1 PUSH2 0x32D JUMP JUMPDEST PUSH1 0x40 MLOAD DUP1 SWAP2 SUB SWAP1 REVERT JUMPDEST PUSH1 0x1 SWAP1 POP SWAP2 SWAP1 POP JUMP JUMPDEST PUSH0 DUP1 REVERT JUMPDEST PUSH0 DUP2 SWAP1 POP SWAP2 SWAP1 POP JUMP JUMPDEST PUSH2 0x157 DUP2 PUSH2 0x145 JUMP JUMPDEST DUP2 EQ PUSH2 0x161 JUMPI PUSH0 DUP1 REVERT JUMPDEST POP JUMP JUMPDEST PUSH0 DUP2 CALLDATALOAD SWAP1 POP PUSH2 0x172 DUP2 PUSH2 0x14E JUMP JUMPDEST SWAP3 SWAP2 POP POP JUMP JUMPDEST PUSH0 PUSH1 0x20 DUP3 DUP5 SUB SLT ISZERO PUSH2 0x18D JUMPI PUSH2 0x18C PUSH2 0x141 JUMP JUMPDEST JUMPDEST PUSH0 PUSH2 0x19A DUP5 DUP3 DUP6 ADD PUSH2 0x164 JUMP JUMPDEST SWAP2 POP POP SWAP3 SWAP2 POP POP JUMP JUMPDEST PUSH0 DUP2 ISZERO ISZERO SWAP1 POP SWAP2 SWAP1 POP JUMP JUMPDEST PUSH2 0x1B7 DUP2 PUSH2 0x1A3 JUMP JUMPDEST DUP3 MSTORE POP POP JUMP JUMPDEST PUSH0 PUSH1 0x20 DUP3 ADD SWAP1 POP PUSH2 0x1D0 PUSH0 DUP4 ADD DUP5 PUSH2 0x1AE JUMP JUMPDEST SWAP3 SWAP2 POP POP JUMP JUMPDEST PUSH0 DUP3 DUP3 MSTORE PUSH1 0x20 DUP3 ADD SWAP1 POP SWAP3 SWAP2 POP POP JUMP JUMPDEST PUSH32 0x5570732120526576657274696E67000000000000000000000000000000000000 PUSH0 DUP3 ADD MSTORE POP JUMP JUMPDEST PUSH0 PUSH2 0x21A PUSH1 0xE DUP4 PUSH2 0x1D6 JUMP JUMPDEST SWAP2 POP PUSH2 0x225 DUP3 PUSH2 0x1E6 JUMP JUMPDEST PUSH1 0x20 DUP3 ADD SWAP1 POP SWAP2 SWAP1 POP JUMP JUMPDEST PUSH0 PUSH1 0x20 DUP3 ADD SWAP1 POP DUP2 DUP2 SUB PUSH0 DUP4 ADD MSTORE PUSH2 0x247 DUP2 PUSH2 0x20E JUMP JUMPDEST SWAP1 POP SWAP2 SWAP1 POP JUMP JUMPDEST PUSH32 0x4E487B7100000000000000000000000000000000000000000000000000000000 PUSH0 MSTORE PUSH1 0x1 PUSH1 0x4 MSTORE PUSH1 0x24 PUSH0 REVERT JUMPDEST PUSH32 0x6E6F7420657175616C2034000000000000000000000000000000000000000000 PUSH0 DUP3 ADD MSTORE POP JUMP JUMPDEST PUSH0 PUSH2 0x2AF PUSH1 0xB DUP4 PUSH2 0x1D6 JUMP JUMPDEST SWAP2 POP PUSH2 0x2BA DUP3 PUSH2 0x27B JUMP JUMPDEST PUSH1 0x20 DUP3 ADD SWAP1 POP SWAP2 SWAP1 POP JUMP JUMPDEST PUSH0 PUSH1 0x20 DUP3 ADD SWAP1 POP DUP2 DUP2 SUB PUSH0 DUP4 ADD MSTORE PUSH2 0x2DC DUP2 PUSH2 0x2A3 JUMP JUMPDEST SWAP1 POP SWAP2 SWAP1 POP JUMP JUMPDEST PUSH32 0x6E6F7420657175616C2035000000000000000000000000000000000000000000 PUSH0 DUP3 ADD MSTORE POP JUMP JUMPDEST PUSH0 PUSH2 0x317 PUSH1 0xB DUP4 PUSH2 0x1D6 JUMP JUMPDEST SWAP2 POP PUSH2 0x322 DUP3 PUSH2 0x2E3 JUMP JUMPDEST PUSH1 0x20 DUP3 ADD SWAP1 POP SWAP2 SWAP1 POP JUMP JUMPDEST PUSH0 PUSH1 0x20 DUP3 ADD SWAP1 POP DUP2 DUP2 SUB PUSH0 DUP4 ADD MSTORE PUSH2 0x344 DUP2 PUSH2 0x30B JUMP JUMPDEST SWAP1 POP SWAP2 SWAP1 POP JUMP INVALID LOG2 PUSH5 0x6970667358 0x22 SLT KECCAK256 0xB8 SELFBALANCE BLOBHASH 0x27 PUSH10 0x6F26E4EA0CE3A7A772C4 PREVRANDAO PUSH29 0x45441E708BAD47272488B4241E912564736F6C634300081A0033000000 "
				},
				"gasEstimates": {
					"creation": {
						"codeDepositCost": "179400",
						"executionCost": "infinite",
						"totalCost": "infinite"
					},
					"external": {
						"onlyEven(uint256)": "755"
					}
				},
				"methodIdentifiers": {
					"onlyEven(uint256)": "ce0b4213"
				}
			},
			"storageLayout": {
				"storage": [],
				"types": null
			},
			"userdoc": {
				"kind": "user",
				"methods": {},
				"version": 1
			}
		}
	}
}