{
	"contracts/mytest/map.sol": {
		"PointsSystem": {
			"abi": [
				{
					"inputs": [
						{
							"internalType": "address",
							"name": "_userAddr",
							"type": "address"
						}
					],
					"name": "addUser",
					"outputs": [
						{
							"internalType": "uint256",
							"name": "",
							"type": "uint256"
						}
					],
					"stateMutability": "nonpayable",
					"type": "function"
				},
				{
					"inputs": [],
					"name": "allUserBack",
					"outputs": [
						{
							"internalType": "address[]",
							"name": "",
							"type": "address[]"
						}
					],
					"stateMutability": "nonpayable",
					"type": "function"
				},
				{
					"inputs": [
						{
							"internalType": "address",
							"name": "",
							"type": "address"
						}
					],
					"name": "points",
					"outputs": [
						{
							"internalType": "uint256",
							"name": "",
							"type": "uint256"
						}
					],
					"stateMutability": "view",
					"type": "function"
				},
				{
					"inputs": [
						{
							"internalType": "address",
							"name": "_to",
							"type": "address"
						},
						{
							"internalType": "uint256",
							"name": "amt",
							"type": "uint256"
						}
					],
					"name": "transferAmt",
					"outputs": [
						{
							"internalType": "uint256",
							"name": "",
							"type": "uint256"
						}
					],
					"stateMutability": "nonpayable",
					"type": "function"
				},
				{
					"inputs": [
						{
							"internalType": "uint256",
							"name": "",
							"type": "uint256"
						}
					],
					"name": "users",
					"outputs": [
						{
							"internalType": "address",
							"name": "",
							"type": "address"
						}
					],
					"stateMutability": "view",
					"type": "function"
				}
			],
			"devdoc": {
				"kind": "dev",
				"methods": {},
				"version": 1
			},
			"evm": {
				"assembly": "    /* \"contracts/mytest/map.sol\":414:1284  contract PointsSystem {... */\n  mstore(0x40, 0x80)\n  callvalue\n  dup1\n  iszero\n  tag_1\n  jumpi\n  0x00\n  dup1\n  revert\ntag_1:\n  pop\n  dataSize(sub_0)\n  dup1\n  dataOffset(sub_0)\n  0x00\n  codecopy\n  0x00\n  return\nstop\n\nsub_0: assembly {\n        /* \"contracts/mytest/map.sol\":414:1284  contract PointsSystem {... */\n      mstore(0x40, 0x80)\n      callvalue\n      dup1\n      iszero\n      tag_1\n      jumpi\n      0x00\n      dup1\n      revert\n    tag_1:\n      pop\n      jumpi(tag_2, lt(calldatasize, 0x04))\n      shr(0xe0, calldataload(0x00))\n      dup1\n      0x358b8166\n      eq\n      tag_3\n      jumpi\n      dup1\n      0x365b98b2\n      eq\n      tag_4\n      jumpi\n      dup1\n      0x3a3547f5\n      eq\n      tag_5\n      jumpi\n      dup1\n      0x421b2d8b\n      eq\n      tag_6\n      jumpi\n      dup1\n      0x913ccf97\n      eq\n      tag_7\n      jumpi\n    tag_2:\n      0x00\n      dup1\n      revert\n        /* \"contracts/mytest/map.sol\":443:481  mapping(address => uint) public points */\n    tag_3:\n      tag_8\n      0x04\n      dup1\n      calldatasize\n      sub\n      dup2\n      add\n      swap1\n      tag_9\n      swap2\n      swap1\n      tag_10\n      jump\t// in\n    tag_9:\n      tag_11\n      jump\t// in\n    tag_8:\n      mload(0x40)\n      tag_12\n      swap2\n      swap1\n      tag_13\n      jump\t// in\n    tag_12:\n      mload(0x40)\n      dup1\n      swap2\n      sub\n      swap1\n      return\n        /* \"contracts/mytest/map.sol\":488:510  address[] public users */\n    tag_4:\n      tag_14\n      0x04\n      dup1\n      calldatasize\n      sub\n      dup2\n      add\n      swap1\n      tag_15\n      swap2\n      swap1\n      tag_16\n      jump\t// in\n    tag_15:\n      tag_17\n      jump\t// in\n    tag_14:\n      mload(0x40)\n      tag_18\n      swap2\n      swap1\n      tag_19\n      jump\t// in\n    tag_18:\n      mload(0x40)\n      dup1\n      swap2\n      sub\n      swap1\n      return\n        /* \"contracts/mytest/map.sol\":849:1147  function transferAmt(address _to,uint amt) public returns (uint){... */\n    tag_5:\n      tag_20\n      0x04\n      dup1\n      calldatasize\n      sub\n      dup2\n      add\n      swap1\n      tag_21\n      swap2\n      swap1\n      tag_22\n      jump\t// in\n    tag_21:\n      tag_23\n      jump\t// in\n    tag_20:\n      mload(0x40)\n      tag_24\n      swap2\n      swap1\n      tag_13\n      jump\t// in\n    tag_24:\n      mload(0x40)\n      dup1\n      swap2\n      sub\n      swap1\n      return\n        /* \"contracts/mytest/map.sol\":555:779  function addUser(address _userAddr) public  returns (uint){... */\n    tag_6:\n      tag_25\n      0x04\n      dup1\n      calldatasize\n      sub\n      dup2\n      add\n      swap1\n      tag_26\n      swap2\n      swap1\n      tag_10\n      jump\t// in\n    tag_26:\n      tag_27\n      jump\t// in\n    tag_25:\n      mload(0x40)\n      tag_28\n      swap2\n      swap1\n      tag_13\n      jump\t// in\n    tag_28:\n      mload(0x40)\n      dup1\n      swap2\n      sub\n      swap1\n      return\n        /* \"contracts/mytest/map.sol\":1184:1271  function allUserBack() public returns (address[] memory){... */\n    tag_7:\n      tag_29\n      tag_30\n      jump\t// in\n    tag_29:\n      mload(0x40)\n      tag_31\n      swap2\n      swap1\n      tag_32\n      jump\t// in\n    tag_31:\n      mload(0x40)\n      dup1\n      swap2\n      sub\n      swap1\n      return\n        /* \"contracts/mytest/map.sol\":443:481  mapping(address => uint) public points */\n    tag_11:\n      mstore(0x20, 0x00)\n      dup1\n      0x00\n      mstore\n      keccak256(0x00, 0x40)\n      0x00\n      swap2\n      pop\n      swap1\n      pop\n      sload\n      dup2\n      jump\t// out\n        /* \"contracts/mytest/map.sol\":488:510  address[] public users */\n    tag_17:\n      0x01\n      dup2\n      dup2\n      sload\n      dup2\n      lt\n      tag_33\n      jumpi\n      0x00\n      dup1\n      revert\n    tag_33:\n      swap1\n      0x00\n      mstore\n      keccak256(0x00, 0x20)\n      add\n      0x00\n      swap2\n      pop\n      sload\n      swap1\n      0x0100\n      exp\n      swap1\n      div\n      0xffffffffffffffffffffffffffffffffffffffff\n      and\n      dup2\n      jump\t// out\n        /* \"contracts/mytest/map.sol\":849:1147  function transferAmt(address _to,uint amt) public returns (uint){... */\n    tag_23:\n        /* \"contracts/mytest/map.sol\":908:912  uint */\n      0x00\n        /* \"contracts/mytest/map.sol\":1020:1023  amt */\n      dup2\n        /* \"contracts/mytest/map.sol\":998:1004  points */\n      0x00\n        /* \"contracts/mytest/map.sol\":998:1016  points[msg.sender] */\n      dup1\n        /* \"contracts/mytest/map.sol\":1005:1015  msg.sender */\n      caller\n        /* \"contracts/mytest/map.sol\":998:1016  points[msg.sender] */\n      0xffffffffffffffffffffffffffffffffffffffff\n      and\n      0xffffffffffffffffffffffffffffffffffffffff\n      and\n      dup2\n      mstore\n      0x20\n      add\n      swap1\n      dup2\n      mstore\n      0x20\n      add\n      0x00\n      keccak256\n      sload\n        /* \"contracts/mytest/map.sol\":998:1023  points[msg.sender] >= amt */\n      lt\n      iszero\n        /* \"contracts/mytest/map.sol\":990:1045  require(points[msg.sender] >= amt, \"amount not enough\") */\n      tag_36\n      jumpi\n      mload(0x40)\n      0x08c379a000000000000000000000000000000000000000000000000000000000\n      dup2\n      mstore\n      0x04\n      add\n      tag_37\n      swap1\n      tag_38\n      jump\t// in\n    tag_37:\n      mload(0x40)\n      dup1\n      swap2\n      sub\n      swap1\n      revert\n    tag_36:\n        /* \"contracts/mytest/map.sol\":1078:1081  amt */\n      dup2\n        /* \"contracts/mytest/map.sol\":1056:1062  points */\n      0x00\n        /* \"contracts/mytest/map.sol\":1056:1074  points[msg.sender] */\n      dup1\n        /* \"contracts/mytest/map.sol\":1063:1073  msg.sender */\n      caller\n        /* \"contracts/mytest/map.sol\":1056:1074  points[msg.sender] */\n      0xffffffffffffffffffffffffffffffffffffffff\n      and\n      0xffffffffffffffffffffffffffffffffffffffff\n      and\n      dup2\n      mstore\n      0x20\n      add\n      swap1\n      dup2\n      mstore\n      0x20\n      add\n      0x00\n      keccak256\n      0x00\n        /* \"contracts/mytest/map.sol\":1056:1081  points[msg.sender] -= amt */\n      dup3\n      dup3\n      sload\n      tag_39\n      swap2\n      swap1\n      tag_40\n      jump\t// in\n    tag_39:\n      swap3\n      pop\n      pop\n      dup2\n      swap1\n      sstore\n      pop\n        /* \"contracts/mytest/map.sol\":1107:1110  amt */\n      dup2\n        /* \"contracts/mytest/map.sol\":1092:1098  points */\n      0x00\n        /* \"contracts/mytest/map.sol\":1092:1103  points[_to] */\n      dup1\n        /* \"contracts/mytest/map.sol\":1099:1102  _to */\n      dup6\n        /* \"contracts/mytest/map.sol\":1092:1103  points[_to] */\n      0xffffffffffffffffffffffffffffffffffffffff\n      and\n      0xffffffffffffffffffffffffffffffffffffffff\n      and\n      dup2\n      mstore\n      0x20\n      add\n      swap1\n      dup2\n      mstore\n      0x20\n      add\n      0x00\n      keccak256\n      0x00\n        /* \"contracts/mytest/map.sol\":1092:1110  points[_to] += amt */\n      dup3\n      dup3\n      sload\n      tag_41\n      swap2\n      swap1\n      tag_42\n      jump\t// in\n    tag_41:\n      swap3\n      pop\n      pop\n      dup2\n      swap1\n      sstore\n      pop\n        /* \"contracts/mytest/map.sol\":1128:1134  points */\n      0x00\n        /* \"contracts/mytest/map.sol\":1128:1139  points[_to] */\n      dup1\n        /* \"contracts/mytest/map.sol\":1135:1138  _to */\n      dup5\n        /* \"contracts/mytest/map.sol\":1128:1139  points[_to] */\n      0xffffffffffffffffffffffffffffffffffffffff\n      and\n      0xffffffffffffffffffffffffffffffffffffffff\n      and\n      dup2\n      mstore\n      0x20\n      add\n      swap1\n      dup2\n      mstore\n      0x20\n      add\n      0x00\n      keccak256\n      sload\n        /* \"contracts/mytest/map.sol\":1121:1139  return points[_to] */\n      swap1\n      pop\n        /* \"contracts/mytest/map.sol\":849:1147  function transferAmt(address _to,uint amt) public returns (uint){... */\n      swap3\n      swap2\n      pop\n      pop\n      jump\t// out\n        /* \"contracts/mytest/map.sol\":555:779  function addUser(address _userAddr) public  returns (uint){... */\n    tag_27:\n        /* \"contracts/mytest/map.sol\":608:612  uint */\n      0x00\n        /* \"contracts/mytest/map.sol\":653:654  0 */\n      dup1\n        /* \"contracts/mytest/map.sol\":632:638  points */\n      0x00\n        /* \"contracts/mytest/map.sol\":632:649  points[_userAddr] */\n      dup1\n        /* \"contracts/mytest/map.sol\":639:648  _userAddr */\n      dup5\n        /* \"contracts/mytest/map.sol\":632:649  points[_userAddr] */\n      0xffffffffffffffffffffffffffffffffffffffff\n      and\n      0xffffffffffffffffffffffffffffffffffffffff\n      and\n      dup2\n      mstore\n      0x20\n      add\n      swap1\n      dup2\n      mstore\n      0x20\n      add\n      0x00\n      keccak256\n      sload\n        /* \"contracts/mytest/map.sol\":632:654  points[_userAddr] == 0 */\n      eq\n        /* \"contracts/mytest/map.sol\":624:670  require(points[_userAddr] == 0,\"exit accout\" ) */\n      tag_44\n      jumpi\n      mload(0x40)\n      0x08c379a000000000000000000000000000000000000000000000000000000000\n      dup2\n      mstore\n      0x04\n      add\n      tag_45\n      swap1\n      tag_46\n      jump\t// in\n    tag_45:\n      mload(0x40)\n      dup1\n      swap2\n      sub\n      swap1\n      revert\n    tag_44:\n        /* \"contracts/mytest/map.sol\":701:704  100 */\n      0x64\n        /* \"contracts/mytest/map.sol\":681:687  points */\n      0x00\n        /* \"contracts/mytest/map.sol\":681:698  points[_userAddr] */\n      dup1\n        /* \"contracts/mytest/map.sol\":688:697  _userAddr */\n      dup5\n        /* \"contracts/mytest/map.sol\":681:698  points[_userAddr] */\n      0xffffffffffffffffffffffffffffffffffffffff\n      and\n      0xffffffffffffffffffffffffffffffffffffffff\n      and\n      dup2\n      mstore\n      0x20\n      add\n      swap1\n      dup2\n      mstore\n      0x20\n      add\n      0x00\n      keccak256\n        /* \"contracts/mytest/map.sol\":681:704  points[_userAddr] = 100 */\n      dup2\n      swap1\n      sstore\n      pop\n        /* \"contracts/mytest/map.sol\":715:720  users */\n      0x01\n        /* \"contracts/mytest/map.sol\":726:735  _userAddr */\n      dup3\n        /* \"contracts/mytest/map.sol\":715:736  users.push(_userAddr) */\n      swap1\n      dup1\n      0x01\n      dup2\n      sload\n      add\n      dup1\n      dup3\n      sstore\n      dup1\n      swap2\n      pop\n      pop\n      0x01\n      swap1\n      sub\n      swap1\n      0x00\n      mstore\n      keccak256(0x00, 0x20)\n      add\n      0x00\n      swap1\n      swap2\n      swap1\n      swap2\n      swap1\n      swap2\n      0x0100\n      exp\n      dup2\n      sload\n      dup2\n      0xffffffffffffffffffffffffffffffffffffffff\n      mul\n      not\n      and\n      swap1\n      dup4\n      0xffffffffffffffffffffffffffffffffffffffff\n      and\n      mul\n      or\n      swap1\n      sstore\n      pop\n        /* \"contracts/mytest/map.sol\":754:760  points */\n      0x00\n        /* \"contracts/mytest/map.sol\":754:771  points[_userAddr] */\n      dup1\n        /* \"contracts/mytest/map.sol\":761:770  _userAddr */\n      dup4\n        /* \"contracts/mytest/map.sol\":754:771  points[_userAddr] */\n      0xffffffffffffffffffffffffffffffffffffffff\n      and\n      0xffffffffffffffffffffffffffffffffffffffff\n      and\n      dup2\n      mstore\n      0x20\n      add\n      swap1\n      dup2\n      mstore\n      0x20\n      add\n      0x00\n      keccak256\n      sload\n        /* \"contracts/mytest/map.sol\":747:771  return points[_userAddr] */\n      swap1\n      pop\n        /* \"contracts/mytest/map.sol\":555:779  function addUser(address _userAddr) public  returns (uint){... */\n      swap2\n      swap1\n      pop\n      jump\t// out\n        /* \"contracts/mytest/map.sol\":1184:1271  function allUserBack() public returns (address[] memory){... */\n    tag_30:\n        /* \"contracts/mytest/map.sol\":1223:1239  address[] memory */\n      0x60\n        /* \"contracts/mytest/map.sol\":1258:1263  users */\n      0x01\n        /* \"contracts/mytest/map.sol\":1251:1263  return users */\n      dup1\n      sload\n      dup1\n      0x20\n      mul\n      0x20\n      add\n      mload(0x40)\n      swap1\n      dup2\n      add\n      0x40\n      mstore\n      dup1\n      swap3\n      swap2\n      swap1\n      dup2\n      dup2\n      mstore\n      0x20\n      add\n      dup3\n      dup1\n      sload\n      dup1\n      iszero\n      tag_49\n      jumpi\n      0x20\n      mul\n      dup3\n      add\n      swap2\n      swap1\n      0x00\n      mstore\n      keccak256(0x00, 0x20)\n      swap1\n    tag_50:\n      dup2\n      0x00\n      swap1\n      sload\n      swap1\n      0x0100\n      exp\n      swap1\n      div\n      0xffffffffffffffffffffffffffffffffffffffff\n      and\n      0xffffffffffffffffffffffffffffffffffffffff\n      and\n      dup2\n      mstore\n      0x20\n      add\n      swap1\n      0x01\n      add\n      swap1\n      dup1\n      dup4\n      gt\n      tag_50\n      jumpi\n    tag_49:\n      pop\n      pop\n      pop\n      pop\n      pop\n      swap1\n      pop\n        /* \"contracts/mytest/map.sol\":1184:1271  function allUserBack() public returns (address[] memory){... */\n      swap1\n      jump\t// out\n        /* \"#utility.yul\":88:205   */\n    tag_52:\n        /* \"#utility.yul\":197:198   */\n      0x00\n        /* \"#utility.yul\":194:195   */\n      dup1\n        /* \"#utility.yul\":187:199   */\n      revert\n        /* \"#utility.yul\":334:460   */\n    tag_54:\n        /* \"#utility.yul\":371:378   */\n      0x00\n        /* \"#utility.yul\":411:453   */\n      0xffffffffffffffffffffffffffffffffffffffff\n        /* \"#utility.yul\":404:409   */\n      dup3\n        /* \"#utility.yul\":400:454   */\n      and\n        /* \"#utility.yul\":389:454   */\n      swap1\n      pop\n        /* \"#utility.yul\":334:460   */\n      swap2\n      swap1\n      pop\n      jump\t// out\n        /* \"#utility.yul\":466:562   */\n    tag_55:\n        /* \"#utility.yul\":503:510   */\n      0x00\n        /* \"#utility.yul\":532:556   */\n      tag_82\n        /* \"#utility.yul\":550:555   */\n      dup3\n        /* \"#utility.yul\":532:556   */\n      tag_54\n      jump\t// in\n    tag_82:\n        /* \"#utility.yul\":521:556   */\n      swap1\n      pop\n        /* \"#utility.yul\":466:562   */\n      swap2\n      swap1\n      pop\n      jump\t// out\n        /* \"#utility.yul\":568:690   */\n    tag_56:\n        /* \"#utility.yul\":641:665   */\n      tag_84\n        /* \"#utility.yul\":659:664   */\n      dup2\n        /* \"#utility.yul\":641:665   */\n      tag_55\n      jump\t// in\n    tag_84:\n        /* \"#utility.yul\":634:639   */\n      dup2\n        /* \"#utility.yul\":631:666   */\n      eq\n        /* \"#utility.yul\":621:684   */\n      tag_85\n      jumpi\n        /* \"#utility.yul\":680:681   */\n      0x00\n        /* \"#utility.yul\":677:678   */\n      dup1\n        /* \"#utility.yul\":670:682   */\n      revert\n        /* \"#utility.yul\":621:684   */\n    tag_85:\n        /* \"#utility.yul\":568:690   */\n      pop\n      jump\t// out\n        /* \"#utility.yul\":696:835   */\n    tag_57:\n        /* \"#utility.yul\":742:747   */\n      0x00\n        /* \"#utility.yul\":780:786   */\n      dup2\n        /* \"#utility.yul\":767:787   */\n      calldataload\n        /* \"#utility.yul\":758:787   */\n      swap1\n      pop\n        /* \"#utility.yul\":796:829   */\n      tag_87\n        /* \"#utility.yul\":823:828   */\n      dup2\n        /* \"#utility.yul\":796:829   */\n      tag_56\n      jump\t// in\n    tag_87:\n        /* \"#utility.yul\":696:835   */\n      swap3\n      swap2\n      pop\n      pop\n      jump\t// out\n        /* \"#utility.yul\":841:1170   */\n    tag_10:\n        /* \"#utility.yul\":900:906   */\n      0x00\n        /* \"#utility.yul\":949:951   */\n      0x20\n        /* \"#utility.yul\":937:946   */\n      dup3\n        /* \"#utility.yul\":928:935   */\n      dup5\n        /* \"#utility.yul\":924:947   */\n      sub\n        /* \"#utility.yul\":920:952   */\n      slt\n        /* \"#utility.yul\":917:1036   */\n      iszero\n      tag_89\n      jumpi\n        /* \"#utility.yul\":955:1034   */\n      tag_90\n      tag_52\n      jump\t// in\n    tag_90:\n        /* \"#utility.yul\":917:1036   */\n    tag_89:\n        /* \"#utility.yul\":1075:1076   */\n      0x00\n        /* \"#utility.yul\":1100:1153   */\n      tag_91\n        /* \"#utility.yul\":1145:1152   */\n      dup5\n        /* \"#utility.yul\":1136:1142   */\n      dup3\n        /* \"#utility.yul\":1125:1134   */\n      dup6\n        /* \"#utility.yul\":1121:1143   */\n      add\n        /* \"#utility.yul\":1100:1153   */\n      tag_57\n      jump\t// in\n    tag_91:\n        /* \"#utility.yul\":1090:1153   */\n      swap2\n      pop\n        /* \"#utility.yul\":1046:1163   */\n      pop\n        /* \"#utility.yul\":841:1170   */\n      swap3\n      swap2\n      pop\n      pop\n      jump\t// out\n        /* \"#utility.yul\":1176:1253   */\n    tag_58:\n        /* \"#utility.yul\":1213:1220   */\n      0x00\n        /* \"#utility.yul\":1242:1247   */\n      dup2\n        /* \"#utility.yul\":1231:1247   */\n      swap1\n      pop\n        /* \"#utility.yul\":1176:1253   */\n      swap2\n      swap1\n      pop\n      jump\t// out\n        /* \"#utility.yul\":1259:1377   */\n    tag_59:\n        /* \"#utility.yul\":1346:1370   */\n      tag_94\n        /* \"#utility.yul\":1364:1369   */\n      dup2\n        /* \"#utility.yul\":1346:1370   */\n      tag_58\n      jump\t// in\n    tag_94:\n        /* \"#utility.yul\":1341:1344   */\n      dup3\n        /* \"#utility.yul\":1334:1371   */\n      mstore\n        /* \"#utility.yul\":1259:1377   */\n      pop\n      pop\n      jump\t// out\n        /* \"#utility.yul\":1383:1605   */\n    tag_13:\n        /* \"#utility.yul\":1476:1480   */\n      0x00\n        /* \"#utility.yul\":1514:1516   */\n      0x20\n        /* \"#utility.yul\":1503:1512   */\n      dup3\n        /* \"#utility.yul\":1499:1517   */\n      add\n        /* \"#utility.yul\":1491:1517   */\n      swap1\n      pop\n        /* \"#utility.yul\":1527:1598   */\n      tag_96\n        /* \"#utility.yul\":1595:1596   */\n      0x00\n        /* \"#utility.yul\":1584:1593   */\n      dup4\n        /* \"#utility.yul\":1580:1597   */\n      add\n        /* \"#utility.yul\":1571:1577   */\n      dup5\n        /* \"#utility.yul\":1527:1598   */\n      tag_59\n      jump\t// in\n    tag_96:\n        /* \"#utility.yul\":1383:1605   */\n      swap3\n      swap2\n      pop\n      pop\n      jump\t// out\n        /* \"#utility.yul\":1611:1733   */\n    tag_60:\n        /* \"#utility.yul\":1684:1708   */\n      tag_98\n        /* \"#utility.yul\":1702:1707   */\n      dup2\n        /* \"#utility.yul\":1684:1708   */\n      tag_58\n      jump\t// in\n    tag_98:\n        /* \"#utility.yul\":1677:1682   */\n      dup2\n        /* \"#utility.yul\":1674:1709   */\n      eq\n        /* \"#utility.yul\":1664:1727   */\n      tag_99\n      jumpi\n        /* \"#utility.yul\":1723:1724   */\n      0x00\n        /* \"#utility.yul\":1720:1721   */\n      dup1\n        /* \"#utility.yul\":1713:1725   */\n      revert\n        /* \"#utility.yul\":1664:1727   */\n    tag_99:\n        /* \"#utility.yul\":1611:1733   */\n      pop\n      jump\t// out\n        /* \"#utility.yul\":1739:1878   */\n    tag_61:\n        /* \"#utility.yul\":1785:1790   */\n      0x00\n        /* \"#utility.yul\":1823:1829   */\n      dup2\n        /* \"#utility.yul\":1810:1830   */\n      calldataload\n        /* \"#utility.yul\":1801:1830   */\n      swap1\n      pop\n        /* \"#utility.yul\":1839:1872   */\n      tag_101\n        /* \"#utility.yul\":1866:1871   */\n      dup2\n        /* \"#utility.yul\":1839:1872   */\n      tag_60\n      jump\t// in\n    tag_101:\n        /* \"#utility.yul\":1739:1878   */\n      swap3\n      swap2\n      pop\n      pop\n      jump\t// out\n        /* \"#utility.yul\":1884:2213   */\n    tag_16:\n        /* \"#utility.yul\":1943:1949   */\n      0x00\n        /* \"#utility.yul\":1992:1994   */\n      0x20\n        /* \"#utility.yul\":1980:1989   */\n      dup3\n        /* \"#utility.yul\":1971:1978   */\n      dup5\n        /* \"#utility.yul\":1967:1990   */\n      sub\n        /* \"#utility.yul\":1963:1995   */\n      slt\n        /* \"#utility.yul\":1960:2079   */\n      iszero\n      tag_103\n      jumpi\n        /* \"#utility.yul\":1998:2077   */\n      tag_104\n      tag_52\n      jump\t// in\n    tag_104:\n        /* \"#utility.yul\":1960:2079   */\n    tag_103:\n        /* \"#utility.yul\":2118:2119   */\n      0x00\n        /* \"#utility.yul\":2143:2196   */\n      tag_105\n        /* \"#utility.yul\":2188:2195   */\n      dup5\n        /* \"#utility.yul\":2179:2185   */\n      dup3\n        /* \"#utility.yul\":2168:2177   */\n      dup6\n        /* \"#utility.yul\":2164:2186   */\n      add\n        /* \"#utility.yul\":2143:2196   */\n      tag_61\n      jump\t// in\n    tag_105:\n        /* \"#utility.yul\":2133:2196   */\n      swap2\n      pop\n        /* \"#utility.yul\":2089:2206   */\n      pop\n        /* \"#utility.yul\":1884:2213   */\n      swap3\n      swap2\n      pop\n      pop\n      jump\t// out\n        /* \"#utility.yul\":2219:2337   */\n    tag_62:\n        /* \"#utility.yul\":2306:2330   */\n      tag_107\n        /* \"#utility.yul\":2324:2329   */\n      dup2\n        /* \"#utility.yul\":2306:2330   */\n      tag_55\n      jump\t// in\n    tag_107:\n        /* \"#utility.yul\":2301:2304   */\n      dup3\n        /* \"#utility.yul\":2294:2331   */\n      mstore\n        /* \"#utility.yul\":2219:2337   */\n      pop\n      pop\n      jump\t// out\n        /* \"#utility.yul\":2343:2565   */\n    tag_19:\n        /* \"#utility.yul\":2436:2440   */\n      0x00\n        /* \"#utility.yul\":2474:2476   */\n      0x20\n        /* \"#utility.yul\":2463:2472   */\n      dup3\n        /* \"#utility.yul\":2459:2477   */\n      add\n        /* \"#utility.yul\":2451:2477   */\n      swap1\n      pop\n        /* \"#utility.yul\":2487:2558   */\n      tag_109\n        /* \"#utility.yul\":2555:2556   */\n      0x00\n        /* \"#utility.yul\":2544:2553   */\n      dup4\n        /* \"#utility.yul\":2540:2557   */\n      add\n        /* \"#utility.yul\":2531:2537   */\n      dup5\n        /* \"#utility.yul\":2487:2558   */\n      tag_62\n      jump\t// in\n    tag_109:\n        /* \"#utility.yul\":2343:2565   */\n      swap3\n      swap2\n      pop\n      pop\n      jump\t// out\n        /* \"#utility.yul\":2571:3045   */\n    tag_22:\n        /* \"#utility.yul\":2639:2645   */\n      0x00\n        /* \"#utility.yul\":2647:2653   */\n      dup1\n        /* \"#utility.yul\":2696:2698   */\n      0x40\n        /* \"#utility.yul\":2684:2693   */\n      dup4\n        /* \"#utility.yul\":2675:2682   */\n      dup6\n        /* \"#utility.yul\":2671:2694   */\n      sub\n        /* \"#utility.yul\":2667:2699   */\n      slt\n        /* \"#utility.yul\":2664:2783   */\n      iszero\n      tag_111\n      jumpi\n        /* \"#utility.yul\":2702:2781   */\n      tag_112\n      tag_52\n      jump\t// in\n    tag_112:\n        /* \"#utility.yul\":2664:2783   */\n    tag_111:\n        /* \"#utility.yul\":2822:2823   */\n      0x00\n        /* \"#utility.yul\":2847:2900   */\n      tag_113\n        /* \"#utility.yul\":2892:2899   */\n      dup6\n        /* \"#utility.yul\":2883:2889   */\n      dup3\n        /* \"#utility.yul\":2872:2881   */\n      dup7\n        /* \"#utility.yul\":2868:2890   */\n      add\n        /* \"#utility.yul\":2847:2900   */\n      tag_57\n      jump\t// in\n    tag_113:\n        /* \"#utility.yul\":2837:2900   */\n      swap3\n      pop\n        /* \"#utility.yul\":2793:2910   */\n      pop\n        /* \"#utility.yul\":2949:2951   */\n      0x20\n        /* \"#utility.yul\":2975:3028   */\n      tag_114\n        /* \"#utility.yul\":3020:3027   */\n      dup6\n        /* \"#utility.yul\":3011:3017   */\n      dup3\n        /* \"#utility.yul\":3000:3009   */\n      dup7\n        /* \"#utility.yul\":2996:3018   */\n      add\n        /* \"#utility.yul\":2975:3028   */\n      tag_61\n      jump\t// in\n    tag_114:\n        /* \"#utility.yul\":2965:3028   */\n      swap2\n      pop\n        /* \"#utility.yul\":2920:3038   */\n      pop\n        /* \"#utility.yul\":2571:3045   */\n      swap3\n      pop\n      swap3\n      swap1\n      pop\n      jump\t// out\n        /* \"#utility.yul\":3051:3165   */\n    tag_63:\n        /* \"#utility.yul\":3118:3124   */\n      0x00\n        /* \"#utility.yul\":3152:3157   */\n      dup2\n        /* \"#utility.yul\":3146:3158   */\n      mload\n        /* \"#utility.yul\":3136:3158   */\n      swap1\n      pop\n        /* \"#utility.yul\":3051:3165   */\n      swap2\n      swap1\n      pop\n      jump\t// out\n        /* \"#utility.yul\":3171:3355   */\n    tag_64:\n        /* \"#utility.yul\":3270:3281   */\n      0x00\n        /* \"#utility.yul\":3304:3310   */\n      dup3\n        /* \"#utility.yul\":3299:3302   */\n      dup3\n        /* \"#utility.yul\":3292:3311   */\n      mstore\n        /* \"#utility.yul\":3344:3348   */\n      0x20\n        /* \"#utility.yul\":3339:3342   */\n      dup3\n        /* \"#utility.yul\":3335:3349   */\n      add\n        /* \"#utility.yul\":3320:3349   */\n      swap1\n      pop\n        /* \"#utility.yul\":3171:3355   */\n      swap3\n      swap2\n      pop\n      pop\n      jump\t// out\n        /* \"#utility.yul\":3361:3493   */\n    tag_65:\n        /* \"#utility.yul\":3428:3432   */\n      0x00\n        /* \"#utility.yul\":3451:3454   */\n      dup2\n        /* \"#utility.yul\":3443:3454   */\n      swap1\n      pop\n        /* \"#utility.yul\":3481:3485   */\n      0x20\n        /* \"#utility.yul\":3476:3479   */\n      dup3\n        /* \"#utility.yul\":3472:3486   */\n      add\n        /* \"#utility.yul\":3464:3486   */\n      swap1\n      pop\n        /* \"#utility.yul\":3361:3493   */\n      swap2\n      swap1\n      pop\n      jump\t// out\n        /* \"#utility.yul\":3499:3607   */\n    tag_66:\n        /* \"#utility.yul\":3576:3600   */\n      tag_119\n        /* \"#utility.yul\":3594:3599   */\n      dup2\n        /* \"#utility.yul\":3576:3600   */\n      tag_55\n      jump\t// in\n    tag_119:\n        /* \"#utility.yul\":3571:3574   */\n      dup3\n        /* \"#utility.yul\":3564:3601   */\n      mstore\n        /* \"#utility.yul\":3499:3607   */\n      pop\n      pop\n      jump\t// out\n        /* \"#utility.yul\":3613:3792   */\n    tag_67:\n        /* \"#utility.yul\":3682:3692   */\n      0x00\n        /* \"#utility.yul\":3703:3749   */\n      tag_121\n        /* \"#utility.yul\":3745:3748   */\n      dup4\n        /* \"#utility.yul\":3737:3743   */\n      dup4\n        /* \"#utility.yul\":3703:3749   */\n      tag_66\n      jump\t// in\n    tag_121:\n        /* \"#utility.yul\":3781:3785   */\n      0x20\n        /* \"#utility.yul\":3776:3779   */\n      dup4\n        /* \"#utility.yul\":3772:3786   */\n      add\n        /* \"#utility.yul\":3758:3786   */\n      swap1\n      pop\n        /* \"#utility.yul\":3613:3792   */\n      swap3\n      swap2\n      pop\n      pop\n      jump\t// out\n        /* \"#utility.yul\":3798:3911   */\n    tag_68:\n        /* \"#utility.yul\":3868:3872   */\n      0x00\n        /* \"#utility.yul\":3900:3904   */\n      0x20\n        /* \"#utility.yul\":3895:3898   */\n      dup3\n        /* \"#utility.yul\":3891:3905   */\n      add\n        /* \"#utility.yul\":3883:3905   */\n      swap1\n      pop\n        /* \"#utility.yul\":3798:3911   */\n      swap2\n      swap1\n      pop\n      jump\t// out\n        /* \"#utility.yul\":3947:4679   */\n    tag_69:\n        /* \"#utility.yul\":4066:4069   */\n      0x00\n        /* \"#utility.yul\":4095:4149   */\n      tag_124\n        /* \"#utility.yul\":4143:4148   */\n      dup3\n        /* \"#utility.yul\":4095:4149   */\n      tag_63\n      jump\t// in\n    tag_124:\n        /* \"#utility.yul\":4165:4251   */\n      tag_125\n        /* \"#utility.yul\":4244:4250   */\n      dup2\n        /* \"#utility.yul\":4239:4242   */\n      dup6\n        /* \"#utility.yul\":4165:4251   */\n      tag_64\n      jump\t// in\n    tag_125:\n        /* \"#utility.yul\":4158:4251   */\n      swap4\n      pop\n        /* \"#utility.yul\":4275:4331   */\n      tag_126\n        /* \"#utility.yul\":4325:4330   */\n      dup4\n        /* \"#utility.yul\":4275:4331   */\n      tag_65\n      jump\t// in\n    tag_126:\n        /* \"#utility.yul\":4354:4361   */\n      dup1\n        /* \"#utility.yul\":4385:4386   */\n      0x00\n        /* \"#utility.yul\":4370:4654   */\n    tag_127:\n        /* \"#utility.yul\":4395:4401   */\n      dup4\n        /* \"#utility.yul\":4392:4393   */\n      dup2\n        /* \"#utility.yul\":4389:4402   */\n      lt\n        /* \"#utility.yul\":4370:4654   */\n      iszero\n      tag_129\n      jumpi\n        /* \"#utility.yul\":4471:4477   */\n      dup2\n        /* \"#utility.yul\":4465:4478   */\n      mload\n        /* \"#utility.yul\":4498:4561   */\n      tag_130\n        /* \"#utility.yul\":4557:4560   */\n      dup9\n        /* \"#utility.yul\":4542:4555   */\n      dup3\n        /* \"#utility.yul\":4498:4561   */\n      tag_67\n      jump\t// in\n    tag_130:\n        /* \"#utility.yul\":4491:4561   */\n      swap8\n      pop\n        /* \"#utility.yul\":4584:4644   */\n      tag_131\n        /* \"#utility.yul\":4637:4643   */\n      dup4\n        /* \"#utility.yul\":4584:4644   */\n      tag_68\n      jump\t// in\n    tag_131:\n        /* \"#utility.yul\":4574:4644   */\n      swap3\n      pop\n        /* \"#utility.yul\":4430:4654   */\n      pop\n        /* \"#utility.yul\":4417:4418   */\n      0x01\n        /* \"#utility.yul\":4414:4415   */\n      dup2\n        /* \"#utility.yul\":4410:4419   */\n      add\n        /* \"#utility.yul\":4405:4419   */\n      swap1\n      pop\n        /* \"#utility.yul\":4370:4654   */\n      jump(tag_127)\n    tag_129:\n        /* \"#utility.yul\":4374:4388   */\n      pop\n        /* \"#utility.yul\":4670:4673   */\n      dup6\n        /* \"#utility.yul\":4663:4673   */\n      swap4\n      pop\n        /* \"#utility.yul\":4071:4679   */\n      pop\n      pop\n      pop\n        /* \"#utility.yul\":3947:4679   */\n      swap3\n      swap2\n      pop\n      pop\n      jump\t// out\n        /* \"#utility.yul\":4685:5058   */\n    tag_32:\n        /* \"#utility.yul\":4828:4832   */\n      0x00\n        /* \"#utility.yul\":4866:4868   */\n      0x20\n        /* \"#utility.yul\":4855:4864   */\n      dup3\n        /* \"#utility.yul\":4851:4869   */\n      add\n        /* \"#utility.yul\":4843:4869   */\n      swap1\n      pop\n        /* \"#utility.yul\":4915:4924   */\n      dup2\n        /* \"#utility.yul\":4909:4913   */\n      dup2\n        /* \"#utility.yul\":4905:4925   */\n      sub\n        /* \"#utility.yul\":4901:4902   */\n      0x00\n        /* \"#utility.yul\":4890:4899   */\n      dup4\n        /* \"#utility.yul\":4886:4903   */\n      add\n        /* \"#utility.yul\":4879:4926   */\n      mstore\n        /* \"#utility.yul\":4943:5051   */\n      tag_133\n        /* \"#utility.yul\":5046:5050   */\n      dup2\n        /* \"#utility.yul\":5037:5043   */\n      dup5\n        /* \"#utility.yul\":4943:5051   */\n      tag_69\n      jump\t// in\n    tag_133:\n        /* \"#utility.yul\":4935:5051   */\n      swap1\n      pop\n        /* \"#utility.yul\":4685:5058   */\n      swap3\n      swap2\n      pop\n      pop\n      jump\t// out\n        /* \"#utility.yul\":5064:5233   */\n    tag_70:\n        /* \"#utility.yul\":5148:5159   */\n      0x00\n        /* \"#utility.yul\":5182:5188   */\n      dup3\n        /* \"#utility.yul\":5177:5180   */\n      dup3\n        /* \"#utility.yul\":5170:5189   */\n      mstore\n        /* \"#utility.yul\":5222:5226   */\n      0x20\n        /* \"#utility.yul\":5217:5220   */\n      dup3\n        /* \"#utility.yul\":5213:5227   */\n      add\n        /* \"#utility.yul\":5198:5227   */\n      swap1\n      pop\n        /* \"#utility.yul\":5064:5233   */\n      swap3\n      swap2\n      pop\n      pop\n      jump\t// out\n        /* \"#utility.yul\":5239:5406   */\n    tag_71:\n        /* \"#utility.yul\":5379:5398   */\n      0x616d6f756e74206e6f7420656e6f756768000000000000000000000000000000\n        /* \"#utility.yul\":5375:5376   */\n      0x00\n        /* \"#utility.yul\":5367:5373   */\n      dup3\n        /* \"#utility.yul\":5363:5377   */\n      add\n        /* \"#utility.yul\":5356:5399   */\n      mstore\n        /* \"#utility.yul\":5239:5406   */\n      pop\n      jump\t// out\n        /* \"#utility.yul\":5412:5778   */\n    tag_72:\n        /* \"#utility.yul\":5554:5557   */\n      0x00\n        /* \"#utility.yul\":5575:5642   */\n      tag_137\n        /* \"#utility.yul\":5639:5641   */\n      0x11\n        /* \"#utility.yul\":5634:5637   */\n      dup4\n        /* \"#utility.yul\":5575:5642   */\n      tag_70\n      jump\t// in\n    tag_137:\n        /* \"#utility.yul\":5568:5642   */\n      swap2\n      pop\n        /* \"#utility.yul\":5651:5744   */\n      tag_138\n        /* \"#utility.yul\":5740:5743   */\n      dup3\n        /* \"#utility.yul\":5651:5744   */\n      tag_71\n      jump\t// in\n    tag_138:\n        /* \"#utility.yul\":5769:5771   */\n      0x20\n        /* \"#utility.yul\":5764:5767   */\n      dup3\n        /* \"#utility.yul\":5760:5772   */\n      add\n        /* \"#utility.yul\":5753:5772   */\n      swap1\n      pop\n        /* \"#utility.yul\":5412:5778   */\n      swap2\n      swap1\n      pop\n      jump\t// out\n        /* \"#utility.yul\":5784:6203   */\n    tag_38:\n        /* \"#utility.yul\":5950:5954   */\n      0x00\n        /* \"#utility.yul\":5988:5990   */\n      0x20\n        /* \"#utility.yul\":5977:5986   */\n      dup3\n        /* \"#utility.yul\":5973:5991   */\n      add\n        /* \"#utility.yul\":5965:5991   */\n      swap1\n      pop\n        /* \"#utility.yul\":6037:6046   */\n      dup2\n        /* \"#utility.yul\":6031:6035   */\n      dup2\n        /* \"#utility.yul\":6027:6047   */\n      sub\n        /* \"#utility.yul\":6023:6024   */\n      0x00\n        /* \"#utility.yul\":6012:6021   */\n      dup4\n        /* \"#utility.yul\":6008:6025   */\n      add\n        /* \"#utility.yul\":6001:6048   */\n      mstore\n        /* \"#utility.yul\":6065:6196   */\n      tag_140\n        /* \"#utility.yul\":6191:6195   */\n      dup2\n        /* \"#utility.yul\":6065:6196   */\n      tag_72\n      jump\t// in\n    tag_140:\n        /* \"#utility.yul\":6057:6196   */\n      swap1\n      pop\n        /* \"#utility.yul\":5784:6203   */\n      swap2\n      swap1\n      pop\n      jump\t// out\n        /* \"#utility.yul\":6209:6389   */\n    tag_73:\n        /* \"#utility.yul\":6257:6334   */\n      0x4e487b7100000000000000000000000000000000000000000000000000000000\n        /* \"#utility.yul\":6254:6255   */\n      0x00\n        /* \"#utility.yul\":6247:6335   */\n      mstore\n        /* \"#utility.yul\":6354:6358   */\n      0x11\n        /* \"#utility.yul\":6351:6352   */\n      0x04\n        /* \"#utility.yul\":6344:6359   */\n      mstore\n        /* \"#utility.yul\":6378:6382   */\n      0x24\n        /* \"#utility.yul\":6375:6376   */\n      0x00\n        /* \"#utility.yul\":6368:6383   */\n      revert\n        /* \"#utility.yul\":6395:6589   */\n    tag_40:\n        /* \"#utility.yul\":6435:6439   */\n      0x00\n        /* \"#utility.yul\":6455:6475   */\n      tag_143\n        /* \"#utility.yul\":6473:6474   */\n      dup3\n        /* \"#utility.yul\":6455:6475   */\n      tag_58\n      jump\t// in\n    tag_143:\n        /* \"#utility.yul\":6450:6475   */\n      swap2\n      pop\n        /* \"#utility.yul\":6489:6509   */\n      tag_144\n        /* \"#utility.yul\":6507:6508   */\n      dup4\n        /* \"#utility.yul\":6489:6509   */\n      tag_58\n      jump\t// in\n    tag_144:\n        /* \"#utility.yul\":6484:6509   */\n      swap3\n      pop\n        /* \"#utility.yul\":6533:6534   */\n      dup3\n        /* \"#utility.yul\":6530:6531   */\n      dup3\n        /* \"#utility.yul\":6526:6535   */\n      sub\n        /* \"#utility.yul\":6518:6535   */\n      swap1\n      pop\n        /* \"#utility.yul\":6557:6558   */\n      dup2\n        /* \"#utility.yul\":6551:6555   */\n      dup2\n        /* \"#utility.yul\":6548:6559   */\n      gt\n        /* \"#utility.yul\":6545:6582   */\n      iszero\n      tag_145\n      jumpi\n        /* \"#utility.yul\":6562:6580   */\n      tag_146\n      tag_73\n      jump\t// in\n    tag_146:\n        /* \"#utility.yul\":6545:6582   */\n    tag_145:\n        /* \"#utility.yul\":6395:6589   */\n      swap3\n      swap2\n      pop\n      pop\n      jump\t// out\n        /* \"#utility.yul\":6595:6786   */\n    tag_42:\n        /* \"#utility.yul\":6635:6638   */\n      0x00\n        /* \"#utility.yul\":6654:6674   */\n      tag_148\n        /* \"#utility.yul\":6672:6673   */\n      dup3\n        /* \"#utility.yul\":6654:6674   */\n      tag_58\n      jump\t// in\n    tag_148:\n        /* \"#utility.yul\":6649:6674   */\n      swap2\n      pop\n        /* \"#utility.yul\":6688:6708   */\n      tag_149\n        /* \"#utility.yul\":6706:6707   */\n      dup4\n        /* \"#utility.yul\":6688:6708   */\n      tag_58\n      jump\t// in\n    tag_149:\n        /* \"#utility.yul\":6683:6708   */\n      swap3\n      pop\n        /* \"#utility.yul\":6731:6732   */\n      dup3\n        /* \"#utility.yul\":6728:6729   */\n      dup3\n        /* \"#utility.yul\":6724:6733   */\n      add\n        /* \"#utility.yul\":6717:6733   */\n      swap1\n      pop\n        /* \"#utility.yul\":6752:6755   */\n      dup1\n        /* \"#utility.yul\":6749:6750   */\n      dup3\n        /* \"#utility.yul\":6746:6756   */\n      gt\n        /* \"#utility.yul\":6743:6779   */\n      iszero\n      tag_150\n      jumpi\n        /* \"#utility.yul\":6759:6777   */\n      tag_151\n      tag_73\n      jump\t// in\n    tag_151:\n        /* \"#utility.yul\":6743:6779   */\n    tag_150:\n        /* \"#utility.yul\":6595:6786   */\n      swap3\n      swap2\n      pop\n      pop\n      jump\t// out\n        /* \"#utility.yul\":6792:6953   */\n    tag_74:\n        /* \"#utility.yul\":6932:6945   */\n      0x65786974206163636f7574000000000000000000000000000000000000000000\n        /* \"#utility.yul\":6928:6929   */\n      0x00\n        /* \"#utility.yul\":6920:6926   */\n      dup3\n        /* \"#utility.yul\":6916:6930   */\n      add\n        /* \"#utility.yul\":6909:6946   */\n      mstore\n        /* \"#utility.yul\":6792:6953   */\n      pop\n      jump\t// out\n        /* \"#utility.yul\":6959:7325   */\n    tag_75:\n        /* \"#utility.yul\":7101:7104   */\n      0x00\n        /* \"#utility.yul\":7122:7189   */\n      tag_154\n        /* \"#utility.yul\":7186:7188   */\n      0x0b\n        /* \"#utility.yul\":7181:7184   */\n      dup4\n        /* \"#utility.yul\":7122:7189   */\n      tag_70\n      jump\t// in\n    tag_154:\n        /* \"#utility.yul\":7115:7189   */\n      swap2\n      pop\n        /* \"#utility.yul\":7198:7291   */\n      tag_155\n        /* \"#utility.yul\":7287:7290   */\n      dup3\n        /* \"#utility.yul\":7198:7291   */\n      tag_74\n      jump\t// in\n    tag_155:\n        /* \"#utility.yul\":7316:7318   */\n      0x20\n        /* \"#utility.yul\":7311:7314   */\n      dup3\n        /* \"#utility.yul\":7307:7319   */\n      add\n        /* \"#utility.yul\":7300:7319   */\n      swap1\n      pop\n        /* \"#utility.yul\":6959:7325   */\n      swap2\n      swap1\n      pop\n      jump\t// out\n        /* \"#utility.yul\":7331:7750   */\n    tag_46:\n        /* \"#utility.yul\":7497:7501   */\n      0x00\n        /* \"#utility.yul\":7535:7537   */\n      0x20\n        /* \"#utility.yul\":7524:7533   */\n      dup3\n        /* \"#utility.yul\":7520:7538   */\n      add\n        /* \"#utility.yul\":7512:7538   */\n      swap1\n      pop\n        /* \"#utility.yul\":7584:7593   */\n      dup2\n        /* \"#utility.yul\":7578:7582   */\n      dup2\n        /* \"#utility.yul\":7574:7594   */\n      sub\n        /* \"#utility.yul\":7570:7571   */\n      0x00\n        /* \"#utility.yul\":7559:7568   */\n      dup4\n        /* \"#utility.yul\":7555:7572   */\n      add\n        /* \"#utility.yul\":7548:7595   */\n      mstore\n        /* \"#utility.yul\":7612:7743   */\n      tag_157\n        /* \"#utility.yul\":7738:7742   */\n      dup2\n        /* \"#utility.yul\":7612:7743   */\n      tag_75\n      jump\t// in\n    tag_157:\n        /* \"#utility.yul\":7604:7743   */\n      swap1\n      pop\n        /* \"#utility.yul\":7331:7750   */\n      swap2\n      swap1\n      pop\n      jump\t// out\n\n    auxdata: 0xa264697066735822122026e2eaa9c95ef890d131833bdda997d59e13a4cc12eabde23ee7de9e362eb6b264736f6c634300081a0033\n}\n",
				"bytecode": {
					"linkReferences": {},
					"object": "6080604052348015600e575f80fd5b506108d48061001c5f395ff3fe608060405234801561000f575f80fd5b5060043610610055575f3560e01c8063358b816614610059578063365b98b2146100895780633a3547f5146100b9578063421b2d8b146100e9578063913ccf9714610119575b5f80fd5b610073600480360381019061006e919061053d565b610137565b6040516100809190610580565b60405180910390f35b6100a3600480360381019061009e91906105c3565b61014b565b6040516100b091906105fd565b60405180910390f35b6100d360048036038101906100ce9190610616565b610186565b6040516100e09190610580565b60405180910390f35b61010360048036038101906100fe919061053d565b6102ef565b6040516101109190610580565b60405180910390f35b610121610454565b60405161012e919061070b565b60405180910390f35b5f602052805f5260405f205f915090505481565b6001818154811061015a575f80fd5b905f5260205f20015f915054906101000a900473ffffffffffffffffffffffffffffffffffffffff1681565b5f815f803373ffffffffffffffffffffffffffffffffffffffff1673ffffffffffffffffffffffffffffffffffffffff1681526020019081526020015f20541015610206576040517f08c379a00000000000000000000000000000000000000000000000000000000081526004016101fd90610785565b60405180910390fd5b815f803373ffffffffffffffffffffffffffffffffffffffff1673ffffffffffffffffffffffffffffffffffffffff1681526020019081526020015f205f82825461025191906107d0565b92505081905550815f808573ffffffffffffffffffffffffffffffffffffffff1673ffffffffffffffffffffffffffffffffffffffff1681526020019081526020015f205f8282546102a39190610803565b925050819055505f808473ffffffffffffffffffffffffffffffffffffffff1673ffffffffffffffffffffffffffffffffffffffff1681526020019081526020015f2054905092915050565b5f805f808473ffffffffffffffffffffffffffffffffffffffff1673ffffffffffffffffffffffffffffffffffffffff1681526020019081526020015f20541461036e576040517f08c379a000000000000000000000000000000000000000000000000000000000815260040161036590610880565b60405180910390fd5b60645f808473ffffffffffffffffffffffffffffffffffffffff1673ffffffffffffffffffffffffffffffffffffffff1681526020019081526020015f2081905550600182908060018154018082558091505060019003905f5260205f20015f9091909190916101000a81548173ffffffffffffffffffffffffffffffffffffffff021916908373ffffffffffffffffffffffffffffffffffffffff1602179055505f808373ffffffffffffffffffffffffffffffffffffffff1673ffffffffffffffffffffffffffffffffffffffff1681526020019081526020015f20549050919050565b606060018054806020026020016040519081016040528092919081815260200182805480156104d557602002820191905f5260205f20905b815f9054906101000a900473ffffffffffffffffffffffffffffffffffffffff1673ffffffffffffffffffffffffffffffffffffffff168152602001906001019080831161048c575b5050505050905090565b5f80fd5b5f73ffffffffffffffffffffffffffffffffffffffff82169050919050565b5f61050c826104e3565b9050919050565b61051c81610502565b8114610526575f80fd5b50565b5f8135905061053781610513565b92915050565b5f60208284031215610552576105516104df565b5b5f61055f84828501610529565b91505092915050565b5f819050919050565b61057a81610568565b82525050565b5f6020820190506105935f830184610571565b92915050565b6105a281610568565b81146105ac575f80fd5b50565b5f813590506105bd81610599565b92915050565b5f602082840312156105d8576105d76104df565b5b5f6105e5848285016105af565b91505092915050565b6105f781610502565b82525050565b5f6020820190506106105f8301846105ee565b92915050565b5f806040838503121561062c5761062b6104df565b5b5f61063985828601610529565b925050602061064a858286016105af565b9150509250929050565b5f81519050919050565b5f82825260208201905092915050565b5f819050602082019050919050565b61068681610502565b82525050565b5f610697838361067d565b60208301905092915050565b5f602082019050919050565b5f6106b982610654565b6106c3818561065e565b93506106ce8361066e565b805f5b838110156106fe5781516106e5888261068c565b97506106f0836106a3565b9250506001810190506106d1565b5085935050505092915050565b5f6020820190508181035f83015261072381846106af565b905092915050565b5f82825260208201905092915050565b7f616d6f756e74206e6f7420656e6f7567680000000000000000000000000000005f82015250565b5f61076f60118361072b565b915061077a8261073b565b602082019050919050565b5f6020820190508181035f83015261079c81610763565b9050919050565b7f4e487b71000000000000000000000000000000000000000000000000000000005f52601160045260245ffd5b5f6107da82610568565b91506107e583610568565b92508282039050818111156107fd576107fc6107a3565b5b92915050565b5f61080d82610568565b915061081883610568565b92508282019050808211156108305761082f6107a3565b5b92915050565b7f65786974206163636f75740000000000000000000000000000000000000000005f82015250565b5f61086a600b8361072b565b915061087582610836565b602082019050919050565b5f6020820190508181035f8301526108978161085e565b905091905056fea264697066735822122026e2eaa9c95ef890d131833bdda997d59e13a4cc12eabde23ee7de9e362eb6b264736f6c634300081a0033",
					"opcodes": "PUSH1 0x80 PUSH1 0x40 MSTORE CALLVALUE DUP1 ISZERO PUSH1 0xE JUMPI PUSH0 DUP1 REVERT JUMPDEST POP PUSH2 0x8D4 DUP1 PUSH2 0x1C PUSH0 CODECOPY PUSH0 RETURN INVALID PUSH1 0x80 PUSH1 0x40 MSTORE CALLVALUE DUP1 ISZERO PUSH2 0xF JUMPI PUSH0 DUP1 REVERT JUMPDEST POP PUSH1 0x4 CALLDATASIZE LT PUSH2 0x55 JUMPI PUSH0 CALLDATALOAD PUSH1 0xE0 SHR DUP1 PUSH4 0x358B8166 EQ PUSH2 0x59 JUMPI DUP1 PUSH4 0x365B98B2 EQ PUSH2 0x89 JUMPI DUP1 PUSH4 0x3A3547F5 EQ PUSH2 0xB9 JUMPI DUP1 PUSH4 0x421B2D8B EQ PUSH2 0xE9 JUMPI DUP1 PUSH4 0x913CCF97 EQ PUSH2 0x119 JUMPI JUMPDEST PUSH0 DUP1 REVERT JUMPDEST PUSH2 0x73 PUSH1 0x4 DUP1 CALLDATASIZE SUB DUP2 ADD SWAP1 PUSH2 0x6E SWAP2 SWAP1 PUSH2 0x53D JUMP JUMPDEST PUSH2 0x137 JUMP JUMPDEST PUSH1 0x40 MLOAD PUSH2 0x80 SWAP2 SWAP1 PUSH2 0x580 JUMP JUMPDEST PUSH1 0x40 MLOAD DUP1 SWAP2 SUB SWAP1 RETURN JUMPDEST PUSH2 0xA3 PUSH1 0x4 DUP1 CALLDATASIZE SUB DUP2 ADD SWAP1 PUSH2 0x9E SWAP2 SWAP1 PUSH2 0x5C3 JUMP JUMPDEST PUSH2 0x14B JUMP JUMPDEST PUSH1 0x40 MLOAD PUSH2 0xB0 SWAP2 SWAP1 PUSH2 0x5FD JUMP JUMPDEST PUSH1 0x40 MLOAD DUP1 SWAP2 SUB SWAP1 RETURN JUMPDEST PUSH2 0xD3 PUSH1 0x4 DUP1 CALLDATASIZE SUB DUP2 ADD SWAP1 PUSH2 0xCE SWAP2 SWAP1 PUSH2 0x616 JUMP JUMPDEST PUSH2 0x186 JUMP JUMPDEST PUSH1 0x40 MLOAD PUSH2 0xE0 SWAP2 SWAP1 PUSH2 0x580 JUMP JUMPDEST PUSH1 0x40 MLOAD DUP1 SWAP2 SUB SWAP1 RETURN JUMPDEST PUSH2 0x103 PUSH1 0x4 DUP1 CALLDATASIZE SUB DUP2 ADD SWAP1 PUSH2 0xFE SWAP2 SWAP1 PUSH2 0x53D JUMP JUMPDEST PUSH2 0x2EF JUMP JUMPDEST PUSH1 0x40 MLOAD PUSH2 0x110 SWAP2 SWAP1 PUSH2 0x580 JUMP JUMPDEST PUSH1 0x40 MLOAD DUP1 SWAP2 SUB SWAP1 RETURN JUMPDEST PUSH2 0x121 PUSH2 0x454 JUMP JUMPDEST PUSH1 0x40 MLOAD PUSH2 0x12E SWAP2 SWAP1 PUSH2 0x70B JUMP JUMPDEST PUSH1 0x40 MLOAD DUP1 SWAP2 SUB SWAP1 RETURN JUMPDEST PUSH0 PUSH1 0x20 MSTORE DUP1 PUSH0 MSTORE PUSH1 0x40 PUSH0 KECCAK256 PUSH0 SWAP2 POP SWAP1 POP SLOAD DUP2 JUMP JUMPDEST PUSH1 0x1 DUP2 DUP2 SLOAD DUP2 LT PUSH2 0x15A JUMPI PUSH0 DUP1 REVERT JUMPDEST SWAP1 PUSH0 MSTORE PUSH1 0x20 PUSH0 KECCAK256 ADD PUSH0 SWAP2 POP SLOAD SWAP1 PUSH2 0x100 EXP SWAP1 DIV PUSH20 0xFFFFFFFFFFFFFFFFFFFFFFFFFFFFFFFFFFFFFFFF AND DUP2 JUMP JUMPDEST PUSH0 DUP2 PUSH0 DUP1 CALLER PUSH20 0xFFFFFFFFFFFFFFFFFFFFFFFFFFFFFFFFFFFFFFFF AND PUSH20 0xFFFFFFFFFFFFFFFFFFFFFFFFFFFFFFFFFFFFFFFF AND DUP2 MSTORE PUSH1 0x20 ADD SWAP1 DUP2 MSTORE PUSH1 0x20 ADD PUSH0 KECCAK256 SLOAD LT ISZERO PUSH2 0x206 JUMPI PUSH1 0x40 MLOAD PUSH32 0x8C379A000000000000000000000000000000000000000000000000000000000 DUP2 MSTORE PUSH1 0x4 ADD PUSH2 0x1FD SWAP1 PUSH2 0x785 JUMP JUMPDEST PUSH1 0x40 MLOAD DUP1 SWAP2 SUB SWAP1 REVERT JUMPDEST DUP2 PUSH0 DUP1 CALLER PUSH20 0xFFFFFFFFFFFFFFFFFFFFFFFFFFFFFFFFFFFFFFFF AND PUSH20 0xFFFFFFFFFFFFFFFFFFFFFFFFFFFFFFFFFFFFFFFF AND DUP2 MSTORE PUSH1 0x20 ADD SWAP1 DUP2 MSTORE PUSH1 0x20 ADD PUSH0 KECCAK256 PUSH0 DUP3 DUP3 SLOAD PUSH2 0x251 SWAP2 SWAP1 PUSH2 0x7D0 JUMP JUMPDEST SWAP3 POP POP DUP2 SWAP1 SSTORE POP DUP2 PUSH0 DUP1 DUP6 PUSH20 0xFFFFFFFFFFFFFFFFFFFFFFFFFFFFFFFFFFFFFFFF AND PUSH20 0xFFFFFFFFFFFFFFFFFFFFFFFFFFFFFFFFFFFFFFFF AND DUP2 MSTORE PUSH1 0x20 ADD SWAP1 DUP2 MSTORE PUSH1 0x20 ADD PUSH0 KECCAK256 PUSH0 DUP3 DUP3 SLOAD PUSH2 0x2A3 SWAP2 SWAP1 PUSH2 0x803 JUMP JUMPDEST SWAP3 POP POP DUP2 SWAP1 SSTORE POP PUSH0 DUP1 DUP5 PUSH20 0xFFFFFFFFFFFFFFFFFFFFFFFFFFFFFFFFFFFFFFFF AND PUSH20 0xFFFFFFFFFFFFFFFFFFFFFFFFFFFFFFFFFFFFFFFF AND DUP2 MSTORE PUSH1 0x20 ADD SWAP1 DUP2 MSTORE PUSH1 0x20 ADD PUSH0 KECCAK256 SLOAD SWAP1 POP SWAP3 SWAP2 POP POP JUMP JUMPDEST PUSH0 DUP1 PUSH0 DUP1 DUP5 PUSH20 0xFFFFFFFFFFFFFFFFFFFFFFFFFFFFFFFFFFFFFFFF AND PUSH20 0xFFFFFFFFFFFFFFFFFFFFFFFFFFFFFFFFFFFFFFFF AND DUP2 MSTORE PUSH1 0x20 ADD SWAP1 DUP2 MSTORE PUSH1 0x20 ADD PUSH0 KECCAK256 SLOAD EQ PUSH2 0x36E JUMPI PUSH1 0x40 MLOAD PUSH32 0x8C379A000000000000000000000000000000000000000000000000000000000 DUP2 MSTORE PUSH1 0x4 ADD PUSH2 0x365 SWAP1 PUSH2 0x880 JUMP JUMPDEST PUSH1 0x40 MLOAD DUP1 SWAP2 SUB SWAP1 REVERT JUMPDEST PUSH1 0x64 PUSH0 DUP1 DUP5 PUSH20 0xFFFFFFFFFFFFFFFFFFFFFFFFFFFFFFFFFFFFFFFF AND PUSH20 0xFFFFFFFFFFFFFFFFFFFFFFFFFFFFFFFFFFFFFFFF AND DUP2 MSTORE PUSH1 0x20 ADD SWAP1 DUP2 MSTORE PUSH1 0x20 ADD PUSH0 KECCAK256 DUP2 SWAP1 SSTORE POP PUSH1 0x1 DUP3 SWAP1 DUP1 PUSH1 0x1 DUP2 SLOAD ADD DUP1 DUP3 SSTORE DUP1 SWAP2 POP POP PUSH1 0x1 SWAP1 SUB SWAP1 PUSH0 MSTORE PUSH1 0x20 PUSH0 KECCAK256 ADD PUSH0 SWAP1 SWAP2 SWAP1 SWAP2 SWAP1 SWAP2 PUSH2 0x100 EXP DUP2 SLOAD DUP2 PUSH20 0xFFFFFFFFFFFFFFFFFFFFFFFFFFFFFFFFFFFFFFFF MUL NOT AND SWAP1 DUP4 PUSH20 0xFFFFFFFFFFFFFFFFFFFFFFFFFFFFFFFFFFFFFFFF AND MUL OR SWAP1 SSTORE POP PUSH0 DUP1 DUP4 PUSH20 0xFFFFFFFFFFFFFFFFFFFFFFFFFFFFFFFFFFFFFFFF AND PUSH20 0xFFFFFFFFFFFFFFFFFFFFFFFFFFFFFFFFFFFFFFFF AND DUP2 MSTORE PUSH1 0x20 ADD SWAP1 DUP2 MSTORE PUSH1 0x20 ADD PUSH0 KECCAK256 SLOAD SWAP1 POP SWAP2 SWAP1 POP JUMP JUMPDEST PUSH1 0x60 PUSH1 0x1 DUP1 SLOAD DUP1 PUSH1 0x20 MUL PUSH1 0x20 ADD PUSH1 0x40 MLOAD SWAP1 DUP2 ADD PUSH1 0x40 MSTORE DUP1 SWAP3 SWAP2 SWAP1 DUP2 DUP2 MSTORE PUSH1 0x20 ADD DUP3 DUP1 SLOAD DUP1 ISZERO PUSH2 0x4D5 JUMPI PUSH1 0x20 MUL DUP3 ADD SWAP2 SWAP1 PUSH0 MSTORE PUSH1 0x20 PUSH0 KECCAK256 SWAP1 JUMPDEST DUP2 PUSH0 SWAP1 SLOAD SWAP1 PUSH2 0x100 EXP SWAP1 DIV PUSH20 0xFFFFFFFFFFFFFFFFFFFFFFFFFFFFFFFFFFFFFFFF AND PUSH20 0xFFFFFFFFFFFFFFFFFFFFFFFFFFFFFFFFFFFFFFFF AND DUP2 MSTORE PUSH1 0x20 ADD SWAP1 PUSH1 0x1 ADD SWAP1 DUP1 DUP4 GT PUSH2 0x48C JUMPI JUMPDEST POP POP POP POP POP SWAP1 POP SWAP1 JUMP JUMPDEST PUSH0 DUP1 REVERT JUMPDEST PUSH0 PUSH20 0xFFFFFFFFFFFFFFFFFFFFFFFFFFFFFFFFFFFFFFFF DUP3 AND SWAP1 POP SWAP2 SWAP1 POP JUMP JUMPDEST PUSH0 PUSH2 0x50C DUP3 PUSH2 0x4E3 JUMP JUMPDEST SWAP1 POP SWAP2 SWAP1 POP JUMP JUMPDEST PUSH2 0x51C DUP2 PUSH2 0x502 JUMP JUMPDEST DUP2 EQ PUSH2 0x526 JUMPI PUSH0 DUP1 REVERT JUMPDEST POP JUMP JUMPDEST PUSH0 DUP2 CALLDATALOAD SWAP1 POP PUSH2 0x537 DUP2 PUSH2 0x513 JUMP JUMPDEST SWAP3 SWAP2 POP POP JUMP JUMPDEST PUSH0 PUSH1 0x20 DUP3 DUP5 SUB SLT ISZERO PUSH2 0x552 JUMPI PUSH2 0x551 PUSH2 0x4DF JUMP JUMPDEST JUMPDEST PUSH0 PUSH2 0x55F DUP5 DUP3 DUP6 ADD PUSH2 0x529 JUMP JUMPDEST SWAP2 POP POP SWAP3 SWAP2 POP POP JUMP JUMPDEST PUSH0 DUP2 SWAP1 POP SWAP2 SWAP1 POP JUMP JUMPDEST PUSH2 0x57A DUP2 PUSH2 0x568 JUMP JUMPDEST DUP3 MSTORE POP POP JUMP JUMPDEST PUSH0 PUSH1 0x20 DUP3 ADD SWAP1 POP PUSH2 0x593 PUSH0 DUP4 ADD DUP5 PUSH2 0x571 JUMP JUMPDEST SWAP3 SWAP2 POP POP JUMP JUMPDEST PUSH2 0x5A2 DUP2 PUSH2 0x568 JUMP JUMPDEST DUP2 EQ PUSH2 0x5AC JUMPI PUSH0 DUP1 REVERT JUMPDEST POP JUMP JUMPDEST PUSH0 DUP2 CALLDATALOAD SWAP1 POP PUSH2 0x5BD DUP2 PUSH2 0x599 JUMP JUMPDEST SWAP3 SWAP2 POP POP JUMP JUMPDEST PUSH0 PUSH1 0x20 DUP3 DUP5 SUB SLT ISZERO PUSH2 0x5D8 JUMPI PUSH2 0x5D7 PUSH2 0x4DF JUMP JUMPDEST JUMPDEST PUSH0 PUSH2 0x5E5 DUP5 DUP3 DUP6 ADD PUSH2 0x5AF JUMP JUMPDEST SWAP2 POP POP SWAP3 SWAP2 POP POP JUMP JUMPDEST PUSH2 0x5F7 DUP2 PUSH2 0x502 JUMP JUMPDEST DUP3 MSTORE POP POP JUMP JUMPDEST PUSH0 PUSH1 0x20 DUP3 ADD SWAP1 POP PUSH2 0x610 PUSH0 DUP4 ADD DUP5 PUSH2 0x5EE JUMP JUMPDEST SWAP3 SWAP2 POP POP JUMP JUMPDEST PUSH0 DUP1 PUSH1 0x40 DUP4 DUP6 SUB SLT ISZERO PUSH2 0x62C JUMPI PUSH2 0x62B PUSH2 0x4DF JUMP JUMPDEST JUMPDEST PUSH0 PUSH2 0x639 DUP6 DUP3 DUP7 ADD PUSH2 0x529 JUMP JUMPDEST SWAP3 POP POP PUSH1 0x20 PUSH2 0x64A DUP6 DUP3 DUP7 ADD PUSH2 0x5AF JUMP JUMPDEST SWAP2 POP POP SWAP3 POP SWAP3 SWAP1 POP JUMP JUMPDEST PUSH0 DUP2 MLOAD SWAP1 POP SWAP2 SWAP1 POP JUMP JUMPDEST PUSH0 DUP3 DUP3 MSTORE PUSH1 0x20 DUP3 ADD SWAP1 POP SWAP3 SWAP2 POP POP JUMP JUMPDEST PUSH0 DUP2 SWAP1 POP PUSH1 0x20 DUP3 ADD SWAP1 POP SWAP2 SWAP1 POP JUMP JUMPDEST PUSH2 0x686 DUP2 PUSH2 0x502 JUMP JUMPDEST DUP3 MSTORE POP POP JUMP JUMPDEST PUSH0 PUSH2 0x697 DUP4 DUP4 PUSH2 0x67D JUMP JUMPDEST PUSH1 0x20 DUP4 ADD SWAP1 POP SWAP3 SWAP2 POP POP JUMP JUMPDEST PUSH0 PUSH1 0x20 DUP3 ADD SWAP1 POP SWAP2 SWAP1 POP JUMP JUMPDEST PUSH0 PUSH2 0x6B9 DUP3 PUSH2 0x654 JUMP JUMPDEST PUSH2 0x6C3 DUP2 DUP6 PUSH2 0x65E JUMP JUMPDEST SWAP4 POP PUSH2 0x6CE DUP4 PUSH2 0x66E JUMP JUMPDEST DUP1 PUSH0 JUMPDEST DUP4 DUP2 LT ISZERO PUSH2 0x6FE JUMPI DUP2 MLOAD PUSH2 0x6E5 DUP9 DUP3 PUSH2 0x68C JUMP JUMPDEST SWAP8 POP PUSH2 0x6F0 DUP4 PUSH2 0x6A3 JUMP JUMPDEST SWAP3 POP POP PUSH1 0x1 DUP2 ADD SWAP1 POP PUSH2 0x6D1 JUMP JUMPDEST POP DUP6 SWAP4 POP POP POP POP SWAP3 SWAP2 POP POP JUMP JUMPDEST PUSH0 PUSH1 0x20 DUP3 ADD SWAP1 POP DUP2 DUP2 SUB PUSH0 DUP4 ADD MSTORE PUSH2 0x723 DUP2 DUP5 PUSH2 0x6AF JUMP JUMPDEST SWAP1 POP SWAP3 SWAP2 POP POP JUMP JUMPDEST PUSH0 DUP3 DUP3 MSTORE PUSH1 0x20 DUP3 ADD SWAP1 POP SWAP3 SWAP2 POP POP JUMP JUMPDEST PUSH32 0x616D6F756E74206E6F7420656E6F756768000000000000000000000000000000 PUSH0 DUP3 ADD MSTORE POP JUMP JUMPDEST PUSH0 PUSH2 0x76F PUSH1 0x11 DUP4 PUSH2 0x72B JUMP JUMPDEST SWAP2 POP PUSH2 0x77A DUP3 PUSH2 0x73B JUMP JUMPDEST PUSH1 0x20 DUP3 ADD SWAP1 POP SWAP2 SWAP1 POP JUMP JUMPDEST PUSH0 PUSH1 0x20 DUP3 ADD SWAP1 POP DUP2 DUP2 SUB PUSH0 DUP4 ADD MSTORE PUSH2 0x79C DUP2 PUSH2 0x763 JUMP JUMPDEST SWAP1 POP SWAP2 SWAP1 POP JUMP JUMPDEST PUSH32 0x4E487B7100000000000000000000000000000000000000000000000000000000 PUSH0 MSTORE PUSH1 0x11 PUSH1 0x4 MSTORE PUSH1 0x24 PUSH0 REVERT JUMPDEST PUSH0 PUSH2 0x7DA DUP3 PUSH2 0x568 JUMP JUMPDEST SWAP2 POP PUSH2 0x7E5 DUP4 PUSH2 0x568 JUMP JUMPDEST SWAP3 POP DUP3 DUP3 SUB SWAP1 POP DUP2 DUP2 GT ISZERO PUSH2 0x7FD JUMPI PUSH2 0x7FC PUSH2 0x7A3 JUMP JUMPDEST JUMPDEST SWAP3 SWAP2 POP POP JUMP JUMPDEST PUSH0 PUSH2 0x80D DUP3 PUSH2 0x568 JUMP JUMPDEST SWAP2 POP PUSH2 0x818 DUP4 PUSH2 0x568 JUMP JUMPDEST SWAP3 POP DUP3 DUP3 ADD SWAP1 POP DUP1 DUP3 GT ISZERO PUSH2 0x830 JUMPI PUSH2 0x82F PUSH2 0x7A3 JUMP JUMPDEST JUMPDEST SWAP3 SWAP2 POP POP JUMP JUMPDEST PUSH32 0x65786974206163636F7574000000000000000000000000000000000000000000 PUSH0 DUP3 ADD MSTORE POP JUMP JUMPDEST PUSH0 PUSH2 0x86A PUSH1 0xB DUP4 PUSH2 0x72B JUMP JUMPDEST SWAP2 POP PUSH2 0x875 DUP3 PUSH2 0x836 JUMP JUMPDEST PUSH1 0x20 DUP3 ADD SWAP1 POP SWAP2 SWAP1 POP JUMP JUMPDEST PUSH0 PUSH1 0x20 DUP3 ADD SWAP1 POP DUP2 DUP2 SUB PUSH0 DUP4 ADD MSTORE PUSH2 0x897 DUP2 PUSH2 0x85E JUMP JUMPDEST SWAP1 POP SWAP2 SWAP1 POP JUMP INVALID LOG2 PUSH5 0x6970667358 0x22 SLT KECCAK256 0x26 0xE2 0xEA 0xA9 0xC9 MCOPY 0xF8 SWAP1 0xD1 BALANCE DUP4 EXTCODESIZE 0xDD 0xA9 SWAP8 0xD5 SWAP15 SGT LOG4 0xCC SLT 0xEA 0xBD 0xE2 RETURNDATACOPY 0xE7 0xDE SWAP15 CALLDATASIZE 0x2E 0xB6 0xB2 PUSH5 0x736F6C6343 STOP ADDMOD BYTE STOP CALLER "
				},
				"gasEstimates": {
					"creation": {
						"codeDepositCost": "452000",
						"executionCost": "484",
						"totalCost": "452484"
					},
					"external": {
						"addUser(address)": "75862",
						"allUserBack()": "infinite",
						"points(address)": "2779",
						"transferAmt(address,uint256)": "infinite",
						"users(uint256)": "4944"
					}
				},
				"methodIdentifiers": {
					"addUser(address)": "421b2d8b",
					"allUserBack()": "913ccf97",
					"points(address)": "358b8166",
					"transferAmt(address,uint256)": "3a3547f5",
					"users(uint256)": "365b98b2"
				}
			},
			"storageLayout": {
				"storage": [
					{
						"astId": 5,
						"contract": "contracts/mytest/map.sol:PointsSystem",
						"label": "points",
						"offset": 0,
						"slot": "0",
						"type": "t_mapping(t_address,t_uint256)"
					},
					{
						"astId": 8,
						"contract": "contracts/mytest/map.sol:PointsSystem",
						"label": "users",
						"offset": 0,
						"slot": "1",
						"type": "t_array(t_address)dyn_storage"
					}
				],
				"types": {
					"t_address": {
						"encoding": "inplace",
						"label": "address",
						"numberOfBytes": "20"
					},
					"t_array(t_address)dyn_storage": {
						"base": "t_address",
						"encoding": "dynamic_array",
						"label": "address[]",
						"numberOfBytes": "32"
					},
					"t_mapping(t_address,t_uint256)": {
						"encoding": "mapping",
						"key": "t_address",
						"label": "mapping(address => uint256)",
						"numberOfBytes": "32",
						"value": "t_uint256"
					},
					"t_uint256": {
						"encoding": "inplace",
						"label": "uint256",
						"numberOfBytes": "32"
					}
				}
			},
			"userdoc": {
				"kind": "user",
				"methods": {},
				"version": 1
			}
		}
	}
}