{
	"contracts/mytest/_4value.sol": {
		"SumAll": {
			"abi": [
				{
					"inputs": [],
					"name": "addAll",
					"outputs": [
						{
							"internalType": "uint256",
							"name": "",
							"type": "uint256"
						}
					],
					"stateMutability": "pure",
					"type": "function"
				},
				{
					"inputs": [],
					"name": "getAddress",
					"outputs": [
						{
							"internalType": "address",
							"name": "",
							"type": "address"
						}
					],
					"stateMutability": "view",
					"type": "function"
				}
			],
			"devdoc": {
				"kind": "dev",
				"methods": {},
				"version": 1
			},
			"evm": {
				"assembly": "    /* \"contracts/mytest/_4value.sol\":195:517  contract SumAll {... */\n  mstore(0x40, 0x80)\n  callvalue\n  dup1\n  iszero\n  tag_1\n  jumpi\n  0x00\n  dup1\n  revert\ntag_1:\n  pop\n  dataSize(sub_0)\n  dup1\n  dataOffset(sub_0)\n  0x00\n  codecopy\n  0x00\n  return\nstop\n\nsub_0: assembly {\n        /* \"contracts/mytest/_4value.sol\":195:517  contract SumAll {... */\n      mstore(0x40, 0x80)\n      callvalue\n      dup1\n      iszero\n      tag_1\n      jumpi\n      0x00\n      dup1\n      revert\n    tag_1:\n      pop\n      jumpi(tag_2, lt(calldatasize, 0x04))\n      shr(0xe0, calldataload(0x00))\n      dup1\n      0x38cc4831\n      eq\n      tag_3\n      jumpi\n      dup1\n      0xae3673fb\n      eq\n      tag_4\n      jumpi\n    tag_2:\n      0x00\n      dup1\n      revert\n        /* \"contracts/mytest/_4value.sol\":426:514  function getAddress() public view returns (address) {... */\n    tag_3:\n      tag_5\n      tag_6\n      jump\t// in\n    tag_5:\n      mload(0x40)\n      tag_7\n      swap2\n      swap1\n      tag_8\n      jump\t// in\n    tag_7:\n      mload(0x40)\n      dup1\n      swap2\n      sub\n      swap1\n      return\n        /* \"contracts/mytest/_4value.sol\":218:420  function addAll() public pure  returns(uint){... */\n    tag_4:\n      tag_9\n      tag_10\n      jump\t// in\n    tag_9:\n      mload(0x40)\n      tag_11\n      swap2\n      swap1\n      tag_12\n      jump\t// in\n    tag_11:\n      mload(0x40)\n      dup1\n      swap2\n      sub\n      swap1\n      return\n        /* \"contracts/mytest/_4value.sol\":426:514  function getAddress() public view returns (address) {... */\n    tag_6:\n        /* \"contracts/mytest/_4value.sol\":469:476  address */\n      0x00\n        /* \"contracts/mytest/_4value.sol\":496:506  msg.sender */\n      caller\n        /* \"contracts/mytest/_4value.sol\":489:506  return msg.sender */\n      swap1\n      pop\n        /* \"contracts/mytest/_4value.sol\":426:514  function getAddress() public view returns (address) {... */\n      swap1\n      jump\t// out\n        /* \"contracts/mytest/_4value.sol\":218:420  function addAll() public pure  returns(uint){... */\n    tag_10:\n        /* \"contracts/mytest/_4value.sol\":257:261  uint */\n      0x00\n        /* \"contracts/mytest/_4value.sol\":273:282  uint osum */\n      dup1\n        /* \"contracts/mytest/_4value.sol\":285:286  0 */\n      0x00\n        /* \"contracts/mytest/_4value.sol\":273:286  uint osum = 0 */\n      swap1\n      pop\n        /* \"contracts/mytest/_4value.sol\":302:308  uint i */\n      0x00\n        /* \"contracts/mytest/_4value.sol\":297:389  for (uint i = 0 ; i < 10; i++) ... */\n    tag_15:\n        /* \"contracts/mytest/_4value.sol\":319:321  10 */\n      0x0a\n        /* \"contracts/mytest/_4value.sol\":315:316  i */\n      dup2\n        /* \"contracts/mytest/_4value.sol\":315:321  i < 10 */\n      lt\n        /* \"contracts/mytest/_4value.sol\":297:389  for (uint i = 0 ; i < 10; i++) ... */\n      iszero\n      tag_16\n      jumpi\n        /* \"contracts/mytest/_4value.sol\":365:366  0 */\n      0x00\n        /* \"contracts/mytest/_4value.sol\":360:361  2 */\n      0x02\n        /* \"contracts/mytest/_4value.sol\":356:357  i */\n      dup3\n        /* \"contracts/mytest/_4value.sol\":356:361  i % 2 */\n      tag_18\n      swap2\n      swap1\n      tag_19\n      jump\t// in\n    tag_18:\n        /* \"contracts/mytest/_4value.sol\":356:366  i % 2 != 0 */\n      eq\n        /* \"contracts/mytest/_4value.sol\":353:377  if(i % 2 != 0) osum += i */\n      tag_20\n      jumpi\n        /* \"contracts/mytest/_4value.sol\":376:377  i */\n      dup1\n        /* \"contracts/mytest/_4value.sol\":368:377  osum += i */\n      dup3\n      tag_21\n      swap2\n      swap1\n      tag_22\n      jump\t// in\n    tag_21:\n      swap2\n      pop\n        /* \"contracts/mytest/_4value.sol\":353:377  if(i % 2 != 0) osum += i */\n    tag_20:\n        /* \"contracts/mytest/_4value.sol\":323:326  i++ */\n      dup1\n      dup1\n      0x01\n      add\n      swap2\n      pop\n      pop\n        /* \"contracts/mytest/_4value.sol\":297:389  for (uint i = 0 ; i < 10; i++) ... */\n      jump(tag_15)\n    tag_16:\n      pop\n        /* \"contracts/mytest/_4value.sol\":407:411  osum */\n      dup1\n        /* \"contracts/mytest/_4value.sol\":399:412  return (osum) */\n      swap2\n      pop\n      pop\n        /* \"contracts/mytest/_4value.sol\":218:420  function addAll() public pure  returns(uint){... */\n      swap1\n      jump\t// out\n        /* \"#utility.yul\":7:133   */\n    tag_23:\n        /* \"#utility.yul\":44:51   */\n      0x00\n        /* \"#utility.yul\":84:126   */\n      0xffffffffffffffffffffffffffffffffffffffff\n        /* \"#utility.yul\":77:82   */\n      dup3\n        /* \"#utility.yul\":73:127   */\n      and\n        /* \"#utility.yul\":62:127   */\n      swap1\n      pop\n        /* \"#utility.yul\":7:133   */\n      swap2\n      swap1\n      pop\n      jump\t// out\n        /* \"#utility.yul\":139:235   */\n    tag_24:\n        /* \"#utility.yul\":176:183   */\n      0x00\n        /* \"#utility.yul\":205:229   */\n      tag_33\n        /* \"#utility.yul\":223:228   */\n      dup3\n        /* \"#utility.yul\":205:229   */\n      tag_23\n      jump\t// in\n    tag_33:\n        /* \"#utility.yul\":194:229   */\n      swap1\n      pop\n        /* \"#utility.yul\":139:235   */\n      swap2\n      swap1\n      pop\n      jump\t// out\n        /* \"#utility.yul\":241:359   */\n    tag_25:\n        /* \"#utility.yul\":328:352   */\n      tag_35\n        /* \"#utility.yul\":346:351   */\n      dup2\n        /* \"#utility.yul\":328:352   */\n      tag_24\n      jump\t// in\n    tag_35:\n        /* \"#utility.yul\":323:326   */\n      dup3\n        /* \"#utility.yul\":316:353   */\n      mstore\n        /* \"#utility.yul\":241:359   */\n      pop\n      pop\n      jump\t// out\n        /* \"#utility.yul\":365:587   */\n    tag_8:\n        /* \"#utility.yul\":458:462   */\n      0x00\n        /* \"#utility.yul\":496:498   */\n      0x20\n        /* \"#utility.yul\":485:494   */\n      dup3\n        /* \"#utility.yul\":481:499   */\n      add\n        /* \"#utility.yul\":473:499   */\n      swap1\n      pop\n        /* \"#utility.yul\":509:580   */\n      tag_37\n        /* \"#utility.yul\":577:578   */\n      0x00\n        /* \"#utility.yul\":566:575   */\n      dup4\n        /* \"#utility.yul\":562:579   */\n      add\n        /* \"#utility.yul\":553:559   */\n      dup5\n        /* \"#utility.yul\":509:580   */\n      tag_25\n      jump\t// in\n    tag_37:\n        /* \"#utility.yul\":365:587   */\n      swap3\n      swap2\n      pop\n      pop\n      jump\t// out\n        /* \"#utility.yul\":593:670   */\n    tag_26:\n        /* \"#utility.yul\":630:637   */\n      0x00\n        /* \"#utility.yul\":659:664   */\n      dup2\n        /* \"#utility.yul\":648:664   */\n      swap1\n      pop\n        /* \"#utility.yul\":593:670   */\n      swap2\n      swap1\n      pop\n      jump\t// out\n        /* \"#utility.yul\":676:794   */\n    tag_27:\n        /* \"#utility.yul\":763:787   */\n      tag_40\n        /* \"#utility.yul\":781:786   */\n      dup2\n        /* \"#utility.yul\":763:787   */\n      tag_26\n      jump\t// in\n    tag_40:\n        /* \"#utility.yul\":758:761   */\n      dup3\n        /* \"#utility.yul\":751:788   */\n      mstore\n        /* \"#utility.yul\":676:794   */\n      pop\n      pop\n      jump\t// out\n        /* \"#utility.yul\":800:1022   */\n    tag_12:\n        /* \"#utility.yul\":893:897   */\n      0x00\n        /* \"#utility.yul\":931:933   */\n      0x20\n        /* \"#utility.yul\":920:929   */\n      dup3\n        /* \"#utility.yul\":916:934   */\n      add\n        /* \"#utility.yul\":908:934   */\n      swap1\n      pop\n        /* \"#utility.yul\":944:1015   */\n      tag_42\n        /* \"#utility.yul\":1012:1013   */\n      0x00\n        /* \"#utility.yul\":1001:1010   */\n      dup4\n        /* \"#utility.yul\":997:1014   */\n      add\n        /* \"#utility.yul\":988:994   */\n      dup5\n        /* \"#utility.yul\":944:1015   */\n      tag_27\n      jump\t// in\n    tag_42:\n        /* \"#utility.yul\":800:1022   */\n      swap3\n      swap2\n      pop\n      pop\n      jump\t// out\n        /* \"#utility.yul\":1028:1208   */\n    tag_28:\n        /* \"#utility.yul\":1076:1153   */\n      0x4e487b7100000000000000000000000000000000000000000000000000000000\n        /* \"#utility.yul\":1073:1074   */\n      0x00\n        /* \"#utility.yul\":1066:1154   */\n      mstore\n        /* \"#utility.yul\":1173:1177   */\n      0x12\n        /* \"#utility.yul\":1170:1171   */\n      0x04\n        /* \"#utility.yul\":1163:1178   */\n      mstore\n        /* \"#utility.yul\":1197:1201   */\n      0x24\n        /* \"#utility.yul\":1194:1195   */\n      0x00\n        /* \"#utility.yul\":1187:1202   */\n      revert\n        /* \"#utility.yul\":1214:1390   */\n    tag_19:\n        /* \"#utility.yul\":1246:1247   */\n      0x00\n        /* \"#utility.yul\":1263:1283   */\n      tag_45\n        /* \"#utility.yul\":1281:1282   */\n      dup3\n        /* \"#utility.yul\":1263:1283   */\n      tag_26\n      jump\t// in\n    tag_45:\n        /* \"#utility.yul\":1258:1283   */\n      swap2\n      pop\n        /* \"#utility.yul\":1297:1317   */\n      tag_46\n        /* \"#utility.yul\":1315:1316   */\n      dup4\n        /* \"#utility.yul\":1297:1317   */\n      tag_26\n      jump\t// in\n    tag_46:\n        /* \"#utility.yul\":1292:1317   */\n      swap3\n      pop\n        /* \"#utility.yul\":1336:1337   */\n      dup3\n        /* \"#utility.yul\":1326:1361   */\n      tag_47\n      jumpi\n        /* \"#utility.yul\":1341:1359   */\n      tag_48\n      tag_28\n      jump\t// in\n    tag_48:\n        /* \"#utility.yul\":1326:1361   */\n    tag_47:\n        /* \"#utility.yul\":1382:1383   */\n      dup3\n        /* \"#utility.yul\":1379:1380   */\n      dup3\n        /* \"#utility.yul\":1375:1384   */\n      mod\n        /* \"#utility.yul\":1370:1384   */\n      swap1\n      pop\n        /* \"#utility.yul\":1214:1390   */\n      swap3\n      swap2\n      pop\n      pop\n      jump\t// out\n        /* \"#utility.yul\":1396:1576   */\n    tag_29:\n        /* \"#utility.yul\":1444:1521   */\n      0x4e487b7100000000000000000000000000000000000000000000000000000000\n        /* \"#utility.yul\":1441:1442   */\n      0x00\n        /* \"#utility.yul\":1434:1522   */\n      mstore\n        /* \"#utility.yul\":1541:1545   */\n      0x11\n        /* \"#utility.yul\":1538:1539   */\n      0x04\n        /* \"#utility.yul\":1531:1546   */\n      mstore\n        /* \"#utility.yul\":1565:1569   */\n      0x24\n        /* \"#utility.yul\":1562:1563   */\n      0x00\n        /* \"#utility.yul\":1555:1570   */\n      revert\n        /* \"#utility.yul\":1582:1773   */\n    tag_22:\n        /* \"#utility.yul\":1622:1625   */\n      0x00\n        /* \"#utility.yul\":1641:1661   */\n      tag_51\n        /* \"#utility.yul\":1659:1660   */\n      dup3\n        /* \"#utility.yul\":1641:1661   */\n      tag_26\n      jump\t// in\n    tag_51:\n        /* \"#utility.yul\":1636:1661   */\n      swap2\n      pop\n        /* \"#utility.yul\":1675:1695   */\n      tag_52\n        /* \"#utility.yul\":1693:1694   */\n      dup4\n        /* \"#utility.yul\":1675:1695   */\n      tag_26\n      jump\t// in\n    tag_52:\n        /* \"#utility.yul\":1670:1695   */\n      swap3\n      pop\n        /* \"#utility.yul\":1718:1719   */\n      dup3\n        /* \"#utility.yul\":1715:1716   */\n      dup3\n        /* \"#utility.yul\":1711:1720   */\n      add\n        /* \"#utility.yul\":1704:1720   */\n      swap1\n      pop\n        /* \"#utility.yul\":1739:1742   */\n      dup1\n        /* \"#utility.yul\":1736:1737   */\n      dup3\n        /* \"#utility.yul\":1733:1743   */\n      gt\n        /* \"#utility.yul\":1730:1766   */\n      iszero\n      tag_53\n      jumpi\n        /* \"#utility.yul\":1746:1764   */\n      tag_54\n      tag_29\n      jump\t// in\n    tag_54:\n        /* \"#utility.yul\":1730:1766   */\n    tag_53:\n        /* \"#utility.yul\":1582:1773   */\n      swap3\n      swap2\n      pop\n      pop\n      jump\t// out\n\n    auxdata: 0xa264697066735822122008988d2b20209d4ab606d6d0fb6931014410345bfd40248321a7ff279755335564736f6c634300081a0033\n}\n",
				"bytecode": {
					"linkReferences": {},
					"object": "6080604052348015600e575f80fd5b5061023e8061001c5f395ff3fe608060405234801561000f575f80fd5b5060043610610034575f3560e01c806338cc483114610038578063ae3673fb14610056575b5f80fd5b610040610074565b60405161004d9190610101565b60405180910390f35b61005e61007b565b60405161006b9190610132565b60405180910390f35b5f33905090565b5f805f90505f5b600a8110156100ba575f6002826100999190610178565b146100ad5780826100aa91906101d5565b91505b8080600101915050610082565b508091505090565b5f73ffffffffffffffffffffffffffffffffffffffff82169050919050565b5f6100eb826100c2565b9050919050565b6100fb816100e1565b82525050565b5f6020820190506101145f8301846100f2565b92915050565b5f819050919050565b61012c8161011a565b82525050565b5f6020820190506101455f830184610123565b92915050565b7f4e487b71000000000000000000000000000000000000000000000000000000005f52601260045260245ffd5b5f6101828261011a565b915061018d8361011a565b92508261019d5761019c61014b565b5b828206905092915050565b7f4e487b71000000000000000000000000000000000000000000000000000000005f52601160045260245ffd5b5f6101df8261011a565b91506101ea8361011a565b9250828201905080821115610202576102016101a8565b5b9291505056fea264697066735822122008988d2b20209d4ab606d6d0fb6931014410345bfd40248321a7ff279755335564736f6c634300081a0033",
					"opcodes": "PUSH1 0x80 PUSH1 0x40 MSTORE CALLVALUE DUP1 ISZERO PUSH1 0xE JUMPI PUSH0 DUP1 REVERT JUMPDEST POP PUSH2 0x23E DUP1 PUSH2 0x1C PUSH0 CODECOPY PUSH0 RETURN INVALID PUSH1 0x80 PUSH1 0x40 MSTORE CALLVALUE DUP1 ISZERO PUSH2 0xF JUMPI PUSH0 DUP1 REVERT JUMPDEST POP PUSH1 0x4 CALLDATASIZE LT PUSH2 0x34 JUMPI PUSH0 CALLDATALOAD PUSH1 0xE0 SHR DUP1 PUSH4 0x38CC4831 EQ PUSH2 0x38 JUMPI DUP1 PUSH4 0xAE3673FB EQ PUSH2 0x56 JUMPI JUMPDEST PUSH0 DUP1 REVERT JUMPDEST PUSH2 0x40 PUSH2 0x74 JUMP JUMPDEST PUSH1 0x40 MLOAD PUSH2 0x4D SWAP2 SWAP1 PUSH2 0x101 JUMP JUMPDEST PUSH1 0x40 MLOAD DUP1 SWAP2 SUB SWAP1 RETURN JUMPDEST PUSH2 0x5E PUSH2 0x7B JUMP JUMPDEST PUSH1 0x40 MLOAD PUSH2 0x6B SWAP2 SWAP1 PUSH2 0x132 JUMP JUMPDEST PUSH1 0x40 MLOAD DUP1 SWAP2 SUB SWAP1 RETURN JUMPDEST PUSH0 CALLER SWAP1 POP SWAP1 JUMP JUMPDEST PUSH0 DUP1 PUSH0 SWAP1 POP PUSH0 JUMPDEST PUSH1 0xA DUP2 LT ISZERO PUSH2 0xBA JUMPI PUSH0 PUSH1 0x2 DUP3 PUSH2 0x99 SWAP2 SWAP1 PUSH2 0x178 JUMP JUMPDEST EQ PUSH2 0xAD JUMPI DUP1 DUP3 PUSH2 0xAA SWAP2 SWAP1 PUSH2 0x1D5 JUMP JUMPDEST SWAP2 POP JUMPDEST DUP1 DUP1 PUSH1 0x1 ADD SWAP2 POP POP PUSH2 0x82 JUMP JUMPDEST POP DUP1 SWAP2 POP POP SWAP1 JUMP JUMPDEST PUSH0 PUSH20 0xFFFFFFFFFFFFFFFFFFFFFFFFFFFFFFFFFFFFFFFF DUP3 AND SWAP1 POP SWAP2 SWAP1 POP JUMP JUMPDEST PUSH0 PUSH2 0xEB DUP3 PUSH2 0xC2 JUMP JUMPDEST SWAP1 POP SWAP2 SWAP1 POP JUMP JUMPDEST PUSH2 0xFB DUP2 PUSH2 0xE1 JUMP JUMPDEST DUP3 MSTORE POP POP JUMP JUMPDEST PUSH0 PUSH1 0x20 DUP3 ADD SWAP1 POP PUSH2 0x114 PUSH0 DUP4 ADD DUP5 PUSH2 0xF2 JUMP JUMPDEST SWAP3 SWAP2 POP POP JUMP JUMPDEST PUSH0 DUP2 SWAP1 POP SWAP2 SWAP1 POP JUMP JUMPDEST PUSH2 0x12C DUP2 PUSH2 0x11A JUMP JUMPDEST DUP3 MSTORE POP POP JUMP JUMPDEST PUSH0 PUSH1 0x20 DUP3 ADD SWAP1 POP PUSH2 0x145 PUSH0 DUP4 ADD DUP5 PUSH2 0x123 JUMP JUMPDEST SWAP3 SWAP2 POP POP JUMP JUMPDEST PUSH32 0x4E487B7100000000000000000000000000000000000000000000000000000000 PUSH0 MSTORE PUSH1 0x12 PUSH1 0x4 MSTORE PUSH1 0x24 PUSH0 REVERT JUMPDEST PUSH0 PUSH2 0x182 DUP3 PUSH2 0x11A JUMP JUMPDEST SWAP2 POP PUSH2 0x18D DUP4 PUSH2 0x11A JUMP JUMPDEST SWAP3 POP DUP3 PUSH2 0x19D JUMPI PUSH2 0x19C PUSH2 0x14B JUMP JUMPDEST JUMPDEST DUP3 DUP3 MOD SWAP1 POP SWAP3 SWAP2 POP POP JUMP JUMPDEST PUSH32 0x4E487B7100000000000000000000000000000000000000000000000000000000 PUSH0 MSTORE PUSH1 0x11 PUSH1 0x4 MSTORE PUSH1 0x24 PUSH0 REVERT JUMPDEST PUSH0 PUSH2 0x1DF DUP3 PUSH2 0x11A JUMP JUMPDEST SWAP2 POP PUSH2 0x1EA DUP4 PUSH2 0x11A JUMP JUMPDEST SWAP3 POP DUP3 DUP3 ADD SWAP1 POP DUP1 DUP3 GT ISZERO PUSH2 0x202 JUMPI PUSH2 0x201 PUSH2 0x1A8 JUMP JUMPDEST JUMPDEST SWAP3 SWAP2 POP POP JUMP INVALID LOG2 PUSH5 0x6970667358 0x22 SLT KECCAK256 ADDMOD SWAP9 DUP14 0x2B KECCAK256 KECCAK256 SWAP14 BLOBBASEFEE 0xB6 MOD 0xD6 0xD0 0xFB PUSH10 0x31014410345BFD402483 0x21 0xA7 SELFDESTRUCT 0x27 SWAP8 SSTORE CALLER SSTORE PUSH5 0x736F6C6343 STOP ADDMOD BYTE STOP CALLER "
				},
				"gasEstimates": {
					"creation": {
						"codeDepositCost": "114800",
						"executionCost": "157",
						"totalCost": "114957"
					},
					"external": {
						"addAll()": "infinite",
						"getAddress()": "357"
					}
				},
				"methodIdentifiers": {
					"addAll()": "ae3673fb",
					"getAddress()": "38cc4831"
				}
			},
			"storageLayout": {
				"storage": [],
				"types": null
			},
			"userdoc": {
				"kind": "user",
				"methods": {},
				"version": 1
			}
		}
	}
}